:1000000000000420750300005D0300005F03000092
:1000100061030000630300006503000000000000AE
:100020000000000000000000000000006703000066
:1000300069030000000000006B0300006D03000076
:100040006F0300006F030000191600006F0300002B
:100050006F0300006F0300006F0300008D160000A7
:10006000091B00006F0300006F0300006F03000016
:100070006F0300006F0300006F0300006F030000B8
:100080006F0300006F0300006F0300006F030000A8
:100090006F0300006F0300006F0300006F03000098
:1000A0006F0300006F0300006F0300006F03000088
:1000B0006F0300006F03000000000000000000005C
:1000C0006F0300006F0300006F0300006F03000068
:1000D0006F0300006F0300006F0300006F03000058
:1000E0006F0300006F0300006F03000000000000BA
:1000F000000000006F030000000000006F0300001C
:1001000000000000000000000000000000000000EF
:1001100000000000000000000000000000000000DF
:1001200000000000000000000000000000000000CF
:1001300000000000000000000000000000000000BF
:1001400000000000000000000000000000000000AF
:10015000000000000000000000000000000000009F
:10016000000000000000000000000000000000008F
:10017000000000000000000000000000000000007F
:10018000000000000000000000000000000000006F
:10019000000000000000000000000000000000005F
:1001A000000000000000000000000000000000004F
:1001B000000000000000000000000000000000003F
:1001C000000000000000000000000000000000002F
:1001D000000000000000000000000000000000001F
:1001E000000000000000000000000000000000000F
:1001F00000000000000000000000000000000000FF
:10020000354936480A1A02D0072291438D463449AF
:1002100034480A1A06D00722914381F30988022242
:1002200082F3148830483149314A00F044F83148AB
:100230003149324A00F03FF831483249324A00F041
:100240003AF832483249334A00F035F832483349F7
:10025000334A00F030F833483349344A00F02BF881
:1002600033483449344A00F026F8344834490022EF
:1002700000F02CF833483449002200F027F83348C6
:100280003349091A082902DB002202604160314A21
:1002900090471F481F49884205D00268043003B4C4
:1002A000904703BCF7E700208646EC46002000217B
:1002B000294A9047FEE7884207D0521A05D00378B2
:1002C00001300B700131013AF9D17047884202D0F8
:1002D00002700130FAE770470000042000E00320BC
:1002E0000000042000000420A045000000000020C1
:1002F00034000020D0030000D0030000C03F000005
:10030000A045000000000020000000202440000064
:10031000244000002440000024400000244000004D
:10032000244000002440000024400000A0450000BC
:10033000D4450000340000203400002034000020A8
:100340006C0900206C090020700900207009002051
:10035000702900209D030000B5260000FEE7FEE79F
:10036000FEE7FEE7FEE7FEE7FEE7FEE7FEE7FEE765
:1003700000F002B8FFF7FCBF0F484FF007018843B9
:1003800085460E4880470E48016841F470010160BF
:10039000BFF34F8FBFF36F8FFFF732BF09480A4992
:1003A0000A4A884207D0521A05D0037801300B70F0
:1003B0000131013AF9D17047000004202D290000D5
:1003C00088ED00E024400000000000200000002034
:1003D0000048704764090020F0B595B01D461646E8
:1003E00008460C4600F0CEFF1A9B0D93CDE9086538
:1003F00000252B46082205A920460A958DF82C5089
:100400000C9500F0DBFF079B0293069B03939DF87E
:1004100014308DF8115003F00302012A1DD1BDF8EC
:100420001420059DC3F3C203C2F383168DF8103068
:10043000B20008230EA9204600F0C0FFC5F39525A1
:1004400008AB0093324602AB0EA9284600F090FBA1
:10045000204600F09BFF15B0F0BD022AF8D1BDF890
:100460001650C3F3C203C5F389158DF81030082761
:10047000082D2E4628BF08263B4632460EA92046A8
:1004800000F09CFFAD1B08AB02AA31460EA8374412
:1004900000F0D2FB002DEBD1DAE70000014B012286
:1004A0001A707047750000207047000070B50E4D3F
:1004B00006460FCD88B06C460FC495E80F00002E9D
:1004C00084E80F00094A0A484FF0060308BF0022DB
:1004D0006946009300F0FEFF08B100F00DFC054BEB
:1004E0001E7008B070BD00BF244000009D040000D5
:1004F000000000203400002007B5044B0093044A9C
:100500004023FFF769FF03B05DF804FB1505000009
:100510003500002038B50D480D4C0E4D00232370DA
:100520000378EB5CD2B263B1043001F0ADFF08B1E7
:1005300000F0E2FB084B1A7812B12378002BFBD0B5
:1005400038BD0C3001F030FDF1E700BF00000020A5
:1005500075000020280600203400002008B5084857
:10056000084A0378D35C3BB1043001F0FDFEBDE8DE
:1005700008400020FFF79ABF0C3001F0ADFCF6E711
:1005800000000020280600200120FFF78FBF000098
:1005900008B5FFF7F9FF0448042100F053FA034BB4
:1005A00001225A7108BD00BF004000001400002065
:1005B000037813F0040216D003F00303012B03D0D9
:1005C000022B09D0012070470A6800880232C0F36C
:1005D000831002440A60F5E70B684288023303EB9C
:1005E00092130B60EEE71046704700002DE9F04FC4
:1005F000DFF810A10F4685B00446861C0020154682
:1006000000F0D0FBDAF804203A60DAF8083003F59D
:1006100080739B1A0AF21C470AF583690AF2144890
:10062000B34219D30020002D68D004F00F039B01C2
:1006300043F0050363F30F00DAF80430DAB2033253
:1006400033444AF822000020CAF8043000F0ACFB22
:10065000012005B0BDE8F08F0121384600F0C9FB4C
:10066000484600F0DEFB404600F0DBFBDAF808000D
:100670000090C0B203300AEB80006946FFF798FF94
:10068000009B30BBDAB20AEB8202D16801919A1C5E
:100690000133DBB20AEB83030092D3F80CB001F014
:1006A0000303012B22D0022B15D08346404600F0D5
:1006B000BBFB10B1009BCAF808305946384600F021
:1006C00098FBDAF80830DAF8042003F580739B1AF7
:1006D000A6E7D8B2CEE7BDF80630C3F389130333DB
:1006E0004FEA1B4B02EB93030093DFE7BDF80430A6
:1006F000C3F383134FEA1B4B1344F5E7A40544F0FF
:10070000060099E748010020064B074810B5002273
:100710001A7000F0F0FD044610B9044800F088FE9D
:10072000204610BD48010020104000007840000025
:1007300030B50A4C71B10A4A0A49121BD20800238B
:100740009A4201D1002030BD31F82350854202D0B9
:100750000133F5E7034654F83300F4E7C03F0000E7
:100760000040000000000020094B013903EBC000ED
:10077000032909D8DFE801F00A02040604207047C3
:100780000079704740797047002070470220704719
:10079000C03F000070470000034BD3E90130C31A8B
:1007A00058425841704700BF480100202DE9FF41E1
:1007B000FFF7F2FF0546002840F0E980754CC4F8C9
:1007C0001804BFF34F8FA3680093DBB2033304EB2D
:1007D00083006946FFF7ECFE009B18B1D4F818249B
:1007E000002A5AD0DAB2991C013304EB8202DBB240
:1007F00004EB8303D268DB68029302F00303022B4D
:100800000192009154D1BDF806306348C3F38917B3
:10081000502F3E4628BF502606F1080166F38F137D
:10082000C1F30901ADF8063000F07DFD0546002852
:1008300000F0988000F0A6FD0023082201A92846B8
:1008400000F0B2FD0099CB43DBB20133C9B20331F2
:10085000B6EB830F4FEA830204EB810125D95FFADF
:1008600082F80823A6EB0806284600F09DFDF6B2A4
:1008700008F10803494903F0FC033246284600F01A
:1008800093FD009B033703EB97070097D4F81834C8
:10089000002B43D1D4F8106453E062689A4294D894
:1008A000A260284604B0BDE8F08108233246E5E79F
:1008B000012B57D1BDF804303748C3F38311062903
:1008C00028BF062161F38913023101F00F0189006D
:1008D000ADF8043000F027FD0546002842D000F0B6
:1008E00051FD0023082201A9284600F05DFD0026E5
:1008F000BDF80420C2F38312B300964203F108034B
:10090000C4D200994A1CC9B20331009204EB8101A0
:100910000422284600F048FD0136E9E7284600F0A9
:1009200035FDFFF739FF80F00100C5B2B9E7F36884
:100930005B7923B1336829461B6830469847F368D2
:100940001E68002EF3D1284600F020FD304600F04E
:1009500029FAD4F818340BB9009BA360002000F0EA
:1009600023FADEE7D4F8104454B90D4B0D480E4974
:10097000C01AC008000440F0020000F05FF8D0E7A1
:10098000236820469B689847E3681C68ECE70025CD
:1009900087E700BF480100201040000054010020FC
:1009A000C03F0000F03F0000614000002DE9F34728
:1009B00004460E46924601A9012218469946FFF7C1
:1009C00015FE1C4F10B3019D4FF00008AA1CC8452E
:1009D00008EB020125D11848002100F0E7F980F367
:1009E0001000000440EA1440E4006B1C04F03804DA
:1009F000DBB2EDB244F0010407EB8303033544EAB4
:100A0000881444EA8624D86047F825403B781BB117
:100A1000FFF7CCFE0028FBD1FFF7BCFE02B0BDE81B
:100A2000F087C9B207EB81015AF82830CB6008F192
:100A30000108CCE7480100206405002000231A4685
:100A4000FFF7B4BF30B50F4CD4F810240346002094
:100A5000114631B9D96808714AB9C4F810340A602E
:100A600030BDC9680D79854206D00968F1E7D268C2
:100A700014680C601360F3E701300A28E8D14FF0E6
:100A8000FF30EDE74801002038B5084B0125D3F8C9
:100A900010441D7004B938BDE3685D7123682046B9
:100AA0005B689847E3681C68F4E700BF48010020D2
:100AB00030B5C38885B004460D4633B1144A009260
:100AC0001449154A284600F009FA217A05291DD053
:100AD000637A4BB1A088FFF747FE104B104953F8DB
:100AE0002020284600F0FAF9227A0E4BA08853F80D
:100AF000222003920021FFF71BFE039A0A490346B6
:100B0000284605B0BDE8304000F0E8B905B030BD7A
:100B1000A44000008C400000844000001041000010
:100B2000A940000034410000AC40000007B5034676
:100B30000846197A052911D05B7A2BB1094A0A496E
:100B4000019000F0CBF901980849019000F0C6F936
:100B5000019803B05DF804EB00F0B5B9002AF8D0B5
:100B6000F2E700BFA4400000A9400000A14000003F
:100B70002DE9F04385B01F460C9D002395F80C909D
:100B80002B7306460C46904629463846FFF790FFE1
:100B9000B8F1060F09D8DFE808F00412181F28334F
:100BA00040003146284600F099F90022294638468F
:100BB000FFF7BCFF85F80C9005B0BDE8F083226814
:100BC0003146284600F08AF9EFE7D4E900233146A0
:100BD000284600F083F9E8E7A36800933146D4E99A
:100BE0000023284600F07AF9DFE7E3680193A36861
:100BF00000933146D4E90023284600F06FF9D4E78A
:100C000023690293E3680193A36800933146D4E912
:100C10000023284600F062F9C7E76369039323695C
:100C20000293E3680193A36800933146D4E900235B
:100C3000284600F053F9B8E708292DE9F74F804618
:100C40000E4617461C463DD800251B7B25732146C2
:100C500010460193FFF72CFFDFF88CA0DFF88CB073
:100C6000AE4232D918F805205946204600F036F930
:100C70000135082DF4D11B49DFF874A0DFF874B0FA
:100C8000204600F02BF94FF000094E4524D918F802
:100C900009507E2D1ED8284602F000F9002814BF06
:100CA0002A462E225946204600F018F909F101097A
:100CB000B9F1080FE9D1012221463846FFF736FF86
:100CC000019B237303B0BDE8F08F5146204600F02E
:100CD00005F9CDE72E22E5E75146204600F0FEF863
:100CE000E4E700BFC0400000BC400000B640000088
:100CF000BE400000C24000001FB50021039001AAC1
:100D000044F20100CDE9011100F004F805B05DF8EE
:100D100004FB000038B572B6FFF7B6FEFFF746FDDC
:100D20000028FBD1104B114C114D1249E41AE40874
:100D3000240444F00100FFF781FED5F8F030DB0712
:100D400000D500BE0C4944F00200FFF777FEBFF368
:100D50004F8FEA68094B02F4E0621343EB60BFF384
:100D60004F8F00BFFDE700BFC03F0000F03F000015
:100D700000ED00E048410000544100000400FA0585
:100D800072B6024A136801331360704700060020F0
:100D9000034A1368013B136003B962B6704700BF92
:100DA00000060020FFF7ECBFFFF7F2BF10B50346C7
:100DB00053E8000F0A4643E8002494F0000FF7D1EF
:100DC00010BD10B5034653E8002F42EA010043E886
:100DD000000494F0000FF6D110BD10B5034653E89F
:100DE000000F00EA010243E8002494F0000FF6D15E
:100DF00010BD10B5034653E8002F02EB010043E895
:100E0000000494F0000FF6D110BD10B5034653E86E
:100E1000002FA2EB010043E8000494F0000FF6D18C
:100E200010BD0121FFF7CDBF0021FFF7D6BF10B5E0
:100E300090B1D0E9012301689B1ADBB20A60013B43
:100E4000DBB2FF2B026802D10020107110BD1168C7
:100E50004C1C14600B70F2E70E20F7E738B504461F
:100E60000020FFF79FFF226863681168994213D939
:100E7000481E106011F8013CE568218A01FB03550A
:100E8000A36811791B1ADBB2994200D213710020BA
:100E9000FFF78AFF284638BD0025F8E738B5054634
:100EA00000200C46FFF77EFF2A681368591C11606A
:100EB000E968641A298AB4FBF1F41C70BDE8384073
:100EC0000020FFF771BF826810B504462AB143695C
:100ED0000168006998470023A36010BD0EB403B5F4
:100EE000039921B104AB01AA019300F077F802B095
:100EF0005DF804EB03B070470A2938B504460D4687
:100F000002D10D21FFF7F8FFA3682268591CA160E8
:100F1000D554D4E901329A4204D32046BDE8384082
:100F2000FFF7D1BF38BD00002DE9F84F9846DDE945
:100F30000A43154682460F460A464FF00109AA4267
:100F40000FD2C14538BFC14613F0010B01D16CB9B6
:100F500000240126B8F1010F1BD908F1FF386E43B8
:100F6000F8E709F10109B2FBF5F2E8E79B070ED5B6
:100F7000B8F1000F0CBF30262026A145E9D2013C74
:100F800031465046FFF7B8FF002CF6D1E0E72026A7
:100F9000F3E7B7FBF6F39D42E1D9DFF83C80B7FBFE
:100FA000F6F3504618F8031006FB1377FFF7A4FF7B
:100FB0003346AB42B6FBF5F6F1D2BBF1000F02D0DF
:100FC0000CB1A14501D3BDE8F88F20215046013C6A
:100FD000FFF792FFF4E700BF614100002DE9F74FF2
:100FE000054617468846002900F03E8118F8011B87
:100FF00049B92B7B002B00F03781284603B0BDE8B0
:10100000F04FFFF760BF252940F0B780002698F821
:1010100000302D2B424608F1010823D0302B24D07C
:101020002B2B25D000242A2B02F1010123D13B6870
:101030001A1D1B683A601C440A4613782E2B26D1D1
:1010400001324FF0000A104610F8011BA1F1300CDC
:10105000BCF1090F1DD80A2303FB0A13A3F1300AC0
:101060000246F0E746F00106D1E746F00206CEE779
:1010700046F00406CBE711F8013CA3F13000092843
:10108000DBD80A2202FB0434303C0A46CBE74FF09F
:10109000000A12F8011B01F0FB0068289046F8D006
:1010A000782909D86F290CD8632962D022D825293C
:1010B00063D0582900F0888098F80030002B95D133
:1010C00097E770390829F7D801A353F821F000BF3A
:1010D00043120000B9100000B9100000D91100003F
:1010E000B9100000B7110000B9100000B9100000DD
:1010F000C9110000642901D06929DDD13A68D2F80C
:101100000090111D89EAE9723960A2EBE9724FF093
:10111000010B092A35DCD34538BFD3462CB1B9F1D0
:10112000000F01DB720700D5013CB30702D5BAF10D
:10113000000F03D0F00701D44CBB0024B9F1000F1D
:101140002DDAC9F100092D212846FFF7D5FE06F05A
:101150000302022A04D1BAF1000F01D11CBB002402
:10116000CDE9004653460A2249462846FFF7DCFEF1
:10117000A2E73B681A1D19783A602846FFF7BCFEC3
:101180009AE70A230BF1010BB2FBF3F2C1E7A34587
:10119000D4D220212846013CFFF7AEFECCE77107F0
:1011A000D5D52B21D0E7A345DAD230212846013C02
:1011B000FFF7A2FED2E73968CDE900460A1D3A6082
:1011C00053460A220968D0E739680A1D3A60CDE91A
:1011D000004653461022F5E73B681A1D3A6016F0A8
:1011E0000106D3F8009024D1B9F1000F03D048468E
:1011F00001F0D5FE0646B4421DD809F1FF3919F8B1
:10120000011F00293FF458AF2846FFF775FEF6E7A7
:1012100028460136FFF770FE19F806100029F7D1AD
:10122000A642BFF449AF20212846013CFFF764FEE7
:10123000F6E70026F0E720212846013CFFF75CFE98
:10124000D9E73B681A1D3A60302128461C68FFF731
:1012500053FE78212846FFF74FFE00220823CDE9F0
:1012600000322146102280E703B0BDE8F08F00BFB6
:101270002DE9F84FB0F806A04579D2F800B09DF8F6
:1012800028900AFB05F5043D88460BEB0301A942B3
:1012900003F1040488BFA5EB030BB4FBFAF6074681
:1012A0000AFB1644C2F800B04EB9AAEB04055D452E
:1012B00028BF5D46BBF1000F04D1BDE8F88F3F6841
:1012C000013EF1E7043408EB06003C442A46B9F13C
:1012D000000F0DD02146ABEB050B01F015FEDA45F2
:1012E0002E443F6855464FF0000428BF5D46E1E7B5
:1012F00001462046EFE7FFF79ABDF8B5467901466B
:10130000721E0546002393422D6803D30024A64293
:1013100002D8F8BD0133F6E70F682846FFF7BEFD97
:1013200001343946F3E72DE9F843068ACD1C074618
:10133000FFF794FD043E35440446B5FBF6F5F0B1E5
:101340004FF48073EDB28380C680013D0760814613
:101350004FF00008A84512D23846FFF77FFD064639
:1013600048B163790133637108F10108C9F80000DD
:1013700007608146EEE72046FFF7BFFF3446204670
:10138000BDE8F88301210430FFF733BD10B501211A
:1013900004460430FFF739FDC0B220B92046BDE84D
:1013A0001040FFF7AABF10BD1FB5039200220092A4
:1013B00003AAFFF75DFF05B05DF804FB1FB50392BC
:1013C0000122009203AAFFF753FF05B05DF804FB6A
:1013D000064B10B500241C70054B1C60BFF35F8FDB
:1013E0000449054800F02DF8204610BD0C060020E9
:1013F000100600207C4100000406002008B50020F3
:10140000FFF7D0FCF1EE103A23F09F03E1EE103A23
:10141000BFF35F8F054B4022C3F884210020FFF704
:10142000C3FC20BF40BF20BF08BD00BF00E100E0FB
:10143000836800225A60C3E904229A60DA601A6065
:1014400070470B684A684360934208BF00230160FD
:1014500008BF436070470000034B187810B90122A1
:101460001A70704785207047140600201FB5037856
:101470008DF800304368019383688DF80830C368A5
:10148000054A0393054B684653F8213052F8211062
:10149000984705B05DF804FB1806002020060020E0
:1014A0001FB503788DF800304368019383688DF889
:1014B0000830C368054A0393054B684653F821304A
:1014C00052F82110984705B05DF804FB180600207B
:1014D00020060020F0B5194B90F800C0DFF86CE052
:1014E00043F82C20164B16460A6943F82C204B7FF4
:1014F0000EF80C300C4607460FCC89B06D460FC570
:1015000094E80F0085E80F003B78CDF810C01EF876
:1015100003304BB1002E0B4A694608BF3246381DD6
:1015200000F046FE09B0F0BD002E074A694608BF2C
:10153000324607F10C0000F0FFFBF3E72006002025
:10154000180600206D140000A114000028060020D9
:101550002DE9F84F134DDFF8508007464FF0000A91
:1015600004264FF001095FFA8AFB002009FA0BF408
:10157000FFF718FC2C420AD0D8F8003014EA030216
:1015800001BF2343C8F8003087F800B0164600209A
:10159000FFF70AFC1EB1A5430AF1010AE3D1304668
:1015A000BDE8F88FFFFF0F002C06002010B5A1B199
:1015B0009AB101238340C3F3130484B10A4C246815
:1015C00023420ED0C00000F1804000F5F830C0F892
:1015D0001015C0F81425002010BD0E20FCE70720D0
:1015E000FAE70820F8E700BF2C060020012303FAE1
:1015F00000F0C0F313031BB1054B1B68184204D065
:10160000044BC3F80405002070470820704700BF52
:101610002C06002000F00140014B1B68184700BF5A
:101620003006002038B50B4B98420C4601D0002004
:1016300038BD0020FFF7B6FB074B1D7915B9012215
:101640001C601A710020FFF7AFFB002DEFD01120B6
:10165000EEE700BF0020004030060020034B984218
:1016600001BF034B00221A601A717047002000402E
:101670003006002000F1804000F5E040002382B0F9
:10168000036003680193019B02B07047F0B5524BB1
:10169000524CD3F8043185B0002B3DD094F82E2065
:1016A0004FF48270FFF7E6FF2AB394F82F3013BB94
:1016B000494AD2F80031002B32D04FF48070FFF746
:1016C000D9FF638B94F82D00834250D921891B1ACE
:1016D0009BB289B26383CB1A616801EB4303C2F802
:1016E0002C36C2F830064FF48270FFF7C3FF3A4B36
:1016F00001225A6014E0636802932389ADF80C302C
:10170000E36800218DF8041033BB2374236801A81B
:101710009847002384F82F3094F82E30002BC7D13F
:101720002D4BD3F810315BB14FF48870FFF7A2FF57
:101730000023237402238DF8043001A823689847FE
:10174000254BD3F81431EBB14FF48A70FFF792FFB9
:101750000023237405B0F0BD208B6083636020817B
:10176000E160002AD2D11C4B01221A60CEE7BAD127
:10177000E368012184F82F1013B100216183AEE7E3
:101780006383B0E766694FF000470125002EE1D082
:10179000B6FA86F227FA02F34632920026EA0306E8
:1017A00002F1804303F5E0431B68002BEED01046A6
:1017B000A2F58C72FFF75EFFD30882F00402C2F339
:1017C00080028DF808308DF8045023688DF80920C8
:1017D00001A89847DAE700BF0070004038060020F3
:1017E00038B5204A92F82C300446002B37D11160CE
:1017F0001D490078C1F8F0056078C1F8F4050125AD
:10180000E078137482F82D30536182F82F306FF036
:10181000004382F82E0082F82C504FF48270C1F8F9
:101820000833FFF727FF4FF48070FFF723FF4FF4D3
:101830008A70FFF71FFFA3780C485B01DBB280F8CA
:101840000733802303600223C1F8043392F82E305B
:101850000BB1C1F80453C1F80055002038BD082071
:10186000FCE700BF380600200070004000E100E007
:1018700030B5224B1A7C002A3ED100F10C0403EB58
:101880004402127922B993F82D20013283F82D20D9
:1018900003EB4403CA790C7A8D781A715C714B782A
:1018A0002D021B0105F4E06503F030032B430D7896
:1018B00005F003052B43CD782D0305F480552B430C
:1018C0000D792D0405F4E0252B434D7989792D05FB
:1018D00005F48015090601F080712B430B430101CB
:1018E00001F1804101F5E0410020C1F81835C1F84F
:1018F0001445C1F8102530BD1120FCE73806002042
:10190000054B93F82E30002B14BF0020042000F16B
:10191000804000F5E04070473806002070B5264A48
:10192000264B05461220C2F808031C7C022C03D16A
:10193000C2F80403112070BD187C01281CD1D8689E
:1019400018B10223C2F80433F4E7DD60198393F879
:101950002E305BB9D2F80031002BFBD04FF48070F1
:10196000FFF788FEC2F82C56C2F83016124B02223E
:10197000C3F804230020DEE7022093F82E40C2F8CB
:101980000403012600201E745D601981D8603CB1FB
:10199000598393F82D30C2F82C56C2F83036CAE776
:1019A000C2F82C564FF48070C2F83016FFF762FE72
:1019B00016602046BFE700BF0070004038060020D8
:1019C000F7B506792F4D0C237343EF183C7A002CA2
:1019D00055D1EA504B687B60477903682246A4469C
:1019E000D4B2A7423CD8CA7843F307345201002C42
:1019F000C3F30733D2B23DDB234F07EB040C8CF863
:101A000000230122640903F01F0302FA03F347F8DD
:101A1000243003684A78D3F8040502F0030220F06A
:101A200003000243C3F80425D3F808058A7820F0A0
:101A3000030002F003020243C3F80825D3F810059F
:101A40000A7820F00F0102F00F020A43C3F81025B4
:101A50000C2303FB065501232B72002003B0F0BDBD
:101A6000940004F5A074013243F804C01C59019499
:101A7000019CB5E7054C03F00F03E254C9E70820C9
:101A8000ECE700BF6806002000E100E014ED00E094
:101A9000036801221A600279034B0C2101FB023317
:101AA00002221A72704700BF6806002037B54FF453
:101AB000803400688C407BB18B0003F5A073002557
:101AC000C550C3580193019BC0F8044301F5A871A8
:101AD00040F8212003B030BDC0F80843F6E770B4E9
:101AE000046840F20116D4F800528E4025EA06053B
:101AF000C4F80052D4F800522B43C4F800329DF8C9
:101B00000C3070BCFFF7D2BF2DE9F341104C114FE0
:101B1000114E00254FF48038236883B1D7F8043381
:101B200008FA05F21A420AD00023236023680193C1
:101B3000A4F50040019B80B2D6E9003198470135F9
:101B4000042D04F10404E7D102B0BDE8F08100BF28
:101B50004081004000800040680600200023435080
:101B600082B043580193019B02B070470A4610B5FA
:101B70004FF48E71FFF7F2FF136A9168C95C136A24
:101B800001331362C0F81C1510BD8B690A4610B5ED
:101B90004FF4847123B9FFF7E1FFD0F8183510BD79
:101BA000FFF7DCFF536AD168D0F81805C854536AB0
:101BB00001335362F3E700001FB501238DF80030B5
:101BC000044BCDE90110D3E900126846904705B0F7
:101BD0005DF804FB7406002030B54D4DD5F8043394
:101BE0009A0585B051D5D5F82431002B4DD04FF44E
:101BF00092712846FFF7B2FF4FF40173C5F808331E
:101C0000444B93F829200AB901226A604049022214
:101C10008DF80020D1F88024C1F8802403929A69BD
:101C20000292DA6801920022C3E906226846D3E9EB
:101C3000001290473648D0F81C315BB1354A5169E3
:101C4000136A99424DD992F82830002B49D1114698
:101C5000FFF78CFF2E48D0F84431002B56D04FF4BC
:101C6000A271FFF77BFF2B4B93F829200AB10122C9
:101C700002609A69002A49D0586AD96800229A619C
:101C800005B0BDE83040FFF797BFD5F804335B07D8
:101C9000D0D5D5F80831002BCCD01E4C1C4821469D
:101CA000FFF773FF636AA2699A42C3D1E369E168EF
:101CB0004BB1A3612369E3600023606AE36163625F
:101CC000FFF77AFFB6E794F829300BB901236B6070
:101CD0000F4B4FF40172C3F808230023606AA3611D
:101CE000EEE70B484FF48E71FFF738FF5369002B76
:101CF000B0D051690291002391688DF800300191B4
:101D000053616846D2E900139847A3E705B030BD98
:101D100000200040740600201F2886BF00F01F002E
:101D2000044B4FF0A04300F5E070022243F820205E
:101D3000704700BF000300502DE9F843604D90F854
:101D400004802C2303FB0853064693F82A300C46E4
:101D50009146002B40F0AF805A490068FFF762FCC3
:101D60000746002840F0A9802268531C10D01F2A83
:101D700087BF554902F01F0313464FF0A0410120D1
:101D8000984003F5E073C1F80805032041F82300EB
:101D90006168481C0DD01F298BBF01F01F030B4643
:101DA00049484FF0A04003F5E0734FF0000C40F8B5
:101DB00023C03068A369C0F8243594F814C0637D4B
:101DC000BCF1010F4CEA0303C0F86C35C0F81415E0
:101DD000C0F80C252BD1A368591C0DD01F2B8BBF2D
:101DE00003F01F021A4638494FF0A04102F5E07295
:101DF0004FF0000C41F822C0E1684A1C13D01F29A3
:101E000087BF314A01F01F0C8C464FF0A0424FF0C3
:101E1000010E0EFA0CFE0CF5E07CC2F808E54FF05E
:101E2000030E42F82CE0C0F80815C0F810352C223B
:101E300002FB08F2AB18C3F804902369AB50B9F168
:101E4000000F20D04FF48E71247FFFF787FE4FF4F0
:101E5000A2713068FFF782FE32681C4BC2F804336F
:101E6000130B42F307326101002AC9B21EDB184886
:101E7000841884F800130121520903F01F0301FAAA
:101E800003F340F8223033680422C3F800252C23E2
:101E900003FB08530022C3E9062283F829205A6174
:101EA000012283F82A203846BDE8F883094A03F066
:101EB0000F03D154E7E70827F5E71127F3E700BF41
:101EC00074060020D91B00000003005080000200AF
:101ED00000E100E014ED00E02DE9F0410368057930
:101EE000284C0022C3F800252C2202FB05420146A3
:101EF0005268A2B1244AC3F808231A0B43F30733EC
:101F0000002B0CDB02F01F005B0901228240203312
:101F10001E4840F82320BFF34F8FBFF36F8F0B682D
:101F2000D3F80C05D3F81485D3F80865D3F81075E9
:101F30004FF0FF329042C3F81425C3F80C25C3F8C4
:101F40000825C3F8102501D0FFF7E6FEB8F1FF3FE2
:101F500002D04046FFF7E0FE7A1C02D03846FFF779
:101F6000DBFE731C02D03046FFF7D6FE0868FFF791
:101F700075FB2C2303FB0544002384F82A3063609F
:101F8000BDE8F081740600208402020000E100E058
:101F90000279044B2C2101FB02335869003818BF29
:101FA00001207047740600202DE9F84F064690F88E
:101FB000048089469246FFF7EBFF044600283CD197
:101FC000204F2C2508FB057B4FF48E71CBF814A015
:101FD000CBF80890CBF820008BF828003068FFF78A
:101FE000BDFD3068012383605946FFF7BFFDDBF874
:101FF00004305D461BBB3068DBF814402B6A9C4202
:1020000011D83368D3F81C21002AFBD00122DA60F2
:1020100000202C2303FB087700237B61BDE8F88FA9
:1020200095F828303BB9D0F81C31002BF8D0594630
:10203000FFF79CFDE2E70F20EBE71120EEE72046DB
:10204000ECE700BF740600200023435082B04358E1
:102050000193019B02B070471FB501238DF800303A
:10206000044BCDE90110D3E900126846904705B052
:102070005DF804FBA00600207FB5434AD2F8246136
:10208000002E60D010464FF49271FFF7DDFF02235F
:102090008DF80030D2F88034C2F880340393D2F83F
:1020A0003C350293394BDA6801920022C3E90622DB
:1020B0006846D3E9001290473348D0F8443173B1F1
:1020C0004FF4A271FFF7C0FF304B9A693AB100227A
:1020D000C3E90622D968D0F83C05FFF7BDFF2A48BE
:1020E000D0F82031ABB14FF49071FFF7ADFF012371
:1020F000C360264B5A6962B1D0F84C150291002298
:1021000099688DF8002001915A616846D3E9001260
:1021100090471D48D0F858319BB14FF4AC71FFF790
:1021200093FF1A4B5A6962B1D0F84C150291002204
:1021300099688DF8002001915A616846D3E9001230
:10214000904704B070BDD2F81031002BB4D04FF4DA
:1021500088711046FFF778FF0C4BD2F83C0599695F
:102160008842A9D1DC69D96864B1D2F8005225F05F
:102170002005C2F800521A699C61DA60DE61FFF73F
:102180006BFF99E79C61FAE700200040A006002061
:102190001F2886BF00F01F00044B4FF0A04300F53E
:1021A000E070022243F82020704700BF0003005077
:1021B0002DE9F843664E90F80480242303FB08635E
:1021C000044693F820300D469146002B40F0BC8029
:1021D00060490068FFF726FA0746002840F0B680FD
:1021E00029684B1C10D01F2987BF5B4A01F01F03D1
:1021F0000B464FF0A0420120984003F5E073C2F86F
:102200000805032042F823006A68501C0DD01F2ADD
:102210008BBF02F01F0313464F484FF0A04003F559
:10222000E0734FF0000C40F823C02068AB69C0F8A1
:10223000243595F814C06B7DBCF1010F4CEA030303
:10224000C0F86C35C0F80C15C0F814252BD1AB685C
:10225000591C0DD01F2B8BBF03F01F021A463E499D
:102260004FF0A04102F5E0724FF0000C41F822C09F
:10227000E9684A1C13D01F2987BF374A01F01F0C99
:102280008C464FF0A0424FF0010E0EFA0CFE0CF5FA
:10229000E07CC2F808E54FF0030E42F82CE0C0F8ED
:1022A0000815C0F81035242202FB08F2B318C3F851
:1022B00004902B69B350B9F1000F2FD04FF48871FF
:1022C0002A7FFFF7C1FE20684FF49071FFF7BCFE34
:1022D00020684FF49271FFF7B7FE20684FF4A271A7
:1022E000FFF7B2FE4FF4AC712068FFF7ADFE236834
:1022F0001A49C3F80413190B43F307335201002B97
:10230000D2B21CDB1648C51885F8002301225B09F0
:1023100001F01F0102FA01F140F82310236808229E
:10232000C3F80025242303FB08660023C6E906330F
:102330007361012386F820303846BDE8F883094BE5
:1023400001F00F015A54E9E70827F5E71127F3E7F1
:10235000A006002079200000000300501003420076
:1023600000E100E014ED00E02DE9F0413D4D06797B
:102370000468242303FB065302465B68ABB13A4B67
:10238000C4F8083344F30733002B4FEA14310CDB55
:1023900001F01F005B09012181402033334840F8E0
:1023A0002310BFF34F8FBFF36F8FD4F8003223F0A9
:1023B0002003C4F80032242303FB06539B6933B186
:1023C0004FF4A2712046FFF73FFE012363604FF4F4
:1023D000AC712046FFF738FE0123E360242303FBA2
:1023E0000653D4F858110029FBD0996919B1D4F8D3
:1023F00044110029F5D00023C4F800351368D3F840
:102400000C05D3F81485D3F80815D3F810754FF0E0
:10241000FF329042C3F80C25C3F81425C3F80825F1
:10242000C3F8102501D0FFF7B3FEB8F1FF3F02D08B
:102430004046FFF7ADFE7A1C02D03846FFF7A8FEF3
:102440004B1C02D00846FFF7A3FE2046FFF706F913
:10245000242303FB0655002385F820306B60BDE87C
:10246000F08100BFA00600201003420000E100E060
:102470000279044B242101FB02335869003818BF4C
:1024800001207047A006002001F06043B3F1005F17
:102490002DE9F0470646884692463BD190F80490D5
:1024A000FFF7E6FF0446002836D11D4F306824258B
:1024B00005FB09754FF49071C5F814A0C5F80880A4
:1024C000FFF7C2FD4FF4AC713068FFF7BDFD336814
:1024D0006A69A968C3F84415C3F8482501229A60BF
:1024E0006A68DAB9D3F82021D3F858011AB900285C
:1024F000F8D00F2007E00028FBD10122DA60D3F8E2
:102500005821002AFBD0242303FB097700237B6199
:10251000BDE8F0871020FBE71120F9E72046F7E738
:10252000A006002070470000F0B52DED028B037867
:1025300083B0054663BB40680521FFF7EFF908B19A
:10254000FEF7DAFB1448DFED158A9FED158A154F6B
:1025500000F0A8F900246B6833F9146007EE906A64
:10256000B8EEE77AC7EE287A67EE887A17EE900A17
:1025700000F0D0FA3246CDE9000121463846013458
:1025800000F090F9052CE6D1074A13680133136077
:1025900003B0BDEC028BF0BDA741000000C07F443A
:1025A00066666640D7410000C40600201FB5FEF7EE
:1025B00053FF08B1FEF7A0FB174A18480023CDE9E6
:1025C000022302A9164AFFF7FBF908B1FEF794FBB4
:1025D000144B1548D3F810250021D2B220FA02F28C
:1025E000009101230D48FFF77AFA0C48FFF750FAE3
:1025F000FFF786F904460D48FEF7AAFF08B1FEF77B
:102600007BFB0A4B0A4918782246FEF7CFFF08B138
:10261000FEF772FB04B010BD000003062842000064
:102620002525000000800040006A1800DC0600201C
:102630004081004008B5054B1878FEF7D7FF18B168
:10264000BDE80840FEF758BB08BD00BFDC0600200F
:102650001FB5134A10685168127A01AB03C31149C0
:1026600011481A70FFF7BCF808B1FEF745FB01A945
:102670000020FFF7FDF808B1FEF73EFB0B480521EF
:10268000FFF74CF908B1FEF737FB09480521FFF7C2
:1026900045F908B1FEF730FB05B05DF804FB00BF5B
:1026A000194200002925000022420000C80600202F
:1026B000D2060020002108B50846FEF725F808B12B
:1026C000FEF71AFBFDF764FFFEF782FE08B1FEF786
:1026D00013FBFFF7BDFFFFF769FFFFF7ABFF0548EF
:1026E00000F0FDF8FEF78AFEFEF760F80028FBD147
:1026F000F8E700BFF64100000369C26893429CBF3F
:1027000080681B18013B981A70472DE9F843D0E9FF
:1027100002940546A9EB04084068904520440F4602
:10272000144404D900F0F0FBEC60BDE8F8834246A5
:10273000A4EB090400F0E8FB6868224607EB0801F7
:10274000F0E72DE9F843C5680646894617464FF07D
:1027500000083469B3687068A54228BFE418013CDA
:10276000621B5C1BBC4228BF3C46944228BF1446F7
:1027700049462844224600F0C7FBB3682544AB42D3
:1027800008BF00253F1BA044A144F560E1D14046AD
:10279000BDE8F88310B5114C114AA2610223C4E9C7
:1027A0000433104BE361A2644FF400730E4A0F49E7
:1027B0002362E26400231022E01DA3626362E362ED
:1027C000A3656365E365226500F0C7FB0849204601
:1027D00000F0C3FB2023A37110BD00BFE006002062
:1027E00030420000680700205807002039420000EE
:1027F0003D42000070B5164B182400FB04451D44F3
:1028000004FB00331646DC6A012C0ED0022C18D0D3
:10281000E4B92846FFF770FF864204D832462846BE
:10282000FFF773FF3446204670BD2846FFF764FF6C
:102830008642344628BF044622462846FFF765FFF5
:10284000F1E72846BDE87040FFF77BBF0024EAE7C8
:10285000E006002070B50B4B1B7804460D4616466B
:102860000BB9FFF797FF0020FEF79CFA3246294686
:102870002046FFF7BFFF04460020FEF795FA2046EA
:1028800070BD00BFE006002013B504460846019164
:1028900000F085FB01990246204602B0BDE81040D9
:1028A000FFF7D8BF0FB410B5A2B024AB802153F806
:1028B000042B019302A800F017FB802804460ADDD0
:1028C000802202A90020FFF7C5FF204622B0BDE804
:1028D000104004B070470028F7DD0246F1E70146DA
:1028E0000020FFF7D1BF4FF08053D3F83001A0F1A3
:1028F00008035842584170474FF08053D3F83021B5
:10290000082A06D1D3F83431052B02D8024AD05C0C
:1029100070470020704700BF4A420000024AD2F8C8
:102920000034002BFBD0704700E0014010B5FFF7EA
:10293000DAFF40B14FF080430022C3F80C21C3F806
:102940001021C3F83825FFF7CEFF002846D04FF0FE
:102950008052654BD2F80414C3F82015D2F808143D
:10296000C3F82415D2F80C14C3F82815D2F81014A3
:10297000C3F82C15D2F81414C3F83015D2F8181473
:10298000C3F83415D2F81C14C3F84015D2F820143B
:10299000C3F84415D2F82414C3F84815D2F8281403
:1029A000C3F84C15D2F82C14C3F85015D2F83014D3
:1029B000C3F85415D2F83414C3F86015D2F838149B
:1029C000C3F86415D2F83C14C3F86815D2F8401463
:1029D000C3F86C15D2F84424C3F87025FFF78CFFB8
:1029E00018B1424B424AC3F88C26FFF785FF18B155
:1029F000404BFB22C3F81825FFF77EFF70B14FF064
:102A000080414FF08053D1F8E42ED3F8583222F0B1
:102A10000F0203F00F031343C1F8E43EFFF76CFF0E
:102A200020B1354B4FF40072C3F84026FFF75BFF2F
:102A300048B14FF08043D3F80024D20744BF6FF071
:102A40000102C3F800242D4AD2F8883043F4700301
:102A5000C2F88830BFF34F8FBFF36F8F4FF08053B2
:102A6000D3F83021082A0ED1D3F83431052B02D8FF
:102A7000234AD35C3BB14FF01023D3F808224FF028
:102A80008043C3F858254FF01023D3F80022002AC2
:102A900003DBD3F80432002B22DA1A4901234FF06A
:102AA0001020C1F804351224FFF738FFC0F80042A7
:102AB000FFF734FFC0F80442FFF730FF0023C1F8EE
:102AC0000435FFF72BFFBFF34F8F0C490E4BCA683D
:102AD00002F4E0621343CB60BFF34F8F00BFFDE70A
:102AE0000A4B0B4A1A6010BD00C000400050004065
:102AF0004881030000F000400090024000ED00E03B
:102B00004442000000E001400400FA051C000020DF
:102B10000090D003C0F3C75191B142004FEA40701A
:102B20004FEAD2014FEA310101F16051B2F17F4F1A
:102B300038BF704701F1605118BF41F40021704760
:102B400010F000410020704701F000428B1AA3F101
:102B50006051B1F5801F0ADBB1F17F6F09D242EA03
:102B6000C102C10071F1004142EB50707047104644
:102B7000704701285B4113F5001F04D842F0FE4066
:102B800040F400007047C90041EA507040EA02007A
:102B900040F4800040F08040704700BF10EE100A03
:102BA0004FEA4000B0F17F4F0CBF0120002070477A
:102BB00010EE100A41000020B1F17F4F18BF50EB1A
:102BC0000000704710EE100A00F00040704700BF90
:102BD000B0EEC00A704700BF00B510EE100A00F05A
:102BE00003F800EE100A00BD4FF07F43B3EB400F37
:102BF00022D9410008BF704703EA4002120E7F3A13
:102C000014DB172AA8BF70474FF6FF73C0F27F038B
:102C1000D340184220EA030018BF10F0004F08BF4D
:102C200070474FF40001D1404018704710F0004F3A
:102C30000CBF00200248704718BF024870470000D0
:102C4000000080BF0000C07F00B5014610EE100AF2
:102C500000F003F800EE100A00BD4FF07F43B3EB25
:102C6000400F98BF704713EA400207D0120E7E3A19
:102C70000A6020EA530040F07C5070470A6000F080
:102C80000040704700B5014610EE100A00F003F84E
:102C900000EE100A00BD4FF07F43B3EB400F98BF2A
:102CA000704713EA400204BF00F00040704711EB88
:102CB0001262DCBF00F000407047FF2A3CBF00EB0F
:102CC000C150704740004FEA330070477F2805D855
:102CD000034A044B105C5B5C18407047002070474F
:102CE0005C420000DC420000A0F16103192B98BF98
:102CF00020387047A0F14103192B98BF203070474E
:102D00007F299ABF017001206FF02E00704700BF2D
:102D10005AB10A787F2A0AD800B102600021501AFD
:102D2000C3E9001118BF01207047104670476FF0CB
:102D30002E007047A0F16103192B98BF203870470F
:102D4000A0F14103192B98BF203070477F2805D888
:102D5000034A044B105C5B5C1840704700207047CE
:102D60005C420000DC420000002815DB18BF002296
:102D700015D00C4BB7EE000AC10744BFD3ED007A63
:102D800020EE270A401003F10403F5D11AB1F7EE43
:102D9000007A87EE800A704740420122E9E7B7EEE9
:102DA000000A7047B444000038B5856804460846F8
:102DB00045B122686168531C8B4208BF00208A42DB
:102DC0000AD2A854E26823682AB161688B4202D211
:102DD0002146904723680133236038BD70B54D1EEE
:102DE00022D413681446C6B20EE0D0542368E268B9
:102DF0002AB16168994202D9214690472368013D72
:102E000001336A1C23600FD0A26872B1616803F1BC
:102E1000010C8C4514BF304600209942E5D8013D95
:102E200063466A1C2360EFD170BD3046DFE700BF08
:102E3000C3062BD410F4007F70B514BF30262026B3
:102E40004D1E22D413681446F6B20EE0D054236807
:102E5000E2682AB16168994202D921469047236805
:102E6000013D01336A1C23600FD0A2687AB161680A
:102E700003F1010C8C4514BF304600209942E5D87F
:102E8000013D63466A1C2360EFD170BD7047304638
:102E9000DEE700BF0028B8BF40427047024B5B68C6
:102EA0009B6809211B6818472000002000B5FDF72A
:102EB0008FFA024B18445DF804FB00BF08000000C5
:102EC000027862B169B100EB010C034601E0634591
:102ED00003D013F8011F0029F9D1181A70471046C2
:102EE00070470846704700BF30B5944685B000254E
:102EF000CDE902050C461A4661466846019400F089
:102F00007FF805B030BD00BF844640EA010313F0EE
:102F1000030F18D18446202A0BD32DE9F007B1E81E
:102F2000F807A0E8F807A2F12002202AF7D2BDE8AE
:102F3000F007042A07D351F8043B40F8043BA2F100
:102F40000402042AF7D2002A05D011F8013B00F848
:102F5000013B013AF9D160467047024610F0030F79
:102F600016D111F0030F13D12DE9F0004FF0013706
:102F70004FF0803351F8044BA4EB070525EA040514
:102F80001D4002D142F8044BF4E7A1F10401F0BC6A
:102F900011F8013B02F8013B002BF9D1704700F119
:102FA000010110F0030F11D010F8012B002A23D0DB
:102FB00010F0030F0AD010F8012B002A1CD010F0DB
:102FC000030F03D010F8012B002A15D02DE9700053
:102FD0004FF001324FF0803350F8044BA4EB020560
:102FE00025EA04051D4000D1F6E7A0F1040070BCFD
:102FF00010F8012B002AFBD1A0EB01007047000064
:103000002DE9F04F2DED048B00230C4603608DB0AD
:1030100014F8011B07928346002900F0B1869FED4A
:10302000949A254607E05846FFF7BEFE15F8011BA7
:10303000002900F00A812529F5D12A46002712F837
:10304000010B30283DD81F280ED9A0F12003102BEA
:103050000AD8DFE803F04D090949090909450909BA
:103060000941093D09092E002A2840F0C680079B26
:103070001078D3F800A0191DBAF1000F0791BCBF5A
:10308000CAF1000A47F01007AA1C2E2800F0CB80D6
:103090004FF0000974282FD07A282DD06C2800F02A
:1030A000E9804C2800F00181682800F00F81154666
:1030B00025E047F4007715462A4612F8010B302820
:1030C000C1D95E2840F0998047F480571546F3E750
:1030D00047F010071546EFE747F020071546EBE7E6
:1030E00047F400471546E7E747F080071546E3E752
:1030F00047F040071546DFE7154615F8010B78281D
:1031000000F2D680DFE810F03F06D400D400D400EF
:10311000D400D400D400D400D400D400D400D4000F
:10312000D400D400D400D400D400D400D400D400FF
:10313000D400D400D400D400D400D400D400D400EF
:10314000D400D400D400D400D400D400D400D400DF
:10315000D400D603D400D400D400D400D400D400CA
:10316000D400D400D400D400D400D400D400D400BF
:10317000D400D400D400D400D400D400D400D400AF
:10318000D400D400D400D400D400D400D400D4009F
:10319000D4000A030503AE01D400D400D400D40047
:1031A000D400D400D400D400D400D400D400D4007F
:1031B000D400D400D400D400BF03D400D400D40081
:1031C000D400D400D400D400D400D400D400AF0381
:1031D000EA000C030703B001D400EA00D400D400D5
:1031E000D400D400A30396035603D400D4000F03E5
:1031F000D4003C03D400D4004306A0F13001CBB28C
:10320000092B4FF0000A3FF640AF12F8010B0AEB12
:103210008A0A01EB4A0AA0F13001CBB2092BF4D99A
:103220002E287FF435AF10782A2829D107995078B5
:10323000D1F80090951C0431B9F1000F07912A468E
:10324000FFF628AF47F4807724E7DBF80000DBF8CF
:1032500008303BB1DBF80420824203D900221A5423
:10326000DBF800000DB0BDEC048BBDE8F08F00BFB3
:103270000000C842154647F0010715F8010B3EE76C
:10328000A0F13001CCB2092C02F101024FF000098B
:10329000D8D812F8010B09EB890901EB4909A0F113
:1032A0003001CBB2092BF4D9CCE747F00107154622
:1032B0006A4B1C68002C3FF4B9AE07A90191CDF808
:1032C000009053463A465946A047AFE61078682822
:1032D00000F03784551C47F0040710E707F48074AA
:1032E000002647F48047079A7B0702F10401079103
:1032F000116840F1018309B2002980F2018349423B
:103300002D26002C00F0538227F40077583820280F
:1033100022D8DFE810F05C0221002100210021000A
:103320002100210021002100210021002100560060
:103330002100210021002100560021002100210050
:103340002100210081005C022100210021002100D8
:103350005600210021005C024FF0FF34002229EAD0
:10336000E979AAEB0903FF2EA3EB020870D9C6F393
:1033700007215846A8F10208FFF716FDF1B258469A
:10338000FFF712FD38465A464146FFF751FD3020FF
:103390005A464946FFF722FD601C09D0013409AEA8
:1033A000344414F8011D5846FFF7FEFCA642F8D13C
:1033B000F9067FF53BAE41465A462020FFF70EFD49
:1033C00034E60846002900F09384DFF894E007F41F
:1033D000004300224FF02C0802F003010BB1032937
:1033E00013D01446AEFB0021C90801EB810204F1A1
:1033F000300CA0EB4202EC44303209280CF80C2CC3
:1034000004F101021AD90846E6E702F130016944E5
:10341000541C01F80C8CE5E70846002900F068848C
:103420000DF1240C002201F007013031C0080CF826
:10343000011B1446014601320028F4D1A9EB020910
:1034400029EAE979AAEB0903FF2EA3EB02088ED83B
:10345000002E97D008F1FF3890E700BF68090020E0
:10346000CDCCCCCC47F4005747F44067079A0732DD
:1034700022F0070202F108010791D2E90001FFF7EB
:1034800063FBFA0508EE100A40F11782B9F1000F4C
:1034900007D107F44069A9F54069B9FA89F94FEAFB
:1034A0005919B0EE480AFFF779FB002840F00E8268
:1034B000B0EE480AFFF77CFB0390002840F0E3835E
:1034C000B0EE480AFFF77EFB18B147F06007B1EE97
:1034D000488A08A8B0EE480AFFF7B6FB089AC24827
:1034E00002EB420280FB0230B5EE408AD217C2EBFB
:1034F000A000F1EE10FA089040F0F68007F4406466
:10350000B4F5806F08D0B4F5406F40F01882814563
:1035100002DD031D80F213824042FFF725FC20EEFE
:10352000088AB5EE408AF1EE10FA2FD0B0EE480AC4
:10353000FFF734FB002840F0C981F2EE047AB4EEC4
:10354000E78AF1EE10FA0BDB089A013288EE278A3F
:1035500011460132B4EEE78AF1EE10FAF6DA08917C
:10356000F7EE007AB4EEE78AF1EE10FA0ED5089A7B
:10357000B2EE047A013A28EE078A1146B4EEE78AE1
:10358000F1EE10FA02F1FF32F5D40891B9F1000F13
:1035900000F0C081B4F5406F00F0C082C9F10000B6
:1035A000FFF7E2FBF6EE007AA0EE278AF2EE047A4D
:1035B000B4EEE78AF1EE10FA0ADBF2EE047A88EE56
:1035C000278A089A01320892B9F1000F00F07E8232
:1035D00007F40862B2F5006F00F0538209F10502AA
:1035E00027F4006308980293AAEB020A0AF1FF3A53
:1035F00017F4805800F0F5827C4B83FB0038A8EB71
:10360000E07808EB4808B0EB080800F08C83B8F1CC
:10361000020F00F07C83B8F1FF3F00F07883F2EEF8
:10362000047A0138022328EE278A08900AF1FF3A2B
:103630000A264FF00008059329EAE97917F0600F90
:1036400018BF0AF1FF3AFFF725FC694B0493029B70
:10365000FCEEC87A03F480630693029B632817EE9E
:10366000904AF8EE677AC8BF0AF1FF3A13F4047F74
:1036700038EE678A2AEAEA7700F0D881029B98063A
:1036800040F1E48113F0400F14BF2D212B21584647
:10369000FFF78AFB029BDB0640F1E481059B03F107
:1036A0000052049B023A03EBC20A00234246B44292
:1036B00073EB02014FF0300107D3A41BB44201F1B8
:1036C000010173EB0200C9B2F7D25846FFF76CFB59
:1036D000484B534500F03B82DAE900620023AAF12F
:1036E000080AE4E7013008900130FFF73DFBB4EE33
:1036F000C80AF1EE10FA0898F4D401E001380890F5
:10370000FFF732FBB4EEC80AF1EE10FA0898F5DCC8
:10371000F4E647F4005747F40067A7E647F400577C
:1037200047F48067A2E6079A111D079110680028E8
:1037300040F08283304C07F48072204627F40077F3
:10374000002A00F0D5804946FFF7BAFB0646AAEBEF
:10375000060A5A4651463846FFF76AFB3EB12644F0
:1037600014F8011B5846FFF71FFBA642F8D1F806D4
:103770007FF55CAC51465A462020FFF72FFB55E4FD
:1037800017F4807407F480414FF0000618BF27F447
:10379000007700297FF4A7AD079A111D07911168E2
:1037A0007A0740F1B28089B2002C7FF4ADAD4FF0C2
:1037B0000109ABE5079A111D079117F0800F1168F9
:1037C00047F480770CBF002623264FF008090846EF
:1037D000002900F08D82DFF824E007F4005309A9E6
:1037E0000024A84615E000BF676666665655555525
:1037F00000450000F8440000CC440000A044000054
:103800001EF80C2001F8012B000904F101020DD073
:10381000144600F00F0C002BF2D1B94D000915F839
:103820000C2001F8012B04F10102F1D14546A9EB6E
:10383000020994E517F0800F0CBF0026302617F41C
:10384000807407F4804118BF27F40077A1E7079B35
:10385000DBF80020191D07911B6839074CBF1A704F
:103860001A60FFF7E3BB079B0AF1FF3A191D1C78AA
:103870000791384651465A46FFF7DAFA214658462C
:10388000FFF792FA73E747F4005212F0800606D071
:1038900043F2780643F25801782818BF0E4612F416
:1038A000807407BF02F48041174622F4007702F4C7
:1038B00080416EE72521FFF7B6BBB0EE480A4FF016
:1038C0000609FFF76BF900283FF4F2ADB5EEC08AA8
:1038D000F1EE10FA00F1E4818A4A8B4817F4005F98
:1038E00008BF1046BE0658BF0130044627F4407793
:1038F000FFF755FB06462AE73A077FF5FDACC9B24C
:10390000BB0640F1B9802B26FBE43B077FF5F9AC01
:10391000C9B2F6E44846FFF727FAF6EE007AA0EEC1
:10392000278AF2EE047AB4EEE78AF1EE10FAC0F2DA
:10393000CD800898013088EE278A0890C7E07C0582
:1039400000F1D18007F0800242EA0902C9F10001CA
:10395000A0F1080427F480638C42029300F3CD8029
:1039600003920846FFF700FA4FF0FF30FFF78AF99D
:103970000898039A0392013070EE088AFFF7F4F971
:103980000898039AB4EEE80AF1EE10FA98BF0130F5
:103990000028B0EE688AC0F2B081092800F32082C6
:1039A000FCEEE87A0021B8EE678A17EE904A38EE0E
:1039B000C88A08918E46092C4FF0000840F23282E6
:1039C000524964234646012003E051F8083F4E68FF
:1039D00060469C4278EB060300F1010CF5D24C4B9B
:1039E000CDF814C003EBC00153F83060D1F8048067
:1039F0000493059B03EB09018E44AAEB0E0A0AB15E
:103A00000AF1FF3A17F0600306931CBF00230693E8
:103A1000029B03F400630393029B18BF0AF1FF3A71
:103A200013F4047F2AEAEA777FF428AEBAF1000F94
:103A300006DD013F20215846FFF7B6F9002FF8D1E7
:103A4000029B98064FF000073FF51CAE029B5A06FA
:103A50007FF520AE20215846FFF7A6F9029BDB0632
:103A60003FF51CAE37B1013F30215846FFF79CF9B6
:103A7000002FF8D1002711E617F0400F18BF2026BD
:103A80003FE4B9F1090FA8BF4FF009094846FFF715
:103A90006BF920EE080AFCEEC07A17EE902A002A95
:103AA00000F077811B491C4801FB02F4B0EB740F56
:103AB00004D293E5B0EB730FFFF490ADA1FB02329B
:103AC000D208B9F1010901FB02F3F3D1089827F4F8
:103AD0000063AAF1050A029317F080093FF488AD4C
:103AE0004FF0000982E50E2840F33D8127F4806302
:103AF00007F0800202934FF000090392093831E782
:103B000090440000EC440000E44400001045000034
:103B100000450000CDCCCCCC99999919C9F1010090
:103B2000FFF722F9F6EE007AA0EE278A09F1FF39B5
:103B3000F2EE047AB4EEE78AF1EE10FAFFF644AD45
:103B40003BE5507847F00807951CFFF7D8BA039B70
:103B5000002B49D1B9F1000F40F0E880029B1B0611
:103B600000F1FB80069B83B3029B13F4005F14BF3C
:103B7000452165215846FFF717F9089B002BC0F235
:103B800097802B215846FFF70FF9089B632B00F312
:103B90009980AD4CD91784FB0323C1EBA30303F138
:103BA0003001C9B25846FFF7FFF8089B84FB032495
:103BB000D917C1EBA40101EB8101A3EB410303F190
:103BC0003001C9B25846FFF7EFF8002F3FF42EAA94
:103BD000013F20215846FFF7E7F8002FF8D1FFF703
:103BE00025BA0126059629E5089B002B08DD013B37
:103BF000302158460893FFF7D7F8089B002BF6DCD6
:103C0000B9F1000F40F00081029B1A06AAD52E21BF
:103C10005846FFF7C9F84C460898A9EB0000FFF793
:103C2000A3F820EE088AFCEEC87A17EE906AB9F184
:103C3000000F1FD0049B09F1005909F1FF3903EB74
:103C4000C9094FF00008D9E900329E4278EB020121
:103C5000A9F108094FF0300107D3F61A9E4201F18D
:103C6000010178EB0200C9B2F7D25846FFF79CF881
:103C7000D145E8D1002C3FF475AF30215846013CC6
:103C8000FFF792F8F6E7714A714817F4005F08BF32
:103C900010460446FFF783F927F44077064656E5B9
:103CA0006C4A6D4817F4005F08BF104604461DE6D5
:103CB0002D215846FFF778F8089B5B42632B089349
:103CC0007FF767AF654C84FB0312D917C1EB621114
:103CD0003031C9B25846FFF767F8089A84FB0230C2
:103CE000D3176421C3EB601301FB1323089350E740
:103CF0000A464FF0FF34FFF732BB0021584B0891C2
:103D000001268E46049388460C46059671E60238D5
:103D1000032328EE098A0890AAF1020A64264FF0CC
:103D20000008059388E40126059685E42E2158466F
:103D3000FFF73AF84B46092BA8BF092323EAE373A0
:103D4000A9EB030499464846FFF70EF820EE088ACF
:103D5000FCEEC87A17EE906A69E72E215846FFF705
:103D600023F84C46EFE7411CA9EB0104092CA8BF3E
:103D7000092417F0800213D022436142A146E7E5EF
:103D80000846FFF764BA4FF0FF30FFF76BBA3A46C8
:103D90007BE527F4006308980293AAF1050A9BE6E5
:103DA00049454DD0F6EE008A01E0013C3FD0204667
:103DB000FEF7DAFFF0EE687AE0EE087AB0EE670A16
:103DC000FEF70AFFF2EE040A00F07CF8B5EE400AB6
:103DD000F1EE10FAE9D0089822466142A146B7E513
:103DE000A0F10901C0F1090003920891FEF7BCFFA0
:103DF00020EE280A9FED1B8ADDF820E0039AFCEEF6
:103E0000C07A17EE904AD6E52E215846FEF7CCFF31
:103E10004B46092BA8BF092323EAE373A9EB03044C
:103E20009946F9E60E4B0126CDE90436E1E50898FE
:103E300022462146A1468BE5044607F480727DE4C4
:103E40001146914684E500BF67666666F844000047
:103E5000F4440000DC440000D44400001F85EB5112
:103E600000450000000000009FED147AB4EE470A00
:103E7000F1EE10FAF0EE407A12D010EE102AC2F3F2
:103E8000C7537F3B11D4162B12DC0D4921FA03F3E3
:103E900022EA030207EE102A026030EE470A70475A
:103EA000B0EE470A80ED007A704780ED007A7047E7
:103EB000B0EE470AC0ED007A704700BF0000000076
:103EC000FFFF7F0000B52DED028BF5EE400AF1EE0D
:103ED00010FA83B04BD0B0EE608AF0EE408AFEF765
:103EE00067FE30B1B0EE680A03B0BDEC028B5DF83E
:103EF00004FBB0EE480AFEF75BFE002843D1F5EE66
:103F0000408AF1EE10FAEDD0B0EE680AFEF746FEF8
:103F100000283FD1B0EE480AFEF740FE0028E1D16C
:103F2000B0EE480AFEF754FEB0EE408A88EE880AEA
:103F300001A8FFF799FFDDED017AF5EEC08AB0EE3A
:103F4000680AF1EE10FAA8EE670AB1EE487A24DDAD
:103F5000B4EEC08AF1EE10FA98BF30EE480AB5EE22
:103F6000C00AF1EE10FABFD530EE080ABCE7FEF742
:103F70009DFF114B9FED110A1B68036003B0BDEC60
:103F8000028B5DF804FBB0EE480A03B0BDEC028B77
:103F90005DF804FB9FED090AA6E7B4EEC70AF1EE4F
:103FA00010FA98BF30EE080AB5EEC00AF1EE10FA2A
:103FB0009ADD30EE480A97E7B04400000000C07F69
:103FC00088410000000000008C410000000000005B
:103FD0009041000000000000964100000000000039
:103FE0009C41000000000000A14100000000000012
:103FF0007240000000000303714100000000000057
:104000004440000000000000504000001400002068
:10401000780000204001002048010020800000209E
:044020001800000084
:10402400FFFFFFFFFFFFFFFFFFFFFFFFFFFFFFFF9C
:1040340000000000000000000000D601060100009E
:10404400F90400005D050000A904000075617274A4
:104054005F6C6F675F6261636B656E64004261638E
:104064006B656E647320666C75736865640061705B
:1040740070000000680500207F000000E8050020B3
:104084001B5B313B33316D0025734C6F67732064C8
:10409400726F70706564202825642925730D0A00E9
:1040A4001B5B306D002573003C25733E2025733A5D
:1040B4002000202530327800202020007C00256359
:1040C400001B5B313B33306D001B5B313B33326D86
:1040D400001B5B313B33336D001B5B313B33346D71
:1040E400001B5B313B33356D001B5B313B33366D5D
:1040F400001B5B313B33376D007761726E696E670D
:1041040000696E666F00646562756700A440000014
:10411400C540000084400000CD400000D5400000B0
:10412400DD400000E5400000ED400000F5400000E7
:10413400000000004E410000FD4000000541000069
:104144000A410000466174616C206572726F7200EE
:1041540053797374656D2072657365740030313200
:1041640033343536373839414243444546707772E3
:104174005F6D676D74000000C03F0000C03F000029
:104184000400000050504900505253005341414430
:10419400430054494D455200554152540055415233
:1041A4005445003D3D3D3D3D3D3D3D3D3D3D3D3D59
:1041B4003D3D3D3D3D3D3D3D3D3D3D3D3D3D3D3D2B
:1041C4003D3D3D3D3D3D3D3D3D3D3D3D3D3D3D3D1B
:1041D4000A0D005B25645D204144432056616C75E3
:1041E40065203A202564202D3E20252E3266205657
:1041F4000A0053414144432048414C2073696D7087
:104204006C65206578616D706C652073746172747F
:1042140065642E0D00000000000200000200010091
:104224000600000000800040000400005465726D28
:10423400696E616C0052545400534547474552001F
:104244000000000001010100000000004300000024
:10425400504F5349580000002020202020202020C7
:1042640020682828282820202020202020202020E2
:104274002020202020202020481010101010101082
:10428400101010101010101084848484848484848A
:10429400848410101010101010818181818181019B
:1042A40001010101010101010101010101010101FA
:1042B4000101011010101010108282828282820289
:1042C40002020202020202020202020202020202CA
:1042D400020202101010102000070320041702012C
:1042E4000857104080000000504200005443000072
:1042F4006844000053756E004D6F6E005475650080
:10430400576564005468750046726900536174000F
:10431400000000004A616E00466562004D61720053
:10432400417072004D6179004A756E004A756C00E7
:1043340041756700536570004F6374004E6F7600DB
:104344004465630000000000414D00504D00000032
:104354008C44000088440000884400008844000025
:104364008844000088440000884400008844000019
:104374008844000088440000FFFFFFFFFFFFFFFFA9
:10438400FFFFFFFFFFFF0000C8430000F8420000EA
:1043940004440000184300004C430000AC430000F8
:1043A4005C440000B8430000256D2F25642F257957
:1043B4000000000025612025622025652025542069
:1043C4002559000053756E646179004D6F6E646108
:1043D400790054756573646179005765646E65731B
:1043E4006461790054687572736461790046726916
:1043F400646179005361747572646179000000002E
:104404004A616E756172790046656272756172798E
:10441400004D6172636800417072696C004D61798E
:10442400004A756E65004A756C790041756775734D
:10443400740053657074656D626572004F63746FC8
:10444400626572004E6F76656D62657200446563E5
:10445400656D62657200000025483A254D3A255382
:1044640000000000CD2C0000E92C0000F52C000019
:104474004D2D0000352D0000412D0000012D0000C0
:10448400112D0000000000002E00000030313233F6
:1044940034353637383961626364656630313233B6
:1044A400343536373839414243444546210000000B
:1044B400000020410000C84200401C4620BCBE4C05
:1044C400CA1B0E5AAEC59D74286E756C6C2900000B
:1044D4002D494E46000000002D696E660000000064
:1044E4002B494E46000000002B696E660000000058
:1044F4004E414E006E616E0000000000010000009D
:10450400000000000A000000000000006400000039
:1045140000000000E8030000000000001027000075
:1045240000000000A08601000000000040420F00CF
:1045340000000000809698000000000000E1F505EE
:104544000000000000CA9A3B0000000000E40B5485
:104554000200000000E87648170000000010A5D40F
:10456400E800000000A0724E1809000000407A1014
:10457400F35A00000080C6A47E8D03000000C16FC2
:10458400F286230000008A5D78456301000064A779
:0C459400B3B6E00D0000E8890423C78ADC
:1045A000000000000020004000000000002000404B
:1045B0000000000000000000FF0000000090D00399
:1045C000EC420000EC420000EC420000EC42000033
:0445D000EC420000B9
:040000030000037581
:00000001FF
