:1000000000000420750300005D0300005F03000092
:1000100061030000630300006503000000000000AE
:100020000000000000000000000000006703000066
:1000300069030000000000006B0300006D03000076
:100040006F0300006F030000492D00006F030000E4
:100050006F0300006F0300006F03000025310000F4
:10006000253D00006F0300006F0300006F030000D8
:100070006F0300006F0300006F0300006F030000B8
:100080006F0300006F0300006F0300006F030000A8
:100090006F0300006F0300006F0300006F03000098
:1000A0006F0300006F0300006F0300006F03000088
:1000B0006F0300006F03000000000000000000005C
:1000C0006F0300006F0300006F0300006F03000068
:1000D0006F0300006F0300006F0300006F03000058
:1000E0006F0300006F0300006F03000000000000BA
:1000F000000000006F030000000000006F0300001C
:1001000000000000000000000000000000000000EF
:1001100000000000000000000000000000000000DF
:1001200000000000000000000000000000000000CF
:1001300000000000000000000000000000000000BF
:1001400000000000000000000000000000000000AF
:10015000000000000000000000000000000000009F
:10016000000000000000000000000000000000008F
:10017000000000000000000000000000000000007F
:10018000000000000000000000000000000000006F
:10019000000000000000000000000000000000005F
:1001A000000000000000000000000000000000004F
:1001B000000000000000000000000000000000003F
:1001C000000000000000000000000000000000002F
:1001D000000000000000000000000000000000001F
:1001E000000000000000000000000000000000000F
:1001F00000000000000000000000000000000000FF
:10020000354936480A1A02D0072291438D463449AF
:1002100034480A1A06D00722914381F30988022242
:1002200082F3148830483149314A00F044F83148AB
:100230003149324A00F03FF831483249324A00F041
:100240003AF832483249334A00F035F832483349F7
:10025000334A00F030F833483349344A00F02BF881
:1002600033483449344A00F026F8344834490022EF
:1002700000F02CF833483449002200F027F83348C6
:100280003349091A082902DB002202604160314A21
:1002900090471F481F49884205D00268043003B4C4
:1002A000904703BCF7E700208646EC46002000217B
:1002B000294A9047FEE7884207D0521A05D00378B2
:1002C00001300B700131013AF9D17047884202D0F8
:1002D00002700130FAE770470000042000E00320BC
:1002E0000000042000000420C07500000000002071
:1002F00070000020D0030000D00300003C6200002A
:10030000C07500000000002000000020A062000076
:10031000A0620000A0620000A0620000A0620000D5
:10032000A0620000A0620000A0620000C075000092
:100330003076000070000020700000207000002067
:100340003C0700203C0700203C0700203C07002021
:100350003C2700209D0300007D5A0000FEE7FEE7D9
:10036000FEE7FEE7FEE7FEE7FEE7FEE7FEE7FEE765
:1003700000F002B8FFF7FCBF0F484FF007018843B9
:1003800085460E4880470E48016841F470010160BF
:10039000BFF34F8FBFF36F8FFFF732BF09480A4992
:1003A0000A4A884207D0521A05D0037801300B70F0
:1003B0000131013AF9D1704700000420B55E000018
:1003C00088ED00E0A0620000000000200000002096
:1003D00000B5A1B00590049103920293049802F035
:1003E0008BF8039B1593029B16930023179300230E
:1003F0008DF8603000231993229B1A9300231F93DA
:100400000FA91F9B0822049802F050F908231F939C
:10041000119B1293BDF84030ADF84C30BDF842301E
:10042000ADF84E3000238DF851309DF83C3003F08C
:100430000303DBB2012B26D10F9BC3F395231C933F
:100440009DF83C30C3F3C203DBB28DF85030BDF8E9
:100450003C30C3F38313DBB21B931B9B9A0009A9A7
:100460001F9B049802F022F91B9B9B001F9A1344C8
:100470001F9312AA09A915AB009313461B9A1C9847
:1004800000F0D2FF2FE09DF83C3003F00303DBB215
:10049000022B28D1BDF83E30C3F389139BB21E93C3
:1004A0009DF83C30C3F3C203DBB28DF850301E9B85
:1004B000082B28BF08231D9307A91F9B1D9A04988A
:1004C00002F0F4F81F9A1D9B13441F931E9A1D9B64
:1004D000D31A1E9315AB12AA07A81D9901F046F86E
:1004E0001E9B002BE3D1049802F015F800BF21B049
:1004F0005DF804FB00B583B00190019B1B781A46A0
:100500000C4B9B5C002B05D0019B0433184604F078
:1005100073FE0BE0019B1B781A46064B9B5C002B7D
:1005200004D1019B0C33184603F0EEFF00BF03B06B
:100530005DF804FB8406002000B587B003900291AB
:1005400013468DF8073000230593039B1B781A464A
:10055000114B9B5C002B09D0039B04339DF80720B3
:100560000299184604F0AAFE05900FE0039B1B7841
:100570001A46094B9B5C002B08D1039B0C339DF85A
:1005800007200299184604F037F80590059B184695
:1005900007B05DF804FB00BF8406002082B0019024
:1005A0000091034B01221A7000BF02B0704700BFD8
:1005B000B000002030B58DB003468DF807301A4BDF
:1005C00002AC1D460FCD0FC495E80F0084E80F0064
:1005D000062302934FF0FF3303934FF0FF3304934E
:1005E0004FF0FF3305934FF0EB7308939DF80730FE
:1005F000002B01D00D4A00E0002202AB19460C4846
:1006000002F0DAF90B900B9B0A930A9B002B04D0A3
:10061000084A43210A9801F06DF8074A9DF807300F
:10062000137000BF0DB030BD186300009D050000C1
:1006300000000020A0620000B100002000B583B0DF
:1006400001238DF807309DF807301846FFF7B2FFF9
:1006500000BF03B05DF804FB00B589B003900291C0
:100660000192019B8DF81F30124B00221A709DF8E9
:100670001F301A4602991048FFF75EFF0690069B4E
:100680000593059B002B04D00C4A5321059801F0DB
:1006900031F800BF0A4B1B78002B07D0054B1B78A5
:1006A000DBB283F00103DBB2002BF3D100BF09B052
:1006B0005DF804FBB000002000000020A0620000F4
:1006C000B100002000B585B003900291054B009366
:1006D0004023054A02990398FFF77AFE00BF05B050
:1006E0005DF804FB590600007000002082B0019004
:1006F00000BF02B07047000000B583B0019005480C
:10070000FFF7F8FE0020FFF755FF00BF03B05DF8CC
:1007100004FB00BF0000002082B00190019BDB6859
:1007200001225A7100BF02B07047000000B583B0CB
:100730004FF0FF330193FFF781FF0421084800F0D9
:100740008FFD0190019B002B03DA0649482001F040
:10075000C4F80348FFF7E0FF00BF03B05DF804FBF7
:100760007C6200005863000000B583B001900091E6
:10077000019B1B681B6800990198984700BF03B054
:100780005DF804FB00B583B00190019B1B685B68BA
:100790000198984700BF03B05DF804FB00B583B033
:1007A0000190019B1B689B680198984700BF03B0AC
:1007B0005DF804FB82B001900B468DF80330019B7D
:1007C000DB689DF803201A7100BF02B0704782B049
:1007D0000190019BDB681B79184602B0704782B01C
:1007E0000190019BDB6801225A7100BF02B0704783
:1007F00082B00190019BDB685B79184602B07047BC
:1008000000B585B0019000910C4B00221A700C4885
:1008100001F0D6FD0390039B002B01D0039B08E061
:10082000084801F0DBFF084A084BD31ADB080293A3
:100830000023184605B05DF804FB00BF1C02002031
:100840008C620000D46300007C6200003C62000007
:10085000024A034BD31ADB08184670477C6200003B
:100860003C62000000B587B001900B468DF8033064
:100870009DF80330002B1FD0FFF7EAFF0490002300
:10088000059313E0059B9B000E4A13440393039BBF
:100890001B881A46019B1B689A4204D1019B059A4A
:1008A0001A60002309E0059B01330593059A049B18
:1008B0009A42E7D3052300E00023184607B05DF80D
:1008C00004FB00BF0000002000B585B001900B467E
:1008D0008DF803309DF8032001AB11461846FFF751
:1008E000C1FF0346002B07D1019BDB00054A1344DF
:1008F0000393039B1B6800E00023184605B05DF8D6
:1009000004FB00BF3C62000084B001900B468DF8F0
:100910000330019BDB00174A134402939DF8033018
:10092000013B032B1CD801A252F823F03D09000023
:10093000450900004D0900005709000002238DF809
:100940000F3011E004238DF80F300DE0029B1B796E
:100950008DF80F3008E0029B5B798DF80F3003E0D3
:1009600000238DF80F3000BF9DF80F30184604B0FB
:10097000704700BF3C62000084B0019000910023EA
:100980008DF80F30019B1B7803F00403DBB2002BC2
:1009900024D0019B1B78C3F30103DBB2012B02D0EF
:1009A000022B0CD017E0009B1B68019A1288C2F33F
:1009B0008312D2B213449A1C009B1A600BE0009B76
:1009C0001B68019A5288C2F3891292B213449A1C8E
:1009D000009B1A6000BF01238DF80F309DF80F3087
:1009E000184604B07047000000B58BB00023ADF886
:1009F00026303E4800F0FEFF3D4800F0FBFF3D4B37
:100A00009B6804933C4B1B680693049A069B134017
:100A100002339B00374A13440433089304AB19464E
:100A20000898FFF7A9FF0346002B09D0049A069BFC
:100A3000134002339B002F4A134404330893EDE71D
:100A400000BF0023079311E0049B5A1C0492069AEE
:100A50001340079A920001A90A44264902339B00D9
:100A60000B445B681360079B01330793079B012BC3
:100A7000EAD99DF80430C3F30103DBB2012B10D097
:100A8000022B1CD1BDF80A30ADF82630BDF8063077
:100A9000C3F389139BB203339A08049B1344049352
:100AA00013E0BDF80A30ADF82630BDF80430C3F3CA
:100AB0008313DBB21A46049B1344049305E00F49E9
:100AC0004FF4C27000F009FF00BF094800F09EFF1C
:100AD0000590059B002B02D0049B064A9360BDF84D
:100AE000263018460BB05DF804FB00BF340600202A
:100AF000300600201C0200201C000020E4630000DF
:100B000000B585B00021074800F0FDFE0390039B6F
:100B10000293029B83F310030193019B184605B0D7
:100B20005DF804FB3806002000B589B003900291FF
:100B300001920093039B1B0C0793FFF7E1FF0690C4
:100B4000FFF786FE0246079B934204D3214940F2F9
:100B5000A91000F0C2FE069B1904009B5A1C0A9BB8
:100B60001340079A0A431C4902339B000B445A6006
:100B7000009A0A9B134002339B00174A1344043324
:100B80000593039B03F00703D9B2059A137861F329
:100B9000C5031370019B03F00F03D9B2059A1388A4
:100BA00061F389131380029BC3F31501059A13683F
:100BB00061F39F231360059A1378012161F3010308
:100BC0001370059A13786FF38203137000BF09B096
:100BD0005DF804FBE46300001C02002000BF7047C6
:100BE00000B58BB00390029113468DF80730039B3C
:100BF0000233089301238DF81F30002000F026FEF9
:100C00003E4B5A68029B1A603D4B1A683B4B9968F1
:100C10003A4B5B68CB1A13440133099314E001216A
:100C2000384800F0B7FEFFF7DFFE0590059935481C
:100C300000F0B0FE324B1A68304B99682F4B5B685E
:100C4000CB1A134401330993089A099B9A42E6D8B8
:100C50009DF81F30002B48D0002304939DF80730E7
:100C6000002B17D09DF81030012262F301038DF89C
:100C700010309DF8103043F004038DF81030039BC2
:100C800003F00F03DAB2BDF8103062F38913ADF848
:100C9000103016E09DF81030022262F301038DF847
:100CA00010309DF8103043F004038DF81030039B92
:100CB000C3F309039AB2BDF8123062F38F13ADF893
:100CC00012300E4B5A680E4B1B68134002339B00C8
:100CD0000A4A134404330693049A069B1A60074B8E
:100CE0005A68089B1344054A5360002000F0C2FD77
:100CF0009DF81F3018460BB05DF804FB1C02002065
:100D00001C0000203806002000B58BB0059004912F
:100D100003920293204B1B68079306AB01221946EE
:100D20000298FFF75DFF0346002B24D0069B023399
:100D300009930023089311E0089B9B00039A1A442F
:100D4000099B591C099107990B40126813490233FA
:100D50009B000B445A60089B01330893089A029B3E
:100D60009A42E9D3069A079B00931346029A049984
:100D70000598FFF7D9FE094B1B78002B05D000BF63
:100D800000F06AF80346002BFAD1FFF727FF00BFF7
:100D90000BB05DF804FB00BF1C0000201C0200200B
:100DA00000B583B0019000910023002200990198C2
:100DB000FFF7AAFF00BF03B05DF804FB00B587B0E2
:100DC000039002910192019B059305AA01230299C8
:100DD0000398FFF799FF00BF07B05DF804FB00B56B
:100DE00087B00390029101920093019B0493009BB2
:100DF000059304AA022302990398FFF785FF00BF19
:100E000007B05DF804FB00B58BB00390029101922E
:100E10000093019B0593009B06930C9B07930D9BEE
:100E200008930E9B099305AA052302990398FFF7DF
:100E30006BFF00BF0BB05DF804FB0000054B9A6828
:100E4000044B5B689A420CBF01230023DBB21846B7
:100E5000704700BF1C02002000B599B0FFF7EEFFFD
:100E60000346002B01D00023B9E19B4B0022C3F8BD
:100E70001824BFF34F8F00BF974B9B680493974B89
:100E80001B681093049A109B134002339B00924AF4
:100E90001344043311930023179300231693002364
:100EA0000F9304AB19461198FFF766FD0346002B1C
:100EB00019D0894BD3F81834002B14D1864B5A68BB
:100EC000049B9A4205D8844B5B68834A9360002355
:100ED00085E1049A109B134002339B007E4A134421
:100EE00004331193DDE70023159311E0049B5A1C92
:100EF0000492109A1340159A920001A90A44764967
:100F000002339B000B445B681360159B0133159300
:100F1000159B012BEAD99DF8043003F00303DBB2E3
:100F2000022B40F09C80BDF80630C3F389139BB2BE
:100F30000D93BDF80630C3F389139BB2502B28BF25
:100F400050239BB20C930C9BC3F309039AB2BDF8D8
:100F5000063062F38F13ADF806300C9B08330B9309
:100F60009DF80430C3F3C203DBB20F930B995C48C6
:100F700001F031FA1790179B002B00F0D3801798DF
:100F800001F0BAFA01A9169B0822179801F070FB2C
:100F9000169B08331693049BDA43109B13400133CE
:100FA0009B000A930C9A0A9B9A4242D90A9B002BF7
:100FB00008D0049A109B134002339B00464A134406
:100FC000043300E0474B08930A9B002B02D00A9B96
:100FD000DBB201E00C9BDBB28DF81F300A9B002BCB
:100FE00001D0404B00E0002306930A9B002B06D063
:100FF0000C9BDAB20A9BDBB2D31ADBB200E000230F
:101000008DF817309DF81F20169B0899179801F04E
:101010002FFB9DF81F30169A13441693069B002B46
:1010200016D09DF81720169B0699179801F020FB03
:101030000EE0049A109B134002339B00264A13448F
:1010400004330993169B0C9A0999179801F010FB29
:101050000D9B03339A08049B1344049362E09DF8AC
:10106000043003F00303DBB2012B5BD1BDF8043085
:10107000C3F38313DBB2062B28BF0623DAB2BDF815
:10108000043062F38913ADF80430BDF80430C3F3C3
:101090008313DBB202330E939DF80430C3F3C20313
:1010A000DBB20F930E9B9B0019460D4801F093F99C
:1010B0001790179B002B35D0179801F01DFA01A946
:1010C000169B0822179801F0D3FA169B0833169343
:1010D000002315931DE000BF1C0200201C0000200F
:1010E0008C62000028020020049B5A1C0492109A73
:1010F000134002339B003C4A1344191D169B0422E3
:10110000179801F0B5FA169B04331693159B01331B
:101110001593BDF80430C3F38313DBB21A46159B55
:101120009342E1D3179B002B39D02F4BD3F81034C7
:1011300014932D4BD3F81834002B1BD0179801F0C3
:10114000EAF946E000238DF84F301498FFF750FB82
:101150000346002B02D001238DF84F309DF84F300D
:10116000002B03D017991498FFF7FEFA149BDB6845
:101170001B681493149B002BE4D1179801F0CBF952
:10118000002000F063FB184BD3F81834002B02D179
:10119000049B154A9360002000F06CFB19E0124B91
:1011A000D3F81034129306E01298FFF7F7FA129B67
:1011B000DB681B681293129B002BF5D10B4A0C4B7A
:1011C000D31ADB081B0443F002030A491846FFF751
:1011D000E7FDFFF733FE034683F00103DBB2184659
:1011E00019B05DF804FB00BF1C0200206C62000017
:1011F0003C6200005864000000B585B000230393F2
:1012000023E0164BD3F81034029301238DF80730F6
:101210000FE00298FFF7DBFA03461A46039B93425E
:1012200003D100238DF8073006E0029BDB681B68C2
:101230000293029B002BECD19DF80730002B01D0CC
:10124000039B07E0039B01330393039B092BD8DD2A
:101250004FF0FF33184605B05DF804FB1C02002078
:1012600000B585B001900B468DF80330FFF7C4FF41
:101270000390039BB3F1FF3F01D1039B22E0039B4B
:10128000DBB219460198FFF795FA104BD3F81034EA
:10129000002B08D10D4A019BC2F81034019BDB687A
:1012A00000221A600DE0094BD3F81034DA68019B74
:1012B000DB6812681A60054BD3F81034DB68019ABA
:1012C0001A60039B184605B05DF804FB1C02002061
:1012D00000B583B00C4BD3F8103401930A4B0122B4
:1012E0001A7009E00198FFF77AFA0198FFF74AFAB5
:1012F000019BDB681B680193019B002BF2D100BFAF
:1013000000BF03B05DF804FB1C02002082B0019016
:10131000009100BF02B0704710B584B003900291F5
:10132000039BDB88002B0AD0039BDB881A461F4BEC
:10133000009313461E4A1F49029800F095FC039B38
:101340001B7A052B2ED0039B5B7A002B12D0039BBC
:101350009B881A46039B1B7A19461046FFF7D4FA5E
:1013600003461A46144B53F822301A461349029882
:1013700000F07AFC039B1B6819460298FFF7C6FF32
:10138000039B1B7A1A460E4B53F82240039B9B8803
:1013900000211846FFF798FA0346224609490298A9
:1013A00000F062FC00BF04B010BD00BF8C64000000
:1013B0009C640000D464000034000020EC64000051
:1013C00020000020F064000000B585B00390029179
:1013D00013468DF80730039B1B7A052B0FD0039B18
:1013E0005B7A002B06D00D4B1B681A460C490298FD
:1013F00000F03AFC0B49029800F036FC07E09DF83B
:101400000730002B03D00749029800F02DFC02980A
:1014100000F008FC00BF05B05DF804FB34000020BC
:10142000EC640000FC64000030B58BB007900691BE
:10143000059204930E9B1B7B8DF827300E9B002298
:101440001A730E990498FFF767FF059B062B7FD848
:1014500001A252F823F000BF751400007F140000B1
:101460008F140000A3140000C1140000E914000050
:101470001915000007990E9800F0F6FB69E0069B2D
:101480001B681A4607990E9800F0EEFB61E0069B78
:101490001A68069B04331B6807990E9800F0E4FB5A
:1014A00057E0069B1A68069B04331968069B0833AD
:1014B0001B6800930B4607990E9800F0D5FB48E097
:1014C000069B1968069B04331868069B08331B6843
:1014D000069A0C3212680192009303460A46079955
:1014E0000E9800F0C1FB34E0069B1868069B04339D
:1014F0001C68069B08331B68069A0C321268069912
:10150000103109680291019200932346024607991F
:101510000E9800F0A9FB1CE0069B1C68069B043398
:101520001D68069B08331B68069A0C3212680699E0
:1015300010310968069814300068039002910192F6
:1015400000932B46224607990E9800F08DFB00E091
:1015500000BF00220E990498FFF736FF0E9B9DF8FE
:1015600027201A7300BF0BB030BD00BF00B587B095
:101570000390029101920093029B082B60D8009B7C
:101580001B7B8DF81330009B00221A730099019881
:10159000FFF7C2FE0023059314E0059A029B9A42CE
:1015A00009D2039A059B13441B781A4626490098D2
:1015B00000F05AFB03E02549009800F055FB059B1D
:1015C00001330593059B072BE7D92149009800F0CB
:1015D0004BFB0023059326E0059A029B9A421BD2FF
:1015E000039A059B13441B788DF812309DF8123036
:1015F0007E2B0AD89DF81230184604F0BDFD034634
:10160000002B02D09DF8123000E02E231A4611491B
:10161000009800F029FB03E00F49009800F024FB3C
:10162000059B01330593059B072BD5D90122009912
:101630000198FFF7C9FE009B9DF813201A7300E084
:1016400000BF07B05DF804FB0065000008650000FE
:101650000C650000106500001465000086B0039062
:101660000291019201238DF817309DF81730204A1E
:10167000039B13601E4A029B53601D4A019B9360AB
:10168000039B44F20102934212D0039B44F20202F4
:10169000934220D1019B164AD360154BDB681B682F
:1016A000134A9361124BDB685B68114AD36112E005
:1016B000019B0F4A13610E4B1B699B680C4A5361D7
:1016C0000B4B1B691B680A4A9361094B1B695B68DA
:1016D000074AD36100BF72B600BF00BF9DF8173044
:1016E000DBB2002BFAD162B600BF00BF06B0704774
:1016F0003C06002000B583B002900091019244F2B4
:10170000010071466A4600F003F803B000BD00BF57
:1017100030B58BB007900691059272B600BFFFF707
:10172000D7FD00BFFFF798FB0346002BFAD1079BBC
:1017300044F20102934216D0079B44F20202934204
:101740003ED1059B09932C4A2C4BD31ADB081B0472
:1017500043F00100099B5B681A46099B1B682849F6
:10176000FFF73DFB39E0059B0893234A234BD31A2F
:10177000DB081B0443F00104089B9D68089B9B68E1
:10178000184601F073F803461846089B5B68194633
:10179000089B1B68069A02920193009103462A4611
:1017A00018492046FFF72FFB134A144BD31ADB08C6
:1017B0001B0443F0010314491846FFF7F1FA0CE04B
:1017C0000D4A0E4BD31ADB081B0443F00103069AA3
:1017D0000E491846FFF7F2FA00BF0D4B1B6803F0E5
:1017E0000103002B00D000BE059A06990798FFF769
:1017F00035FF00BF0BB030BD6C6200003C620000E2
:1018000018650000346500005C650000706500002C
:10181000F0ED00E072B600BF034B1B680133024AD3
:10182000136000BF704700BF5C060020064B1B68BA
:10183000013B054A1360044B1B68002B01D162B6C3
:1018400000BF00BF704700BF5C06002000B583B03A
:10185000019000F025F80346012B03D004494320F2
:1018600000F03BF8FFF7D6FF00BF03B05DF804FBC4
:101870008865000000B583B003468DF8073000F09E
:101880000FF80346012B03D00449512000F025F83E
:10189000FFF7CCFF00BF03B05DF804FB88650000D4
:1018A00084B0EFF305830193019BC3F30803039313
:1018B000039B002B0DD1EFF314830093009B029345
:1018C000029B03F00103002B0CBF01230023DBB2BA
:1018D00000E00123184604B0704700B585B0034608
:1018E0000091ADF80630BDF806300293009B0393DB
:1018F00002AB1A46002144F20200FFF709FF00BFC5
:1019000005B05DF804FB10B487B001900091019B15
:10191000009A53E8004F104643E8000191F0000F91
:10192000F7D1059404900391059B184607B05DF824
:10193000044B704710B487B001900091019B009A4E
:1019400053E8004F44EA020043E8000191F0000F21
:10195000F6D1059404900391049B184607B05DF8F6
:10196000044B704710B487B001900091019B009A1E
:1019700053E8004F04EA020043E8000191F0000F31
:10198000F6D1059404900391059B184607B05DF8C5
:10199000044B704710B487B001900091019B009AEE
:1019A00053E8004F04EB020043E8000191F0000F00
:1019B000F6D1059404900391049B184607B05DF896
:1019C000044B704710B487B001900091019B009ABE
:1019D00053E8004FA4EB020043E8000191F0000F30
:1019E000F6D1059404900391049B184607B05DF866
:1019F000044B704700B583B0019001210198FFF7B7
:101A000099FF0346184603B05DF804FB00B583B0A8
:101A1000019000210198FFF7A5FF0346184603B087
:101A20005DF804FB00B583B001900B468DF80330E0
:101A3000019B002B03D10849E820FFF74EFF019BD3
:101A4000DA689DF803300199098A01FB03F3134416
:101A5000184603B05DF804FBFC65000000B583B0D8
:101A600001900091019B002B03D10849F520FFF75D
:101A700034FF009B019AD2689B1A019A128AB3FB29
:101A8000F2F3DBB2184603B05DF804FBFC6500001E
:101A900000B585B00190019B002B01D10E234CE0D5
:101AA000019B1B68002B03D12649FF20FFF715FF80
:101AB000019B5B68002B04D122494FF48070FFF733
:101AC0000CFF019B9B68002B04D11E4940F20110C2
:101AD000FFF703FF019BDB68002B04D119494FF48A
:101AE0008170FFF7FAFE019B1B8A002B04D1154978
:101AF00040F20310FFF7F1FE019B9A68019B5B68BF
:101B0000D31A8DF80F30019B1B68019A52681A6036
:101B100007E0019B1A681368591C11609DF80F209B
:101B20001A709DF80F305A1E8DF80F20002BF0D13F
:101B3000019B1B6800221A710023184605B05DF84E
:101B400004FB00BFFC65000000B585B00190019B5F
:101B5000002B04D11C494FF49270FFF7BEFE002306
:101B600003930020FFF772FE019B1B681A68019B1C
:101B70005B689A421FD9019B1B681A68013A1A6078
:101B80001B681B7819460198FFF74CFF0390019BD7
:101B90009A68019B1B681B68D31A8DF80B30019B58
:101BA0001B681B799DF80B209A4204D9019B1B6886
:101BB0009DF80B201A710020FFF75CFE039B18466E
:101BC00005B05DF804FB00BFFC65000010B584B0F3
:101BD00001900091019B002B04D1114940F2471064
:101BE000FFF77BFE009B002B04D10D494FF4A4703E
:101BF000FFF773FE009B03930020FFF727FE019B76
:101C00001B681C68621C1A6003990198FFF726FF85
:101C1000034623700020FFF72DFE00BF04B010BD67
:101C2000FC65000000B583B00190019B002B03D13F
:101C30000C493120FFF751FE019B9B68002B0CD013
:101C4000019B5B69019A1069019A1168019A926877
:101C50009847019B00229A6000E000BF03B05DF846
:101C600004FB00BF6C6600000EB400B584B00190A8
:101C7000019B002B03D118494220FFF72EFE019B48
:101C80005B69002B03D114494320FFF726FE019B1B
:101C90001B68002B03D110494420FFF71EFE019B57
:101CA0005B68002B03D10C494520FFF716FE059B0E
:101CB000002B0AD00023039306AB039303AB1A4611
:101CC0000599019800F0B8F900E000BF04B05DF894
:101CD00004EB03B0704700BF6C66000000B583B032
:101CE00001900B468DF803309DF803300A2B03D189
:101CF0000D210198FFF7F2FF019B1A68019B9B6879
:101D0000581C0199886013449DF803201A70019BA8
:101D10009A68019B5B689A4202D30198FFF782FFA1
:101D200000BF03B05DF804FB00B587B003900291DB
:101D30000192009300230593009B03F00103002B05
:101D400024D00BE0029B01330293059B01330593E2
:101D50009DF8133019460398FFF7C0FF029B1B78CC
:101D60008DF813309DF81330002BEBD106E0019B6A
:101D7000013B019320210398FFF7B0FF019A059BD7
:101D80009A422ED9019B002BF1D12AE0029B002B15
:101D90000BD0029804F021FA059006E0019B013B6C
:101DA000019320210398FFF799FF019A059B9A421E
:101DB0000FD9019B002BF1D10BE0029B0133029361
:101DC000059B013305939DF8133019460398FFF7DF
:101DD00085FF029B1B788DF813309DF81330002B84
:101DE000EBD100BF07B05DF804FB000000B589B07F
:101DF0000390029101920093029B079301230693A3
:101E000007E0079A019BB2FBF3F30793069B0133AC
:101E10000693079A019B9A42F3D2009A069B9A4234
:101E200001D9009B06930B9B03F00103002B22D1E9
:101E30000A9B002B1FD00B9B03F00203002B06D044
:101E4000009B002B03D130238DF8173002E02023B4
:101E50008DF8173008E00A9B013B0A939DF8173074
:101E600019460398FFF73AFF0A9B002B03D0069A06
:101E70000A9B9A42EFD301230793009B012B03D9BE
:101E8000009B013B009309E0029A079BB2FBF3F32E
:101E90000493049A019B9A4200D205E0079B019AA1
:101EA00002FB03F30793E8E7029A079BB2FBF3F305
:101EB0000493049B079A02FB03F3029AD31A02933A
:101EC000154A049B13441B7819460398FFF706FF35
:101ED000079A019BB2FBF3F30793079B002BE3D117
:101EE0000B9B03F00103002B11D00A9B002B0ED09B
:101EF00006E00A9B013B0A9320210398FFF7EEFEC0
:101F00000A9B002B03D0069A0A9B9A42F1D300BF8A
:101F100009B05DF804FB00BF3C67000000B589B064
:101F20000590049103920293049B002BB8BF5B427F
:101F300006930123079307E0039B069A92FBF3F3B2
:101F40000693079B01330793039B069A9A42F3DAA1
:101F5000029A079B9A4201D9029B07930A9B002B86
:101F60000AD0049B002B04DB0B9B03F00403002B23
:101F700002D00A9B013B0A930B9B03F00203002B48
:101F800002D0029B002B16D00B9B03F00103002B09
:101F900011D10A9B002B0ED006E00A9B013B0A934D
:101FA00020210598FFF79AFE0A9B002B03D0079A81
:101FB0000A9B9A42F1D3049B002B07DA049B5B42F5
:101FC00004932D210598FFF789FE08E00B9B03F091
:101FD0000403002B03D02B210598FFF77FFE0B9BFA
:101FE00003F00203002B19D00B9B03F00103002B1D
:101FF00014D1029B002B11D10A9B002B0ED006E0BE
:102000000A9B013B0A9330210598FFF767FE0A9B64
:10201000002B03D0079A0A9B9A42F1D304990B9B99
:1020200001930A9B0093029B039A0598FFF7DEFE3B
:1020300000BF09B05DF804FB00B58FB005900491B6
:102040000392059B002B04D1AD4940F25220FFF7CB
:1020500044FC059B5B69002B04D1A9494FF4157022
:10206000FFF73BFC059B1B68002B04D1A44940F201
:102070005520FFF732FC059B5B68002B04D1A0497B
:1020800040F25620FFF729FC049B002B00F09381BF
:10209000049B1B788DF83730049B013304939DF823
:1020A0003730002B00F07E819DF83730252B40F033
:1020B0006D8100230A9301230C93049B1B788DF8F8
:1020C00037309DF83730302B0DD0302B1BDC2B2BCD
:1020D00011D02D2B17D10A9B43F001030A93049BC7
:1020E0000133049312E00A9B43F002030A93049B1A
:1020F000013304930AE00A9B43F004030A93049B10
:102100000133049302E000230C9300BF0C9B002BCF
:10211000D3D1002309939DF837302A2B0CD1039B90
:102120001B68191D039A11601B68099A13440993CF
:10213000049B013304931AE0049B1B788DF837301D
:102140009DF837302F2B12D99DF83730392B0ED808
:10215000049B01330493099A13469B0013445B00CC
:102160001A469DF837301344303B0993D3E70023D8
:102170000B93049B1B788DF837309DF837302E2B4E
:102180001DD1049B01330493049B1B788DF83730D9
:102190009DF837302F2B12D99DF83730392B0ED8B8
:1021A000049B013304930B9A13469B0013445B007A
:1021B0001A469DF837301344303B0B93E4E7049BF9
:1021C0001B788DF837309DF837306C2B03D09DF895
:1021D0003730682B07D1049B01330493049B1B7891
:1021E0008DF83730EFE79DF83730252B00F0C480AD
:1021F000252BC0F2C680782B00F3C380582BC0F289
:10220000C080583B202B00F2BC8001A252F823F082
:1022100005230000832300008323000083230000A4
:102220008323000083230000832300008323000016
:1022300083230000832300008323000095220000F5
:10224000B7220000832300008323000083230000C3
:1022500083230000B72200008323000083230000B3
:1022600083230000832300008323000083230000D6
:10227000452300008323000083230000292300005E
:1022800083230000DB22000083230000832300005F
:1022900005230000039B1B68191D039A11601B682E
:1022A0000C930C9B8DF81F309DF81F301946059834
:1022B000FFF714FD66E0039B1B68191D039A11606C
:1022C0001B680C930A9B0193099B00930B9B0A22AA
:1022D0000C990598FFF722FE54E0039B1B68191D1B
:1022E000039A11601B680C930C990A9B0193099B3C
:1022F00000930B9B0A220598FFF778FD42E000BF90
:10230000D0660000039B1B68191D039A11601B68AF
:102310000C930C990A9B0193099B00930B9B102231
:102320000598FFF763FD2DE0039B1B68191D039AB9
:1023300011601B6808930A9B099A08990598FFF792
:10234000F3FC1FE0039B1B68191D039A11601B68B7
:102350000C9330210598FFF7C1FC78210598FFF711
:10236000BDFC0C990023019308230093082310223D
:102370000598FFF73BFD05E025210598FFF7AEFC2A
:1023800000E000BF049B0133049305E09DF8373063
:1023900019460598FFF7A2FC049B1B78002B7FF4DD
:1023A00077AE00E000BF059B1B7B002B04D0059897
:1023B000FFF738FC00E000BF0FB05DF804FB00BF82
:1023C00000B583B001900198FFF762FB0346184601
:1023D00003B05DF804FB00B58BB001900091019B48
:1023E0001B8A043B0793009A079B1344DA1C079B44
:1023F000B2FBF3F38DF81B300198FFF7A5FB0590B6
:10240000059B002B01D1002338E0059B00221A71A7
:10241000059B01225A71079B9AB2059BDA80059BA6
:1024200009939DF81B30013B0493099B019A1A60A4
:10243000002308931DE00198FFF786FB0390039BA0
:10244000002B0ED0059B5B790133DAB2059B5A71E4
:10245000099B039A1A60039B019A1A60039B0993D4
:1024600004E0059800F00EF8002307E0089B013314
:102470000893089A049B9A42DDD3059B18460BB03B
:102480005DF804FB00B58BB00190019B0793079B9F
:102490005B798DF81B30019B08939DF81B30013B45
:1024A00005930023099305E0089B1B680893099B8B
:1024B00001330993099A059B9A42F5D3089B1B683F
:1024C0000493019B0893002309930BE0089B1B686E
:1024D000039308990498FFF779FB039B0893099BE2
:1024E000013309939DF81B30099A9A42EED300BF3D
:1024F00000BF0BB05DF804FB00B585B00190019BF7
:102500000393039B043301211846FFF743FA00BFEE
:1025100005B05DF804FB00B587B00190019B059301
:10252000059B043301211846FFF74CFA0346039339
:1025300003AB0493049B1B78002B02D10198FFF797
:10254000A1FF00BF07B05DF804FB000000B591B02B
:102550000390029101920093039B002B03D1434906
:10256000B620FFF7BAF9039B0993039B0F93099BCE
:10257000DB881A46099B5B7902FB03F3043B089353
:10258000009A089B9A4203D33849C420FFF7A5F963
:10259000099BDB880793009B1A1D079BB2FBF3F393
:1025A0000E93009B0433079AB3FBF2F2079901FBE9
:1025B00002F29B1A0D93019B1A68009B1344089A20
:1025C0009A4203D2089A009BD31A01E0019B1B6830
:1025D0000C93019B0C9A1A6005E00F9B1B680F93EC
:1025E0000E9B013B0E930E9B002BF6D100230B9309
:1025F000079A0D9BD31A0A930A9A0C9B934228BF01
:1026000013460A932AE0029A0B9B134406930F9AEF
:102610000D9B1344043305939DF84830002B05D0DF
:102620000A9A0599069803F0AFFD04E00A9A069904
:10263000059803F0A9FD00230D930F9B1B680F93D2
:102640000C9A0A9BD31A0C930B9A0A9B13440B9374
:10265000079A0C9B934228BF13460A930C9B002BAE
:10266000D1D100BF00BF11B05DF804FB4C67000082
:1026700000B589B00590049103920293039B0793E0
:1026800007AA00230093029B04990598FFF75EFFB9
:10269000079B039A9A4203D00349F620FFF71DF9DE
:1026A00000BF09B05DF804FB4C67000000B589B0BD
:1026B0000590049103920293039B079307AA0123B9
:1026C0000093029B04990598FFF740FF079B039A2C
:1026D0009A4204D004494FF48070FFF7FEF800BF1F
:1026E00009B05DF804FB00BF4C67000082B00346F0
:1026F0008DF807309DF90730002B0DDB9DF8073072
:1027000003F01F0206499DF907305B09012000FA1A
:1027100002F2603341F8232000BF02B0704700BFCF
:1027200000E100E000B583B00190019B002B03D1D4
:1027300006497220FFF7D1F8019B00221A60BFF30F
:102740005F8F00BF00BF03B05DF804FB106800009E
:1027500000B583B00020FFF779F8F1EE103A01934D
:10276000019B23F09F030093009BE1EE103A00BF12
:10277000BFF35F8F00BF2620FFF7B8FF0020FFF7F1
:1027800079F8019B03F00703002B03D003497D2058
:10279000FFF7A3F800BF03B05DF804FB5468000026
:1027A00008B5064B00221A700548FFF7BBFF054924
:1027B000054800F031F80023184608BD64060020E3
:1027C00060060020C86800006806002008B5FFF712
:1027D000BFFF20BF40BF20BF00BF08BD82B0019037
:1027E000019B9B6800229A60019B9B6800221A61F2
:1027F000019B9B6800225A61019B9B680022DA6062
:10280000019B9B6800225A60019B9B6800221A6012
:1028100000BF02B07047000000B583B00190009186
:10282000019B002B03D110495020FFF756F8009B65
:10283000002B03D10C495120FFF74FF8019B009A60
:102840001A60019B1B681A68019B5A60019B5A68B9
:10285000019B1B685B689A4202D1019B00225A606F
:1028600000BF03B05DF804FBD468000000B585B07C
:102870000190019800F00EF80390039B002B01D00B
:10288000039B00E0024B184605B05DF804FB00BF57
:102890005C69000086B00190164B0593164B0493BB
:1028A0001FE0049A059BD31ADB10DA0F13445B1068
:1028B000DB00059A13440393039B1B680293029A5F
:1028C000019B9A4202D9039B04930AE0029A019B5E
:1028D0009A4203D2039B0833059302E0039B5B6893
:1028E00004E0059A049B9A42DBD30023184606B005
:1028F000704700BF306D0000486E0000054B1B782C
:10290000002B04D1034B01221A70002300E0852321
:10291000184670477006002000B589B001900091FC
:10292000009B0793019B1B788DF80C30019B5B6823
:102930000493019B9B68DBB28DF81430019BDB682C
:102940000693074A079B52F823300649079A51F825
:10295000221003AA1046984700BF09B05DF804FB97
:10296000740600207C06002000B589B0019000911B
:10297000009B0793019B1B788DF80C30019B5B68D3
:102980000493019B9B68DBB28DF81430019BDB68DC
:102990000693074A079B52F823300649079A51F8D5
:1029A000221003AA1046984700BF09B05DF804FB47
:1029B000740600207C06002030B58FB00390029191
:1029C0000192039B1B780C932C490C9B019A41F8B4
:1029D0002320029B1A692A490C9B41F823200C9B57
:1029E000012B07D1029B5B7F002B03D12549762069
:1029F000FEF773FF029B5B7F1946234A0C9B13442F
:102A00000A461A70029B04AC1D460FCD0FC495E810
:102A10000F0084E80F000C9B089300230D93039B89
:102A20001B781A46184B9B5C002B0DD0039B181D7E
:102A3000019B002B01D0154A00E0002204AB19468F
:102A400002F074FB0D9014E0039B1B781A460E4BAA
:102A50009B5C002B0DD1039B03F10C00019B002B11
:102A600001D00B4A00E0002204AB194601F0E2FC61
:102A70000D900D9B18460FB030BD00BF74060020AE
:102A80007C060020486E0000840600201929000002
:102A90006929000082B003468DF807309DF80730A1
:102AA000044A012101FA03F3C2F8043500BF02B061
:102AB000704700BF00F0014084B0034602910192CC
:102AC0008DF80F3008499DF80F30A233029A41F873
:102AD0003320054A9DF80F30A233DB001344019ADE
:102AE0005A6000BF04B0704700F0014082B0034656
:102AF0008DF807309DF80730012202FA03F31846DB
:102B000002B0704700B583B003468DF807309DF8DA
:102B100007301846FFF7EAFF0346C3F31303002B01
:102B200014BF01230023DBB2184603B05DF804FB99
:102B300082B001900123184602B0704700B583B0FF
:102B400003468DF807309DF807301846FFF7CEFF93
:102B500003461846FFF7ECFF0346184603B05DF83E
:102B600004FB000000B583B003468DF807309DF8E4
:102B700007301846FFF7BAFF0246064B1B681340A2
:102B8000002B14BF01230023DBB2184603B05DF80D
:102B900004FB00BF8806002000B583B003468DF813
:102BA00007309DF807301846FFF7A0FF0246044B98
:102BB0001B681343024A136000BF03B05DF804FBB7
:102BC0008806002000B587B00190002304930023FD
:102BD000059304230493244B059300238DF80F30B1
:102BE00037E00020FEF732FE9DF80F301846FFF761
:102BF0007DFF0246059B1340002B15D09DF80F303A
:102C00001846FFF7AFFF034683F00103DBB2002B4A
:102C10000AD09DF80F301846FFF7BEFF019B9DF8C4
:102C20000F201A70002304930020FEF723FE049B5C
:102C3000002B12D09DF80F301846FFF757FF0346C0
:102C4000DB43059A134005939DF80F3001338DF84F
:102C50000F30059B002BC4D100E000BF049B184639
:102C600007B05DF804FB00BFFFFF0F0000B587B0A1
:102C70000346029101928DF80F30029B002B02D087
:102C8000019B002B01D10E2325E0002305939DF825
:102C90000F301846FFF736FF034683F00103DBB21F
:102CA000002B02D00723059314E09DF80F3018463F
:102CB000FFF758FF034683F00103DBB2002B02D07D
:102CC0000823059306E09DF80F30019A02991846F3
:102CD000FFF7F2FE059B184607B05DF804FB00B550
:102CE00085B003468DF80730002303939DF8073025
:102CF0001846FFF723FF034683F00103DBB2002BE6
:102D000002D0072303931AE09DF807301846FFF717
:102D1000F9FE0346002B0DD09DF807301846FFF74B
:102D200021FF034683F00103DBB2002B02D008230E
:102D3000039304E09DF807301846FFF7ABFE039BB2
:102D4000184605B05DF804FB08B5064B1B68002B60
:102D500003D105495120FEF7C0FD024B1B6898477F
:102D600000BF08BD8C060020BC6E000082B0019040
:102D7000019B044A934201D1034B00E00023184613
:102D800002B07047002000408C06002000B587B0DC
:102D900001900091019B002B03D118497720FEF789
:102DA0009CFD0198FFF7E2FF0590059B002B1ED0CC
:102DB00000238DF813300020FEF748FD059B1B799A
:102DC000002B03D001238DF8133005E0059B009AFA
:102DD0001A60059B01221A710020FEF74BFD9DF839
:102DE0001330002B03D011230393039B02E0002335
:102DF0000393039B184607B05DF804FBBC6E00000C
:102E000000B585B00190019B002B03D10A499B209E
:102E1000FEF763FD0198FFF7A9FF0390039B002BCA
:102E200005D0039B00221A60039B00221A7100BF89
:102E300005B05DF804FB00BFBC6E000082B0034625
:102E40008DF807309DF90730002B0CDB9DF807301B
:102E500003F01F0205499DF907305B09012000FAC4
:102E600002F241F8232000BF02B0704700E100E009
:102E700082B0034600918DF807309DF90730002B92
:102E80000ADB009BDAB20C499DF907305201D2B23D
:102E90000B4483F800230BE0009BDAB207499DF84E
:102EA000073003F00F03043B5201D2B20B441A76F1
:102EB00000BF02B0704700BF00E100E000ED00E09D
:102EC00000B583B003460A468DF8073013468DF8E7
:102ED00006309DF80630072B03D908496B20FEF712
:102EE000FCFC9DF806209DF9073011461846FFF7B7
:102EF000BFFF00BF03B05DF804FB00BF286F0000F8
:102F000000B583B003468DF807309DF907301846A9
:102F1000FFF794FF00BF03B05DF804FB82B00346E7
:102F20008DF807309DF8073003F1804303F5E04347
:102F300001221A6000BF02B0704782B003468DF8CC
:102F400007309DF8073003F1804303F5E04318464E
:102F500002B0704782B00346ADF80630BDF80630C7
:102F600003F1804303F5E0431B68002B14BF0123EA
:102F70000023DBB2184602B0704784B00346ADF8B8
:102F80000630BDF8063003F1804303F5E04300222C
:102F90001A60BDF8063003F1804303F5E0431B6877
:102FA0000393039B00BF04B07047000082B0034648
:102FB0008DF807300B468DF8063013468DF8053036
:102FC0000A499DF807309DF8052051331B010B4439
:102FD00004331A6005499DF807309DF806205133E7
:102FE0001B010B441A6000BF02B070470070004024
:102FF00082B00190034A019BC2F8043300BF02B0C3
:10300000704700BF0070004082B00190034A019BEE
:10301000C2F8083300BF02B0704700BF0070004024
:10302000024B0122C3F8002500BF7047007000402A
:1030300082B001900091054A019BC2F82C36034AE8
:10304000009BC2F8303600BF02B0704700700040ED
:1030500082B003468DF80730034A9DF80730C2F866
:10306000F03500BF02B070470070004082B00346E8
:103070008DF80730034A9DF80730C2F8F43500BFD9
:1030800002B0704700700040024BD3F8F435DBB259
:10309000184670470070004000B583B003460091A9
:1030A0008DF80730009B1B7803F00302009B5B78D0
:1030B0001B0103F030031A43009B9B781B0203F4AF
:1030C000E0631A43009BDB781B0303F480531A432D
:1030D000009B1B791B0403F4E0231A43009B5B79DC
:1030E0001B0503F4801342EA0301009B9B791B0636
:1030F00003F080720A489DF807300A431B0103441D
:1031000003F5A3631A60009BD979009B1A7A9DF896
:1031100007301846FFF74AFF00BF03B05DF804FB15
:103120000070004000B58FB04FF48270FFF712FFBF
:103130000346002B46D04FF48270FFF71EFF904BE2
:1031400093F82E3083F00103DBB2002B04D18C4BBB
:1031500093F82F30002B35D000238DF81C30884B8E
:103160005B680893864B1B899BB2ADF82430844B77
:10317000DB68002B03D1824B00221A7419E0804BCC
:103180001A8B7F4B5A837E4BDB687D4A53607C4BA6
:103190001A8B7B4B1A817A4B0022DA60784B93F8BA
:1031A0002E3083F00103DBB2002B02D00020FFF7AA
:1031B000B5FE734B1B6807AA10469847704B002258
:1031C00083F82F206E4B93F82E30002B62D04FF4F3
:1031D0008070FFF7BFFE0346002B5BD04FF480707A
:1031E000FFF7CBFE664B5A8B654B93F82D309BB2A5
:1031F0009A421CD9624B5A8B614B93F82D309BB28B
:10320000D31A9AB25E4B5A835D4B5A685C4B1B894A
:103210009BB219465A4B5B8BCB1A5B001344584A3E
:1032200092F82D2011461846FFF702FF2BE0544B71
:103230005A8B534B93F82D309BB29A4214D1504B7A
:10324000DB68002B10D04E4B012283F82F204C4B13
:1032500000225A834A4BDB68494A92F82D201146D6
:103260001846FFF7E5FE0EE0454B5A8B444B93F8AA
:103270002D309BB29A4206D1414B012283F82F2078
:103280003F4B00225A834FF48270FFF776FE0420F2
:10329000FFF744FE4FF48870FFF75CFE0346002BF7
:1032A0000ED04FF48870FFF768FE354B00221A7479
:1032B00002238DF81030324B1B6804AA1046984741
:1032C0004FF48A70FFF746FE0346002B07D04FF4F9
:1032D0008A70FFF752FE2A4B00221A744CE0284BEA
:1032E0005B690D9345E00D9B0A930A9B002B01D16E
:1032F000202303E00A9BB3FA83F3DBB20C934FF075
:1033000000420C9B22FA03F3DB430D9A13400D930A
:103310000C9B9BB246339BB29B00ADF82E30BDF8A0
:103320002E301846FFF716FE0346002B21D0BDF8BD
:103330002E301846FFF721FE01238DF80430BDF82A
:103340002E30A3F58C73DB08DBB28DF80830BDF8A6
:103350002E30A3F58C7303F00403002B0CBF012364
:103360000023DBB28DF80930054B1B6801AA10461B
:1033700098470D9B002BB6D100BF0FB05DF804FB42
:103380009406002000B585B001900091019B002BB0
:1033900003D13249D820FEF7A0FA009B002B03D1BD
:1033A0002E49D920FEF799FA2D4B93F82C30002B9B
:1033B00003D008230393039B4CE0294A009B13602E
:1033C000019B1B781846FFF743FE019B5B7818466C
:1033D000FFF74CFE019BDA78214B83F82E20204B1F
:1033E000012283F82C201E4B00221A741C4B002251
:1033F00083F82D201A4B00225A61194B002283F8C2
:103400002F206FF00040FFF7FFFD4FF48270FFF7B1
:10341000B4FD4FF48070FFF7B0FD4FF48A70FFF7F2
:10342000ACFD019B9B7819460720FFF749FD07205B
:10343000FFF766FD0220FFF7DBFD094B93F82E3006
:10344000002B02D00120FFF7D3FDFFF7E9FD002399
:103450000393039B184605B05DF804FB906F0000D2
:103460009406002000B585B0034600918DF8073022
:10347000394B93F82C30002B04D1384940F22510F9
:10348000FEF72BFA9DF80730072B04D933494FF488
:103490009370FEF722FAFFF7F7FD0346002B09D0E1
:1034A0002D4B93F82D30002B04D02C494FF4947001
:1034B000FEF713FA009BDB790D2B03D8009BDB7919
:1034C000002B04D125494FF49670FEF706FA009BB5
:1034D0001B7A0D2B04D921494FF49770FEF7FDF9A3
:1034E0001D4B1B7CDBB2002B03D011230393039BEA
:1034F0002DE09DF80730184A0C335B0013441B790C
:10350000002B07D1144B93F82D300133DAB2124B54
:1035100083F82D209DF80730009AD1790E4A0C339C
:103520005B0013440A461A719DF80730009A117A1D
:10353000094A0C335B0013440A465A719DF8073060
:1035400000991846FFF7A8FD00230393039B184634
:1035500005B05DF804FB00BF94060020906F0000EA
:1035600008B5074B93F82E30002B01D0002300E064
:1035700004231846FFF7E1FC0346184608BD00BFC8
:103580009406002000B585B001900B46ADF80230DE
:103590004C4B93F82C30002B04D14B494FF4E47082
:1035A000FEF79BF9BDF80230464A92F82D2093FBB6
:1035B000F2F101FB02F29B1A002B04D0424940F2C7
:1035C000C910FEF78AF91220FFF71EFD3D4B1B7C48
:1035D000DBB2022B06D11220FFF70AFD1123039361
:1035E000039B6BE0374B1B7CDBB2012B35D1354B9A
:1035F000DB68002B06D00220FFF7FAFC11230393AF
:10360000039B5BE02F4A019BD3602E4ABDF802303A
:1036100013832C4B93F82E3083F00103DBB2002B85
:1036200014D000BF4FF48070FFF794FC034683F082
:103630000103DBB2002BF5D14FF48070FFF79DFC46
:10364000BDF8023019460198FFF7F2FC0220FFF79F
:10365000CFFC00230393039B30E00220FFF7C8FC5C
:10366000184B01221A74174A019B5360154ABDF882
:1036700002301381134B0022DA60124B93F82E3084
:10368000002B0BD00F4ABDF8023053830D4B93F83B
:103690002D3019460198FFF7CBFC0CE0BDF8023045
:1036A00019460198FFF7C4FC4FF48070FFF765FCE2
:1036B0000020FFF733FC00230393039B184605B05B
:1036C0005DF804FB94060020906F000082B0034672
:1036D0008DF807309DF90730002B0CDB9DF8073083
:1036E00003F01F0205499DF907305B09012000FA2C
:1036F00002F241F8232000BF02B0704700E100E071
:1037000082B0034600918DF807309DF90730002BF9
:103710000ADB009BDAB20C499DF907305201D2B2A4
:103720000B4483F800230BE0009BDAB207499DF8B5
:10373000073003F00F03043B5201D2B20B441A7658
:1037400000BF02B0704700BF00E100E000ED00E004
:1037500082B00190019B1B0B5BB2184602B0704710
:1037600000B583B003460A468DF8073013468DF83E
:1037700006309DF80630072B03D908496B20FEF769
:10378000ACF89DF806209DF9073011461846FFF762
:10379000B7FF00BF03B05DF804FB00BFFC6F000083
:1037A00000B583B003468DF807309DF90730184601
:1037B000FFF78CFF00BF03B05DF804FB82B00190FF
:1037C0000B468DF803309DF80330019A1344012213
:1037D0001A6000BF02B0704784B001900B46ADF88C
:1037E0000230BDF80230019A134400221A60BDF87D
:1037F0000230019A13441B680393039B00BF04B07B
:10380000704782B001900B46ADF80230BDF802302F
:10381000019A13441B68002B14BF01230023DBB261
:10382000184602B0704782B001900091019BD3F816
:103830000022009B1A43019BC3F8002200BF02B084
:10384000704782B001900091019BD3F80022009B49
:10385000DB431A40019BC3F8002200BF02B070474F
:1038600082B001900091019B009AC3F8042300BF2D
:1038700002B0704782B001900091019B009AC3F89A
:10388000082300BF02B0704782B001900091019BF5
:10389000D3F80423009B1340002B14BF0123002303
:1038A000DBB2184602B0704782B001900B468DF82B
:1038B0000330019BD3F8043523F003029DF8033055
:1038C00003F003031A43019BC3F8042500BF02B0B1
:1038D000704782B001900B468DF80330019BD3F8FE
:1038E000083523F003029DF8033003F003031A4365
:1038F000019BC3F8082500BF02B0704782B0019059
:103900000B468DF80330019BD3F8103523F00F02DE
:103910009DF8033003F00F031A43019BC3F81025F1
:1039200000BF02B0704784B003900B4601928DF83F
:103930000B309DF80B20039B02F5A872019943F808
:10394000221000BF04B0704782B00190019B9B0021
:1039500003F5A0739BB2184602B0704782B0019085
:103960004FF48032019B02FA03F3184602B070470D
:1039700010B588B0039002910192039B1B791A46FF
:1039800013465B0013449B00704A13440793029B49
:10399000002B03D16E494A20FDF79FFF019B002BAE
:1039A00003D16B494B20FDF798FF079B1B7A002B37
:1039B00003D008230593059BC4E0039B1B68654A5D
:1039C00093420FD1029B9B78012B64D0029B9B7882
:1039D000002B60D0029B9B78022B5CD0029B9B78D3
:1039E000032B58D0039B1B685B4A93420FD1029B69
:1039F0009B78012B4FD0029B9B78002B4BD0029BD6
:103A00009B78022B47D0029B9B78032B43D0039BD0
:103A10001B68524A93420FD1029B9B78012B3AD0EC
:103A2000029B9B78002B36D0029B9B78022B32D0D6
:103A3000029B9B78032B2ED0039B1B68484A934222
:103A40000FD1029B9B78012B25D0029B9B78002BEA
:103A500021D0029B9B78022B1DD0029B9B78032BCD
:103A600019D0039B1B683F4A93420FD1029B9B785E
:103A7000012B10D0029B9B78002B0CD0029B9B78D3
:103A8000022B08D0029B9B78032B04D030495F2087
:103A9000FDF723FF00E000BF079B019A1A60029B1D
:103AA0005A68079B5A6000238DF81B3010E0039B77
:103AB0001C689DF81B301846FFF746FF0346194661
:103AC0002046FFF789FE9DF81B3001338DF81B302F
:103AD000039B5B799DF81B209A42E8D3039B1B68EC
:103AE0001846FFF735FE03461A46029BDB78194657
:103AF0001046FFF735FE039B1B681846FFF728FEAC
:103B000003461846FFF74CFE039B1A68029B5B783E
:103B100019461046FFF7C8FE039B1A68029B9B7864
:103B200019461046FFF7D5FE039B1A68029B1B78C7
:103B300019461046FFF7E2FE079B01221A72002386
:103B40000593059B184608B010BD00BFC4060020B1
:103B500034700000008000400090004000A0004051
:103B600000A0014000B0014000B583B00190019B6E
:103B70001B791946114A0B465B000B449B0013440A
:103B800008331B78012B03D00D498F20FDF7A5FECC
:103B9000019B1B6800211846FFF710FE019B1B7953
:103BA0001946064A0B465B000B449B00134408333E
:103BB00002221A7000BF03B05DF804FBC4060020A7
:103BC0003470000010B586B0039001921A460B467F
:103BD0008DF80B3013468DF80A309DF80B301846DF
:103BE000FFF7BCFE05909DF80A30002B12D0039B16
:103BF0001C689DF80B301846FFF7A6FE03461946D1
:103C00002046FFF7E9FD039B1B6805991846FFF75F
:103C100027FE05E0039B1B6805991846FFF72AFE5F
:103C2000039B1B689DF80B10019A1846FFF77BFE5B
:103C300000BF06B010BD00B585B0039001921A46D2
:103C40000B468DF80B301346ADF80830039B18680F
:103C50009DF80B304FF480729A409DF80B30012193
:103C600001FA03F313431946FFF7EBFD039B1B68AF
:103C7000BDF8082011461846FFF7D5FD9DF818300D
:103C80009DF80B10019A0398FFF79CFF00BF05B049
:103C90005DF804FB00B587B00390029113468DF8E0
:103CA000073000238DF8173030E09DF817301846A4
:103CB000FFF74AFE0346ADF814309DF8173018465A
:103CC000FFF74CFE0490BDF8143019460398FFF737
:103CD00098FD0346002B14D004990398FFF7D4FDF8
:103CE0000346002B0DD0BDF8143019460398FFF79A
:103CF00073FD029B1B68029A5168BDF814201046A0
:103D000098479DF8173001338DF817309DF817202C
:103D10009DF807309A42C8D300BF00BF07B05DF8D6
:103D200004FB000008B5042202490348FFF7B2FF74
:103D300000BF08BDC40600200080004082B00346DA
:103D40008DF807309DF90730002B0CDB9DF807300C
:103D500003F01F0205499DF907305B09012000FAB5
:103D600002F241F8232000BF02B0704700E100E0FA
:103D700082B003468DF807309DF90730002B13DB26
:103D80009DF8073003F01F0209499DF907305B09D0
:103D9000012000FA02F2203341F82320BFF34F8FB5
:103DA00000BFBFF36F8F00BF00BF02B0704700BFFE
:103DB00000E100E082B0034600918DF807309DF9E4
:103DC0000730002B0ADB009BDAB20C499DF9073063
:103DD0005201D2B20B4483F800230BE0009BDAB20D
:103DE00007499DF8073003F00F03043B5201D2B29C
:103DF0000B441A7600BF02B0704700BF00E100E03C
:103E000000ED00E082B00190019B1B0B5BB21846F5
:103E100002B0704700B583B003460A468DF80730FC
:103E200013468DF806309DF80630072B03D9084954
:103E30006B20FDF752FD9DF806209DF907301146D5
:103E40001846FFF7B7FF00BF03B05DF804FB00BFE3
:103E5000A070000000B583B003468DF807309DF9CF
:103E600007301846FFF76AFF00BF03B05DF804FB98
:103E700000B583B003468DF807309DF9073018462A
:103E8000FFF776FF00BF03B05DF804FB84B001903C
:103E90000B46ADF80230BDF80230019A13440022FF
:103EA0001A60BDF80230019A13441B680393039B08
:103EB00000BF04B0704782B001900B46ADF80230ED
:103EC000BDF80230019A13441B68002B14BF012374
:103ED0000023DBB2184602B0704782B00190009117
:103EE000019B009AC3F8042300BF02B0704782B060
:103EF00001900091019BD3F80423009B1340002BF9
:103F000014BF01230023DBB2184602B0704782B011
:103F100001900091019B009AC3F8082300BF02B0F2
:103F2000704784B00190019BD3F880340393019BC8
:103F3000039AC3F88024039B184604B0704782B0EC
:103F40000190019B0422C3F8002500BF02B0704716
:103F500082B00190019B0022C3F8002500BF02B08F
:103F6000704784B0039002910192039B019AC3F8B9
:103F70001425039B029AC3F80C2500BF04B07047B8
:103F800000B583B001904FF0FF324FF0FF31019840
:103F9000FFF7E7FF00BF03B05DF804FB82B00190BC
:103FA000019BD3F80C35184602B0704782B00190DF
:103FB000019BD3F81435184602B0704782B00190C7
:103FC000019BD3F80835184602B0704782B00190C3
:103FD000019BD3F81035184602B0704784B00390A7
:103FE00002910192039B029AC3F80825039B019A50
:103FF000C3F8102500BF04B0704700B583B001902E
:104000004FF0FF324FF0FF310198FFF7E7FF00BF9D
:1040100003B05DF804FB82B00190019BD3F8183522
:10402000DBB2184602B0704782B001900B468DF8A3
:1040300003309DF80320019BC3F81C2500BF02B08C
:10404000704782B001900B468DF803309DF8033025
:10405000019A134401221A6000BF02B0704782B077
:1040600001900B468DF8033013468DF802309DF811
:1040700003209DF802301343DBB21A46019BC3F8BC
:104080006C2500BF02B0704782B001900091019B87
:10409000009AC3F8242500BF02B0704700B583B072
:1040A0000190019B1B68184600F0A4F80346002B02
:1040B00004D10B494FF4F670FDF70FFC019B1B6810
:1040C0001F2B02D84FF0A04306E0019B1B6803F0B2
:1040D0001F02019B1A60034B184603B05DF804FBF6
:1040E000D07000000003005000B585B00190084674
:1040F00011461A4603468DF803300B468DF8023000
:1041000013468DF8013001AB1846FFF7C7FF039047
:104110009DF803209DF802305B001A439DF80130A2
:104120009B001A439DF818301B0242EA03019DF8D8
:104130001C301B04019A1943039B02F5E07243F8FB
:10414000221000BF05B05DF804FB00B585B00390F8
:1041500000230193002300930023012201210398EF
:10416000FFF7C2FF00BF05B05DF804FB00B585B0E6
:1041700003900B468DF80B309DF80B300022019216
:1041800000220092002200210398FFF7ADFF00BF3C
:1041900005B05DF804FB00B585B0039000230193E2
:1041A000002300930023012200210398FFF79CFFC6
:1041B00000BF05B05DF804FB00B585B0019001AB10
:1041C0001846FFF76BFF0390019B012202FA03F3ED
:1041D0001946039800F004F800BF05B05DF804FB31
:1041E00082B001900091019B009AC3F8082500BF9E
:1041F00002B0704784B00190019B5B0902930023D9
:104200000393029B002B03D0029B012B04D007E0F9
:104210004FF0FF33039303E04FF6FF73039300BFA8
:10422000019B03F01F030193039A019B22FA03F3FE
:1042300003F00103002B14BF01230023DBB2184657
:1042400004B0704700B583B001900091009B1B68DB
:10425000B3F1FF3F09D0009B1B681846FFF7ACFF86
:10426000009B1B681846FFF770FF009B5B68B3F16B
:10427000FF3F05D0009B5B6800211846FFF776FFE3
:10428000019B1A68009B9B6919461046FFF7FCFECC
:10429000019B1868009B597D009B1B7D1A46FFF708
:1042A000DEFE019B1868009B1968009B5B681A463C
:1042B000FFF757FE009B1B7D012B22D1009B9B68C3
:1042C000B3F1FF3F05D0009B9B6800211846FFF724
:1042D0004DFF009BDB68B3F1FF3F09D0009BDB681B
:1042E0001846FFF769FF009BDB681846FFF72DFFB4
:1042F000019B1868009BD968009B9B681A46FFF7D2
:104300006DFE00BF03B05DF804FB000000B583B094
:1043100001900B468DF80330019B1B684FF48E71A2
:104320001846FFF7B3FD019B1B684FF4A2711846B6
:10433000FFF7ACFD019B1B680E491846FFF7CDFD4A
:10434000019B1B681846FFF75DFD03461A469DF862
:10435000033019461046FFF75DFD019B1B681846A8
:10436000FFF750FD03461846FFF774FD00BF03B08A
:104370005DF804FB8000020000B583B00190019B52
:104380001B6808491846FFF7C2FD019B1B681846C9
:10439000FFF738FD03461846FFF76AFD00BF03B07C
:1043A0005DF804FB8402020000B587B00190019B18
:1043B0001B681846FFF7F2FD0590019B1B68184625
:1043C000FFF7F4FD0490019B1B681846FFF7F6FD0C
:1043D0000390019B1B681846FFF7F8FD0290019BB4
:1043E0001B681846FFF7CCFD019B1B681846FFF7BA
:1043F00004FE059BB3F1FF3F02D00598FFF7CBFE0B
:10440000049BB3F1FF3F02D00498FFF7C4FE029B68
:10441000B3F1FF3F02D00298FFF7BDFE039BB3F15B
:10442000FF3F02D00398FFF7B6FE00BF07B05DF86C
:1044300004FB000000B587B0039002910192029B3B
:10444000002B03D12D49AA20FDF747FA039B1B79C6
:104450001A462C2302FB03F3294A13440493002336
:104460000593049B93F82A30002B03D0082305936F
:10447000059B3EE0039B1A68039B1B791946214B61
:1044800053F8213019461046FEF780FC0346002BF6
:1044900003D011230593059B2BE002990398FFF7A6
:1044A000D1FE049B019A5A60029B1A69049B1A6010
:1044B000049B5B68002B05D0029B1B7F1946039869
:1044C000FFF724FF039B1B681846FFF738FD049B8A
:1044D00000229A61049B0022DA61049B002283F887
:1044E0002920049B00225A61049B012283F82A2080
:1044F000059B184607B05DF804FB00BF087100007B
:10450000D00600207471000000B585B00190019BB9
:104510001B791A462C2302FB03F3114A134403931D
:10452000019B1B681846FFF713FD039B5B68002B7C
:1045300002D00198FFF720FF0198FFF735FF019B9C
:104540001B681846FEF75CFC039B002283F82A20B8
:10455000039B00225A6000BF05B05DF804FB00BF5A
:10456000D006002000B585B0019000914FF48E7107
:104570000198FFF78BFC009B9A68009B1B6A134411
:104580001B788DF80F30009B1B6A5A1C009B1A6227
:104590009DF80F3019460198FFF746FD00BF05B0A2
:1045A0005DF804FB00B585B001900091009B5B694C
:1045B000039316E0009B93F82830DBB2002B01D068
:1045C000002314E04FF48E710198FFF774FC03464A
:1045D00083F00103DBB2002BECD100990198FFF7C7
:1045E000C1FF009B1B6A039A9A42EBD8012318462D
:1045F00005B05DF804FB000000B587B003900291A0
:104600000192039B1B791A462C2302FB03F33C4ABD
:1046100013440493049B93F82A30012B04D03949A6
:104620004FF48C70FDF759F9029B002B04D13549EA
:1046300040F21910FDF751F9019B002B04D13149CB
:104640004FF48D70FDF749F9039800F05DF80346CB
:10465000002B03D011230593059B4CE0049B019A8A
:104660005A61049B029A9A60049B00221A62049B7E
:10467000002283F8282000230593039B1B684FF436
:104680008E711846FFF702FC039B1B680821184631
:10469000FFF7D7FC039B1B6804991846FFF762FFDE
:1046A000049B5B68002B25D1039B1B68049918466B
:1046B000FFF778FF034683F00103DBB2002B02D043
:1046C0000F23059313E000BF039B1B684FF48E710B
:1046D0001846FFF7F0FB034683F00103DBB2002B23
:1046E000F2D1039B1B680C211846FFF7AAFC049B20
:1046F00000225A61059B184607B05DF804FB00BF15
:10470000D00600200871000082B00190019B1B7947
:104710001946074A2C2301FB03F3134414331B6887
:10472000002B14BF01230023DBB2184602B07047F0
:10473000D006002010B582B001900091009B9B69CB
:10474000002B08D14FF484710198FFF79FFB01986B
:10475000FFF761FC13E04FF484710198FFF796FBBB
:10476000009BDA68009B5B6AD4180198FFF753FC42
:1047700003462370009B5B6A5A1C009B5A6202B07E
:1047800010BD00B589B003900291019201238DF80C
:104790001030029B0693019B0593039B5B68039A71
:1047A000116804AA1046984700BF09B05DF804FBE1
:1047B00000B587B00190009100238DF80830009B70
:1047C0000493019B9B680393019B00225A61019B08
:1047D0005B68019A116802AA1046984700BF07B0AB
:1047E0005DF804FB00B58BB0019000914FF40071AF
:1047F0000198FFF77CFB0346002B39D04FF49271F0
:104800000198FFF758FB0346002B31D04FF492710B
:104810000198FFF73BFB4FF401710198FFF777FB1D
:10482000009B93F8293083F00103DBB2002B03D007
:1048300004210198FFF705FC02238DF80C30019844
:10484000FFF76FFB03460693009B9B690593009B54
:10485000DB680493009B00229A61009B0022DA61CE
:10486000009B5B68009A116803AA1046984752E0C3
:1048700004210198FFF73BFB0346002B4BD04FF47C
:1048800084710198FFF717FB0346002B43D0009972
:104890000198FFF74FFF009B9A69009B5B6A9A4261
:1048A00039D1009BDB69002B19D0009BDB68099391
:1048B000009B5B6A0893009BDA69009B9A61009BEE
:1048C0001A69009BDA60009B0022DA61009B0022DB
:1048D0005A62099A08990098FFF753FF1BE0009B62
:1048E00093F8293083F00103DBB2002B03D00421BD
:1048F0000198FFF7A6FB4FF401710198FFF707FB42
:10490000009B00229A61009B596A009BDB681A4653
:104910000098FFF736FF4FF48E710198FFF7CBFA3E
:104920000346002B24D0009B5B690793009B1B6A06
:10493000079A9A420DD9009B93F82830DBB283F096
:104940000103DBB2002B04D000990198FFF70AFEA7
:104950000EE04FF48E710198FFF798FA009B5B69A7
:10496000002B05D0009B5B6919460098FFF720FFDC
:104970004FF4A2710198FFF79EFA0346002B1CD05A
:104980004FF4A2710198FFF781FA009B93F8293048
:10499000002B03D000210198FFF753FB009B9B697C
:1049A000002B0AD0009B00229A61009B596A009B51
:1049B000DB681A460098FFF7E4FE00BF0BB05DF815
:1049C00004FB000008B503490348FFF70BFF00BFD5
:1049D00008BD00BFD00600200020004082B0034682
:1049E0008DF807309DF90730002B0CDB9DF8073060
:1049F00003F01F0205499DF907305B09012000FA09
:104A000002F241F8232000BF02B0704700E100E04D
:104A100082B003468DF807309DF90730002B13DB79
:104A20009DF8073003F01F0209499DF907305B0923
:104A3000012000FA02F2203341F82320BFF34F8F08
:104A400000BFBFF36F8F00BF00BF02B0704700BF51
:104A500000E100E082B0034600918DF807309DF937
:104A60000730002B0ADB009BDAB20C499DF90730B6
:104A70005201D2B20B4483F800230BE0009BDAB260
:104A800007499DF8073003F00F03043B5201D2B2EF
:104A90000B441A7600BF02B0704700BF00E100E08F
:104AA00000ED00E082B00190019B03F06043B3F1A0
:104AB000005F0CBF01230023DBB2184602B0704731
:104AC00082B00190019B1B0B5BB2184602B070478D
:104AD00000B583B003460A468DF8073013468DF8BB
:104AE00006309DF80630072B03D908496B20FCF7E8
:104AF000F4FE9DF806209DF9073011461846FFF791
:104B0000A9FF00BF03B05DF804FB00BF787100008F
:104B100000B583B003468DF807309DF9073018467D
:104B2000FFF75CFF00BF03B05DF804FB00B583B086
:104B300003468DF807309DF907301846FFF768FFE8
:104B400000BF03B05DF804FB84B001900B46ADF8E4
:104B50000230BDF80230019A134400221A60BDF8F9
:104B60000230019A13441B680393039B00BF04B0F7
:104B7000704782B001900B46ADF80230BDF80230AC
:104B8000019A13441B68002B14BF01230023DBB2DE
:104B9000184602B0704782B001900091019BD3F893
:104BA0000022009BDB431A40019BC3F8002200BF98
:104BB00002B0704782B001900091019B009AC3F847
:104BC000042300BF02B0704782B001900091019BA6
:104BD000009AC3F8082300BF02B0704784B0019068
:104BE000019BD3F880340393019B039AC3F880247C
:104BF000039B184604B0704782B00190019B0822C5
:104C0000C3F8002500BF02B0704782B00190019B3D
:104C10000022C3F8002500BF02B0704784B00390A3
:104C200002910192039B029AC3F80C25039B019AFF
:104C3000C3F8142500BF04B0704700B583B00190DD
:104C40004FF0FF324FF0FF310198FFF7E7FF00BF51
:104C500003B05DF804FB82B00190019BD3F80C35E2
:104C6000184602B0704782B00190019BD3F814350A
:104C7000184602B0704782B00190019BD3F8083506
:104C8000184602B0704782B00190019BD3F81035EE
:104C9000184602B0704784B0039002910192039BC2
:104CA000029AC3F80825039B019AC3F8102500BF98
:104CB00004B0704700B583B001904FF0FF324FF061
:104CC000FF310198FFF7E7FF00BF03B05DF804FB79
:104CD00082B001900B468DF803309DF80330019AA5
:104CE000134401221A6000BF02B0704782B00190E5
:104CF0000B468DF8033013468DF802309DF80320E3
:104D00009DF802301343DBB21A46019BC3F86C25B1
:104D100000BF02B0704782B001900091019B009AE1
:104D2000C3F8242500BF02B0704784B003900291FD
:104D30000192029A039BC3F84425039B019AC3F88E
:104D4000482500BF04B0704782B00190019BD3F8A2
:104D50004C35184602B0704782B00190019BD3F8E1
:104D60003C35184602B0704700B583B00190019BF6
:104D70001B68184600F0A4F80346002B04D10B4929
:104D80004FF4F670FCF7A9FD019B1B681F2B02D89E
:104D90004FF0A04306E0019B1B6803F01F02019B3C
:104DA0001A60034B184603B05DF804FBA8710000BD
:104DB0000003005000B585B00190084611461A4620
:104DC00003468DF803300B468DF8023013468DF8FC
:104DD000013001AB1846FFF7C7FF03909DF8032091
:104DE0009DF802305B001A439DF801309B001A4386
:104DF0009DF818301B0242EA03019DF81C301B0489
:104E0000019A1943039B02F5E07243F8221000BF98
:104E100005B05DF804FB00B585B003900023019355
:104E2000002300930023012201210398FFF7C2FF12
:104E300000BF05B05DF804FB00B585B003900B46DC
:104E40008DF80B309DF80B30002201920022009269
:104E5000002200210398FFF7ADFF00BF05B05DF809
:104E600004FB00B585B00390002301930023009359
:104E70000023012200210398FFF79CFF00BF05B02B
:104E80005DF804FB00B585B0019001AB1846FFF753
:104E90006BFF0390019B012202FA03F3194603986A
:104EA00000F004F800BF05B05DF804FB82B001908B
:104EB0000091019B009AC3F8082500BF02B070471B
:104EC00084B00190019B5B09029300230393029B32
:104ED000002B03D0029B012B04D007E04FF0FF33DF
:104EE000039303E04FF6FF73039300BF019B03F0AE
:104EF0001F030193039A019B22FA03F303F00103BA
:104F0000002B14BF01230023DBB2184604B0704706
:104F100000B583B001900091009B1B68B3F1FF3F87
:104F200009D0009B1B681846FFF7ACFF009B1B686D
:104F30001846FFF770FF009B5B68B3F1FF3F05D099
:104F4000009B5B6800211846FFF776FF019B1A68FB
:104F5000009B9B6919461046FFF7DDFE019B186810
:104F6000009B597D009B1B7D1A46FFF7BFFE019BEE
:104F70001868009B1968009B5B681A46FFF74EFE95
:104F8000009B1B7D012B22D1009B9B68B3F1FF3F4F
:104F900005D0009B9B6800211846FFF74DFF009B42
:104FA000DB68B3F1FF3F09D0009BDB681846FFF7D1
:104FB00069FF009BDB681846FFF72DFF019B18680F
:104FC000009BD968009B9B681A46FFF764FE00BFF0
:104FD00003B05DF804FB000000B583B001900B4600
:104FE0008DF80330019B1B684FF488711846FFF75A
:104FF000ABFD019B1B684FF490711846FFF7A4FDB1
:10500000019B1B684FF492711846FFF79DFD019BB1
:105010001B684FF4A2711846FFF796FD019B1B68B1
:105020004FF4AC711846FFF78FFD019B1B680F49C9
:105030001846FFF7BFFD019B1B681846FFF740FDB0
:1050400003461A469DF8033019461046FFF740FD07
:10505000019B1B681846FFF733FD03461846FFF710
:1050600057FD00BF03B05DF804FB00BF1003420012
:1050700000B583B00190019B1B6808491846FFF7F3
:10508000A3FD019B1B681846FFF71AFD034618464F
:10509000FFF74CFD00BF03B05DF804FB10034200B6
:1050A00000B587B00190019B1B681846FFF7D3FD40
:1050B0000590019B1B681846FFF7D5FD0490019BE6
:1050C0001B681846FFF7D7FD0390019B1B68184625
:1050D000FFF7D9FD0290019B1B681846FFF7ADFD55
:1050E000019B1B681846FFF7E5FD059BB3F1FF3FE9
:1050F00002D00598FFF7B5FE049BB3F1FF3F02D045
:105100000498FFF7AEFE029BB3F1FF3F02D0029876
:10511000FFF7A7FE039BB3F1FF3F02D00398FFF711
:10512000A0FE00BF07B05DF804FB000000B587B02B
:10513000039002910192029B002B03D12B49CF20B7
:10514000FCF7CBFB039B1B791A461346DB00134489
:105150009B00274A1344049300230593049B93F870
:105160002030002B03D008230593059B3AE0039BD6
:105170001A68039B1B7919461E4B53F821301946B8
:105180001046FDF703FE0346002B03D011230593C1
:10519000059B27E002990398FFF7BAFE049B019A4A
:1051A0005A60029B1A69049B1A60049B5B68002B7F
:1051B00005D0029B1B7F19460398FFF70DFF039B49
:1051C0001B681846FFF718FD049B00229A61049B98
:1051D0000022DA61049B00225A61049B012283F8B9
:1051E0002020059B184607B05DF804FBE071000025
:1051F000FC0600204C72000000B585B00190019BB8
:105200001B791A461346DB0013449B002A4A1344B9
:105210000393019B1B680293039B5B68002B02D0E6
:105220000198FFF725FF20210298FFF7B4FC039BAC
:105230009B69002B08D04FF4A2710298FFF784FC01
:1052400004210298FFF744FD4FF4AC710298FFF778
:105250007BFC0C210298FFF73BFD00BF4FF4AC71C3
:105260000298FFF786FC034683F00103DBB2002BB4
:10527000F4D1039B9B69002B0AD04FF4A2710298D2
:10528000FFF777FC034683F00103DBB2002BE5D187
:105290000298FFF7BAFC0198FFF702FF0298FDF7AA
:1052A000AFFD039B002283F82020039B00225A605D
:1052B00000BF05B05DF804FBFC06002000B589B016
:1052C000039002910192039B1B791A461346DB005F
:1052D00013449B00574A13440593059B93F82030D1
:1052E000012B04D0544940F25310FCF7F6FA029B0C
:1052F000002B04D150494FF4AA70FCF7EEFA019B41
:10530000002B04D14C4940F25510FCF7E6FA039B00
:105310001B79002B03D1019BB3F5803F04D3464991
:105320004FF4AB70FCF7D9FA0298FFF7BBFB0346CA
:1053300083F00103DBB2002B03D010230793079BFC
:1053400073E0039800F07AF80346002B03D0112392
:105350000793079B69E0059B019A5A61059B029A96
:105360009A6000230793039B1B684FF490711846C3
:10537000FFF7EAFB039B1B684FF4AC711846FFF77D
:10538000E3FB039B1868059B9968059B5B691A46BC
:10539000FFF7CBFC039B1B6808211846FFF798FC1E
:1053A000059B5B68002B3FD1039B1B684FF49071FA
:1053B0001846FFF7DEFB03468DF81B30039B1B6886
:1053C0004FF4AC711846FFF7D4FB03468DF81A3042
:1053D0009DF81B3083F00103DBB2002B06D09DF853
:1053E0001A3083F00103DBB2002BDDD19DF81A30B7
:1053F000002B02D00F23079313E0039B1B680C21A3
:105400001846FFF765FC00BF039B1B684FF4AC71A7
:105410001846FFF7AEFB034683F00103DBB2002B17
:10542000F2D1059B00225A61079B184609B05DF82E
:1054300004FB00BFFC060020E071000082B0019078
:10544000019B1B791946084A0B46DB000B449B0065
:10545000134414331B68002B14BF01230023DBB259
:10546000184602B0704700BFFC06002000B589B0A6
:1054700003900291019201238DF81030029B069354
:10548000019B0593039B5B68039A116804AA10466D
:10549000984700BF09B05DF804FB00B587B00190E4
:1054A000009100238DF80830009B0493019B9B68BA
:1054B0000393019B00225A61019B5B68019A11686A
:1054C00002AA1046984700BF07B05DF804FB00B57C
:1054D00089B0019000914FF492710198FFF749FB58
:1054E0000346002B22D04FF492710198FFF72CFB5A
:1054F00002238DF808300198FFF770FB03460593EF
:105500000198FFF729FC03460493009BDB68039393
:10551000009B00229A61009B0022DA61009B5B687D
:10552000009A116802AA104698473BE04FF4887130
:105530000198FFF71EFB0346002B33D04FF4887110
:105540000198FFF701FB0198FFF706FC0790009B0D
:105550009B69079A9A4225D1009BDB69002B17D0E3
:10556000009BDB68069320210198FFF714FB009B4A
:10557000DA69009B9A61009B1A69009BDA60009BC4
:105580000022DA61069A07990098FFF76FFF09E099
:10559000009B00229A61009BDB681A4607990098DD
:1055A000FFF764FF4FF4A2710198FFF7E2FA034698
:1055B000002B18D04FF4A2710198FFF7C5FA009B99
:1055C0009B69002B0FD0009B00229A61009B002258
:1055D000DA610198FFF7C0FB0146009BDB681A46C1
:1055E0000098FFF743FF4FF490710198FFF7C1FA5D
:1055F0000346002B14D04FF490710198FFF7A4FAE2
:105600000C210198FFF764FB009B5B69002B07D01E
:105610000198FFF799FB034619460098FFF73DFFF5
:105620004FF4AC710198FFF7A4FA0346002B10D099
:105630004FF4AC710198FFF787FA009B5B69002B70
:1056400007D00198FFF780FB034619460098FFF743
:1056500024FF00BF09B05DF804FB000008B5034952
:105660000348FFF734FF00BF08BD00BFFC06002061
:105670000020004000B583B001900091019B002BF9
:1056800001D1054B019300990198FDF77BFE03467C
:10569000184603B05DF804FB7C73000082B00190F3
:1056A0000B46ADF80230BDF80230019A134418469B
:1056B00002B0704782B00190019BD3F81035DBB285
:1056C000184602B0704782B00190019B9B0003F521
:1056D000A0739BB2184602B0704700002DE9F04F4E
:1056E00087B001908DF803109DF803100591019982
:1056F00000200E460746304639464FF0000A4FF06C
:10570000000B4FEA411B4BEAD06B4FEA401A504660
:105710005946821B61EB07034FF000004FF0000178
:10572000990041EA9271900002460B4612EB06087E
:1057300043EB07094FF000024FF000034FEAC91393
:1057400043EA58634FEAC8129046994642464B4690
:105750000599C1F12006A1F1200022FA01F403FA13
:1057600006F6344323FA00F0044323FA01F5CDE9A9
:105770000245DDE90223012B04D305494FF43170C2
:10578000FCF7ABF8029B184607B0BDE8F08F00BFEE
:105790005072000010B582B001900091019B5B79BE
:1057A0001A46009B934204D3094940F27110FCF75A
:1057B00094F8019B1C680098FFF785FF0346194683
:1057C0002046FFF76BFF0346184602B010BD00BF2E
:1057D0008072000000B583B001900091019B1B68AE
:1057E0001846FFF767FF034619460098FFF776FF54
:1057F0000346184603B05DF804FB82B003460091EF
:10580000ADF8063000BF02B07047000000B58DB0A3
:10581000FDF774F80B900B9B0A930A9B002B04D0A6
:10582000314A59210A98FBF765FF00238DF80830AB
:1058300000238DF8093000238DF80A3006238DF8F7
:105840000B300023039303238DF80A3002AB274A61
:1058500019462748FEF78CF80B900B9B0993099B80
:10586000002B04D0204A5E210998FBF743FF4FF438
:10587000C8711F48FFF7AEFF089000230093012373
:10588000089A00211A48FEF7D6F91948FEF76CF974
:1058900000211748FFF77EFF0790FDF761FE069095
:1058A0001448FDF78FF90B900B9B0593059B002B7C
:1058B00004D00D4A6F210598FBF71CFF0D4B1B7898
:1058C000069A07991846FDF7D1F90B900B9B0493A4
:1058D000049B002B04D0044A74210498FBF70AFFB0
:1058E00000BF0DB05DF804FBBC720000FB57000068
:1058F000747300003407002000B583B0094B1B7897
:105900001846FDF7ECF90190019B0093009B002BDA
:1059100004D0054A7C210098FBF7ECFE00BF03B0E1
:105920005DF804FB34070020BC72000000B587B0AE
:105930000190019B1B78002B3DD1019B5B680521E9
:105940001846FDF71FFE0490049B0393039B002B56
:1059500004D01B4A87210398FBF7CCFE194A1A4B47
:10596000D31ADB081B0443F00303184A12681849D2
:105970001846FBF723FA0023059314E0114A124B53
:10598000D31ADB081B0443F00300019B5A68059BF4
:105990005B001344B3F900301A460E49FBF70EFAC8
:1059A000059B01330593059B042BE7DD074B1B6823
:1059B0000133064A136000BF07B05DF804FB00BF67
:1059C000BC7200006C6200003C62000038070020DE
:1059D000287300004073000000B589B0224A6B466E
:1059E00007CA03C31A7021490020FFF743FE07903E
:1059F000079B0693069B002B04D01D4A9C2106980A
:105A0000FBF778FE6B4619460020FDF72BFD07904B
:105A1000079B0593059B002B04D0154AA0210598F0
:105A2000FBF768FE05211348FDF7ACFD0790079BC7
:105A30000493049B002B04D00D4AA3210498FBF788
:105A400059FE05210C48FDF79DFD0790079B039328
:105A5000039B002B04D0064AA6210398FBF74AFEBD
:105A600000BF09B05DF804FB447300002D5900002D
:105A7000BC720000200700202A07002000B585B076
:105A800000210020FAF7BCFE0390039B0293029BC7
:105A9000002B04D0164AB1210298FBF72BFEFAF72F
:105AA00045FEFCF77DFE0190019B0093009B002BBF
:105AB00004D00F4AB6210098FBF71CFEFFF78CFFBD
:105AC000FFF7A4FEFFF718FF0A4A0B4BD31ADB08B7
:105AD0001B0443F0030309491846FBF761F9FCF77F
