:1000000000000120750300005D030000851A000058
:1000100061030000630300006503000000000000AE
:100020000000000000000000000000006703000066
:1000300069030000000000006B0300006D03000076
:10004000F55700006F030000254F00006F0300000C
:100050006F0300006F0300007D5800006F03000075
:100060006F0300006F030000356000006F030000A5
:100070006F0300006F0300006F0300006F030000B8
:100080006F030000711A00006F0300006F0300008F
:100090006F0300006F0300006F0300006F03000098
:1000A0006F0300006F030000496000005D60000006
:1000B0006F0300006F03000000000000000000005C
:1000C0006F0300006F0300006F0300006F03000068
:1000D000AD5D00006F0300006F0300000000000032
:1000E0000000000000000000000000000000000010
:1000F0000000000000000000000000000000000000
:1001000000000000000000000000000000000000EF
:1001100000000000000000000000000000000000DF
:1001200000000000000000000000000000000000CF
:1001300000000000000000000000000000000000BF
:1001400000000000000000000000000000000000AF
:10015000000000000000000000000000000000009F
:10016000000000000000000000000000000000008F
:10017000000000000000000000000000000000007F
:10018000000000000000000000000000000000006F
:10019000000000000000000000000000000000005F
:1001A000000000000000000000000000000000004F
:1001B000000000000000000000000000000000003F
:1001C000000000000000000000000000000000002F
:1001D000000000000000000000000000000000001F
:1001E000000000000000000000000000000000000F
:1001F00000000000000000000000000000000000FF
:10020000354936480A1A02D0072291438D463449AF
:1002100034480A1A06D00722914381F30988022242
:1002200082F3148830483149314A00F044F83148AB
:100230003149324A00F03FF831483249324A00F041
:100240003AF832483249334A00F035F832483349F7
:10025000334A00F030F833483349344A00F02BF881
:1002600033483449344A00F026F8344834490022EF
:1002700000F02CF833483449002200F027F83348C6
:100280003349091A082902DB002202604160314A21
:1002900090471F481F49884205D00268043003B4C4
:1002A000904703BCF7E700208646EC46002000217B
:1002B000294A9047FEE7884207D0521A05D00378B2
:1002C00001300B700131013AF9D17047884202D0F8
:1002D00002700130FAE770470000012000E00020C2
:1002E0000000012000000120949300001001002074
:1002F000E8010020D0030000D0030000B06E000031
:10030000949300001001002010010020EC71000007
:10031000EC710000EC710000EC710000EC71000069
:10032000EC710000EC710000EC710000949300008F
:100330006C940000E8010020E8010020E8010020A2
:100340005823002058230020582300205823002041
:10035000584300209D0300008D620000FEE7FEE789
:10036000FEE7FEE7FEE7FEE7FEE7FEE7FEE7FEE765
:1003700000F002B8FFF7FCBF0F484FF007018843B9
:1003800085460E4880470E48016841F470010160BF
:10039000BFF34F8FBFF36F8FFFF732BF09480A4992
:1003A0000A4A884207D0521A05D0037801300B70F0
:1003B0000131013AF9D17047000001204D6600007B
:1003C00088ED00E0DC70000000000020100100203B
:1003D0007047000007B5044B0093044A402300F027
:1003E00030F803B05DF804FBF1030000E9010020E0
:1003F0002DE9F84388461446B2B10F4B0F4E032542
:10040000002743F00109224608EB0701002006F00F
:100410009DF80744241A48B933782BB14FF47A4039
:10042000C847013D02D13570BDE8F8830123337020
:10043000002CE8D1F8E700BFF0710000E8010020CF
:100440007047F0B595B01D46164608460C4604F0B8
:10045000C7FE1A9B0D93CDE9086500252B4608229F
:1004600005A920460A958DF82C500C9504F0D4FE71
:10047000079B0293069B03939DF814308DF811504F
:1004800003F00302012A1DD1BDF81420059DC3F31A
:10049000C203C2F383168DF81030B20008230EA9F0
:1004A000204604F0B9FEC5F3952508AB009332460B
:1004B00002AB0EA9284600F067FE204604F094FE29
:1004C00015B0F0BD022AF8D1BDF81650C3F3C2032F
:1004D000C5F389158DF810300827082D2E4628BF42
:1004E00008263B4632460EA9204604F095FEAD1B79
:1004F00008AB02AA31460EA8374400F0A9FE002D31
:10050000EBD1DAE700230428CB604B6098BF044BA3
:10051000044A98BF53F820308A600B60704700BFD0
:100520004C76000028760000CB6800225A71704794
:10053000C368DB6800225A717047CB6801225A7188
:100540007047C368DB6801225A7170470D4A8A60A0
:1005500070B50D4A0D4C0023121BCB604B600B6035
:1005600012091D469A4207D0E6683679FF2E05D05B
:10057000854202D1A3680B6070BD01350133103490
:10058000F0E700BF607600006C7000003C70000077
:100590002DE9F3478368D3F85434C3F340059B0730
:1005A000074606D50022114602B0BDE8F04703F029
:1005B00041B9144E144CDFF85880DFF85890DFF83A
:1005C00058A0A41B2409A54202D102B0BDE8F087BF
:1005D000F168B3680A79FF2A07D10C4A0821384626
:1005E00002F0DEF801351036EDE74879002814BF37
:1005F00041464946CDE9001238465246082102F0EC
:10060000CFF8EFE73C7000006C700000157200003E
:10061000047200000C720000347200002DE9F74FE4
:10062000154D164C9946641B52F8043C0646884604
:10063000174624094FF0000B5C4507D1104A0221F0
:10064000304603B0BDE8F04F02F0AAB8A9680193A4
:10065000184606F0D5FBAA46019B103540B93B462B
:10066000424651463046CC4603B0BDE8F04F6047A5
:100670000BF1010BE0E700BF3C7000006C70000064
:1006800055720000014BFFF7C9BF00BF610A0000AF
:10069000014BFFF7C3BF00BF29050000014BFFF767
:1006A000BDBF00BF3B050000014BFFF7B7BF00BF58
:1006B0003D0B0000037813F0040216D003F003038F
:1006C000012B03D0022B09D0012070470A68008853
:1006D0000232C0F3831002440A60F5E70B684288D7
:1006E000023303EB92130B60EEE7104670470000F5
:1006F0002DE9F04FDFF810A10F4685B00446861CA7
:100700000020154601F06EF8DAF804203A60DAF8B5
:10071000083003F580739B1A0AF21C470AF58369B7
:100720000AF21448B34219D30020002D68D004F017
:100730000F039B0143F0050363F30F00DAF8043065
:10074000DAB2033233444AF822000020CAF80430F7
:1007500001F04AF8012005B0BDE8F08F01213846CC
:1007600001F011FB484601F029FB404601F026FB51
:10077000DAF808000090C0B203300AEB8000694646
:10078000FFF798FF009B30BBDAB20AEB8202D16818
:1007900001919A1C0133DBB20AEB83030092D3F878
:1007A0000CB001F00303012B22D0022B15D083469D
:1007B000404601F006FB10B1009BCAF808305946CC
:1007C000384601F0E0FADAF80830DAF8042003F5E8
:1007D00080739B1AA6E7D8B2CEE7BDF80630C3F304
:1007E000891303334FEA1B4B02EB93030093DFE7BC
:1007F000BDF80430C3F383134FEA1B4B1344F5E7F2
:10080000A40544F0060099E7FC020020012907B581
:10081000034604D08168D1F85414890707D5002213
:100820001146184603B05DF804EB03F003B85368B3
:100830000193054B00931368044A022101F0B0FFB5
:1008400003B05DF804FB00BF757200006B7200001E
:100850008368D3F854349B0703D50022114602F075
:10086000E9BF024A022101F09BBF00BF8A7200006B
:10087000FFF7EEBF30B599B10A4B0B4A0B49D21ABC
:10088000D20800239A4201D1052006E031F8235016
:100890000468A54202D10360002030BD0133F1E7B6
:1008A0000846FAE7546F00003C7000002800002062
:1008B0002DE9F84F1E4B1F4800221A7004F049FC26
:1008C000814690BB1C48DFF880801C4CDFF87CA080
:1008D00004F0DFFDA4EB0804E4084D46A54208D16E
:1008E0000023174A19469C421AD022F823100133DC
:1008F000F9E700273E4608EBC50BB54209D058F88A
:100900003610DBF80000142206F0D8F90028C8BF22
:1009100001370136B442F0D12AF825700135DDE700
:100920000848A200002106F016FA4846BDE8F88FF4
:10093000FC0200206C7000001C7600003C7000007F
:100940002A0000209C000020546F00002800002096
:1009500007B5019001A8FFF78DFF30B9019A044B4C
:1009600053F8320003B05DF804FB0020FAE700BF43
:10097000546F0000002310B5CB604B60034B8B60BD
:100980000C460121FFF7E4FF206010BD287600002F
:10099000094B013903EBC000032909D8DFE801F056
:1009A0000A020406042070470079704740797047B6
:1009B0000020704702207047546F000030B5124C81
:1009C00000EB400054F8215002FA00F3072202FA2B
:1009D00000F06B400D4A03406B40C3F3821044F8B3
:1009E000213002EB8101C3F3C202824238BF0246CA
:1009F000C3F34220824203F0070338BF024693420A
:100A000038BF13464B8030BD9C00002028000020DA
:100A100013B50446019101A8114693B1FFF72AFFCF
:100A200010B1002002B010BD01990B4A04EB440044
:100A300052F8212007238340134023FA00F0C0B26C
:100A4000F0E7FFF717FF0028EBD1019A034B03EB08
:100A5000C2039879E6E700BF9C000020546F0000B5
:100A6000294B2A4A2DE9F04F9B1A4FEAD30ACB684B
:100A70005B7985B005460E461BB9254A022101F077
:100A80008FFE244B244ADFF8A4800821284601F079
:100A900087FE224A0821284601F082FE00245445A0
:100AA00002D105B0BDE8F08FF36893F804900123FC
:100AB0001A4621464846FFF7ABFF002307460122AE
:100AC00021464846FFF7A4FF0121032881468346BB
:100AD000204628BF4FF00309FFF73AFF5FFA89F974
:100AE0000F4A58F82910034658F827000D4F009078
:100AF000CB4598BF1746CDE901170B4A0821284678
:100B000001F04EFE0134CAE73C700000546F000053
:100B10009D720000B0720000BC720000DA7200002A
:100B20002C8D00009B7200001773000038760000C7
:100B300013460A46C168FFF793BF00002DE9F04F46
:100B40002DED028B054683B09B461646002A5DD0EC
:100B5000DBF80070CB68554993F804A0384606F0DE
:100B60004FF90446F0B9012E09D1514A0221284615
:100B700003B0BDEC028BBDE8F04F01F011BEDBF815
:100B800004304C4F57F8041B00930A22184606F015
:100B900095F8002800F083800134052C009BF1D1EA
:100BA000454A15E04549384606F02AF9044668B931
:100BB000012E36D04FF00108414B424AA3EB020907
:100BC0004FEAD9030093DFF808914FE03E4A3B46D5
:100BD0000221284603B0BDEC028BBDE8F04F01F0C6
:100BE000DFBD00231A4631465046FFF711FFA042F1
:100BF00011D200213046FFF7ABFE424603460221E8
:100C0000284601F0CDFD0136BE42EAD103B0BDEC6D
:100C1000028BBDE8F08F224631465046FFF7CEFEEC
:100C2000F1E7274F274BDFF8A480FF1AFF080026C3
:100C3000EAE700213846FFF78BFE18EE101A202253
:100C400006F03CF8034608B1013716E00246019071
:100C500039465046FFF7DCFEA042019B18D32246DE
:100C600039465046FFF7AAFE08F10108B045CDD23B
:100C70005BF8283008EE103A0027009BBB42D8D121
:100C80005BF828304A460221284601F089FDEBE74F
:100C900019463846FFF75CFE0C4A0346F3E7022E7E
:100CA000E4B2BED04FF0020886E700BF2D7300000B
:100CB00034730000387600009F7300004B7300000F
:100CC0003C700000546F0000537300006873000014
:100CD0008B73000013460A46C168FFF72FBF7047A9
:100CE000034BD3E90130C31A58425841704700BF43
:100CF000FC0200202DE9F04385B0FFF7F1FF054627
:100D0000002840F00A81864CC4F81804BFF34F8FC6
:100D1000A3680093DBB2033304EB83006946FFF75B
:100D2000C9FC009B18B1D4F81824002A63D0DAB2A9
:100D3000991C013304EB8202DBB204EB8303D2681B
:100D4000DB68029302F00303022B019200915DD154
:100D5000BDF8063073489DF80450C3F38918474620
:100D6000502F28BF502707F1080167F38F13C1F3F5
:100D70000901ADF8063004F004FAC5F3C2050646D1
:100D8000002800F0B18004F02BFA0023082201A90A
:100D9000304604F037FA0099CB43DBB20133C9B2D5
:100DA0000331B7EB830F4FEA830204EB81012AD9A9
:100DB0005FFA82F90823A7EB0907304604F022FA0C
:100DC000FFB209F10803584903F0FC033A463046E4
:100DD00004F018FA009B08F1030803EB9803009352
:100DE000D4F81834002B49D1D4F81074DFF84C91A2
:100DF0004FF0070867E062689A428BD8A2602846E5
:100E000005B0BDE8F08308233A46E0E7012B6BD13B
:100E1000BDF804504348C5F38311062928BF0621B5
:100E200061F38915023101F00F018900ADF804501A
:100E300004F0A7F9C5F3C2050646002854D004F013
:100E4000CFF90023082201A9304604F0DBF900277E
:100E5000BDF80420C2F38312BB00974203F10803DC
:100E6000BED200994A1CC9B20331009204EB810141
:100E70000422304604F0C6F90137E9E7304604F0B1
:100E8000B3F9FFF72DFF80F00100C5B2B7E7FB68AB
:100E90005A79B2B11B79BDF8081003EB430259F837
:100EA000211008FA02F3052D03EA010323FA02F3E5
:100EB00008BF0325AB4204D33B6831461B68384664
:100EC0009847FB681F68002FE1D1304604F08CF989
:100ED000384600F087FCD4F818340BB9009BA360A7
:100EE000002000F081FCCCE7D4F8104474B90F4B1B
:100EF0005B88012BC5D90E4B0E480F49C01AC0089C
:100F0000000440F0020000F063F8BAE723682046CE
:100F10009B689847E3681C68E8E700256FE700BF17
:100F2000FC0200206C700000080300203C00002040
:100F3000546F00007C6F0000BC7300009C00002018
:100F40002DE9F34704460E46924601A901221846B0
:100F50009946FFF7CDFB1C4F10B3019D4FF00008E1
:100F6000AA1CC84508EB020125D11848002100F051
:100F7000CFFE80F31000000440EA1440E4006B1C34
:100F800004F03804DBB2EDB244F0010407EB830354
:100F9000033544EA881444EA8624D86047F825409B
:100FA0003B781BB1FFF7A6FE0028FBD1FFF797FEA9
:100FB00002B0BDE8F087C9B207EB81015AF82830CA
:100FC000CB6008F10108CCE7FC02002018070020E4
:100FD00000231A46FFF7B4BF07B50123019201AA07
:100FE000FFF7AEFF03B05DF804FB1FB5CDE90123A9
:100FF000069B039301AA0323FFF7A2FF05B05DF848
:1010000004FB1FB5CDE90023069B0293079B0393C6
:101010006A460423FFF794FF05B05DF804FB000067
:101020002DE9F84388461B49D1F8103405460024C1
:101030001A468AB9EA681471A3B9C1F8105413604A
:10104000154B164EF61AF608002703F10709B742AA
:101050000DD12046BDE8F883D2681079A04212D0A5
:101060001268E6E7DB68196811601D60E8E719F8A7
:101070003720EB6842453946187928BF4246FFF7CA
:101080009DFC0137E3E701340A2CD1D14FF0FF3446
:10109000DFE700BFFC020020546F00003C7000003E
:1010A00038B5084B0125D3F810441D7004B938BD7C
:1010B000E3685D71236820465B689847E3681C68B5
:1010C000F4E700BFFC02002030B5C38885B00446B9
:1010D0000D4633B1144A00921449154A284603F0CC
:1010E0000AF8217A05291DD0637A4BB1A088FFF751
:1010F0004FFC104B104953F82020284602F0FBFF0C
:10110000227A0E4BA08853F8222003920021FFF789
:101110001FFC039A0A490346284605B0BDE8304043
:1011200002F0E9BF05B030BDC8770000B07700001D
:10113000A877000020780000598100004478000062
:10114000CD77000007B503460846197A052911D066
:101150005B7A2BB1094A0A49019002F0CCFF019851
:101160000849019002F0C7FF019803B05DF804EB55
:1011700002F0B6BF002AF8D0F2E700BFC87700003F
:10118000598100000A8000002DE9F04385B01F4618
:101190000C9D002395F80C902B7306460C46904648
:1011A00029463846FFF790FFB8F1060F09D8DFE867
:1011B00008F00412181F283340003146284602F078
:1011C0009AFF002229463846FFF7BCFF85F80C90AD
:1011D00005B0BDE8F08322683146284602F08BFF57
:1011E000EFE7D4E900233146284602F084FFE8E720
:1011F000A36800933146D4E90023284602F07BFF20
:10120000DFE7E3680193A36800933146D4E9002344
:10121000284602F070FFD4E723690293E368019344
:10122000A36800933146D4E90023284602F063FF07
:10123000C7E76369039323690293E3680193A36893
:1012400000933146D4E90023284602F054FFB8E762
:1012500008292DE9F74F80460E4617461C463DD813
:1012600000251B7B2573214610460193FFF72CFFB9
:10127000DFF88CA0DFF88CB0AE4232D918F8052028
:101280005946204602F037FF0135082DF4D11B499D
:10129000DFF874A0DFF874B0204602F02CFF4FF0A6
:1012A00000094E4524D918F809507E2D1ED828462D
:1012B00005F0D6FB002814BF2A462E2259462046A8
:1012C00002F019FF09F10109B9F1080FE9D1012272
:1012D00021463846FFF736FF019B237303B0BDE874
:1012E000F08F5146204602F006FFCDE72E22E5E7BB
:1012F0005146204602F0FFFEE4E700BFE177000020
:10130000DD770000D7770000DF770000E37700008B
:101310001FB50021039001AA44F20100CDE901119B
:1013200000F004F805B05DF804FB000010B572B6DB
:10133000FFF7B6FEFFF7DEFC0028FBD1164C6388F2
:101340004BB11648164B1749C01AC008000440F0AC
:101350000100FFF73DFE144BD3F8F030DB0700D55A
:1013600000BE6388012B09D90C480D4B0F49C01AE8
:10137000C008000440F00200FFF72AFEBFF34F8FC1
:1013800009490B4BCA6802F4E0621343CB60BFF318
:101390004F8F00BFFDE700BF3C0000207C6F0000C6
:1013A000546F00008878000000ED00E094780000A1
:1013B0000400FA0510B5D0E90243D1E90202A042C7
:1013C00072EB03032CBF0120002010BD08B50A48B2
:1013D00000F037FB094AD2E90031C018084BD3E9C5
:1013E000002341F10001904271EB030303D210F19D
:1013F000807041F1000108BD2C010020B8070020D9
:101400002008002037B505460C460A4801A900F01F
:101410000AFC60B10570446001A9064800F02DFC8B
:1014200018B1054800F012FB002003B030BD0420C5
:10143000FBE700BF180100202C010020234B70B5F2
:101440001E78044616B90026304670BD0028FAD032
:10145000FFF7BCFFD4E90223904299412FD300202B
:1014600000F0C0F923692BB94FF0FF324FF0FF3382
:10147000C4E90223002000F0B7F9D4E90530984709
:10148000002000F0AFF925696DB1D4E90212B2F184
:10149000FF3F08BFB1F1FF3F0FD0691842F10002D2
:1014A000C4E902123546002000F09EF9002DCAD092
:1014B0000748214604F0BDF8C6E70025F3E7B3F17D
:1014C000FF3F08BFB2F1FF3FBDD0F1E7C0070020EA
:1014D000C478000013B5114B114918680190082316
:1014E0001048582200F08CFB044698B90E4A0F4869
:1014F00001A900F089F9044660B90C48012100F007
:1015000083FA01230A4A0948194600F0E5F9094B14
:1015100001221A70204602B010BD00BFBE78000044
:10152000C407002018010020091600002C0100202B
:10153000FFFF7F00C007002030B56AB103684FF09D
:10154000FF344FF0FF355A614A1E5142C3E902454C
:1015500051411961002030BD0720FCE7F8B5044671
:10156000002017460D4600F03DF9D4E90223B3F1FF
:10157000FF3F08BFB2F1FF3F15D1FFF727FF281843
:1015800041F10001C4E902010126002000F02CF91C
:101590005EB12369A76103B1256121460020BDE842
:1015A000F840FFF72FBF0026EFE73046F8BD38B50B
:1015B0000446002000F016F9D4E90223B3F1FF3FFE
:1015C00008BFB2F1FF3F1FBF4FF0FF324FF0FF33B4
:1015D000C4E90223012508BF0025002000F004F91A
:1015E0002DB121460120BDE83840FFF70BBF28464A
:1015F00038BD401A20F07F4070470000014800F0DD
:1016000020BA00BF2C0100202DE9F743064600F068
:1016100003FA40B1624AD2E9003113F1807341F11B
:101620000001C2E900310021304600F004FA38B16F
:101630005C4C236823B12068FFF700FF0023236080
:101640000121304600F0F7F920B1FFF7BFFE564BFD
:10165000C3E900015548534C01A900F01EFB4FF0AF
:10166000FF384FF0FF39A0B9DFF844814D4D4046B7
:1016700003F0F5FF002800F08580D0E90223B3F1E4
:10168000FF3F08BFB2F1FF3F32D1404603F0E1FF18
:10169000EDE70378012B20D0022B08D1444D2846DA
:1016A00003F0D7FF002877D0C0E90289F7E75BB9DC
:1016B0004168D1E90223B3F1FF3F08BFB2F1FF3F18
:1016C00002D03B4803F0B5FF01A9384800F010FBF9
:1016D00001A9364800F0E1FAC5E74168236899425C
:1016E00002D100232360EFE7314803F0BBFFEBE7B3
:1016F000296891B12968D1E9020182428B412FD238
:101700002B68D3E90223B3F1FF3F08BFB2F1FF3FDB
:1017100003D02968404603F08CFF404603F099FF50
:10172000D0E902490746FFF751FE201A69EB01098B
:10173000012879F1000318DBB0F5350F13D3FFF75B
:101740005DFF1C4A02441C484FF49603002100F040
:10175000E3F890B92B6813B9304600F0B5F82F6064
:1017600003B0BDE8F0832246EDE71348002100F006
:1017700058F93846FFF762FE01E00D28F9D0002342
:101780002B6074E7074B1B68002BE9D1304603B090
:10179000BDE8F04300F09CB8084B01221A7093E7B3
:1017A000B807002028080020200800201801002089
:1017B000C4780000FFFFB4002C010020C007002007
:1017C00072B6024A13680133136070472C08002078
:1017D000034A1368013B136003B962B6704700BF48
:1017E0002C080020FFF7ECBFFFF7F2BF435882B090
:1017F0003BB10023435043580193019B012002B0A9
:1018000070471846FBE70000F8B5264C4379264D93
:1018100044F8232005EBC303244E1B7973B173886E
:10182000012B09D92248234B2349C01AC0080004C0
:1018300040F00200FFF7CCFB0820F8BD03680A88DF
:10184000C3F8082590F904408B7802795B01002CDD
:10185000DBB221DB19490F1987F800330123640932
:1018600002F01F0203FA02F241F82420437905EB4B
:10187000C30245F8330073880121022B117109D985
:101880000B480C4B0E49C01AC008000440F003007E
:10189000FFF79EFB0020D0E70A4902F00F028B54AD
:1018A000E4E700BF38080020300800204400002092
:1018B0008C6F0000546F0000D078000000E100E061
:1018C000F278000014ED00E0036801221A6070470E
:1018D000036801225A60704773B501F15005AD00ED
:1018E0000068ADB24FF480348C400026C0F8084345
:1018F000C0F84843465101F5A8714559019522F0B9
:101900007F42019D40F82120C0F844430BB1C0F84C
:10191000044302B070BD00002DE9F74F0D4622F0E0
:101920007F4402684FF4803705F150068F408046AF
:10193000B60002EB8500C2F84873B6B2C2F808736D
:10194000D2F8041599464FF0000BD0F84035C0F896
:10195000401542F806B05B1A9259009223F07F437B
:10196000012B009A4FEA850A0CD1264B4FF4806078
:1019700043F001039847D8F8003043F806B09B596C
:101980000193019BD8F80010D1F80465C1F84473A5
:10199000A31B23F07F43012B1CD11A4B05F5A8751F
:1019A000013443F0010341F825404FF4806098472B
:1019B000D8F80030D3F804359E4209D1D8F8003069
:1019C0000020C3F84473C3F8047303B0BDE8F08F7C
:1019D0000D20FAE78A44C9F1FF13CAF84045D1F84F
:1019E0000405221A013A22F07F4203F57F43934215
:1019F000EED3002AE2D10134CAF84045D1F80435CB
:101A00009842DAE71079000003680222C3F8442301
:101A100009B1C3F80423704700684FF48271FFF7DF
:101A2000E5BE4FF4803303FA01F10368C3F84813AD
:101A3000C3F80813704750318900006889B2FFF776
:101A4000D5BE0368D3F804057047000090F9043050
:101A5000002B09DB5A09012103F01F0301FA03F3EC
:101A60004032024941F82230704700BF00E100E0F7
:101A7000024B034A1B681068184700BF3808002053
:101A8000300800201EF0040F1CBFEFF309800AE0AD
:101A9000EFF308800549064A884201D8904202D8EF
:101AA0008D464FF00000034B184700000000012056
:101AB00000E00020DD1A0000BFF34F8F0549064B00
:101AC000CA6802F4E0621343CB60BFF34F8F00BFDC
:101AD000FDE700BF00ED00E00400FA052DE9F74F37
:101AE0000546FFF7DDFAFFF705F90028FBD1374C73
:101AF0003748384B384E9F6A7388241AE408240408
:101B000044F00104002D59D0D3B1AA6933492046CD
:101B1000FFF762FA73889BB1EB680193AB6800939F
:101B20002F49D5E900232046FFF76BFA73883BB1B4
:101B3000EB6900932B49D5E904232046FFF755FABA
:101B4000244BDB6A990705D573881BB126492046CB
:101B5000FFF73EFADFF8A0A0DFF8A0B04FF00008D2
:101B60004FF0010909FA08F33B4208D05AF828203F
:101B70002AB173881BB159462046FFF72DFA08F1A8
:101B80000108B8F11A0FEDD13A0607D573882BB1C9
:101B9000104B16495A6B2046FFF71EFA3B0407D537
:101BA00073882BB10B4B12499A6B2046FFF714FA3E
:101BB0002846FFF781FF03B0BDE8F08F002BBFD0B0
:101BC0000C492046FFF704FABAE700BFFC6F00009B
:101BD000546F000000ED00E07C000020167900004A
:101BE0002B79000060790000BB7900000A7A0000C0
:101BF0002A7A000088790000047F0000FF79000045
:101C000010B561B1B2FBF3F403FB1424A4B244B9E0
:101C1000C0E9001484608281C381204610BD0E207B
:101C2000FCE70920FAE737B550E8013F9DB2C489C7
:101C300025448489A54228BF2D1B0489A54202BFE3
:101C4000BFF32F8F002207E0C5EA030540E80154E7
:101C5000002CE9D14FF001028DF803200193019A85
:101C60000A609DF8031001F0FF0321B1006810FA2B
:101C700082F003B030BD1846FBE70A884B889A42D1
:101C800009D150E8012FC2EA024240E80123002BAB
:101C9000F7D1012070470020704737B550E8023F68
:101CA0001FFAA3F5C488A54202BFBFF32F8F0022FD
:101CB0000DE0C48925448489A54228BF2D1BC3EAB1
:101CC000054540E80254002CE8D14FF001028DF8A0
:101CD00003200193019A0A609DF8031001F0FF03AD
:101CE00021B1006800EB124003B030BD1846FBE79D
:101CF0000A884B889A4209D150E8022FC2EA224250
:101D000040E80223002BF7D10120704700207047E4
:101D100010B5034653E8000F0A4643E8002494F048
:101D2000000FF7D110BD10B5034653E8000F40EA8D
:101D3000010243E8002494F0000FF6D110BD10B565
:101D4000034653E8002F42EA010043E8000494F000
:101D5000000FF6D110BD10B5034653E8000F00EA9E
:101D6000010243E8002494F0000FF6D110BD10B535
:101D7000034653E8002F02EA010043E8000494F010
:101D8000000FF6D110BD10B5034653E8002F02EB4B
:101D9000010043E8000494F0000FF6D110BD10B527
:101DA000034653E8002FA2EB010043E8000494F03F
:101DB000000FF6D110BD0121FFF7B5BF0121FFF7DC
:101DC000BEBF0021FFF7C7BF0021FFF7D0BF000053
:101DD0002DE9F0478368D3F85434C3F340059B07DB
:101DE00088B0074606D50022114608B0BDE8F04786
:101DF00001F020BD012906D91E4A022108B0BDE824
:101E0000F04700F0CDBC1C4C1C4EDFF874A04FF026
:101E10006408A946361B1C23B6FBF3F6AE4204F158
:101E20001C0402D108B0BDE8F08754F81C0C54E93A
:101E30000623017900689A1A1B1ADBB2039308FB88
:101E400003F3B3FBF2F3CDE9019334F8043C0093C0
:101E5000CDE9061254F8083C11FB08F13846B1FBF5
:101E6000F2F1CDE904215246082100F099FC013538
:101E7000D4E700BF6C7F00006C700000DC700000D5
:101E80007F7F000010B590B1D0E9012301689B1A53
:101E9000DBB20A60013BDBB2FF2B026802D10020FB
:101EA000107110BD11684C1C14600B70F2E70E200D
:101EB000F7E738B504460020FFF794FC2268636812
:101EC0001168994213D9481E106011F8013CE56869
:101ED000218B01FB0355A36811791B1ADBB29942D0
:101EE00000D213710020FFF77FFC284638BD002583
:101EF000F8E738B5054600200C46FFF773FC2A6862
:101F00001368591C1160E968641A298BB4FBF1F459
:101F10001C70BDE838400020FFF766BC30B18A680D
:101F2000B2F8543443F02003A2F8543470474368A5
:101F300010B59C686068036801219B689847A36896
:101F400010B903221A7010BD0422FBE7096800686B
:101F500004F056BF2DE9F843089E1D460C46F1B922
:101F6000194E1A49891BB2EBD10F4FEAD10905D29C
:101F7000174F043607EB8207A14502D100232B60DF
:101F800009E056F834803868D8F8001004F038FFBB
:101F900018B9C5F80080BDE8F8830134ECE70028E3
:101FA000ECD00178436839B1314610469847336820
:101FB000002BE3D02E60EEE7110103EB02125B5819
:101FC000002BDBD02A60E6E7B06E0000006F000057
:101FD0000000002030B583680546D3F84C0487B074
:101FE000E8B100230A2203A9019003F015F9AB68B8
:101FF000049AC3F84C24002423460198ADF81440F9
:102000000A2203A9CDE9034403F0FCF8019803F088
:10201000A2F8AB68D3F84C0418B9C3F8480407B069
:1020200030BD234603A90A2203F0F6F8A8680394FA
:10203000D0F84C0423460A2203A903F0E3F8EEE7A4
:1020400008B104F004BF704710B584680068FFF75A
:10205000F7FF238D1844E38BB0FBF3F203FB120070
:10206000B0FA80F0400910BD10B584680068FFF731
:10207000E7FF238DE28B84F8200053FA80F3B3FB53
:10208000F2F102FB11330133A382E38C53FA80F0A7
:102090000131B0FBF2F302FB130021830130591C24
:1020A000E082618304F1140010BD10B584680068FB
:1020B000FFF7C6FFE38C1844E38BB0FBF3F203FB9E
:1020C0001200B0FA80F0400910BD000007B5836827
:1020D00093F822208A421FD01B228DF800205B2219
:1020E0008DF8012031228DF802203B228DF803204B
:1020F00033228DF8042001F12F028DF805206D2286
:1021000083F822108DF8062000228DF8072004495C
:1021100000696A4601F0EFFF03B05DF804FB00BF01
:10212000598100000A4609B1FFF7D0BF816881F8E4
:1021300022200069014A024901F0DDBFE28400006B
:102140005981000007B5836893F823208A4219D08B
:102150001B228DF800205B228DF8012034228DF89F
:10216000022001F12F028DF803206D2283F8231045
:102170008DF8042000228DF80520044900696A4684
:1021800001F0B9FF03B05DF804FB00BF5981000006
:102190002DE9F743002506460F46144605602078D2
:1021A00040B104F055FC68B1002304F8013B3368EA
:1021B0000B2BF4D933680022284647F8232003B0BC
:1021C000BDE8F08333685A1C326047F82340054667
:1021D00094F80080B8F1000FE9D0002D77D1B8F164
:1021E000270F05D0B8F15C0F79D0B8F1220F66D176
:1021F0002046FFF725FF611C0246204604F038FC0C
:102200004546E5E72046FFF71BFF611C02462046D6
:1022100004F02EFC0025DBE7302826D102234FF006
:102220000008E05CA0F13001C9B207295FFA83F928
:1022300018D8013341EAC801052B5FFA81F8F0D1C3
:10224000994609F1FF31214420460191FFF7F8FE3C
:102250000230A0EB09020199204604F009FC04F8C1
:10226000018BB5E7B9F1020FEBD178282DD102210E
:102270004FF00008635CA3F13002D2B2092AC8B261
:102280000AD842EA081303295FFA83F802D14FF013
:102290000409D6E70321EDE7A3F16102052A03D87B
:1022A000573B43EA0813EEE7A3F14102052A01D8A0
:1022B000373BF6E7022808D04FF00309C1E7404654
:1022C00004F0C6FB00287FF472AF013480E7A84514
:1022D00098D0B8F15C0FF8D1607885429CD1204647
:1022E000FFF7AEFE04F1010802464146204604F025
:1022F000BFFB44466CE72DE9F34105460F46144603
:10230000002614B902B0BDE8F0816868036822466F
:10231000D3F80C80B91901ABC047019B1E44E41AE5
:10232000002BEED1AB681A78032AEAD0D3F85424F4
:102330009206FBD5B3F854246FF34512A3F8542446
:10234000DFE700000A46014901F0D5BE9080000099
:1023500011B10069FFF7F6BF70470000014901F0B5
:10236000CABE00BF2B8D0000014A024901F0C3BE66
:10237000F384000059810000014A024901F0BBBE0C
:10238000DF84000059810000014A024901F0B3BE18
:10239000DB840000598100000A4619B10249006936
:1023A00001F0A9BE704700BF968000000A4619B12F
:1023B0000249006901F09FBE704700BF9C80000089
:1023C00038B50546FFF750FE037B0288818801334C
:1023D0009A42044601D1012913D0012904D90139B7
:1023E00089B22846FFF7D8FF2388217B8B4209D981
:1023F000013B591A89B22846FFF7D8FFAB68002283
:102400001A8538BDC91A013189B22846FFF7A0FFE5
:10241000F4E7F8B50546FFF727FE8788C688044627
:102420002846FFF711FE18B92846FFF73EFE10B107
:102430002869FFF793FFB74208D161882388C91A3A
:10244000284689B2BDE8F840FFF7B0BFA388E1880D
:10245000C91A89B22846FFF79FFF238861888B42FB
:10246000EDD9591A284689B2BDE8F840FFF770BF88
:102470002DE9F04F044685B00E4690460025705D6C
:1024800004F0E6FA20BB1FFA88FA3046FFF7D8FDC1
:10249000A368DB8B401BA3EB080B584506EB050933
:1024A00018D94A46002712F8011B039308460292E6
:1024B000019104F0CDFADDE9022318B101990A294E
:1024C00031D0BB4608EB07018B422BD90137EAE735
:1024D0000135D4E74B460027B84217D013F8012B3B
:1024E0000A2A05EB070A1BD1206901F0F9FD4946CC
:1024F0003A462046FFF7FFFE2069FFF72FFF1FFA3D
:1025000088F120460AF10105FFF722FF20697119C1
:1025100001F0F1FD206905B0BDE8F04FFFF71EBFE7
:102520000137D9E75F46206901F0DAFD3A464946AE
:102530002046FFF7E0FE3D44705D04F089FA38B9AB
:102540002069FFF70BFF51462046FFF701FF9CE78C
:102550000135F1E72DE9F3410646806800244FF488
:102560000072214600F22A208DF8034004F0F3FBAC
:102570003F49306901F0BFFD306901F0B1FD3D4BCD
:102580004FF47A7743F001087068036801221D69EF
:102590000DF1030101ABA847019B5BB94FF6C010D9
:1025A000C047019B002BEFD1013FBFB2002FEBD101
:1025B0000D2036E09DF80330B5681B2B4BD095F805
:1025C0002A221B2AEDD1522B45D12C44002384F81A
:1025D0002A3295F82B225B2A20D105F50B700224B4
:1025E00010F8012B21463B2A04F10104A4B21BD1AF
:1025F000B4F5007F21D001F22B2115FA81F10022E0
:1026000011F8010BD8B9FA2A28BFFA22FA2B28BFF1
:10261000FA23AA822B8385F82A0202E085F82A325F
:102620000B2002B0BDE8F08103EB830302EB430310
:10263000303BB4F5007F9BB2D2D10C20F1E702EB26
:102640008202013400EB4200A4B23038B4F5007FBE
:1026500082B2D5D3F1E72A190134A4B2092C82F849
:102660002A329ED9002385F82A320420D9E700BFF8
:10267000FA8400001085000038B50546FFF7F4FC29
:10268000028843889A4204468388C28801D19342D3
:1026900013D09A4205D9D21A0B49286992B201F097
:1026A0002AFD238861888B4208D9591A89B22846A5
:1026B000FFF77CFEAB68DA8C1A8538BDC91A89B27F
:1026C0002846FFF745FEF5E7A2800000F8B51E4654
:1026D000C3685B68054698604068036817461C68D5
:1026E000284A2B46A0470446002841D1686902F0D9
:1026F00030FD044600283BD101464FF48B62A868A8
:1027000004F029FBA9682048B1F854341F4A43F06B
:102710002003A1F85434B1F8543467F38203A1F8CC
:102720005434B1F8543443F00803A1F8543401236D
:102730000B70174BCB61121A164B4FEAD20C214685
:102740000430614516D1072A04D9134B11480422DD
:1027500004F0A8F966B19DF81810E868FEF760FC6F
:102760000028A1BFEB68DB6801225A71B8BF0424BE
:102770002046F8BD50F831703F6843F8047B0131C2
:10278000DFE700BF1D1F0000B06E0000006F0000FB
:1027900018005000000000204D1F0000FFF7ABBDE7
:1027A0000CB473B506AB044653F8046B019383680D
:1027B000D3F854546D0719D593F822508D4215D093
:1027C0005D8CFFF7AFFC206901AA314601F012FDD4
:1027D000E9B22046FFF7A6FC290A02D02046FFF7FF
:1027E000B1FC02B0BDE8704002B07047206901AA98
:1027F000314601F0FFFCF4E78268002182F82A10DC
:102800001185D1840368024A0321FFF7C9BF00BFC5
:102810005981000070B583681E78012E04461AD1D4
:102820004068036800219B689847054688B90821DD
:102830002046FFF74BFC31462046FFF783FC20691A
:10284000064901F058FCA36802221A702046FFF7DF
:10285000D3FF284670BD0825FBE700BF2A8D000086
:10286000F8B504468068C68CB318B3F5007F0F46F0
:10287000154638DA002A36D0038DF61A03F12A01FC
:1028800013442A33B6B20144721C184404F0F0F821
:10289000A068038D2A332A463946184404F0E8F824
:1028A000A76807F12A00FFF7CBFB3B8D0E4AF8849F
:1028B0002A333B4420460821FFF772FFA3681A8D94
:1028C00015441D852046FFF7BFFB18B92046FFF7CA
:1028D000ECFB10B12069FFF741FD26B12046BDE8B1
:1028E000F840FFF796BDF8BD598100002DE9F04191
:1028F00004468068D0F85464C28C038DC6F3000887
:10290000D51A16F001060F46ADB23DD1B2F5FF7FE4
:102910003FD83DB103F12A012B3301442A46184424
:1029200004F0A6F8A3681A8D1A4482F82A70002EC3
:102930006AD1DA8C013292B2DA84134483F82A80A5
:10294000002D6AD02046FFF78FFB8288C3889A4209
:1029500021D1A268138D2A33134408212046324A1C
:10296000FFF71EFFA91B89B22046FFF71FFDA268D3
:10297000138D013313852046FFF766FBF8B12069FC
:10298000BDE8F041FFF7EABCB2F5FF7FCAD9002DE0
:10299000C8D1BDE8F0812069FFF7EEFCA268138D75
:1029A0002A3313440821204A2046FFF7F9FE206904
:1029B000FFF7DAFC20690121FFF7C4FCD7E72046C6
:1029C000FFF773FB0028E4D02046FFF74DFBC288D9
:1029D0008388013AD21A92B205461AB11349206986
:1029E00001F089FB2069FFF7B9FCE988AB88C91AB7
:1029F000204689B2FFF7D0FC29880139204689B2E8
:102A0000BDE8F041FFF7A4BC002D9BD1D88C01306C
:102A100080B2D884034483F82A50054920693A4695
:102A200001F069FBA3E700BF59810000A28000000C
:102A3000E377000070B5836886B00025CDE90355C3
:102A4000D3F85024ADF8145004460E46002945D161
:102A5000002A3ED0FFF7B4FCA0683346D0F85004FB
:102A60000A2203A902F0D8FBA668049BF58CC6F8DD
:102A70005034002B51D106F22A2108460191FFF76C
:102A8000DFFA019938B306F12A0004F097F9A0683B
:102A90002A30FFF7D5FAADF81400BDF81430A2685B
:102AA000AB421385D38402D22069FFF76DFCA36883
:102AB0002B4A20462A330821FFF772FE2046FFF7F3
:102AC000C3FA18B92046FFF7F0FA10B12069FFF7F2
:102AD00045FC06B070BD86F82A00D8E7D3F84C1440
:102AE0009142F6D0D3F84834002BF2D0FFF768FCBF
:102AF000A668D6F8500438BB06F12A0108460191B1
:102B0000FFF79EFAD6F848340199C6F8503485B2DA
:102B1000BDB106F22A2004F051F9A06803A9D0F84B
:102B2000500400230A2202F077FBA068BDF81420AD
:102B300000F12A010A23D0F85004013202F06CFBA4
:102B4000ABE786F82A52E8E72B460A2203A902F0EF
:102B500063FBA368039ABDF81450C3F85024DCE764
:102B60005981000038B504468068038DC58CED1A84
:102B7000ADB2002D3BD003F12B012A3301442A468C
:102B8000184403F075FFA268D38C013BD384204620
:102B9000FFF76AFA8288C3889A4214D1A268138D1B
:102BA0002A3313442046124A0821FFF7F9FD206911
:102BB0000F49104A01F09FFA691E204689B2BDE80C
:102BC0003840FFF7F3BB2069FFF7D6FB2069FFF71A
:102BD000DBFBA268138D2A3313442046044A0821E4
:102BE000FFF7DEFD2069BDE83840FFF7BDBB38BD0B
:102BF00059810000EF8400002DE9F041C3685B6853
:102C000090B004460D461868002203A902F0FBFBB1
:102C1000002840F08A808DB1039802F0E5FAA2689E
:102C2000D2F844340133C2F8443403F00703012BD3
:102C300004D00125284610B0BDE8F0812046FFF7FA
:102C400013FA81880129064604D9013989B2204640
:102C5000FFF7A2FB3188012904D9013989B2204646
:102C6000FFF7A4FB2069FFF78FFB2DB1304A02214B
:102C70002046FFF795FDDDE700230822039804A90D
:102C800002F0CAFA069B0793059B08939DF8103043
:102C90008DF8255003F00302012A25D1BDF810203C
:102CA000049E0398C3F3C203C2F383178DF8243044
:102CB000BA0008230AA902F0AFFAC6F395262369E1
:102CC00000933A4607AB0AA93046FEF75DFA03982F
:102CD00002F08AFAE3685B680022186803A902F030
:102CE00092FB0028C8D0A4E7022AF0D1BDF81260F8
:102CF000C3F3C203C6F389168DF824304FF00808D9
:102D0000082E374628BF0827434603983A460AA9A3
:102D100002F082FAF61B236907AA39460AA8B844CA
:102D2000FEF796FA002EEBD1D1E7002582E700BF2F
:102D3000A8800000436801219868FFF75DBFF7B5E0
:102D400047680191BD68AB681E78042E0ED03868C4
:102D500001A902F084FA044650B9019802F040FA41
:102D6000032E03D121462846FFF746FF03B0F0BDEE
:102D7000F11E18BF01212846FFF73EFFE7E70000DC
:102D80002DE9F04F82468068A7B0102100F2544030
:102D9000FEF7D5FFDAF808301B78022B7ED100232E
:102DA0000D93DAF80400036801221C690DF1330168
:102DB0000DABA0470D9B002B55D09DF93330002B58
:102DC000EFDB02F033FADAF808406378012B00F009
:102DD0005A84022B00F05E84002B40F028859DF879
:102DE00033500D2D1FD00A2D1DD0B4F8542463F399
:102DF0008D12A4F85424092D00F0F88100F2E58129
:102E0000002DCED0082D00F0CA83284603F028FEFE
:102E10000028C6D0D4F854341E07C3F3C00040F1D4
:102E20001F8429461DE3D4F8543413F47F5F05D082
:102E3000D4F85434C3F387139D42DCD1B4F854342E
:102E4000E68C65F38D13A4F85434B6BBC4F8506413
:102E5000DAF81000FFF782FADAF8083002221A7066
:102E60005046FFF7C9FC00215046FFF7C5FEA8B148
:102E7000DAF80030B84A03215046FFF791FCDAF83F
:102E80000830D3F85424120708D55046B24A2A33E2
:102E90000821FFF785FC5046FFF7BBFADAF810006F
:102EA00001F01EF9DAF808006FF0100100F254404A
:102EB00027B0BDE8F04FFEF75ABF94F82A30002B38
:102EC00061D1DAF8087007F12A00FFF7B9F8002697
:102ED00085B20446C7F8506425B3D7F848040028E3
:102EE00000F0918033460A2219A902F095F9BDF845
:102EF0006C309D4240F08780DAF808006A1C00F2CE
:102F00002A210A23D0F8480402F086F9DAF808509A
:102F100005F22A2105F12A0003F072FF002870D182
:102F200085F82A025046FFF7A7FB5046FFF78CF8BA
:102F300018B9DAF81000FFF711FADAF8082019A921
:102F40002A3210A8FFF724F9109B002B80D000280C
:102F500040F0A580814E824D199BAD1BED080446C3
:102F6000A54240F0A3807F4A009202217E4A50464B
:102F7000FFF716FC70E70135B5F5803F04D100235B
:102F800084F82A309DE700256319AFB293F82A0030
:102F900003F05EFD0028EED16FB104F12A00721C2F
:102FA000521B411903F064FDDAF80820D38CDB1BB7
:102FB0009BB2D3841385DAF80860F58C05F12907F4
:102FC00037443B461FFA87F99B461FFA83F89BF864
:102FD0000000013B029303F03BFDA9EB0804029BB8
:102FE000A4B20028F0D15F453FF46BAF2C1BA8EBD7
:102FF000090334442B449BB284F82A00F3843385BC
:103000005FE785F82A62A4B2082604F10B05DAF816
:103010001400294602F0B5F80446002839D0DAF841
:103020000830D3F84804C0B9C3F84844C3F84C4446
:10303000CDE91900DB8CADF86C3019A920460023CE
:103040000A2202F0DFF8DAF80810CA8C0A230132EB
:103050002A31204602F0D6F864E700230A2219A993
:1030600002F0DAF8DAF808001A9400230A22D0F8FD
:10307000480419A902F0C6F800231A93DAF80830B8
:10308000D3F848241992DA8CADF86C20C3F8484480
:10309000D3E75046FEF79EFF013EB8D142E7034614
:1030A000324A02215046FFF77BFBD5E67268029355
:1030B0001846116803F0A4FE3746029B083618B183
:1030C0000134A542BFF44CAFDAF808000021102209
:1030D0000430119103F03FFE7C68E36833B194E85B
:1030E0000F00DAF80850043585E80F00D4F808908E
:1030F000DFF880B019AE4FF0000801250027109BC3
:10310000AB4212D974681A49204603F079FE20B107
:103110005946204603F074FE70BBDAF80820B2F876
:10312000543443F00203A2F85434DAF808301B692F
:10313000002B44D0109919AA02EB8802A1EB0801D8
:1031400050469847DAF80830B3F854246FF3410238
:10315000A3F8542480E600BF59810000B06E00003F
:10316000006F0000EA800000B6810000D6800000F9
:10317000FE8000000181000015AB0093484611ABB2
:103180003A462946FEF7E6FE781CCED0119C002C6C
:10319000CBD02168706803F033FE01370028AED130
:1031A000E3683BB194E80F00DAF80870043787E869
:1031B0000F00A846D4F80890013504369EE7AB4AC4
:1031C00002215046FFF7ECFABCE71B2D0BD07F2DF8
:1031D0007FF41BAED4F854341F077FF5E2AD5046A0
:1031E000FFF7C0FCDDE501236370DAE5D4F8543461
:1031F00019077FF5D6ADB4F826B0CBF5FF7B0BF100
:10320000010B1FFA8BFBBBF1000F3FF4CAAD228DFF
:1032100004F12A0104F22A2003F074FDDAF80850C0
:103220002B8D2B44002493F8290083F82A4203F0C5
:103230000FFC031B18BF012305F22A220590C5F8D5
:10324000504419A90EA80693FEF7A2FF1998FEF79D
:10325000F7FECDE90F4486B2039425460294049408
:1032600027460E9B2BB1069A013B1344AB4200F25A
:103270008F80059B002B3BD126AB03EB850353F8D6
:10328000340CFEF7DDFE86B226AB03EB85034FF070
:103290000009099309F10103079311AB00934A4612
:1032A0000FAB29462046FEF755FE0F9B002B56D04C
:1032B0001968099B0B9153F8340C324603F0FEFC5D
:1032C0000890B8B9029B0B99013302930846109BF2
:1032D0000A93FEF7B5FE0A9B1FFA80F89BB9404699
:1032E000801B834501DD1FFA80FBCDF8109028E09C
:1032F0000026C9E7DDF80C80DDF81C90CDF80C80C5
:10330000C8E74F46F8E7039B434538BF43461FFADB
:1033100083F8BBF1000F14D015AB00933A4610AB05
:1033200020462946FEF716FE0F9B089F1868109B43
:10333000D3F800C0B919BBB2425CF2B99B4528BFB3
:103340009B460F9B1093079B002BDAD1484A042120
:103350005046FFF725FA4FF0FF37CDF80C80002CD0
:1033600042D00F9B002B3FD00E9B069A0135ADB289
:1033700013449D42FFF475AF36E01CF801109142F2
:10338000DCD10137B7F5803FD4D14FF6FF73D5E7D5
:1033900026AB03EB85034FF00008079311AB0093B6
:1033A00042460FAB29462046FEF7D4FDB8F1FF3F59
:1033B00005D12F4A04215046FFF7F2F9F1E4DDF878
:1033C0003C90B9F1000F3FF4ECAC079BD9F800102A
:1033D00053F8340C03F014FD08F101080028DDD186
:1033E000D9F80840002CBFD1029B002B3FF4D9AC88
:1033F000012B5DD123783BB111AB00933A4610AB62
:1034000029462046FEF7A6FD109B1C682046FEF7C5
:1034100017FEB04204D05A46A1195046FFF720FAD1
:10342000DAF80840258D631993F82A0003F010FBA1
:1034300000BBD4F85434DA0712D5B4F8543460F32E
:103440000003A4F8543420215046FFF74FFADAF86D
:103450000820B2F8543443F00103A2F85434A0E435
:1034600020215046FFF742FA9BE400BF088100008C
:1034700026810000E38CAB427FF693AC5046FEF70A
:10348000F3FDDAF808208488138D01331385504644
:10349000FEF7EAFD8388A34205D1DAF81000012186
:1034A000FEF750FF7DE4DAF81000FEF757FF78E4EE
:1034B000DAF80830C44F00229A8426AB03EB850368
:1034C0000693049B049A0133059311AB009329469C
:1034D0000FAB2046FEF73EFD0F9B1B680493194679
:1034E000069B324653F8340C03F0E8FB002833D136
:1034F000029B3846013B0293FEF7A2FDDAF8082052
:10350000039BD18B079203EB0009049B091A184611
:103510001FFA89F9B1FBF9F11FFA81F8FEF790FD66
:10352000079A049B918CA9EB0009481C9084B1FB7D
:10353000F8F208FB121189B21FFA89F979B90093E0
:10354000A24A3B4607215046FFF72AF94946504612
:10355000FEF7FEFE029B43B1059B0493B1E79C4A34
:1035600007215046FFF71CF9F0E7DAF80030994AD6
:1035700050460321FFF714F9DAF80830944A2A3349
:1035800008215046FFF70CF95046FEF742FF109B0A
:1035900019685A4631445046FFF762F901E4D4F8FD
:1035A00054341B077FF5FDABE68C002E3FF4F9ABDE
:1035B000208D00283FF4F5AB361A00F12A01B6B28F
:1035C0002930721C2144204403F052FADAF8083002
:1035D0001A8D013A1A85DA8C013ADA84C6B32A4682
:1035E0007D49DAF8100000F086FD5046FEF73CFDFC
:1035F0008288C3889A4213D1DAF80820138D2A33BF
:1036000013442946724A5046FFF7CAF8DAF8100008
:10361000FEF7BAFE31465046FEF7C8FEFFF7C1BBC3
:10362000DAF81000FEF7A8FEDAF81000FEF7ACFE9C
:10363000DAF80820138D2A3313445046644A294689
:10364000FFF7AEF8DAF81000FEF78EFEFFF7A9BB21
:10365000624A5F49DAF8100000F04DFDFFF7A1BBA8
:10366000E28CB2F5FF7F3FF69CAB218D4B1C9BB2E9
:10367000238521442344013281F82A5083F82A000B
:10368000E284FFF78EBB9DF833305B2B40F0CF8098
:103690000223A9E500236370D4F8543419077FF599
:1036A000E2AB9DF83330313B1B2B3FF67AAB01A2E6
:1036B00052F823F0FB3700000938000029380000D9
:1036C000ED370000A32D0000A32D0000A32D000066
:1036D000A32D0000A32D0000A32D0000A32D0000AA
:1036E000A32D0000A32D0000A32D0000A32D00009A
:1036F000A32D0000253700003137000035370000CA
:1037000083370000A32D0000F1370000A32D000037
:10371000FF370000A32D0000A32D0000A32D000003
:103720000D38000001215046FFF784F9FFF739BB3F
:103730000021F8E75046FEF797FC038842889A423A
:10374000044604D18188C28891423FF42AAB628941
:103750009A4210D12249DAF81000012200F0CBFC85
:1037600061895046FEF722FEDAF80820138D0133F6
:103770001385FFF716BBDAF810000121FEF7E2FD12
:10378000F2E75046FEF770FC037B028801339A4251
:10379000044603D18388012B3FF403AB012ADAF8F6
:1037A00010000BD10F4900F0A6FC61895046FEF7CE
:1037B000CFFDDAF80820138D013BD9E70A49012231
:1037C00000F099FCF5E700BFDE77000052810000B1
:1037D0005981000058810000E3770000F684000062
:1037E000A2800000968000009C800000032363708C
:1037F0005046FEF741FFFFF7D4BA032363705046EB
:10380000FEF7DEFDFFF7CDBA03236370D4F854341E
:10381000B4F8542403F0010383F0010363F30002BE
:10382000A4F85424FFF7BDBA03236370D2E4002345
:10383000DAE400BF2DE9F04F8BB0836817466C4A7D
:10384000009204466B4A5B680D460821FEF7A8FF0C
:10385000A6687068FEF7F4FBB168033082B211B15C
:103860002046FEF705FE644A00212046FEF798FF39
:10387000002F3DD0002D3BD04FF00C0AA9460AFB8B
:10388000075A0826D9F80400FEF7DAFB8046D9F873
:103890000000FEF7D5FB4044B04209F10C0988BF97
:1038A00086B2CA45EED106F10408544B544A00933F
:1038B0001FFA88F806F107090821204643461FFA37
:1038C00089F9FEF76DFF4F494A462046FEF7D0FDC5
:1038D0002DB1DFF82CB14FF0000ABA450AD1A36828
:1038E000D3F80C80B8F1000F3ED10BB0BDE8F08FDB
:1038F0000826D8E7D5E9002373B32AB30192424AD8
:1039000000920821414A2046FEF74AFF6868FEF708
:1039100097FB03902868FEF793FB0399B31C591A91
:10392000091A89B22046FEF713FD394920693A2267
:1039300000F0E1FBA96899B14A462046FEF798FDE0
:103940000AF1010A0C35C8E7009343465A4608219C
:103950002046FEF725FFEDE7002AEBD00092F4E7C2
:103960002069FEF7FBFCEBE700220592174606AE46
:10397000009605AB0121404602F10109FEF7EAFA83
:10398000059D3DB12868FEF75BFBB84200D987B2C0
:103990004A46EDE7B9F1010FA7D01E4ADFF860A053
:1039A00029462046FEF7FCFE2A46BD1CADB205ABFB
:1039B00000960121404602F10109FEF7CBFA059B72
:1039C000002B92D01B68009308212B4652462046BC
:1039D000FEF7E6FE059B596831B17A1D92B220468A
:1039E000FEF746FD4A46E2E72069FEF7B7FCF9E735
:1039F000FF840000538100005C81000016850000F8
:103A0000668100006E8100008886000081810000D0
:103A1000E37700008A81000000221146FFF70ABF09
:103A2000022910B5044608D18368D3F854349B07A3
:103A300003D5BDE81040FFF7EFBF2069054A0649EE
:103A400000F059FB2069054A0349BDE8104000F029
:103A500052BB00BFEB84000059810000E6840000E7
:103A6000012906D0022906D18368D3F854349B0774
:103A700001D5FFF7D1BF024A0221FEF791BE00BF78
:103A80000881000038B58368D3F85424C2F3400598
:103A900092070C4606D500221146FFF7CBFE2C46B6
:103AA000204638BD0029FBD05B68024A0221FEF7A0
:103AB00077FEF5E798810000012937B505461446E1
:103AC00004D103B0BDE83040FFF7A6BF023918BFEC
:103AD0000121FFF7D7FF48B963680193044B0093B6
:103AE000044A236802212846FEF75AFE03B030BD7F
:103AF00075720000B3810000012907B504D103B03D
:103B00005DF804EBFFF788BF02290AD153680193DF
:103B1000084B00931368084AFEF742FE03B05DF8B5
:103B200004FB8CBF0121002103B05DF804EBFFF71B
:103B3000A9BF00BF75720000B3810000013910B544
:103B400018BF01210446FFF79DFF38B9044A054913
:103B5000206900F0D0FAA368034ADA6110BD00BF03
:103B6000D584000059810000180050000129F7B5E4
:103B70000446154631D18568FEF7ECFC10BBA368FE
:103B800020699F8A1E8BFA21FEF7DCFB20691C4905
:103B9000FA2200F0B0FA2046FEF7DCFC90B9A368E8
:103BA000998AE9831B8BAB83C91B204689B2FEF738
:103BB000FDFBA98B891B89B2204603B0BDE8F0400C
:103BC000FEF7EABBA3680F4ADA610F4A04212046D8
:103BD00003B0BDE8F040FEF7E3BD022994BF002129
:103BE0000121FFF74FFF48B96B680193074B009322
:103BF0002B68074A02212046FEF7D2FD03B0F0BD34
:103C0000A280000018005000BC8100007572000006
:103C1000B38100002DE9F041013986B018BF0121C0
:103C20000546FFF72FFF50BBAB68DFF85880D3F88D
:103C30004C640446FEB1082C1DD0304600230A22F5
:103C400003A901F0E9FABDF81420A96830460A2357
:103C5000013201F22A2101F0DFFAAB68049E03F27F
:103C60002A230093671C2346424600212846FEF77C
:103C700097FD3C46DEE7AB68002283F82A2206B0B7
:103C8000BDE8F081F6810000013910B518BF0121AF
:103C90000446FFF7F7FE30B9A368B3F8542460F385
:103CA0008202A3F8542410BD013910B518BF0121B8
:103CB0000446FFF7E7FE30B9A268B2F8543443F087
:103CC0000403A2F8543410BD013910B518BF012106
:103CD0000446FFF7D7FE30B9A368B3F8542460F365
:103CE000C302A3F8542410BD013910B518BF012137
:103CF0000446FFF7C7FE30B9A268B2F8543443F067
:103D00000803A2F8543410BD022973B50D4694BFC0
:103D10000021012104461646FFF7B4FE014658B9BA
:103D2000022D0BD1736801930C4B00930C4A33683E
:103D300029462046FEF734FD02B070BDA368094A4B
:103D4000D3F8543413F0080F074B18BF1346074A33
:103D5000204602B0BDE87040FEF722BD757200003B
:103D6000B3810000DA7A00000082000004820000C3
:103D7000013910B518BF01210446FFF783FE48B989
:103D8000A368C3F84404E3685B68BDE810401868A2
:103D900001F07BBB10BD00007FB5013918BF0121C8
:103DA0000446FFF76FFE0546B8B9E3685B681E6816
:103DB000304601F067FBB268A168C3B2CDE90132B9
:103DC00064204343B3FBF2F3DBB20093D1F84434F5
:103DD000034A29462046FEF7E3FC04B070BD00BF4D
:103DE000158200001A6080681A4601F0D1BB0000FD
:103DF00008B5064B06481A6A00210123520901F052
:103E000093FFBDE80840034800F0BEBB8C110020C2
:103E100018870000E086000010B50C4621B9034861
:103E200000F06EFD204610BD0620FCE7E086000095
:103E300008B5024800F02EFD002008BDE086000015
:103E400070B50D4617490860174900260E60416895
:103E500088B0C1E900230E7218223146044602A838
:103E600002F079FF6B6800932B680193642304933D
:103E70002B89ADF81430EB68069306238DF81D30BE
:103E80000A4A0B483346694600F00AFC054628B941
:103E9000A06801F0FEFAE06801F0FBFA284608B0DD
:103EA00070BD00BFB8110020B4110020B53E000065
:103EB000E086000073B51C4B0E781D680C461EB1E1
:103EC000012E16D002B070BD0B89A8684968009316
:103ED0006A4601F0E7FAD4E90112144800F061FDE6
:103EE000A368002BEED06B68D3E9002130469047E1
:103EF000E8E78968E86801F08BFBFF2300936A46D6
:103F0000E868334601A901F00CFB009A42B101991F
:103F1000064800F043FD6B680120D3E90021E6E785
:103F2000034B1A60F7E700BFB8110020E0860000DD
:103F3000B4110020F7B51A6005461A46C06801F0B2
:103F4000B1FA0646F0B9114F3846FDF734FF044682
:103F5000C0B9FF230193E868012301AA694601F073
:103F6000E0FA70B9DDE90012094800F017FD6B684E
:103F70001B7A04462BB120B90199E86801F048FB8F
:103F80003C602646304603B0F0BD00BFB4110020AF
:103F9000E086000010B500201C4602F0C3FA206045
:103FA000002010BD83681868FDF701BB10B541689B
:103FB0000024C1E900230C7202F01CFB024B012219
:103FC0001A70204610BD00BFBC11002010B5044679
:103FD000002002F005FB20B163680020D3E9002136
:103FE000904763680120D3E900219047A3682246E7
:103FF0001868BDE8104040F26661FDF7AFBA0000F6
:1040000043681B7A70B505460E46CBB183681868C5
:10401000FDF7CDFA30F00803044601D116B10024B3
:10402000204670BD6B681B7A63B1AB682A4618687E
:1040300040F26661FDF792FA044602F0DBFAEFE720
:104040000029ECD1054AA8680021FDF775FA6B68D4
:1040500001221A7204460028E7D0E1E7CD3F0000B4
:104060002DE9F74F1F461B4BD3F8F030DB0789468D
:10407000144604D400203C6003B0BDE8F08F164B1A
:10408000DFF858B04FF00508002643F0010A224639
:1040900009EB0601002002F089FA054698B99BF861
:1040A000003063B10A2301934FF47A40D047019B5B
:1040B000013BF8D1B8F1010805D18BF80080002E42
:1040C00018BF3446D6E70123641B8BF800302E441A
:1040D000DDD1F4E700ED00E020870000BC110020F6
:1040E000826810B504462AB143690168006998479F
:1040F0000023A36010BD0EB403B5039921B104AB36
:1041000001AA019300F076F802B05DF804EB03B069
:1041100070470A2938B504460D4602D10D21FFF734
:10412000F8FFA3682268591CA160D554D4E9013274
:104130009A4204D32046BDE83840FFF7D1BF38BDCE
:104140002DE9F84F9846DDE90A43154682460F46A9
:104150000A464FF00109AA420FD2C14538BFC146F5
:1041600013F0010B01D16CB900240126B8F1010F45
:104170001BD908F1FF386E43F8E709F10109B2FBDA
:10418000F5F2E8E79B070ED5B8F1000F0CBF30261B
:104190002026A145E9D2013C31465046FFF7B9FF40
:1041A000002CF6D1E0E72026F3E7B7FBF6F39D42BB
:1041B000E1D9DFF83C80B7FBF6F3504618F803105E
:1041C00006FB1377FFF7A5FF3346AB42B6FBF5F6C8
:1041D000F1D2BBF1000F02D00CB1A14501D3BDE873
:1041E000F88F20215046013CFFF793FFF4E700BF12
:1041F0003C8700002DE9F74F054617468846002901
:1042000000F03E8118F8011B49B92B7B002B00F010
:104210003781284603B0BDE8F04FFFF761BF25297D
:1042200040F0B780002698F800302D2B424608F168
:10423000010823D0302B24D02B2B25D000242A2B6F
:1042400002F1010123D13B681A1D1B683A601C442E
:104250000A4613782E2B26D101324FF0000A104661
:1042600010F8011BA1F1300CBCF1090F1DD80A2375
:1042700003FB0A13A3F1300A0246F0E746F00106F9
:10428000D1E746F00206CEE746F00406CBE711F888
:10429000013CA3F130000928DBD80A2202FB0434D8
:1042A000303C0A46CBE74FF0000A12F8011B01F040
:1042B000FB0068289046F8D0782909D86F290CD8D7
:1042C000632962D022D8252963D0582900F088803C
:1042D00098F80030002B95D197E770390829F7D866
:1042E00001A353F821F000BF5B440000D14200005D
:1042F000D1420000F1430000D1420000CF43000052
:10430000D1420000D1420000E1430000642901D005
:104310006929DDD13A68D2F80090111D89EAE97265
:104320003960A2EBE9724FF0010B092A35DCD34565
:1043300038BFD3462CB1B9F1000F01DB720700D5AD
:10434000013CB30702D5BAF1000F03D0F00701D446
:104350004CBB0024B9F1000F2DDAC9F100092D2161
:104360002846FFF7D6FE06F00302022A04D1BAF16E
:10437000000F01D11CBB0024CDE9004653460A22A0
:1043800049462846FFF7DCFEA2E73B681A1D19786C
:104390003A602846FFF7BDFE9AE70A230BF1010BAE
:1043A000B2FBF3F2C1E7A345D4D220212846013C59
:1043B000FFF7AFFECCE77107D5D52B21D0E7A3459A
:1043C000DAD230212846013CFFF7A3FED2E7396854
:1043D000CDE900460A1D3A6053460A220968D0E733
:1043E00039680A1D3A60CDE9004653461022F5E7C8
:1043F0003B681A1D3A6016F00106D3F8009024D1EC
:10440000B9F1000F03D0484602F021FD0646B44240
:104410001DD809F1FF3919F8011F00293FF458AFE1
:104420002846FFF776FEF6E728460136FFF771FECD
:1044300019F806100029F7D1A642BFF449AF202190
:104440002846013CFFF765FEF6E70026F0E720214D
:104450002846013CFFF75DFED9E73B681A1D3A602C
:10446000302128461C68FFF754FE78212846FFF7C4
:1044700050FE00220823CDE900322146102280E7B9
:1044800003B0BDE8F08F00BF13B504460068FDF728
:1044900010FD019010B9002002B010BD606801A9A4
:1044A00000F0DDFE0028F6D1E269A069D368019929
:1044B0000133D360626A00F028FD0120ECE77FB58C
:1044C0000B780446042B58D8DFE803F02110033D95
:1044D000480001238DF804304B6802938B680393E6
:1044E000E3691A68586801A990470EE0C36993F818
:1044F000263053B9FFF7C8FF38B9E36993F8252090
:10450000002A3AD0012283F8262004B070BDC36986
:104510008A685E69901B30D01A6902441A614A6841
:1045200000253244CDE902208DF8045060685D61B9
:104530002A4603F1180100F066FF0028D0D0284673
:10454000FCF7E6FECCE70023CDE901330393022319
:104550008DF804300B798DF80830C1E7C3694968DC
:104560001A6958690A44121A1A61002201920392C8
:1045700003228DF804200291B3E7002004B0BDE8C7
:104580007040FCF7C5BE0000836930B5DB681A0BCC
:1045900043F30733002B85B004460CDB02F01F0108
:1045A0005B0901228A402033174941F82320BFF3D9
:1045B0004F8FBFF36F8FA3695B68D3F84C05E36936
:1045C0001A6982420FD200218DF80410D3E9051533
:1045D000821A0D44CDE902520A44C3E9040201A93A
:1045E0001A6858689047A369DB681A0B43F30733CE
:1045F000002B07DB02F01F0101228A405B09024900
:1046000041F8232005B030BD00E100E0F8B50446D4
:10461000FCF7F4FFE36993F827200546EAB1196A2D
:10462000A3691B4A5B680126DE64D3F84C758803D6
:104630000023890C02F056F9236920FA06F10529B6
:104640001868224638BF0521FCF788FF63691A689D
:10465000BA4203D0C3E900751E72F8BD59682846F6
:10466000FCF7C7FF6269137A002BF6D0094BE169AA
:10467000A0FB0303C00B40EA43400B6A8342ECD229
:10468000002313722046BDE8F840FFF77DBF00BF4E
:1046900040420F0080841E000846FFF775BF0000EF
:1046A0002DE9F0434C7F072C8DB005460E4600F0F7
:1046B0008680006910B1052C00F2E080E96991F86C
:1046C0002770002F40F0DC80C1E906774B6033692A
:1046D0000A600F614F61CF600B6281F82670337DF5
:1046E0005A1E5342534181F82530AB68002B53D0FA
:1046F000644A106892880190ADF8082001A92A6ADE
:10470000013418468DF8064001F09CFA0146002855
:1047100054D13269A8680123520901F005FB002831
:104720004CD1AB681F6807F1080807F1040907F5C9
:10473000A0742B69002B6CD0736801933368A8694F
:104740000293B3680393F3680493C3684E4A03F576
:10475000887305930023CDE906330893B38AADF837
:104760002430B3690A93737F8DF82C30337F8DF832
:104770002D3001A92B4600F091F90446F8B92868BC
:10478000FDF780FB0446D0B9686800F0B7FDEB691F
:10479000012283F8272012E0EF6807B30422ADF866
:1047A000042001A9394A8DF80630013438460295B3
:1047B0008DF8074001F070FB014620B1032420462C
:1047C0000DB0BDE8F08301233269E86801F018FC00
:1047D000EB681F6807F10C0807F11009A7E7A8B1FB
:1047E00091F8241049B92A4AFCF7A6FE044600288D
:1047F000E5D1EB69012283F824206B690024C3E929
:1048000000441C72A146A046274692E7FCF780FDB3
:10481000D4E7E869083001F0D7F80028CED1E8697C
:10482000093001F0D1F80028C8D1AB69D968EB692B
:104830003A46187A01F5847101F012F90028BDD1C9
:10484000B8F1000F12D1EB694A46587A214601F0BF
:1048500007F90028B2D1AB695968EB694C31587A35
:1048600001F01EF900283FF467AFA7E7EB69414666
:10487000187A01F015F90028E5D09FE707249EE794
:1048800008249CE75C870000BF44000099460000B4
:104890000D460000C36993F8272010B5044672B393
:1048A000002283F82720026972B9187A01F022F9F0
:1048B000E369187A01F0B6F8E369587A01F01AF959
:1048C000E369587A01F0AEF8A06848B101F020FA27
:1048D000A06801F0F5F9A069BDE8104000F022BA27
:1048E000E06828B101F04EFBE06801F057FBF2E709
:1048F0002369002BEFD01868FCF759FEEBE710BDD9
:1049000070B504460068FDF7D4FAE269D368013354
:10491000D360054608B9FCF7FBFCA368002B34D034
:104920001B6801229A6026697EB9E369187A01F052
:10493000CBF810B13046FCF7EBFCE369587A01F094
:10494000C3F810B10020FCF7E3FCE369626A9D61E3
:10495000A0690023294600F0A3FA10B10020FCF75B
:10496000D7FC2569BDB1E3690B4A196A00238803A6
:10497000890C01F0B7FF410805292868224638BF95
:104980000521BDE87040FCF7E9BDE0680028CAD009
:1049900001F032FBC7E770BD40420F00806900F0B4
:1049A00039BA38B5C3690446D869656A0244AA426F
:1049B000DA611AD10025DD61091A2068FDF799FA3C
:1049C000E269D368013BAB42D36002DA2846FCF7C8
:1049D0009FFCE36993F8263033B12046FFF754FD7E
:1049E000E369002283F8262038BDFDD9BDE83840B0
:1049F0000020FCF78DBC0023435082B04358019344
:104A0000019B02B070477047F8B505460024142793
:104A10002E68305D132805D801F06CF8305D01F088
:104A200001F837550134092CF2D12C68607A052839
:104A300003D801F0A1F8062363722C68A07A052838
:104A400003D801F099F80623A372F8BD73B50546A3
:104A5000CDE900211E4600F0B7FF80B9DDE9002155
:104A6000287800F0FDFF044628B92EB12878314699
:104A700001F016F800B10324204602B070BD0424F2
:104A8000FAE738B5054600242B68185D132801D8CD
:104A900001F030F80134082CF6D138BD2DE9F74388
:104AA0000446006890F83C600D46002E40F02481DA
:104AB000E1684363FF2380F83A30934B4262CB1A9C
:104AC00018BF0123914A066242F823402B68C66052
:104AD000C0E906664FF0A042012000FA03F6C2F8D2
:104AE000086503F5E076032742F8267095F82960FB
:104AF0006F68002E14BF0326002607F5E07CB60081
:104B000042F82C606A6AC1F8242595F8206095F86F
:104B10002120864242EA0602C1F86C25C1F80C3514
:104B2000C1F8147500F0ED80794AC1F8042395F8B6
:104B3000282041F307335201002BC1F30731D2B2D1
:104B4000C0F2C18003F160465B099B0003F1604342
:104B500006F5614603F5614301F01F0100FA01F11A
:104B600086F80023C3F880111960E3680822C3F8AF
:104B70000025684A0023CDE900236946664A201DC6
:104B800001F08AF9002840F0B58026684FF0143310
:104B900033607360337206237372B372E168034645
:104BA00001F1080206F1080001F59071FFF74EFFD0
:104BB0000346002840F09B806268E1682068083264
:104BC00001F584710430FFF741FF002840F08F8029
:104BD000D4E90003E268403302F588710530FFF73D
:104BE00035FF0746002840F082806B69002B6FD0AC
:104BF000EB69002B6CD06268E1682068403201F5F7
:104C000088710630FFF722FF002870D1266806F170
:104C1000090096F8058000F083FF002867D1012085
:104C2000717A00FA08F000F0E1FF00285FD1707A95
:104C300000F0C6FF00285AD1D4F80080767A98F8A0
:104C4000069008F10A0000F06BFF00284FD1012008
:104C500098F80A1000FA09F000F0C8FF002846D1C1
:104C60006368E2682068696998F80A80443304320E
:104C70000230FFF7EBFE002839D12068274A696926
:104C80004FEAC808F60008F1804303F5F8333244D0
:104C90000330FFF7DBFE50BB204B06F1804606F5E4
:104CA000F8364344AA6952EA030113D1296929B1AC
:104CB000E26820683346FFF7C9FEC0B923680122C5
:104CC00083F83C2019E0164B01F00F015A544CE7D1
:104CD0001E46E7E72068E168013001F5A67113B1CF
:104CE0009C4613466246FFF7B1FE0028DED0204600
:104CF000FFF78AFE032700E00827384603B0BDE827
:104D0000F0830727F9E700BF00200040C011002012
:104D10001003480000010306074A000004F00140A8
:104D200014ED00E013B5016891F83C300446002B07
:104D30006CD0C36800201A0B43F30733834281F819
:104D40003C000CDB02F01F015B0901228A4020338A
:104D50002F4941F82320BFF34F8FBFF36F8F2046B9
:104D6000FFF78FFE2368187A132801D800F0C2FEDF
:104D7000E0684FF0FF33C0F808334FF4AC71FFF731
:104D80003AFEE0684FF4A271FFF735FEE0680123B8
:104D9000C36043602368D96819B1D0F85821002A4C
:104DA000FAD09A691AB1D0F84421002AF4D000222E
:104DB000DA609A614FF4A871C0F80025FFF71BFE76
:104DC000E0684FF4AC71FFF716FEE0684FF49071A5
:104DD000FFF711FEE0684FF48871FFF70CFEE06802
:104DE0004FF4A671FFF707FE4FF4A271E068FFF7DA
:104DF00002FE201D019001F0C5F8019801F0CEF8E7
:104E0000204602B0BDE81040FFF7FEBD02B010BD65
:104E100000E100E0F8B505460068C368002B3DD10D
:104E2000FF2AC0E90312436128D894B20387E868D7
:104E3000C0F84415C0F848454FF4A871FFF7DBFDF2
:104E4000E8680123FF2A836016D9D0F85031002B7F
:104E5000FBD04FF4A871FFF7CEFD2B68187A13280A
:104E600001D800F031FE2B68EA68198FDB681C441A
:104E7000C2F84445C2F84815002010E0FF2302F1B3
:104E8000FE04B4FBF3F4B2FBF4F4A3B2B2FBF3F60A
:104E900003FB162616FA84F4A4B2C7E71120F8BD66
:104EA00073B51E4603680446986958BB1A6329B156
:104EB0009961E368C3F83415C3F83825201D0190C3
:104EC00001F052F8019801F097F82368E068002596
:104ED0004FF48871C3E90A55FFF78DFDE0684FF480
:104EE000A671FFF788FD2368585D132801D800F0EC
:104EF000EBFD0135082DF6D116B9E36801221A60E1
:104F0000002000E0112002B070BD036810B5DC691C
:104F100034B9D961C368C3F83415C3F8382510BD56
:104F20001962FCE7684B2DE9F0411C68E068D0F895
:104F3000243186B0B3B14FF49271FFF75CFD0023CA
:104F4000CDE90333059303238DF80C30E268D2F8E2
:104F50008034C2F880348DF81030236803A95A6A6F
:104F6000586B9047E068D0F84C317BB14FF4A67194
:104F7000FFF741FD0023CDE90333059301238DF8AD
:104F80000C30236803A95A6A586B9047E068D0F840
:104F90001031002B49D04FF48871FFF72CFD636866
:104FA000D3F84065D3F844752368D3E90A52751BDA
:104FB000C3E90A6701D1974237D0186B85422A4668
:104FC00028BF02469446A5EB02089A69CDE9012C58
:104FD000DA690021C3E906211A6A8DF8001032B19E
:104FE000C3E90721E168C1F83425C1F838055A6AD8
:104FF000586B69469047B8F1000F05D123681B6BC9
:105000009D4212D1BE4210D10025042303958DF894
:105010000C30236805955A6A586BCDF8108003A9A7
:1050200090472368DA69C3E90625E068D0F858316B
:105030008BB14FF4AC71FFF7DEFC02238DF80C301E
:105040002368DA6804921A6905920022DA60586BC4
:105050005A6A03A99047E068D0F82031A3B14FF411
:105060009071FFF7C8FC2368E0685969D0F84C25B7
:105070000A4419695A618A4209D14FF4AC71FFF7A9
:10508000BAFCE3680122DA6006B0BDE8F081891A53
:10509000FF2911D9198F1144DA68D0F850310A4428
:1050A0004FF4A871FFF7A7FC2168E368098FC3F8E4
:1050B0004425C3F84815E7E7187A1328E4D806B062
:1050C000BDE8F04100F016BDC01100202DE9F84FF9
:1050D000B0F806A04579D2F800B09DF828900AFBF8
:1050E00005F5043D88460BEB0301A94203F10404D6
:1050F00088BFA5EB030BB4FBFAF607460AFB164480
:10510000C2F800B04EB9AAEB04055D4528BF5D4664
:10511000BBF1000F04D1BDE8F88F3F68013EF1E715
:10512000043408EB06003C442A46B9F1000F0DD0C8
:105130002146ABEB050B01F0E5FDDA452E443F6857
:1051400055464FF0000428BF5D46E1E70146204682
:10515000EFE7FCF797BEF8B546790146721E0546A3
:10516000002393422D6803D30024A64202D8F8BD41
:105170000133F6E70F682846FCF7BBFE01343946D9
:10518000F3E72DE9F843068BCD1C0746FCF791FEAB
:10519000043E35440446B5FBF6F5F0B14FF4807398
:1051A000EDB28380C680013D076081464FF0000864
:1051B000A84512D23846FCF77CFE064648B1637912
:1051C0000133637108F10108C9F8000007608146E6
:1051D000EEE72046FFF7BFFF34462046BDE8F883E0
:1051E00001210430FCF7CFBD10B501210446043085
:1051F000FCF7D5FDC0B220B92046BDE81040FFF74E
:10520000AABF10BD1FB503920022009203AAFFF7A8
:105210005DFF05B05DF804FB1FB50392012200920B
:1052200003AAFFF753FF05B05DF804FB704702685F
:1052300013685268934291BFD01A80680130801879
:1052400088BFC01A7047036881681A685B688B4220
:1052500034BF01330023D31A58425841704770B508
:10526000044600200D46FCF7BDFA2046FFF7EBFF91
:1052700010B1237C002B3BD12368A1685E685A687B
:105280008A4234BF013200225A6028B11A68914222
:105290008CBF013200221A60E2686368511E072940
:1052A00020D8DFE801F004101F141F1F1F182A78F0
:1052B0009A552046FFF7BBFF23689A68824200D2C6
:1052C0009860002415E02A8823F81620F1E72A6860
:1052D00043F82620EDE7D5E9000103EBC603C3E957
:1052E0000001E6E7294602FB063001F00BFDE0E78E
:1052F00004240020FCF778FA204670BD10B504465F
:105300000020FCF76FFA236800201860586098604E
:10531000BDE81040FCF768BA10B504460020FCF761
:1053200061FA2046FFF783FF04460020FCF75CFA91
:10533000204610BD2DE9F04F8368D3F85434C3F3F1
:1053400040059B078BB0064606D5002211460BB0E0
:10535000BDE8F04FFEF76EBA012906D9204A0221B6
:105360000BB0BDE8F04FFDF71BBA1E4C1E4BDFF82B
:105370008090DFF880A01B1B1C22B3FBF2F8A8452D
:1053800002D10BB0BDE8F08FE36809932368A768EA
:10539000D3F808B02046FFF7BFFF94F810E0134A97
:1053A000642303FB00F1BEF1000F18BF4A4603FB64
:1053B0000BF3B3FBF7F3CDE9043BB1FBF7F1099B2A
:1053C0000191CDE90672CDE9020700935246636967
:1053D00008213046FDF7E4F901351C34CFE700BF62
:1053E0006C7F0000006F0000546F000074870000A5
:1053F0007D87000089870000036818685B68C31A0E
:1054000058425841704770B5054600200C46164674
:10541000FCF7E8F92846FFF7EFFF002830D12B68AA
:1054200019682EB91A68A868824238BF561C1E60D7
:10543000EA686B68501E07281CD8DFE800F0040CEF
:105440001B101B1B1B145B5C237000240020FCF74B
:10545000CBF9204670BD33F811302380F5E753F8BF
:1054600021302360F1E703EBC103D3E90023C4E952
:105470000023EAE701FB0231204601F043FCE4E7A8
:105480000524E3E7036898687047036800229A6080
:105490007047836800225A60C3E904229A60DA6088
:1054A0001A6070472DE9F84F074680688A46904693
:1054B000FCF781FC814688BBD7E901431A690134B6
:1054C00014449A68A41AD8F80020944228BF1446BD
:1054D000C8F800407E689D6835400136A6EB050B94
:1054E0005C4509D93868514628445A4601F00AFCFF
:1054F000AD1B2C44DA444D463868224651462844B8
:1055000001F000FCB868D8F8002083681344C0E9B3
:105510000233FCF759FC4846BDE8F88F4FF01109FB
:10552000F9E72DE9F04106460F461446984673B94F
:10553000B068816842698D1A11D12560B8F1000FF9
:1055400002D00430FCF740FC2846BDE8F0818068BA
:105550000430FCF730FC0028EAD01125F4E773682A
:10556000D4F800C01A4019408A420BD2654500D2D7
:10557000256033681A443A604369226813444361E2
:105580000025E1E701339B1A634538BF2360F0E74C
:105590002DE9F8430646806804300F469146FCF733
:1055A0000AFC804688BBB26813699568ED1AD9F881
:1055B00000309D4228BF1D46C9F80050736811692C
:1055C000946819401C40A14228BF5C1C641AA54283
:1055D00008D9336838461944224601F093FB2D1B45
:1055E0002744002133682A461944384601F08AFBD3
:1055F000B068D9F8002003691344C0E904330430CB
:10560000FCF7E2FB4046BDE8F8834FF01108F9E7EC
:10561000806808B582680369D21A8A4207D31944A0
:10562000C0E904110430FCF7CFFB002008BD0420C2
:10563000FCE770B5446806460D46206818B1B368AB
:105640002946984718B923682B60256070BD2468E7
:10565000F3E74368186808B102681A607047436846
:10566000186870474368186800B97047884203D1CA
:1056700002681A600120704703460068F4E70000E2
:1056800038B5074C051E04F1080318BF1C462368F3
:105690002BB11A6822605B6828469847F7E738BD47
:1056A000D011002020B9054B01225A70FFF7E8BF46
:1056B000012802D1014A9070F8E77047C811002014
:1056C00038B50C4C23789BB90B486360A360236109
:1056D000E36000F049F8054600F052F8012323701A
:1056E000064BD3F800340BB10123A370284638BD14
:1056F0008525F5E7C8110020A556000000000140EF
:1057000038B5134CA378054603F0FF0073B115B10B
:105710006B68012098470020FCF764F8E3680133C8
:10572000E3600020BDE83840FCF75EB8FCF75AF8AB
:1057300025B1226913463BB92A602561E368002B35
:10574000ECD100F02FF8E9E79D42F7D01B68F2E7B3
:10575000C811002000F18040002382B0036003687C
:105760000193019B02B07047044A137923B90121C8
:10577000106091801846704785207047DC1100202A
:10578000074B1A68D20704D4C02283F800230122F1
:105790001A604FF080430122C3F81825704700BFFC
:1057A00000E100E038B54FF48270FFF7D3FF4FF00F
:1057B00080430222C3F804230C4AD2F8FC0040F0D4
:1057C0008073C2F8FC300A4B1C6844F00101196078
:1057D0005D685968491BB1F50A5FFAD31C604FF048
:1057E0008043C2F8FC0001229A6038BD00ED00E061
:1057F000001000E04FF0804110B5D1F8003163B1E6
:105800004FF48070FFF7A6FF0D4B58790122C1F8C5
:10581000082310B95A711B6898474FF08042D2F89C
:10582000043163B14FF48270FFF794FF0223C2F892
:105830000833034BBDE810401B680120184710BD1A
:10584000DC11002000F1804000F5C040002382B050
:10585000036003680193019B02B07047800000F170
:10586000A040D0F8002722F44032C0F80027D0F83A
:10587000003743EA0141C0F8001770472DE9F74FA0
:1058800000244E4D01944FF48072012102F18043B7
:1058900003F5C04390B21B68012B06D1D5F8043341
:1058A0000B4202D0FFF7CEFF0C430432B2F5907FDB
:1058B0004FEA4101EAD1414BD3F87C31012B0CD1A5
:1058C0004FF4BE70FFF7BEFF4FF0A04344F000441A
:1058D000D3F820250192C3F82025E3B2D3B1384F85
:1058E00000250126344210D0AB0003F1804303F5BC
:1058F000C043D3F81005D3F8101557F8253023B15D
:10590000C1F30141C0F3042098470135082D4FEA47
:105910004606E7D1002C48DA294D4FF0A048294E21
:105920004FF00009012716F9013B5A1C31D0C3F38F
:10593000C20208326A44DCB212F8042C03F03F0AB7
:1059400003F0070307FA03F31A4222D00AF5E073C3
:10595000504658F82330C3F3014BBBF1020F0CBF84
:1059600003210221FFF77AFF07FA0AF3C8F820356E
:1059700005EB0A0393F9303055F823304BB1A109F8
:10598000032904D0BBF1020F12D1012901D15046E5
:10599000984709F10109B9F1040FC4D1D8F82035AD
:1059A0000193C8F82035002BB9D103B0BDE8F08FC2
:1059B000BBF1030FEDD10229E8E700BF0060004012
:1059C000E4110020341200202DE9F84F134DDFF8C8
:1059D000508007464FF0000A04264FF001095FFA95
:1059E0008AFB002009FA0BF4FBF7FCFE2C420AD0DC
:1059F000D8F8003014EA030201BF2343C8F800308E
:105A000087F800B016460020FBF7EEFE1EB1A54356
:105A10000AF1010AE3D13046BDE8F88FFFFF0F001D
:105A200040120020012310B503FA00F4C4F313035D
:105A30007BB1094B0020C3F80845FBF7D3FE074BA9
:105A4000186820EA040018600020FBF7CDFE002053
:105A500010BD0720FCE700BF00F00140401200200D
:105A600010B5A1B19AB101238340C3F3130484B1EB
:105A70000A4C246823420ED0C00000F1804000F59B
:105A8000F830C0F81015C0F81425002010BD0E2005
:105A9000FCE70720FAE70820F8E700BF40120020E3
:105AA000074A01231268834013421FBF00F511709B
:105AB000044B43F82010002008BF0820704700BFA7
:105AC0004012002000F00140012303FA00F0C0F36F
:105AD00013031BB1054B1B68184204D0044BC3F8D9
