:1000000000000420750300005D0300005F03000092
:1000100061030000630300006503000000000000AE
:100020000000000000000000000000006703000066
:1000300069030000000000006B0300006D03000076
:10004000295700006F0300009D5900007D5D0000EE
:10005000B96300006F030000195800006F0300002F
:100060006F0300006F0300006F0300006F030000C8
:100070006F0300006F0300006F0300006F030000B8
:100080006F030000A11D00006F0300006F0300005C
:100090006F0300006F0300006F0300006F03000098
:1000A0006F0300006F0300006F0300006F03000088
:1000B0006F0300006F03000000000000000000005C
:1000C0006F0300006F0300006F0300006F03000068
:1000D0006F0300006F0300006F0300006F03000058
:1000E0006F0300006F0300006F03000000000000BA
:1000F000000000006F030000000000006F0300001C
:1001000000000000000000000000000000000000EF
:1001100000000000000000000000000000000000DF
:1001200000000000000000000000000000000000CF
:1001300000000000000000000000000000000000BF
:1001400000000000000000000000000000000000AF
:10015000000000000000000000000000000000009F
:10016000000000000000000000000000000000008F
:10017000000000000000000000000000000000007F
:10018000000000000000000000000000000000006F
:10019000000000000000000000000000000000005F
:1001A000000000000000000000000000000000004F
:1001B000000000000000000000000000000000003F
:1001C000000000000000000000000000000000002F
:1001D000000000000000000000000000000000001F
:1001E000000000000000000000000000000000000F
:1001F00000000000000000000000000000000000FF
:10020000354936480A1A02D0072291438D463449AF
:1002100034480A1A06D00722914381F30988022242
:1002200082F3148830483149314A00F044F83148AB
:100230003149324A00F03FF831483249324A00F041
:100240003AF832483249334A00F035F832483349F7
:10025000334A00F030F833483349344A00F02BF881
:1002600033483449344A00F026F8344834490022EF
:1002700000F02CF833483449002200F027F83348C6
:100280003349091A082902DB002202604160314A21
:1002900090471F481F49884205D00268043003B4C4
:1002A000904703BCF7E700208646EC46002000217B
:1002B000294A9047FEE7884207D0521A05D00378B2
:1002C00001300B700131013AF9D17047884202D0F8
:1002D00002700130FAE770470000042000E00320BC
:1002E000000004200000042010A40000D80000201A
:1002F00078010020D0030000D0030000BC80000083
:1003000010A40000D8000020D800002000830000C6
:1003100000830000008300000083000000830000D1
:1003200000830000008300000083000010A4000090
:10033000B0A400007801002078010020780100209E
:10034000D00E0020D00E0020D00E0020D00E0020B5
:10035000D02E00209D03000071780000FEE7FEE72C
:10036000FEE7FEE7FEE7FEE7FEE7FEE7FEE7FEE765
:1003700000F002B8FFF7FCBF0F484FF007018843B9
:1003800085460E4880470E48016841F470010160BF
:10039000BFF34F8FBFF36F8FFFF732BF09480A4992
:1003A0000A4A884207D0521A05D0037801300B70F0
:1003B0000131013AF9D1704700000420D9790000D9
:1003C00088ED00E02882000000000020D800002016
:1003D000F0B595B01D46164608460C4604F013FCD1
:1003E0001A9B0D93CDE9086500252B46082205A927
:1003F00020460A958DF82C500C9504F02BFC079B99
:100400000293069B03939DF814308DF8115003F06E
:100410000302012A1DD1BDF81420059DC3F3C203B8
:10042000C2F383168DF81030B20008230EA92046BF
:1004300004F010FCC5F3952508AB0093324602ABDF
:100440000EA9284600F0D2FE204604F0E0FB15B0CD
:10045000F0BD022AF8D1BDF81650C3F3C203C5F3AC
:1004600089158DF810300827082D2E4628BF08263C
:100470003B4632460EA9204604F0ECFBAD1B08AB10
:1004800002AA31460EA8374400F014FF002DEBD12C
:10049000DAE70000014B01221A707047B901002011
:1004A0007047000070B50E4D06460FCD88B06C4603
:1004B0000FC495E80F00002E84E80F00094A0A488F
:1004C0004FF0060308BF00226946009305F08CF840
:1004D00008B100F0CFFF054B1E7008B070BD00BF23
:1004E0000083000095040000D8000020780100205F
:1004F00007B5044B0093044A4023FFF769FF03B09C
:100500005DF804FB0D0500007901002038B50D48A9
:100510000D4C0E4D002323700378EB5CD2B263B117
:10052000043006F073FE08B100F0A4FF084B1A78FF
:1005300012B12378002BFBD038BD0C3006F0F6FA50
:10054000F1E700BFD8000020B9010020000800201A
:100550007801002008B50848084A0378D35C3BB10D
:10056000043006F0C3FDBDE808400020FFF79ABF45
:100570000C3006F071FAF6E7D800002000080020E1
:1005800000230428CB604B6098BF044B044A98BFFB
:1005900053F820308A600B60704700BFE887000086
:1005A000C4870000CB6800225A717047C368DB68BB
:1005B00000225A717047CB6801225A717047C36894
:1005C000DB6801225A7170470D4A8A6070B50D4A86
:1005D0000D4C0023121BCB604B600B6012091D46B3
:1005E0009A4207D0E6683679FF2E05D0854202D1BF
:1005F000A3680B6070BD013501331034F0E700BF14
:10060000FC870000F0810000D08100002DE9F34755
:100610008368D3F84831C3F340059B07074606D5E6
:100620000022114602B0BDE8F04703F037BB144E7C
:10063000144CDFF85880DFF85890DFF858A0A41B5E
:100640002409A54202D102B0BDE8F087F168B36881
:100650000A79FF2A07D10C4A0821384602F086FAA7
:1006600001351036EDE74879002814BF4146494668
:10067000CDE9001238465246082102F077FAEFE73A
:10068000D0810000F08100003D8300002C83000039
:10069000348300005C8300002DE9F74F154D164CA4
:1006A0009946641B52F8043C0646884617462409BE
:1006B0004FF0000B5C4507D1104A0221304603B0D1
:1006C000BDE8F04F02F052BAA9680193184607F04E
:1006D0009DFCAA46019B103540B93B464246514617
:1006E0003046CC4603B0BDE8F04F60470BF1010B3C
:1006F000E0E700BFD0810000F08100007D830000B2
:10070000014BFFF7C9BF00BFE90A0000014BFFF72B
:10071000C3BF00BFA5050000014BFFF7BDBF00BF71
:10072000B7050000014BFFF7B7BF00BFC50B0000C6
:10073000037813F0040216D003F00303012B03D057
:10074000022B09D0012070470A6800880232C0F3EA
:10075000831002440A60F5E70B684288023303EB1A
:1007600092130B60EEE71046704700002DE9F04F42
:10077000DFF81CA10F4685B00446861C00201546F4
:1007800001F02EF9DAF804203A60DAF8083003F5BF
:1007900080739B1A0AF21C470AF583690AF214480F
:1007A000B34219D30020002D6CD004F00F039B013D
:1007B00043F0050363F30F00DAF80430DAB20332D2
:1007C00033444AF822000020CAF8043001F018F936
:1007D000012005B0BDE8F08F0121384601F0B9FBDA
:1007E000484601F0D1FB404601F0CEFBDAF80800A4
:1007F0000090C0B203300AEB80006946FFF798FF13
:10080000009B8346B8B9DAB20AEB8202D168019143
:100810009A1C0133DBB20AEB83030092D86801F023
:100820000303012B26D0022B07D018494FF4C270C6
:1008300001F0C0FA0BE0D8B2DCE7BDF80630C3F334
:10084000891303334FEA104B02EB930300934046A6
:1008500001F09DFB10B1009BCAF80830594638469C
:1008600001F077FBDAF80830DAF8042003F580733A
:100870009B1A95E7BDF80430C3F383134FEA104B7E
:100880001344E3E7A40544F0060095E793830000D2
:100890008C020020012907B5034604D08168D1F8F5
:1008A0004811890707D500221146184603B05DF8A4
:1008B00004EB03F0F3B953680193054B00931368FD
:1008C000044A022102F052F903B05DF804FB00BFB4
:1008D00011840000078400008368D3F848319B0727
:1008E00003D50022114603F0D9B9024A022102F0D1
:1008F0003DB900BF26840000FFF7EEBF30B599B1C7
:100900000A4B0B4A0B49D21AD20800239A4201D152
:10091000052006E031F823500468A54202D10360A7
:10092000002030BD0133F1E70846FAE718810000E6
:10093000D0810000200000202DE9F84F1E4B1F48F9
:1009400000221A7004F018F9814690BB1C48DFF8A9
:1009500080801C4CDFF87CA004F016FBA4EB08049C
:10096000E4084D46A54208D10023174A19469C4287
:100970001AD022F823100133F9E700273E4608EB8E
:10098000C50BB54209D058F83610DBF80000142228
:1009900007F09AFA0028C8BF01370136B442F0D1F7
:1009A0002AF825700135DDE70848A200002107F08C
:1009B000D8FA4846BDE8F88F8C020020F08100008C
:1009C000B8870000D0810000220000207C000020B9
:1009D000188100002000002007B5019001A8FFF752
:1009E0008DFF30B9019A044B53F8320003B05DF823
:1009F00004FB0020FAE700BF18810000002310B5B7
:100A0000CB604B60034B8B600C460121FFF7E4FF8A
:100A1000206010BDC4870000094B013903EBC00002
:100A2000032909D8DFE801F00A0204060420704710
:100A30000079704740797047002070470220704766
:100A40001881000030B5124C00EB400054F82150E2
:100A500002FA00F3072202FA00F06B400D4A03404D
:100A60006B40C3F3821044F8213002EB8101C3F3E1
:100A7000C202824238BF0246C3F34220824203F0E0
:100A8000070338BF0246934238BF13464B8030BD40
:100A90007C0000202000002013B50446019101A82D
:100AA000114693B1FFF72AFF10B1002002B010BD2C
:100AB00001990B4A04EB440052F82120072383409C
:100AC000134023FA00F0C0B2F0E7FFF717FF002849
:100AD000EBD1019A034B03EBC2039879E6E700BF21
:100AE0007C00002018810000294B2A4A2DE9F04F94
:100AF0009B1A4FEAD30ACB685B7985B005460E4650
:100B00001BB9254A022102F031F8244B244ADFF8B0
:100B1000A4800821284602F029F8224A0821284604
:100B200002F024F80024544502D105B0BDE8F08F4E
:100B3000F36893F8049001231A4621464846FFF7CC
:100B4000ABFF00230746012221464846FFF7A4FFDA
:100B50000121032881468346204628BF4FF0030920
:100B6000FFF73AFF5FFA89F90F4A58F82910034650
:100B700058F827000D4F0090CB4598BF1746CDE998
:100B800001170B4A0821284601F0F0FF0134CAE79B
:100B9000D081000018810000398400004C840000DE
:100BA0005884000076840000F58E00003784000031
:100BB000B3840000D487000013460A46C168FFF7DB
:100BC00093BF00002DE9F04F2DED028B054683B059
:100BD0009B461646002A5DD0DBF80070CB6855496D
:100BE00093F804A0384607F011FA0446F0B9012E34
:100BF00009D1514A0221284603B0BDEC028BBDE861
:100C0000F04F01F0B3BFDBF804304C4F57F8041B32
:100C100000930A22184607F057F9002800F0838055
:100C20000134052C009BF1D1454A15E04549384671
:100C300007F0ECF9044668B9012E36D04FF00108F0
:100C4000414B424AA3EB02094FEAD9030093DFF874
:100C500008914FE03E4A3B460221284603B0BDECD6
:100C6000028BBDE8F04F01F081BF00231A463146E8
:100C70005046FFF711FFA04211D200213046FFF786
:100C8000ABFE424603460221284601F06FFF0136C3
:100C9000BE42EAD103B0BDEC028BBDE8F08F224624
:100CA00031465046FFF7CEFEF1E7274F274BDFF8DE
:100CB000A480FF1AFF080026EAE700213846FFF764
:100CC0008BFE18EE101A202207F0FEF8034608B13A
:100CD000013716E00246019039465046FFF7DCFE28
:100CE000A042019B18D3224639465046FFF7AAFE80
:100CF00008F10108B045CDD25BF8283008EE103A73
:100D00000027009BBB42D8D15BF828304A4602211D
:100D1000284601F02BFFEBE719463846FFF75CFE4B
:100D20000C4A0346F3E7022EE4B2BED04FF00208AD
:100D300086E700BFC9840000D0840000D48700008B
:100D40003B850000E7840000D0810000188100008E
:100D5000EF840000048500002785000013460A4642
:100D6000C168FFF72FBF7047034BD3E90130C31AA7
:100D700058425841704700BF8C0200202DE9F043D3
:100D800085B0FFF7F1FF0546002840F00A81864C48
:100D9000C4F81804BFF34F8FA3680093DBB203338A
:100DA00004EB83006946FFF7C3FC009B18B1D4F83D
:100DB0001824002A63D0DAB2991C013304EB8202B2
:100DC000DBB204EB8303D268DB68029302F0030317
:100DD000022B019200915DD1BDF8063073489DF859
:100DE0000450C3F389184746502F28BF502707F1F6
:100DF000080167F38F13C1F30901ADF8063003F062
:100E0000D3FEC5F3C2050646002800F0B18003F00A
:100E1000FAFE0023082201A9304603F007FF0099DB
:100E2000CB43DBB20133C9B20331B7EB830F4FEAD7
:100E3000830204EB81012AD95FFA82F90823A7EB28
:100E40000907304603F0F2FEFFB209F108035849E2
:100E500003F0FC033A46304603F0E8FE009B08F13D
:100E6000030803EB98030093D4F81834002B49D1FE
:100E7000D4F81074DFF84C914FF0070867E062680F
:100E80009A428BD8A260284605B0BDE8F0830823BB
:100E90003A46E0E7012B6BD1BDF804504348C5F357
:100EA0008311062928BF062161F38915023101F05B
:100EB0000F018900ADF8045003F076FEC5F3C205BA
:100EC0000646002854D003F09EFE0023082201A904
:100ED000304603F0ABFE0027BDF80420C2F38312B6
:100EE000BB00974203F10803BED200994A1CC9B265
:100EF0000331009204EB81010422304603F096FE98
:100F00000137E9E7304603F082FEFFF72DFF80F05E
:100F10000100C5B2B7E7FB685A79B2B11B79BDF8D9
:100F2000081003EB430259F8211008FA02F3052DCB
:100F300003EA010323FA02F308BF0325AB4204D3FB
:100F40003B6831461B6838469847FB681F68002F8E
:100F5000E1D1304603F05BFE384600F041FDD4F8A5
:100F600018340BB9009BA360002000F049FDCCE7CA
:100F7000D4F8104474B90F4B5B88012BC5D90E4BC4
:100F80000E480F49C01AC008000440F0020000F0EB
:100F900075F8BAE7236820469B689847E3681C68A1
:100FA000E8E700256FE700BF8C020020F081000019
:100FB000980200203C0000201881000050810000B1
:100FC000588500007C0000202DE9F34704460F46B9
:100FD000914601A9012218461E46FFF7C7FBDFF81C
:100FE000988068B3019D0023A81CB34203EB000165
:100FF00032D11D48002100F071FF80F3100A1B4B15
:101000001B4A4FEA14499B1AB9EBD30F04D3194971
:1010100040F2A91000F0CEFE6B1CDBB2E40008EB3E
:10102000830304F0380449EA0A40EDB244F00104B5
:10103000D860033544EA861343EA872348F825300D
:1010400098F800301BB1FFF799FE0028FBD1FFF79D
:101050008AFE02B0BDE8F087C9B208EB810159F8F9
:101060002320CA600133C0E7A8060020D081000019
:1010700018810000938300008C02002000231A4690
:10108000FFF7A2BF2DE9F84388461B49D1F8103479
:10109000054600241A468AB9EA681471A3B9C1F852
:1010A00010541360154B164EF61AF608002703F17C
:1010B0000709B7420DD12046BDE8F883D268107900
:1010C000A04212D01268E6E7DB68196811601D6063
:1010D000E8E719F83720EB6842453946187928BF08
:1010E0004246FFF7AFFC0137E3E701340A2CD1D1C8
:1010F0004FF0FF34DFE700BF8C02002018810000B2
:10110000D081000038B5084B0125D3F810441D707C
:1011100004B938BDE3685D71236820465B68984771
:10112000E3681C68F4E700BF8C02002030B5C38878
:1011300085B004460D4633B1144A00921449154A4D
:10114000284603F0C1FA217A05291DD0637A4BB1F4
:10115000A088FFF761FC104B104953F82020284667
:1011600003F0B2FA227A0E4BA08853F822200392A1
:101170000021FFF731FC039A0A490346284605B0CF
:10118000BDE8304003F0A0BA05B030BD648900006E
:101190004C89000044890000BC890000A78F000032
:1011A000E08900006989000007B503460846197AFE
:1011B000052911D05B7A2BB1094A0A49019003F045
:1011C00083FA01980849019003F07EFA019803B070
:1011D0005DF804EB03F066BA002AF8D0F2E700BF2E
:1011E00064890000A78F0000848D00002DE9F04382
:1011F00085B01F460C9D002395F80C902B73064676
:101200000C46904629463846FFF790FFB8F1060F86
:1012100009D8DFE808F00412181F283340003146CF
:10122000284603F051FA002229463846FFF7BCFF52
:1012300085F80C9005B0BDE8F08322683146284659
:1012400003F042FAEFE7D4E900233146284603F0E1
:101250003BFAE8E7A36800933146D4E90023284627
:1012600003F032FADFE7E3680193A36800933146A5
:10127000D4E90023284603F027FAD4E72369029330
:10128000E3680193A36800933146D4E9002328461C
:1012900003F01AFAC7E76369039323690293E368CB
:1012A0000193A36800933146D4E90023284603F054
:1012B0000BFAB8E708292DE9F74F80460E46174686
:1012C0001C463DD800251B7B257321461046019303
:1012D000FFF72CFFDFF88CA0DFF88CB0AE4232D9DC
:1012E00018F805205946204603F0EEF90135082D7F
:1012F000F4D11B49DFF874A0DFF874B0204603F086
:10130000E3F94FF000094E4524D918F809507E2D15
:101310001ED8284606F0AAFC002814BF2A462E2212
:101320005946204603F0D0F909F10109B9F1080F37
:10133000E9D1012221463846FFF736FF019B23738E
:1013400003B0BDE8F08F5146204603F0BDF9CDE76C
:101350002E22E5E75146204603F0B6F9E4E700BF48
:101360007D89000079890000738900007B89000075
:101370007F8900000268530910B5044618D0012B7C
:101380004FF6FF7318BF002302F01F02D340DB07A4
:1013900004D409494FF4F67000F00CFD23681F2BAC
:1013A00083BF03F01F03054823604FF0A04010BD2A
:1013B0004FF0FF33E8E700BFF4890000000300505E
:1013C000032813B5044603D90849472000F0F2FC6E
:1013D000074B01A81B5D0193FFF7CCFF019A012386
:1013E0009340C0F8083502B010BD00BF228A00004B
:1013F000858A000008B50020FFF7E2FF0120FFF713
:10140000DFFF0220FFF7DCFFBDE808400320FFF705
:10141000D7BF0000F7B5C207044612D5134E00250A
:10142000032716F8013B019301A8FFF7A3FF019BD7
:10143000013503F5E073042D40F82370F1D1FFF777
:10144000D9FFA30710D50A4D00240C2615F8013B3F
:10145000019301A8FFF78EFF019B013403F5E073B0
:10146000042C40F82360F1D103B0F0BD858A000060
:10147000818A00001FB50021039001AA44F20100F7
:10148000CDE9011100F004F805B05DF804FB00009F
:1014900010B572B6FFF736FEFFF770FC0028FBD1DF
:1014A000164C63884BB11648164B1749C01AC00832
:1014B000000440F00100FFF7E1FD144BD3F8F030D9
:1014C000DB0700D500BE6388012B09D90C480D4B02
:1014D0000F49C01AC008000440F00200FFF7CEFD1B
:1014E000BFF34F8F09490B4BCA6802F4E062134304
:1014F000CB60BFF34F8F00BFFDE700BF3C00002073
:101500005081000018810000B98A000000ED00E061
:10151000C58A00000400FA0510B5D0E90243D1E9FC
:101520000202A04272EB03032CBF0120002010BD79
:1015300008B50A4800F01DFC094AD2E90031C0187C
:10154000084BD3E9002341F10001904271EB030302
:1015500003D210F1807041F1000108BD08010020A4
:1015600048070020B007002037B505460C460A485A
:1015700001A900F03EFC60B10570446001A9064875
:1015800000F061FC18B1054800F0F8FB002003B042
:1015900030BD0420FBE700BFF4000020080100205C
:1015A000436970B504461BB92349A52000F002FC2D
:1015B000224B1E7816B90026304670BDFFF7B8FFE3
:1015C000D4E90223904299412FD3002000F008FA79
:1015D00023692BB94FF0FF324FF0FF33C4E90223E8
:1015E000002000F00DFAD4E905309847002000F003
:1015F000F7F925696DB1D4E90212B2F1FF3F08BFD6
:10160000B1F1FF3F0FD0691842F10002C4E90212A4
:101610003546002000F0F4F9002DCCD008482146D2
:1016200003F00EFEC8E70025F3E7B3F1FF3F08BF64
:10163000B2F1FF3FBFD0F1E7D28A0000500700208F
:10164000608B000013B5114B1149186801900823F5
:101650001048582200F0BAFB044698B90E4A0F48C9
:1016600001A900F015FA044660B90C48012100F008
:1016700067FB01230A4A0948194600F0B5FA094BED
:1016800001221A70204602B010BD00BF5A8B000024
:1016900054070020F4000020B117000008010020CA
:1016A000FFFF7F005007002070B50C461546064628
:1016B00020B90D4940F25A2000F07CFB35B940F2C8
:1016C0005B20094900F076FB072070BD621E33687D
:1016D00054424FF0FF304FF0FF315441C3E9020153
:1016E0005D611C610020F0E7D28A0000F8B50D466C
:1016F0001746044620B9154940F26B2000F05AFB0A
:10170000002000F06DF9D4E90223B3F1FF3F08BFD8
:10171000B2F1FF3F15D1FFF70BFF281841F100018F
:10172000C4E902010126002000F06AF95EB12369D4
:10173000A76103B1256121460020BDE8F840FFF70D
:1017400013BF0026EFE73046F8BD00BFD28A000085
:1017500038B5044620B9124940F2932000F02AFB24
:10176000002000F03DF9D4E90223B3F1FF3F08BFA8
:10177000B2F1FF3F1FBF4FF0FF324FF0FF33C4E91C
:101780000223012508BF0025002000F039F92DB102
:1017900021460120BDE83840FFF7E6BE284638BDA7
:1017A000D28A0000014800F0E4BA00BF080100201E
:1017B0002DE9F743044600F0C7FA40B16F4AD2E979
:1017C000003113F1807341F10001C2E900310021C1
:1017D000204600F0C3FAD0B1694E3368BBB1204651
:1017E00000F0C7FA00210546204600F0BCFA281A8E
:1017F00020F07F40B0F5960F04D3624940F24110CB
:1018000000F0D8FA3068FFF7CBFE002333600121E7
:10181000204600F0A3FA20B1FFF78AFE5A4BC3E935
:1018200000015A48564D01A900F01DFB4FF0FF364C
:101830004FF0FF37A0B9DFF85881514E404603F012
:101840002BFD002800F08B80D0E90223B3F1FF3F8D
:1018500008BFB2F1FF3F33D1404603F00DFDEDE785
:101860000378012B21D0022B09D1DFF824814046D7
:1018700003F002FD00287CD0C0E90267F7E75BB9FE
:101880004168D1E90223B3F1FF3F08BFB2F1FF3F46
:1018900002D03F4803F0D4FC01A93C4800F00EFB05
:1018A00001A93A4800F0DFFAC4E741682B68994281
:1018B00002D100232B60EFE7354803F0F9FCEBE79A
:1018C000316891B13168D1E9020182428B412FD256
:1018D0003368D3E90223B3F1FF3F08BFB2F1FF3F02
:1018E00003D03168404603F0ABFC404603F0C4FC33
:1018F000D0E902590746FFF71BFE281A69EB0109D8
:10190000012879F1000318DBB0F5350F13D3FFF789
:1019100049FF204A024420484FF49603002100F07A
:1019200091F9A0B9336813B9204600F041F9376046
:1019300003B0BDE8F0832A46EDE71748002100F028
:1019400007FA3846FFF72CFE0023336076E70D28B0
:10195000F7D00C494FF4867000F02CFAF4E7084BEE
:101960001B68002BE4D1204603B0BDE8F04300F033
:101970002DB90A4B01221A708EE700BF48070020DC
:10198000B8070020D28A0000B0070020F400002031
:10199000608B0000FFFFB40008010020500700200A
:1019A00072B6024A1368013313607047BC07002007
:1019B000034A1368013B136003B962B6704700BF66
:1019C000BC070020EFF30583C3F308032BB9EFF343
:1019D0001480C04300F001007047012070470000F0
:1019E00008B5FFF7EFFF012803D00449432000F0BA
:1019F000E1F9BDE80840FFF7D3BF00BF6C8B0000E2
:101A000008B5FFF7DFFF012803D00449512000F09B
:101A1000D1F9BDE80840FFF7CBBF00BF6C8B0000D9
:101A200038B50C46054618B90449B32000F0C2F990
:101A30002B68C3F84843C3F8084338BDDE8B000069
:101A400070B50C461646054618B90549A92000F0A0
:101A5000B1F92B68C3F844430EB1C3F8044370BD19
:101A6000DE8B000037B50C46054618B90749BA2089
:101A700000F0A0F92B68185928B100221A511B59FF
:101A80000193019B012003B030BD00BFDE8B00003D
:101A90002DE9F8430E461546044618B93849552035
:101AA00000F088F91EB93649562000F083F91DB9B7
:101AB0003349572000F07EF96379324ADFF8EC8031
:101AC00042F8235008EBC3032F4F1B797BB17B886F
:101AD000012B09D92D482E4B2E49C01AC0080004ED
:101AE00040F00200FFF7CAFA0820BDE8F883358805
:101AF000D4F80090B5F5805F04D327494FF4BE7049
:101B000000F058F9C9F80855B67894F90450072E32
:101B100003D922496B2000F04DF9002DB6BF204BB0
:101B200005F1604505F00F054FEA4616F6B2AABF6B
:101B300005F561455E5585F8006394F90430002B86
:101B400008DB0122590903F01F0302FA03F3154AC7
:101B500042F82130637908EBC30248F833407B88B0
:101B60000121022B117109D90848094B0E49C01AED
:101B7000C008000440F00300FFF780FA0020B4E73B
:101B8000DE8B0000C80700204400002060810000B8
:101B900018810000478C0000698C0000968C0000C2
:101BA00014ED00E000E100E0C58C0000C00700205B
:101BB00010B5044618B90449872000F0FBF82368E3
:101BC00001221A6010BD00BFDE8B000010B5044674
:101BD00018B904498D2000F0EDF8236801225A60FD
:101BE00010BD00BFDE8B00002DE9F3410C46164608
:101BF0001F46804618B91249962000F0DBF804F120
:101C000050018900D8F8002089B24FF48035A540F2
:101C10000023C2F80853C2F84853535004F5A8747F
:101C20005358019326F07F46019B42F82460C2F886
:101C300044530FB1C2F8045302B0BDE8F08100BFB5
:101C4000DE8B00002DE9F74F0D46144698460746F7
:101C500018B93949CD2000F0ADF84FF4803909FAB0
:101C600005F949463846FFF7DBFE3A6805F15006AC
:101C700002EB8500B600B6B2D2F80415D0F84035B4
:101C8000C0F840154FF0000B42F806B05B1A9259AD
:101C9000009223F07F43012B009A24F07F444FEA07
:101CA000850A0BD1254B4FF4806043F00103984720
:101CB0003B6843F806B09B590193019B3868D0F804
:101CC0000465C0F84493A31B23F07F43012B1AD172
:101CD0001A4B05F5A875013440F8254043F001037F
:101CE0004FF4806098473B68D3F804359E4208D192
:101CF000384601224946FFF7A3FE002003B0BDE8A5
:101D0000F08F0D20FAE700EB0A03621EC3F840458E
:101D1000D0F80415C8F1FF18521A22F07F4208F5D6
:101D20007F489045EDD3002AE2D10134C3F8404505
:101D3000D0F804359942DAE7DE8B0000E08C000031
:101D40000A460221FFF77CBE4FF48271FFF78ABE7C
:101D50004FF4803303FA01F1FFF762BE503189007E
:101D600089B2FFF77FBE036801F5A87153F821001F
:101D700070470368D3F804057047000090F90430F9
:101D8000002B09DB5A09012103F01F0301FA03F3B9
:101D90004032024941F82230704700BF00E100E0C4
:101DA000024B034A1B681068184700BFC807002091
:101DB000C007002007B5CDE900016A46002144F2C2
:101DC0000200FFF765FB03B05DF804FB10B561B1DD
:101DD000B2FBF3F403FB1424A4B244B9C0E9001429
:101DE00084608281C381204610BD0E20FCE709205B
:101DF000FAE737B550E8013F9DB2C489254484898C
:101E0000A54228BF2D1B0489A54202BFBFF32F8F17
:101E1000002207E0C5EA030540E80154002CE9D19F
:101E20004FF001028DF803200193019A0A609DF89A
:101E3000031001F0FF0321B1006810FA82F003B033
:101E400030BD1846FBE70A884B889A4209D150E812
:101E5000012FC2EA024240E80123002BF7D1012002
:101E600070470020704737B550E8023F1FFAA3F5CE
:101E7000C488A54202BFBFF32F8F00220DE0C489A2
:101E800025448489A54228BF2D1BC3EA054540E8A7
:101E90000254002CE8D14FF001028DF80320019389
:101EA000019A0A609DF8031001F0FF0321B1006858
:101EB00000EB124003B030BD1846FBE70A884B88A0
:101EC0009A4209D150E8022FC2EA224240E8022396
:101ED000002BF7D1012070470020704710B5034652
:101EE00053E8000F0A4643E8002494F0000FF7D1AE
:101EF00010BD10B5034653E8000F40EA010243E865
:101F0000002494F0000FF6D110BD10B5034653E83D
:101F1000002F42EA010043E8000494F0000FF6D1DC
:101F200010BD10B5034653E8000F00EA010243E874
:101F3000002494F0000FF6D110BD10B5034653E80D
:101F4000002F02EA010043E8000494F0000FF6D1EC
:101F500010BD10B5034653E8002F02EB010043E823
:101F6000000494F0000FF6D110BD10B5034653E8FD
:101F7000002FA2EB010043E8000494F0000FF6D11B
:101F800010BD0121FFF7B5BF0121FFF7BEBF002142
:101F9000FFF7C7BF0021FFF7D0BF00002DE9F047D2
:101FA0008368D3F84831C3F340059B0788B00746E0
:101FB00006D50022114608B0BDE8F04701F06EBE1C
:101FC000012906D91E4A022108B0BDE8F04700F0F9
:101FD000CDBD1C4C1C4EDFF874A04FF06408A94620
:101FE000361B1C23B6FBF3F6AE4204F11C0402D1EF
:101FF00008B0BDE8F08754F81C0C54E906230179B9
:1020000000689A1A1B1ADBB2039308FB03F3B3FBB5
:10201000F2F3CDE9019334F8043C0093CDE90612C4
:1020200054F8083C11FB08F13846B1FBF2F1CDE958
:1020300004215246082100F099FD0135D4E700BF84
:10204000E68C0000F081000028820000F98C00007E
:1020500010B50446002834D003681BB91A49FF2084
:10206000FFF7A8FE636823B917494FF48070FFF7A4
:10207000A1FEA36823B9144940F20110FFF79AFEAC
:10208000E36823B910494FF48170FFF793FE238B67
:1020900023B90D4940F20310FFF78CFED4E9012368
:1020A00021689B1ADBB20A60013BDBB2FF2B22687E
:1020B00002D10020107110BD1168481C10600B7017
:1020C000F2E70E20F7E700BF878D000038B5044621
:1020D00020B911494FF49270FFF76CFE0020FFF712
:1020E0007FFC226863681168994213D9481E10600A
:1020F00011F8013CE568218B01FB0355A3681179B8
:102100001B1ADBB2994200D213710020FFF778FC52
:10211000284638BD0025F8E7878D000038B50C4605
:10212000054620B90E4940F24710FFF743FE24B997
:102130000B494FF4A470FFF73DFE0020FFF750FC61
:102140002A681368591C1160E968641A298BB4FB6A
:10215000F1F41C70BDE838400020FFF751BC00BF0F
:10216000878D0000436810B59C6860680368012192
:102170009B689847A36810B903221A7010BD042207
:10218000FBE7000038B505460C4621B9064940F684
:102190003120FFF70FFE35B1A268B2F8483143F0A5
:1021A0002003A2F8483138BD748E000038B50D46C2
:1021B000044620B9084940F62520FFF7FBFD25B964
:1021C000054940F62620FFF7F5FD29682068BDE89F
:1021D000384005F01BBF00BF748E00002DE9F843A6
:1021E000089E1D460C46F1B9194E1A49891BB2EBDF
:1021F000D10F4FEAD10905D2174F043607EB8207FA
:10220000A14502D100232B6009E056F834803868DC
:10221000D8F8001005F0FAFE18B9C5F80080BDE83E
:10222000F8830134ECE70028ECD00178436839B139
:102230003146104698473368002BE3D02E60EEE716
:10224000110103EB02125B58002BDBD02A60E6E79A
:10225000BC800000FC8000000000002030B58368D6
:102260000546D3F8400187B0E8B10023092203A94D
:10227000019002F0EFFCAB68049AC3F840210024FF
:10228000234601988DF81440092203A9CDE903449F
:1022900002F0CCFC019802F071FCAB68D3F840016D
:1022A00018B9C3F83C0107B030BD234603A9092281
:1022B00002F0D0FCA8680394D0F84001234609221C
:1022C00003A902F0B3FCEEE710B5044620B90949B2
:1022D0004FF4ED70FFF76EFD236923B905494FF404
:1022E000ED70FFF767FD2069034A0449BDE810401F
:1022F00002F0EAB9748E00002D930000A78F000051
:1023000010B5044620B909494FF4EA70FFF752FDB1
:10231000236923B905494FF4EA70FFF74BFD2069A3
:10232000034A0449BDE8104002F0CEB9748E0000A3
:1023300029930000A78F000010B5044620B9094971
:102340004FF4F070FFF736FD236923B905494FF4C8
:10235000F070FFF72FFD2069034A0449BDE81040E3
:1023600002F0B2B9748E000041930000A78F000004
:1023700008B105F072BE704710B584680068FFF7B9
:10238000F7FFE37F1844637EB0FBF3F203FB120018
:10239000B0FA80F0400910BD10B584680068FFF7FE
:1023A000E7FFE37F627EA07653FA80F3B3FBF2F19E
:1023B00002FB113301332375A37F53FA80F00131FF
:1023C000B0FBF2F302FB1300A1750130591C6075DC
:1023D000E17504F1140010BD10B584680068FFF7C2
:1023E000C7FFA37F1844637EB0FBF3F203FB120028
:1023F000B0FA80F0400910BD07B58368DA7E8A42E2
:102400001ED01B228DF800205B228DF80120312286
:102410008DF802203B228DF8032033228DF8042012
:1024200001F12F028DF805206D22D9768DF8062056
:1024300000228DF80720044900696A4602F044F939
:1024400003B05DF804FB00BFA78F00000A4609B186
:10245000FFF7D2BF8168CA760069024A024902F0DA
:1024600033B900BF30930000A78F000007B5836821
:102470001A7F8A4218D01B228DF800205B228DF82B
:10248000012034228DF8022001F12F028DF8032063
:102490006D2219778DF8042000228DF8052004495B
:1024A00000696A4602F010F903B05DF804FB00BF52
:1024B000A78F00002DE9F743002506460F46144676
:1024C0000560207840B105F0C9FBA8B1002304F8ED
:1024D000013B33680B2BF4D933680C2B04D95349D7
:1024E00040F22A50FFF766FC33680022284647F87E
:1024F000232003B0BDE8F08333685A1C326047F8EC
:102500002340054694F80080B8F1000FE1D0002D7B
:1025100077D1B8F1270F05D0B8F15C0F79D0B8F1B9
:10252000220F66D12046FFF723FF611C024620469A
:1025300005F0A4FB4546E5E72046FFF719FF611CBF
:102540000246204605F09AFB0025DBE7302826D11D
:1025500002234FF00008E05CA0F13001C9B2072966
:102560005FFA83F918D8013341EAC801052B5FFAF5
:1025700081F8F0D1994609F1FF31214420460191BB
:10258000FFF7F6FE0230A0EB09020199204605F0A4
:1025900075FB04F8018BB5E7B9F1020FEBD1782890
:1025A0002DD102214FF00008635CA3F13002D2B2BA
:1025B000092AC8B20AD842EA081303295FFA83F845
:1025C00002D14FF00409D6E70321EDE7A3F1610240
:1025D000052A03D8573B43EA0813EEE7A3F141026B
:1025E000052A01D8373BF6E7022808D04FF0030947
:1025F000C1E7404605F032FB00287FF46AAF0134A2
:1026000080E7A84598D0B8F15C0FF8D16078854292
:102610009CD12046FFF7ACFE04F10108024641467A
:10262000204605F02BFB44466CE700BF748E00008B
:1026300070B50D461646044620B90B4940F22310EA
:10264000FFF7B8FB636823B907494FF49270FFF7AF
:10265000B1FB606803681C6929463346A446012221
:10266000BDE87040604700BF748E00002DE9F7435D
:102670000E461446054600B119B91D49F420FFF76E
:1026800099FB6B681B681BB91949F520FFF792FB92
:10269000DFF85C80002714B903B0BDE8F0836868F8
:1026A00003682246D3F80C90F11901ABC84718B162
:1026B0004146FF20FFF77EFB019B9C4204D241462E
:1026C0004FF48070FFF776FB019B1F44E41A002B48
:1026D000E1D1AB681A78032ADDD0D3F848219206FD
:1026E000FBD5B3F848216FF34512A3F84821D2E790
:1026F000748E00000A46014901F0E6BFDB8E00003F
:1027000011B10069FFF7F6BF70470000014901F001
:10271000DBBF00BFF48E00000A4619B10249006910
:1027200001F0D2BF704700BFE18E00000A4619B128
:102730000249006901F0C8BF704700BFE78E000082
:1027400038B50546FFF728FE837902788178013392
:102750009A42044601D1012913D0012904D9013933
:10276000C9B22846FFF7D8FF2378A1798B4209D94F
:10277000013B591AC9B22846FFF7D8FFAB680022BF
:10278000DA7738BD0131C91AC9B22846FFF7B8FF58
:10279000F4E7F8B50546FFF7FFFD8778C6780446ED
:1027A0002846FFF7E9FD18B92846FFF715FE10B1D6
:1027B0002869FFF7ABFFB74208D161782378C91ABF
:1027C0002846C9B2BDE8F840FFF7B0BFA378E1786A
:1027D000C91AC9B22846FFF79FFF237861788B4258
:1027E000EDD9591A2846C9B2BDE8F840FFF788BFAD
:1027F0002DE9F04F044685B00E4690460025705DE9
:1028000005F02CFA20BB5FFA88FA3046FFF7B0FDDE
:10281000A3685B7E401BA3EB080B584506EB05093C
:1028200018D94A46002712F8011B03930846029262
:10283000019105F013FADDE9022318B101990A2983
:1028400031D0BB4608EB07018B422BD90137EAE7B1
:102850000135D4E74B460027B84217D013F8012BB7
:102860000A2A05EB070A1BD1206901F01BFF494624
:102870003A462046FFF7FAFE2069FFF747FF5FFA66
:1028800088F120460AF10105FFF73AFF2069711926
:1028900001F01AFF206905B0BDE8F04FFFF736BF21
:1028A0000137D9E75F46206901F0FCFE3A46494608
:1028B0002046FFF7DBFE3D44705D05F0CFF938B9E7
:1028C0002069FFF723FF51462046FFF719FF9CE7D9
:1028D0000135F1E7F7B505468068404E00248022B7
:1028E0002146A0308DF8034005F03BFB3C492869A8
:1028F00001F0EAFE286901F0D5FE4FF47A7746F040
:10290000010601AA0DF103012846FFF791FE019B84
:102910005BB94FF6C010B047019A002AF1D17B1E77
:102920009FB2002FEDD10D2035E09DF80330AA684D
:102930001B2B47D092F8A0101B29EDD1522B41D16F
:102940001444002384F8A03092F8A1105B291FD111
:1029500002F1A20602211D4616F8010B4C1C3B2871
:10296000E1B264B219D1002C1FDB01F1A0041444C0
:10297000002314F8010BD0B9FA2B28BFFA23FA2D43
:1029800013752B4628BFFA23937582F8A00002E046
:1029900082F8A0300B2003B0F0BD05EB850300EBFF
:1029A0004303303B80299DB2D6D10C20F3E703EBE3
:1029B000830300EB43004E1C303883B23006F1B283
:1029C000F3D4D6E711190134E4B2092C81F8A03010
:1029D000A2D9002382F8A0300420DCE76093000035
:1029E0004893000038B50546FFF7D6FC02784378D7
:1029F0009A4204468378C27801D1934213D09A4216
:102A000005D9D21A0B492869D2B201F05DFE2378AC
:102A100061788B4208D9591AC9B22846FFF786FE59
:102A2000AB689A7FDA7738BDC91AC9B22846FFF772
:102A300067FEF5E7ED8E00002DE9F84F0D461646CE
:102A40009946044648B9424940F6A420FFF7B2F936
:102A50003F4940F64720FFF7ADF9A3681BB1636813
:102A60000BB1236823B93A4940F64820FFF7A2F991
:102A7000E36860685B68374A9C60036829461F68A2
:102A80002346B847054600284FD1636923B930492A
:102A900040F65720FFF78EF9606902F06DF80546A1
:102AA000002842D101464FF4A672A068DFF8B4A016
:102AB00005F057FAA168B1F8483143F02003A1F8B6
:102AC0004831B1F8483166F38203A1F84831B1F8D2
:102AD0004831214E43F00803A1F8483101230B701F
:102AE00045F218030B831D4B1949A3EB06084FEA67
:102AF000D80B2F465F451BD1B8F1070F05D9184BEE
:102B000018480422394605F0D3F8B9F1000F0CD06B
:102B10009DF82810E068FEF7B5FA0028A1BFE36829
:102B2000DB6801225A71B8BF04252846BDE8F88F3A
:102B300073681B6823B940F67420FFF73BF904491A
:102B400073681B684AF8043B01370836D2E700BFB8
:102B5000748E000085210000BC800000FC80000015
:102B6000AD21000000000020FFF780BD0CB4F7B5D8
:102B7000089F04460E4627B91F4940F66130FFF70B
:102B800019F924B91C4940F66230FFF713F9A3681C
:102B90001BB163680BB1236823B9174940F6633052
:102BA000FFF708F909AB0193A368D3F8482152074E
:102BB0001BD5DA7EB24218D0B3F81B5031462046FE
:102BC000FFF744FC206901AA394601F019FEE9B279
:102BD0002046FFF73BFC290A02D02046FFF746FCBF
:102BE00003B0BDE8F04002B07047206901AA394641
:102BF00001F006FEF4E700BF748E00008268002139
:102C0000D18382F820100368014A0321FFF7AEBF89
:102C1000A78F000070B5044620B9184940F6FA2085
:102C2000FFF7C8F8A3681BB163680BB1236823B929
:102C3000124940F6FB20FFF7BDF8A3681E78012E6D
:102C40001AD16068036800219B689847054688B9D7
:102C500008212046FFF7D0FB31462046FFF706FC4F
:102C60002069074901F030FDA36802221A7020464E
:102C7000FFF7C4FF284670BD0825FBE7748E0000EF
:102C8000F38E0000F8B5044615460F4621B92249D7
:102C900040F25360FFF78EF8A068867F73197F2B90
:102CA00038DC002D36D0C37FF61A03F120012B4407
:102CB0002033F6B20144721C184404F0DFFFA06810
:102CC000C37F20332A463946184404F0D7FFA7684B
:102CD00007F12000FFF74CFBFB7F104AB877203349
:102CE0003B4420460821FFF741FFA368DA7F1544E3
:102CF000DD772046FFF740FB18B92046FFF76CFB55
:102D000010B12069FFF702FD26B12046BDE8F8406A
:102D1000FFF73FBDF8BD00BF748E0000A78F000015
:102D20002DE9F04104468068D0F84861827FC37F76
:102D3000C6F30008D51A16F001060F46EDB23CD1D5
:102D40007E2A3ED83DB103F12001213301442A46B9
:102D5000184404F093FFA368DA7F1A4482F82070C5
:102D6000002E6AD19A7F0132D2B29A77134483F847
:102D70002080002D6AD02046FFF70EFB8278C378B2
:102D80009A4220D1A268D37F2033134408212046E1
:102D9000314AFFF7EBFEA91BC9B22046FFF7C6FC7C
:102DA000A268D37F0133D3772046FFF7E5FAF0B16D
:102DB0002069BDE8F041FFF7A9BC7E2ACBD9002DE0
:102DC000C9D1BDE8F0812046FFF77EFAA268D37F23
:102DD000203313440821204A2046FFF7C7FE20462F
:102DE000FFF7AAFA20690121FFF784FCD8E7204603
:102DF000FFF7F2FA0028E4D02046FFF7CDFAC278B8
:102E00008378013AD21A12F0FF02054603D0134923
:102E1000206901F059FC2069FFF778FCE978AB786C
:102E2000C91A2046C9B2FFF777FC29780139204634
:102E3000C9B2BDE8F041FFF763BC002D9BD1987F7C
:102E40000130C0B29877034483F8205004492069C8
:102E50003A4601F039FCA3E7A78F0000ED8E000091
:102E60007F89000070B5836886B00025CDE90355E1
:102E7000D3F844218DF8145004460E46002945D15C
:102E8000002A3ED0FFF75CFCA0683346D0F844012E
:102E9000092203A901F0DEFEA668049BB57FC6F8EF
:102EA0004431002B52D106F1A00108460191FFF7F1
:102EB0005FFA019938B306F1200005F085F8A068A3
:102EC0002030FFF755FA8DF814009DF81430A268F1
:102ED000AB42D377937702D22046FFF711FAA3686B
:102EE0002C4A204620330821FFF740FE2046FFF7FA
:102EF00043FA18B92046FFF76FFA10B12069FFF7BF
:102F000005FC06B070BD86F82000D8E7D3F8401164
:102F10009142F6D0D3F83C31002BF2D0FFF710FCF1
:102F2000A668D6F8440140BB06F12001084601918D
:102F3000FFF71EFAD6F83C310199C6F8443110F07B
:102F4000FF0517D006F1A00005F03EF8A06803A920
:102F5000D0F844010023092201F07CFEA0689DF80E
:102F6000142000F120010923D0F84401013201F0BE
:102F700071FEAAE786F8A050E8E72B46092203A9CC
:102F800001F068FEA368039A9DF81450C3F8442129
:102F9000DCE700BFA78F000038B504468068C37F18
:102FA000857FED1A15F0FF0542D003F12101203392
:102FB00001442A46184404F061FEA268937F013B55
:102FC00093772046FFF7E8F98278C3789A421BD1BD
:102FD000A268D37F203313440821164A2046FFF706
:102FE000C5FD236923B9144940F28F40FEF7E2FE84
:102FF00020691049114A01F067FB691E2046C9B2D9
:10300000BDE83840FFF792BB2046FFF75DF9204648
:10301000FFF776F9A268D37F203313442046054A90
:103020000821FFF7A3FD2046BDE83840FFF784B92B
:1030300038BD00BFA78F0000748E00003D930000D4
:103040002DE9F041C3685B6890B004460D461868EE
:10305000002203A901F0CCFE002840F08A808DB147
:10306000039801F0D4FDA268D2F838310133C2F8D8
:10307000383103F00703012B04D00125284610B096
:10308000BDE8F0812046FFF787F9817801290646DF
:1030900004D90139C9B22046FFF73EFB3178012936
:1030A00004D90139C9B22046FFF740FB2046FFF79B
:1030B00027F92DB1304A02212046FFF757FDDDE701
:1030C00000230822039804A901F0C4FD069B07937E
:1030D000059B08939DF810308DF8255003F00302EE
:1030E000012A25D1BDF81020049E0398C3F3C20322
:1030F000C2F383178DF82430BA0008230AA901F01F
:10310000A9FDC6F39526236900933A4607AB0AA9A1
:103110003046FEF76BF8039801F079FDE3685B68D1
:103120000022186803A901F063FE0028C8D0A4E7B4
:10313000022AF0D1BDF81260C3F3C203C6F38916A8
:103140008DF824304FF00808082E374628BF08278E
:10315000434603983A460AA901F07CFDF61B236911
:1031600007AA39460AA8B844FEF7A4F8002EEBD106
:10317000D1E7002582E700BFF68E000043680121F9
:103180009868FFF75DBFF7B547680191BD68AB6808
:103190001E78042E0ED0386801A901F0A1FD044666
:1031A00050B9019801F02FFD032E03D12146284686
:1031B000FFF746FF03B0F0BDF11E18BF01212846FE
:1031C000FFF73EFFE7E700002DE9F04F8346A7B089
:1031D00020B9BB4940F62B30FEF7ECFDDBF8083098
:1031E0002BB1DBF8043013B1DBF8003023B9B4495C
:1031F00040F62C30FEF7DEFDDBF80800102100F56C
:10320000A470FEF782FEDBF808301B78022B7BD11E
:1032100000230D930DAA0DF133015846FFF708FA6C
:103220000D9B002B55D09DF93330002BF2DB01F0C4
:1032300025FDDBF808406378012B00F06184022B48
:1032400000F06584002B40F01D859DF833500D2D56
:103250001FD00A2D1DD0B4F8482163F38D12A4F8B5
:103260004821092D00F0F78100F2E481002DD1D032
:10327000082D00F0C983284604F0F8FC0028C9D0C6
:10328000D4F848311E07C3F3C00040F12784294613
:1032900021E3D4F8483113F47F5F05D0D4F84831E6
:1032A000C3F387139D42DCD1B4F84831A67F65F3A0
:1032B0008D13A4F84831B6BBC4F84461DBF81000A4
:1032C000FFF724FADBF8083002221A705846FFF79D
:1032D00095FC00215846FFF7B3FEA8B1DBF800309B
:1032E000784A03215846FFF741FCDBF80830D3F851
:1032F0004821120708D55846724A20330821FFF7A3
:1033000035FC5846FFF745FADBF8100001F0CAF922
:10331000DBF808006FF0100100F5A47027B0BDE8DD
:10332000F04FFEF70ABE94F82030002B61D1DBF895
:10333000085005F12000FFF71BF8002610F0FF04ED
:10334000C5F8446124D0D5F83C01002800F09180F4
:103350003346092219A901F07DFC9DF86C309C428E
:1033600040F08780DBF80800092300F1A001621C0F
:10337000D0F83C0101F06EFCDBF8085005F1A0012B
:1033800005F1200004F042FE002870D185F8A0006D
:103390005846FFF727FB5846FEF7EEFF18B9DBF853
:1033A0001000FFF7B3F9DBF8082019A9203210A8A4
:1033B000FFF780F8109B002B80D0002840F0AE80F3
:1033C000414E424D199BAD1BED080446A54240F00D
:1033D000AC803F4A009202213E4A5846FFF7C6FBA6
:1033E00070E70135B5F5807F04D1002384F82030E3
:1033F0009DE700256319EFB293F8200004F02EFC3E
:103400000028EED16FB104F12000721C521B41194B
:1034100004F034FCDBF80820937FDB1BDBB29377EE
:10342000D377DBF80860B57F05F11F073744BA464C
:103430005FFA87F953460293187804F00FFC5FFA9D
:103440008AF8A9EB0804029BE4B20AF1FF3A0028CB
:10345000F0D19F423FF46BAF2C1BA8EB090334441F
:103460002B44DBB284F82000B377F3775FE785F86D
:10347000A060082604F10A05DBF81400294601F0D3
:1034800093FB0446002843D0DBF80830D3F83C0116
:1034900010BBC3E94F44CDE919009B7F8DF86C3018
:1034A00019A920460023092201F0C0FBDBF808100F
:1034B0008A7F092301322031204601F0B7FB67E7FC
:1034C000748E0000A78F0000BC800000FC8000000C
:1034D000388F0000049000000023092219A901F090
:1034E000B9FBDBF808001A9400230922D0F83C014C
:1034F00019A901F09BFB00231A93DBF80830D3F8DD
:103500003C2119929A7F8DF86C20C3F83C41C7E7A3
:103510005846FEF7A3FE013EAED139E70346924A74
:1035200002215846FFF722FBCCE672680293184648
:10353000116804F06BFD3746029B083618B1013460
:10354000A542BFF443AF3B7823B1884940F6A510AC
:10355000FEF730FCDBF80800002110220430119146
:1035600004F0FFFC7C68E36833B194E80F00DBF8FB
:103570000850043585E80F00D4F80890DFF8F8A16A
:1035800019AE4FF0000801250027109BAB4212D95D
:1035900074685146204604F039FD20B17449204634
:1035A00004F034FDE8B9DBF80820B2F8483143F004
:1035B0000203A2F84831DBF808301B69002B33D036
:1035C000109919AA02EB8802A1EB08015846984706
:1035D000DBF80830B3F848216FF34102A3F8482123
:1035E00070E615AB0093484611AB3A462946FEF704
:1035F000F5FD781CDFD0119C002CDCD021687068B0
:1036000004F004FD01370028BFD1E3683BB194E822
:103610000F00DBF80870043787E80F00A846D4F8DD
:10362000089001350436AFE7524A02215846FFF7A9
:103630009DFACDE71B2D0BD07F2D7FF41CAED4F867
:1036400048311F077FF5E6AD5846FFF7A5FCE1E5D9
:1036500001236370DEE5D4F8483119077FF5DAAD50
:10366000A37FC3F17F0313F0FF0304933FF4D2ADB4
:10367000E27F04F1200104F1A00004F049FCDBF832
:103680000850EB7F2B440024D87F83F8A04004F03F
:10369000E5FA031B18BF012305F1A0020590C5F848
:1036A000444119A90EA80693FEF704FF1998FEF7E6
:1036B0005FFECDE90F44C3B202932546274603942B
:1036C000A24626460E9B2BB1069A013B13449D420F
:1036D000C0F09680059B002B3DD126AB03EB850304
:1036E00053F8340CFEF744FEC3B2029326AB03EB4F
:1036F00085034FF00009099309F10103079311AB0A
:1037000000934A460FAB29463846FEF767FD0F9BEC
:10371000002B5ED01968099B029A53F8340C0B9168
:1037200004F0D2FB0890C0B9039B0B9901330393BB
:103730000846109B0A93FEF71BFE0A9B5FFA80F86F
:10374000E3B9029B049AA8EB03039A4201DDDBB2C2
:103750000493CA4630E00023C7E7A046DDF81C907A
:103760004446C9E74E46F9E7248F0000748E0000F6
:103770004F8F0000568F00004C8F0000A045049B27
:1037800038BFA0465FFA88F8B3B115AB0093324654
:1037900010AB38462946FEF721FD0F9B089E18689E
:1037A000109B1C68029A9119F3B2425CFAB9049A10
:1037B0009A4228BF1A4604920F9B1093079B002B36
:1037C000D0D1BC4A04215846FFF7D0F944464FF007
:1037D000FF36002F40D00F9B002B3DD00E9B069A4A
:1037E0000135EDB213449D42FFF46CAF34E0615CEF
:1037F0009142DCD10136B6F5807FD3D1FF23D6E7E5
:1038000026AB03EB85034FF00008079311AB009341
:1038100042460FAB29463846FEF7E0FCB8F1FF3FC1
:1038200005D1A44A04215846FFF7A0F9F2E4DDF8D7
:103830003C90B9F1000F3FF4EDAC079BD9F80010B4
:1038400053F8340C04F0E2FB08F101080028DDD144
:10385000D9F80870002FC1D1039B002B3FF4DAACDC
:10386000012B5AD13B783BB111AB0093324610ABE0
:1038700029463846FEF7B2FC109B1C682046FEF72E
:1038800077FD029B984205D01946049A2144584678
:10389000FFF7F8F9DBF80840E57F631993F820009B
:1038A00004F0DCF9D8B9D4F84831DA0712D5B4F805
:1038B000483160F30003A4F8483120215846FFF74F
:1038C0002FFADBF80820B2F8483143F00103A2F8E0
:1038D00048319FE420215846FFF722FA9AE4A37F5B
:1038E000AB427FF697AC5846FEF756FDDBF8082052
:1038F0008478D37F0133D3775846FEF74DFD837824
:10390000A34205D1DBF810000121FEF7F3FE81E4AC
:10391000DBF81000FEF7FAFE7CE4DBF80830664EB8
:1039200000225A7726AB03EB850306930AF10103C5
:10393000059311AB5246009329460FAB3846FEF76C
:103940004DFC0F9B029AD3F800A0069B514653F8FA
:10395000340C04F0B9FA90BB039B3046013B03934F
:10396000FEF706FDDBF8083007935A7E04EB0008EB
:10397000A2EB00095046FEF7FBFC079B5A7F5FFA5B
:1039800088F8511CB9FBF8F95FFA89F95977B2FB4D
:10399000F9F309FB1322A8EB0008D2B25FFA88F80A
:1039A00082B9464ACDF800A0334607215846FFF7B2
:1039B000DDF841465846FEF7A3FE039B4BB1DDF808
:1039C00014A0B3E73E4A534607215846FFF7CEF806
:1039D000EFE7DBF800303B4A58460321FFF7C6F813
:1039E000DBF80830364A203308215846FFF7BEF886
:1039F0005846FEF7CEFE109B049A1968029B584663
:103A00001944FFF73FF905E4D4F848311B077FF567
:103A100001ACA67F002E3FF4FDABE07F00283FF411
:103A2000F9AB361A00F12001F6B21F30721C2144A6
:103A3000204404F023F9DBF80830DA7F013ADA7722
:103A40009A7F013A9A77002E40D02A461E49DBF829
:103A5000100000F039FE5846FEF79EFC8278C378CD
:103A60009A4212D1DBF80820D37F20331344294631
:103A7000134A5846FFF77AF85846FEF741FC31469C
:103A80005846FEF753FEFFF7C5BB5846FEF71CFC31
:103A90005846FEF735FCDBF80820D37F203313446B
:103AA0005846074A2946FFF761F85846FEF744FC96
:103AB000FFF7B0BB748F00007A890000A08F000070
:103AC000A78F0000A68F00007F8900006E4A6F4913
:103AD000DBF8100000F0F8FDFFF79CBBA27F7E2A08
:103AE0003FF698ABE17F4B1CDBB2E37721442344E4
:103AF000013281F8205083F82000A277FFF78ABBBB
:103B00009DF833305B2B40F0BD800223A1E50023FC
:103B10006370D4F8483119077FF5DBAB9DF833307B
:103B2000313B1B2B3FF676AB01A252F823F000BFCE
:103B3000513C00005F3C00007F3C0000433C000023
:103B40001532000015320000153200001532000059
:103B50001532000015320000153200001532000049
:103B60001532000015320000153200001532000039
:103B7000A13B0000AD3B0000B13B0000FF3B00005B
:103B800015320000473C000015320000553C000093
:103B9000153200001532000015320000633C0000B1
:103BA00001215846FFF75EF9FFF734BB0021F8E723
:103BB0005846FEF7F1FB037842789A42044604D156
:103BC0008178C27891423FF425AB62799A4210D154
:103BD0002F49DBF81000012200F076FD617958468C
:103BE000FEF7A4FDDBF80820D37F0133D377FFF77E
:103BF00011BBDBF810000121FEF77CFDF2E758460F
:103C0000FEF7CAFB8379027801339A42044603D156
:103C10008378012B3FF4FEAA012ADBF810000BD1B8
:103C20001C4900F051FD61795846FEF769FDDBF84B
:103C30000820D37F013BD9E71749012200F044FD5A
:103C4000F5E7032363705846FEF7CCFEFFF7E2BAB0
:103C5000032363705846FEF773FDFFF7DBBA0323B7
:103C60006370D4F84831B4F8482103F0010383F0BD
:103C7000010363F30002A4F84821FFF7CBBA032342
:103C80006370DCE40023E4E444930000A78F0000A9
:103C9000ED8E0000E18E0000E78E00002DE9F04F70
:103CA0000D468BB01746044620B9744940F6E23001
:103CB000FEF780F8A3681BB163680BB1236823B9D2
:103CC0006E4940F6E330FEF775F8A3686C4A00923F
:103CD00008216C4A5B682046FEF748FFA6687068BA
:103CE000FEF746FBB168033082B211B12046FEF701
:103CF0007FFD654A00212046FEF738FF002F3DD0AA
:103D0000002D3BD04FF00C0AA9460AFB075A0826A3
:103D1000D9F80400FEF72CFB8046D9F80000FEF726
:103D200027FB4044B04209F10C0988BF86B2CA455E
:103D3000EED106F10408554B554A00931FFA88F856
:103D400006F107090821204643461FFA89F9FEF7C4
:103D50000DFF50494A462046FEF74AFD2DB1DFF8D7
:103D600030B14FF0000ABA450AD1A368D3F80C80ED
:103D7000B8F1000F3ED10BB0BDE8F08F0826D8E7B0
:103D8000D5E9002373B32AB30192434A0092082174
:103D9000424A2046FEF7EAFE6868FEF7E9FA039019
:103DA0002868FEF7E5FA0399B31C591A091AC9B233
:103DB0002046FEF7A5FC3A4920693A2200F084FC2F
:103DC000A96899B14A462046FEF712FD0AF1010A98
:103DD0000C35C8E7009343465A4608212046FEF7B3
:103DE000C5FEEDE7002AEBD00092F4E72069FEF76C
:103DF0008DFCEBE700220592174606AE009605AB58
:103E00000121404602F10109FEF7E8F9059D3DB1A7
:103E10002868FEF7ADFAB84200D987B24A46EDE706
:103E2000B9F1010FA7D01F4ADFF864A02946204648
:103E3000FEF79CFE2A46BD1CADB205AB00960121E3
:103E4000404602F10109FEF7C9F9059B002B92D00B
:103E50001B68009308212B4652462046FEF786FE3B
:103E6000059B596831B17A1D92B22046FEF7C0FC1D
:103E70004A46E2E72069FEF749FCF9E7748E000044
:103E80004D930000A18F0000AA8F000066930000F0
:103E9000B48F0000BC8F0000D8940000CF8F0000CA
:103EA0007F890000D88F000038B50D46044620B940
:103EB0001B4940F65F50FDF77DFFA3681BB16368A7
:103EC0000BB1236823B916494FF45660FDF772FF12
:103ED000022D0BD1A368D3F848319B0706D50022E9
:103EE00020461146BDE83840FFF7D8BE236923B904
:103EF0000B4940F66850FDF75DFF0A4A0A49206900
:103F000000F0E2FB236923B9054940F66950FDF74B
:103F100051FF2069054A0449BDE8384000F0D4BB90
:103F2000748E000039930000A78F000034930000C6
:103F300038B50D46044620B9134940F66E50FDF7DA
:103F400039FFA3681BB163680BB1236823B90E491D
:103F500040F66F50FDF72EFF012D06D0022D0BD13C
:103F6000A368D3F848319B0706D5002220461146A6
:103F7000BDE83840FFF792BE2046044ABDE838400D
:103F80000221FEF7F3BD00BF748E0000568F0000C3
:103F900038B58368D3F84821C2F3400592070C4630
:103FA00006D500221146FFF779FE2C46204638BD83
:103FB0000029FBD05B68024A0221FEF7D7FDF5E736
:103FC000E68F000073B50E461546044620B9164923
:103FD00040F68F50FDF7EEFEA3681BB163680BB18E
:103FE000236823B910494FF45960FDF7E3FE012E11
:103FF00007D100221146204602B0BDE87040FFF70D
:104000004DBEB11E18BF01212046FFF7C1FF48B9C0
:104010006B680193054B0093054A2B6802212046EB
:10402000FEF7A4FD02B070BD748E00001184000084
:1040300001900000012907B506D10022114603B006
:104040005DF804EBFFF72ABE02290AD153680193F9
:10405000084B00931368084AFEF788FD03B05DF82B
:1040600004FB8CBF0121002103B05DF804EBFFF7D6
:104070008FBF00BF1184000001900000013910B50E
:1040800018BF01210446FFF783FFA8B924B90B49E3
:1040900040F62160FDF78EFE236923B9074940F6FB
:1040A0002160FDF787FE064A0649206900F00CFBF7
:1040B000A36845F218021A8310BD00BF748E000079
:1040C00023930000A78F0000F7B50E46154604465F
:1040D00020B92D4940F62860FDF76CFEA3681BB19E
:1040E00063680BB1236823B9274940F62960FDF7BF
:1040F00061FE012E34D12046A568FEF7EBFB18BB0C
:10410000A36820691F7D9E7DFA21FEF7F3FA2069DE
:104110001E49FA2200F0D8FA2046FEF7DBFB98B9D8
:10412000A368197D6976A368C91B9B7D2B76204601
:10413000C9B2FEF7FBFA297E891BC9B2204603B03B
:10414000BDE8F040FEF7E8BAA36845F218021A830A
:104150000F4A0421204603B0BDE8F040FEF706BD3B
:10416000022E94BF002101212046FFF711FF48B91C
:104170006B680193074B00932B68074A0221204686
:10418000FEF7F4FC03B0F0BD748E0000ED8E00006D
:104190000A90000011840000019000002DE9F04118
:1041A0000D4686B0044620B9214940F6C750FDF7B8
:1041B00001FEA3681BB163680BB1236823B91C49D6
:1041C00040F6C850FDF7F6FD691E18BF01212046D4
:1041D000FFF7DEFE40BBA368DFF85880D3F84061EC
:1041E0000546EEB1082D1BD030460023092203A955
:1041F00000F030FD9DF81420A168304609230132FB
:10420000A03100F027FDA368049EA03300936F1C2B
:104210002B46424600212046FEF7A8FC3D46E0E73B
:10422000A368002283F8A02006B0BDE8F08100BF9B
:10423000748E000044900000013910B518BF0121B0
:104240000446FFF7A5FE30B9A368B3F8482160F330
:104250008202A3F8482110BD013910B518BF012111
:104260000446FFF795FE30B9A268B2F8483143F032
:104270000403A2F8483110BD013910B518BF01215F
:104280000446FFF785FE30B9A368B3F8482160F310
:10429000C302A3F8482110BD013910B518BF012190
:1042A0000446FFF775FE30B9A268B2F8483143F012
:1042B0000803A2F8483110BD022973B50D4694BF1A
:1042C0000021012104461646FFF762FE014658B957
:1042D000022D0BD1736801930C4B00930C4A336889
:1042E00029462046FEF742FC02B070BDA368094A89
:1042F000D3F8483113F0080F074B18BF1346074A8D
:10430000204602B0BDE87040FEF730BC11840000CA
:1043100001900000C78500004E9000005290000000
:10432000013910B518BF01210446FFF731FE48B925
:10433000A368C3F83801E3685B68BDE810401868FB
:1043400000F014BE10BD00007FB5013918BF012177
:104350000446FFF71DFE0546B8B9E3685B681E68B2
:10436000304600F093FDB268A168C3B2CDE90132D6
:1043700064204343B3FBF2F3DBB20093D1F838314E
:10438000034A29462046FEF7F1FB04B070BD00BF8A
:1043900063900000F8B505460E4617461C461BB94B
:1043A0000549F820FDF706FDE868276022463146FA
:1043B000BDE8F84000F0E4BEDB94000010B4074C08
:1043C0000378E35C23B15DF8044B043002F01EBFB8
:1043D0005DF8044B0C3002F0A9BB00BF00080020C0
:1043E0004069054A0378D35C13B1043003F01CB86C
:1043F0000C3002F0A3BC00BF000800200378044A80
:10440000D35C13B1043002F071BE0C3002F024BB57
:104410000008002010B504464069FFF7EFFFA368CD
:10442000BDE810401868FDF793B9000037B5FF23C9
:10443000009305460123C0686A4601A900F0AEFD5D
:10444000044650B112494020FDF7B4FC204603B0A9
:1044500030BD0C3002F0D8FB0DE0009C002CF5D0F4
:10446000686901990378E2B20A4CE35C002BF0D052
:10447000043002F043FF04460028E7D1AB682A4627
:10448000186840F26661FDF731F90446DEE700BFC7
:10449000DB9400000008002038B5436893F828300A
:1044A00004460D460BB383681868FDF751F930F0E8
:1044B00008030ED175B16069FFF7A0FF61686069FC
:1044C0000022083101F090F868B96368012283F88E
:1044D000292038BD636893F8283043B12046BDE8F1
:1044E0003840FFF7A3BF0620F3E70029E3D1064ACF
:1044F000A0680021FDF7D8F86368012283F828201E
:104500000028EBD0E5E700BFE143000037B5FF230B
:1045100001930378012B05460C4641D0022B2AD08B
:10452000002B57D1017A206900F078FE18B12B4991
:104530007920FDF73FFCFF2301932069012301AAA5
:10454000694600F0D7FD18B124497C20FDF732FC04
:10455000019A4AB100996069D2B2FFF72FFF18B1F2
:104560001E498120FDF726FC63680120D3E9002164
:10457000904703B030BD017AE06800F053FD30F0A1
:10458000040303D015495F20FDF714FC2046FFF714
:104590004DFF0028EDD011496120FDF70BFCE8E745
:1045A000017AE06800F03EFD30F0040303D00B49CF
:1045B0006720FDF7FFFB2B7A23B163680020D3E966
:1045C000002190472046FFF731FF0028D1D0034952
:1045D0007320E2E701498B20DFE700BFDB94000096
:1045E000F7B505460E4617461C4623B91A494FF43F
:1045F0008670FDF7DFFB276022462869314600F010
:1046000029FD044608BB6869144A0378D35CFBB1F2
:10461000043002F0EFFDC0B9FF23019328690123A4
:1046200001AA694600F066FD78B99DF8042000995A
:104630006869FFF7C3FE6B6893F82930044623B11D
:1046400018B90199286900F0E9FD204603B0F0BDD2
:104650000C3002F05FFADEE7DB9400000008002077
:1046600038B504464068C0E900230023038501F102
:1046700020020B46083053F8045B40F8045B934279
:10468000F9D1074A60690C6100F0AEFF054628B910
:10469000E06800F079FC206900F076FC284638BD1F
:1046A0000D45000010B5044618B906493120FDF744
:1046B00081FBA2682AB163692168206998470023B9
:1046C000A36010BD6C9500000EB433B5059D044683
:1046D00018B911494220FDF76DFB63691BB90E49FA
:1046E0004320FDF767FB23681BB90B494420FDF706
:1046F00061FB63681BB908494520FDF75BFB35B1D9
:1047000006AB01AA29462046019300F079F802B0D1
:10471000BDE8304003B070476C9500000A2938B5F9
:1047200004460D4602D10D21FFF7F8FFA368226869
:10473000591CA160D554D4E901329A4204D32046D1
:10474000BDE83840FFF7AEBF38BD00002DE9F84F97
:104750009846DDE90A43154682460F460A464FF061
:104760000109AA420FD2C14538BFC14613F0010B5F
:1047700001D16CB900240126B8F1010F1BD908F151
:10478000FF386E43F8E709F10109B2FBF5F2E8E7FB
:104790009B070ED5B8F1000F0CBF30262026A1458F
:1047A000E9D2013C31465046FFF7B8FF002CF6D164
:1047B000E0E72026F3E7B7FBF6F39D42E1D9DFF807
:1047C0003C80B7FBF6F3504618F8031006FB13774E
:1047D000FFF7A4FF3346AB42B6FBF5F6F1D2BBF1CF
:1047E000000F02D00CB1A14501D3BDE8F88F202104
:1047F0005046013CFFF792FFF4E700BF39960000F6
:104800002DE9F74F88461746054620B9AF4940F2D3
:104810005220FDF7CFFA6B6923B9AC494FF41570FC
:10482000FDF7C8FA2B6823B9A84940F25520FDF7D7
:10483000C1FA6B6823B9A54940F25620FDF7BAFAD0
:10484000B8F1000F00F03E8118F8011B49B92B7B2D
:10485000002B00F03781284603B0BDE8F04FFFF78A
:1048600021BF252940F0B780002698F800302D2B75
:10487000424608F1010823D0302B24D02B2B25D021
:1048800000242A2B02F1010123D13B681A1D1B6869
:104890003A601C440A4613782E2B26D101324FF081
:1048A000000A104610F8011BA1F1300CBCF1090FF1
:1048B0001DD80A2303FB0A13A3F1300A0246F0E7CE
:1048C00046F00106D1E746F00206CEE746F00406C0
:1048D000CBE711F8013CA3F130000928DBD80A220C
:1048E00002FB0434303C0A46CBE74FF0000A12F8D2
:1048F000011B01F0FB0068289046F8D0782909D800
:104900006F290CD8632962D022D8252963D0582971
:1049100000F0888098F80030002B95D197E7703927
:104920000829F7D801A353F821F000BF9F4A0000DF
:104930001549000015490000354A000015490000DE
:10494000134A00001549000015490000254A0000DF
:10495000642901D06929DDD13A68D2F80090111D8F
:1049600089EAE9723960A2EBE9724FF0010B092A7A
:1049700035DCD34538BFD3462CB1B9F1000F01DB8C
:10498000720700D5013CB30702D5BAF1000F03D07E
:10499000F00701D44CBB0024B9F1000F2DDAC9F1A6
:1049A00000092D212846FFF7B9FE06F00302022A6E
:1049B00004D1BAF1000F01D11CBB0024CDE900469F
:1049C00053460A2249462846FFF7C0FEA2E73B6845
:1049D0001A1D19783A602846FFF7A0FE9AE70A23C5
:1049E0000BF1010BB2FBF3F2C1E7A345D4D22021B6
:1049F0002846013CFFF792FECCE77107D5D52B2165
:104A0000D0E7A345DAD230212846013CFFF786FEE5
:104A1000D2E73968CDE900460A1D3A6053460A22BA
:104A20000968D0E739680A1D3A60CDE90046534667
:104A30001022F5E73B681A1D3A6016F00106D3F81C
:104A4000009024D1B9F1000F03D0484603F005FBD4
:104A50000646B4421DD809F1FF3919F8011F002993
:104A60003FF458AF2846FFF759FEF6E728460136CF
:104A7000FFF754FE19F806100029F7D1A642BFF43B
:104A800049AF20212846013CFFF748FEF6E7002603
:104A9000F0E720212846013CFFF740FED9E73B68BC
:104AA0001A1D3A60302128461C68FFF737FE78212E
:104AB0002846FFF733FE00220823CDE900322146C5
:104AC000102280E703B0BDE8F08F00BFCF95000053
:104AD0002DE9F74F99469DF830300093884693466C
:104AE000064618B92349B620FDF764F9F2887179B2
:104AF0004A43043A4A4505D81E490192C420FDF7AD
:104B000059F9019ADBF80070B6F806A007EB090125
:104B1000914209F1040488BFA2EB0907B4FBFAF53E
:104B2000CBF800700AFB154445B9AAEB040BBB4552
:104B300028BFBB462FB903B0BDE8F08F3668013DF2
:104B4000F2E7009B043408EB050034445A466BB18D
:104B50002146A7EB0B0703F0DBF9BA455D44366845
:104B6000D3464FF0000428BFBB46E3E7014620468A
:104B7000EFE700BF49960000FDF76ABAF8B546793D
:104B80000146721E0546002393422D6803D300247C
:104B9000A64202D8F8BD0133F6E70F682846FDF7B4
:104BA000BDFA01343946F3E72DE9F843068BCD1CF5
:104BB0000746FDF78BFA043E35440446B5FBF6F58F
:104BC000F0B14FF48073EDB28380C680013D076081
:104BD00081464FF00008A84512D23846FDF776FA14
:104BE000064648B163790133637108F10108C9F8D9
:104BF000000007608146EEE72046FFF7BFFF34461E
:104C00002046BDE8F88301210430FDF7A2B910B5B4
:104C1000012104460430FDF7A8F9C0B220B92046AE
:104C2000BDE81040FFF7AABF10BD00001FB5144635
:104C300003920022009203AAFFF74AFF039BA342BC
:104C400003D00349F620FDF7B5F804B010BD00BF4E
:104C5000499600001FB5144603920122009203AA50
:104C6000FFF736FF039BA34204D003494FF4807043
:104C7000FDF7A0F804B010BD499600007047026827
:104C800013685268934291BFD01A8068013080182F
:104C900088BFC01A7047000038B50C46054618B9E1
:104CA00004498320FDF786F8AB68A3428CBF601CE3
:104CB000002038BDBF96000038B5044618B9074932
:104CC0009820FDF777F8236820461D685968FFF79C
:104CD000E3FF431B5842584138BD00BFBF96000058
:104CE0002DE9F0410D46044618B92C49A320FDF7E3
:104CF00061F81DB92949A420FDF75CF80020FCF7F4
:104D00006FFE2046FFF7D8FF074610B1237C002B2B
:104D10003DD1D4F800802046D8F80460D8F80410BB
:104D2000FFF7BAFFC8F804002FB12768204639689A
:104D3000FFF7B2FF3860E2686068531E072B20D887
:104D4000DFE803F004101F141F1F1F182B78835572
:104D50002046FFF794FF23689A68824200D2986049
:104D6000002415E02B8820F81630F1E72B6840F876
:104D70002630EDE7D5E9002300EBC600C0E90023AB
:104D8000E6E7294602FB060003F0C2F8E0E7042448
:104D90000020FCF735FE2046BDE8F081BF960000FC
:104DA00010B5044620B9084940F21E20FDF702F86C
:104DB0000020FCF715FE2046FFF761FF04460020A7
:104DC000FCF71EFE204610BDBF96000010B504463D
:104DD00020B9064940F22B20FCF7ECFF2368186845
:104DE0005B68C31A5842584110BD00BFBF9600000F
:104DF0002DE9F0410C469046054618B92249E720B6
:104E0000FCF7D8FF1CB92049E820FCF7D3FF0020AD
:104E1000FCF7E6FD2846FFF7D9FF002832D12F68BE
:104E20003E68B8F1000F04D139682846FFF734FF17
:104E30003860EA686968531E072B1DD8DFE803F065
:104E4000040D1C111C1C1C158B5D237000240020FC
:104E5000FCF7D6FD2046BDE8F08131F816302380FE
:104E6000F4E751F826302360F0E701EBC601D1E901
:104E70000023C4E90023E9E706FB0211204603F002
:104E800047F8E3E70524E2E7BF96000010B50446C3
:104E900020B9044940F23920FCF78CFF2368986858
:104EA00010BD00BFBF9600002DE9F04F8368D3F816
:104EB0004831C3F340059B078BB0064606D5002258
:104EC00011460BB0BDE8F04FFEF7E8BE012906D948
:104ED000204A02210BB0BDE8F04FFDF747BE1E4C43
:104EE0001E4BDFF88090DFF880A01B1B1C22B3FB59
:104EF000F2F8A84502D10BB0BDE8F08FE368A768CF
:104F000009932046FFF7C2FF83462046FFF748FF7C
:104F100094F810E0124A642303FB00F1BEF1000F85
:104F200018BF4A4603FB0BF3B3FBF7F3CDE9043B91
:104F3000B1FBF7F1099B0191CDE90672CDE90207BA
:104F400000935246636908213046FDF70FFE013594
:104F50001C34CEE7E68C0000FC80000018810000C5
:104F60002A970000339700003F97000010B50446D1
:104F700020B9044940F23F20FCF71CFF23680022BF
:104F80009A6010BDBF960000836800225A60C3E992
:104F900004229A60DA601A60704700002DE9F0413F
:104FA000064617461D46884619B91D493B20FCF7A1
:104FB00001FF1FB91A493C20FCF7FCFE85B9B06817
:104FC0007368D0E9031403F1010C0A1B62450ED18A
:104FD00000243C6015B3FCF7DDFF0020BDE8F08144
:104FE000B068FCF7CEFF0028E9D01120F6E701EA0F
:104FF000030223409A4238BF64443B682CBFACEBA9
:105000000204641A9C4228BF1C4633683C60134467
:10501000C8F80030C3681C44C460DEE72846DDE7FA
:1050200014980000034680685B68826810B50469C4
:10503000013323449B1A8B4209D31144C0E9021166
:10504000FCF7A5FF002814BF0020082010BD042095
:10505000FCE700002DE9F84F054691460F4619B9C7
:1050600023497220FCF7A6FEB9F1000F03D12049B5
:105070007320FCF79FFEA868FCF783FF824698BB6D
:10508000D5E90142136901341C449368E41AD9F844
:1050900000309C4228BF1C46C9F800406B689668E7
:1050A00003F101081E40A8EB060B5C450AD92868ED
:1050B000394630445A4602F02BFFA6EB080634442A
:1050C0005F445646286822463946304402F020FFA5
:1050D000A868D9F8002083681344C0E90233FCF7BC
:1050E00059FF5046BDE8F88F4FF0110AF9E700BFAD
:1050F000149800002DE9F0410546144698460E46E6
:1051000019B91E499320FCF755FE1CB91B49942080
:10511000FCF750FEB8F1000F0ED1A8688168426913
:105120008F1A11D12760B8F1000F02D00430FCF7BC
:1051300031FF3846BDE8F081A8680430FCF721FF54
:105140000028EAD01127F4E76B68D4F800C01A40B1
:1051500019408A420BD2674500D227602B681A4457
:10516000326043692268134443610027E1E7013359
:105170009B1A634538BF2360F0E700BF1498000016
:105180002DE9F843064690460F4619B92249C22038
:10519000FCF710FEB8F1000F03D11F49C320FCF744
:1051A00009FEB0680430FCF7ECFE814688BBB268AB
:1051B00013699568ED1AD8F800309D4228BF1D4646
:1051C000C8F8005073681169946819401C40A142E6
:1051D00028BF5C1C641AA54208D9336838461944B4
:1051E000224602F095FE2D1B2744002133682A46F3
:1051F0001944384602F08CFEB068D8F800200369E4
:105200001344C0E904330430FCF7C4FE4846BDE84B
:10521000F8834FF01109F9E714980000806808B589
:1052200082680369D21A8A4207D31944C0E904117B
:105230000430FCF7AFFE002008BD0420FCE70000AE
:1052400070B50C46064618B90A493A20FCF7B2FD7B
:105250001CB908493B20FCF7ADFD7568286818B1FA
:10526000B3682146984718B92B6823602C6070BD3D
:105270002D68F3E78398000010B5044618B9054976
:105280005120FCF797FD6368186808B102681A603E
:1052900010BD00BF8398000010B5044618B903493B
:1052A0005D20FCF787FD6368186810BD83980000D7
:1052B00038B50C46054618B90A496920FCF77AFD4D
:1052C0001CB908496A20FCF775FD6B68186820B1A5
:1052D000A04203D102681A60012038BD034600686D
:1052E000F5E700BF8398000038B5074C051E04F1B0
:1052F000080318BF1C4623682BB11A6822605B683C
:1053000028469847F7E738BDD407002020B9054B59
:1053100001225A70FFF7E8BF012802D1014A9070BC
:10532000F8E77047CC07002038B50C4C23789BB9C0
:105330000B486360A3602361E36000F0ABF90546AE
:1053400000F0BCF901232370064BD3F800340BB1F5
:105350000123A370284638BD8525F5E7CC0700203A
:105360000D5300000000014038B51A4C2378054663
:105370001BB91949F620FCF71DFDA37803F0FF00C7
:10538000ABB115B16B68012098470020FCF728FBF2
:10539000E36800200133E360FCF732FBE368C3B944
:1053A000BDE838400C494FF48970FCF703BDFCF7A9
:1053B00017FB25B1226913463BB92A602561E368D2
:1053C000002BE5D100F098F9E2E79D42F7D01B6889
:1053D000F2E738BDCC070020FD9800001FB5037828
:1053E0008DF800308388ADF8043083688DF806307E
:1053F000C3688DF80730036902934369054A039334
:10540000054B684653F8213052F82110984705B0F3
:105410005DF804FBE0070020E8070020026853095C
:1054200010B5044618D0012B4FF6FF7318BF0023A8
:1054300002F01F02D340DB0704D409494FF4F67091
:10544000FCF7B8FC23681F2B83BF03F01F0305483C
:1054500023604FF0A04010BD4FF0FF33E8E700BFDE
:10546000F48900000003005007B5019001A8FFF780
:10547000D5FF019A01239340C0F8083503B05DF8C9
:1054800004FB0000024B4FF4807043F00103184707
:10549000709900002DE9F743154690F80080354AD1
:1054A00042F82850344A42F828304B7B06460C46D6
:1054B0007BB308684FF0A04700F5E07340F20C6240
:1054C00047F823204B6803F5E0734FF0010947F8D4
:1054D0002320FFF7C9FF6068FFF7C6FF236803F5C5
:1054E000E07340F20D6247F82320636803F5E07330
:1054F00047F82320FFF7C6FF00276368019301A840
:10550000FFF78CFF019AD0F81035D340DB070CD59C
:10551000FFB91A4A002D434608BF2A462146301DCE
:1055200003B0BDE8F04300F091BC2368019301A8EB
:10553000FFF774FF019B09FA03F3C0F80C35FFF77E
:10554000A1FF01372068FFF78FFFFFF79BFF092FAF
:10555000D3D16368019301A8FFF760FF019A01238B
:105560009340C0F80C35FFF78DFF6068FFF77CFFB4
:10557000CFE700BFE8070020E0070020DD53000070
:105580001FB503788DF800304368019383688DF868
:105590000830C368054A0393054B684653F8213029
:1055A00052F82110984705B05DF804FBF007002081
:1055B000F80700201FB503788DF800304368019389
:1055C00083688DF80830C368054A0393054B684625
:1055D00053F8213052F82110984705B05DF804FBCC
:1055E000F0070020F80700202DE9F0411E4B90F84D
:1055F000008043F828201D4B1646B8F1010F0A69B8
:1056000043F8282088B007460C4605D14B7F1BB9CC
:1056100017497620FCF7CEFBDFF860C0637F0CF8FB
:1056200008300FCC6D460FC594E80F0085E80F00D9
:105630003B78CDF810801CF8033053B1002E0D4A92
:10564000694608BF3246381D01F058FC08B0BDE875
:10565000F081002E084A694608BF324607F10C0067
:1056600001F010F9F2E700BFF8070020F007002072
:105670007699000081550000B55500000008002013
:1056800000F18040002382B0036003680193019B16
:1056900002B0704710B5044618B90649A420FCF7BB
:1056A00089FB054A107918B901211460918010BD59
:1056B0008520FCE7E19900000408002008B50B4BA9
:1056C0001B791BB90A49BD20FCF774FB094B1A680A
:1056D000D20704D4C02283F8002301221A604FF0BD
:1056E00080430122C3F8182508BD00BF040800202C
:1056F000E199000000E100E008B5094B1B791BB9F6
:105700000849EA20FCF756FB4FF48270FFF7B8FF18
:105710004FF080430222C3F8042301229A6008BD9F
:1057200004080020E19900004FF0804110B5D1F845
:10573000003163B14FF48070FFF7A2FF0D4B587931
:105740000122C1F8082310B95A711B6898474FF01D
:105750008042D2F8043163B14FF48270FFF790FFBA
:105760000223C2F80833034BBDE810401B68012038
:10577000184710BD0408002000F1804000F5C0402B
:10578000002382B0036003680193019B02B070475D
:1057900043090BD0012B4FF6FF7318BF002300F015
:1057A0001F0023FA00F000F0010070474FF0FF33B4
:1057B000F5E7000010B504460068FFF7E9FF20B9DF
:1057C00007494FF4F670FCF7F5FA23681F2B83BFE7
:1057D00003F01F03034823604FF0A04010BD00BF3B
:1057E000F48900000003005013B5019001A80C4695
:1057F000FFF7E0FF019B00EB8300D0F8003723F4B4
:105800004033C0F80037D0F8003743EA0443C0F80B
:10581000003702B010BD00002DE9F04F002485B024
:10582000CDE90244594D4FF48072012102F18043C9
:1058300003F5C04390B21B68012B06D1D5F80433A1
:105840000B4202D0FFF798FF0C430432B2F5907F71
:105850004FEA4101EAD14D4BD3F87C31012B11D1F4
:105860004FF4BE70FFF788FF4FF0A04344F00044B0
:10587000D3F820250292C3F82025D3F820280392DC
:10588000C3F82028E3B2D3B1414F002501263442AA
:1058900010D0AB0003F1804303F5C043D3F81005EB
:1058A000D3F8101557F8253023B1C1F30141C0F3E7
:1058B000052098470135082D4FEA4606E7D1002C10
:1058C0005CDA334D334C344E4FF00009012716F9A2
:1058D000013B5A1C3FD0C3F3C20210326A445FFA44
:1058E00083FA12F8082C03F03F0803F0070307FAC5
:1058F00003F31A422FD001A8CDF80480FFF75AFF16
:10590000019B03F5E07350F82330C3F3014BBBF167
:10591000020F0CBF032102214046FFF765FF01A8DB
:10592000CDF80480FFF746FF019B07FA03F3C0F8A8
:10593000203505EB080393F9303055F8233053B187
:105940004FEA9A11032904D0BBF1020F19D10129A2
:1059500001D14046984709F10109B9F1040FB6D1C8
:105960004FF0A043D3F820250292C3F82025D4F8A5
:1059700020350393C4F820351343A4D105B0BDE806
:10598000F08FBBF1030FE6D10229E1E70060004090
:105990000C080020000300506C08002010B5054CD6
:1059A00023681BB904495120FCF704FA2368BDE8B9
:1059B0001040184778080020589A000038B50D4666
:1059C00028B90C497720FCF7F5F9002038BD0A4BBF
:1059D0009842FAD10020FCF703F8084B1C7914B95F
:1059E00001221D601A710020FCF70AF8002CECD08F
:1059F0001120EBE7589A00000020004078080020B2
:105A000018B906499B20FCF7D5B9054B984201BF50
:105A1000044B00221A601A71704700BF589A0000A8
:105A200000200040780800200023435082B04358F3
:105A30000193019B02B070470268530910B50446F8
:105A400018D0012B4FF6FF7318BF002302F01F027E
:105A5000D340DB0704D409494FF4F670FCF7AAF9E8
:105A600023681F2B83BF03F01F03054823604FF0FB
:105A7000A04010BD4FF0FF33E8E700BFF4890000FD
:105A8000000300508B6A4A6B9A4210B54FF0010335
:105A900005D2496A8A5CC0F81C251A4604E091F8D0
:105AA0002C201AB1C3610022104610BD0C6A640696
:105AB00003D5C36181F82D30F6E74361EDE770B59A
:105AC000D0F8046105460C4626B14FF48271FFF709
:105AD000ABFF012694F82F2022B34FF49271284691
