:1000000000000420750300005D0300005F03000092
:1000100061030000630300006503000000000000AE
:100020000000000000000000000000006703000066
:1000300069030000000000006B0300006D03000076
:100040006F0300006F030000D51400006F03000071
:100050006F0300006F0300006F03000049150000EC
:10006000C51900006F0300006F0300006F0300005C
:100070006F0300006F0300006F0300006F030000B8
:100080006F0300006F0300006F0300006F030000A8
:100090006F0300006F0300006F0300006F03000098
:1000A0006F0300006F0300006F0300006F03000088
:1000B0006F0300006F03000000000000000000005C
:1000C0006F0300006F0300006F0300006F03000068
:1000D0006F0300006F0300006F0300006F03000058
:1000E0006F0300006F0300006F03000000000000BA
:1000F000000000006F030000000000006F0300001C
:1001000000000000000000000000000000000000EF
:1001100000000000000000000000000000000000DF
:1001200000000000000000000000000000000000CF
:1001300000000000000000000000000000000000BF
:1001400000000000000000000000000000000000AF
:10015000000000000000000000000000000000009F
:10016000000000000000000000000000000000008F
:10017000000000000000000000000000000000007F
:10018000000000000000000000000000000000006F
:10019000000000000000000000000000000000005F
:1001A000000000000000000000000000000000004F
:1001B000000000000000000000000000000000003F
:1001C000000000000000000000000000000000002F
:1001D000000000000000000000000000000000001F
:1001E000000000000000000000000000000000000F
:1001F00000000000000000000000000000000000FF
:10020000354936480A1A02D0072291438D463449AF
:1002100034480A1A06D00722914381F30988022242
:1002200082F3148830483149314A00F044F83148AB
:100230003149324A00F03FF831483249324A00F041
:100240003AF832483249334A00F035F832483349F7
:10025000334A00F030F833483349344A00F02BF881
:1002600033483449344A00F026F8344834490022EF
:1002700000F02CF833483449002200F027F83348C6
:100280003349091A082902DB002202604160314A21
:1002900090471F481F49884205D00268043003B4C4
:1002A000904703BCF7E700208646EC46002000217B
:1002B000294A9047FEE7884207D0521A05D00378B2
:1002C00001300B700131013AF9D17047884202D0F8
:1002D00002700130FAE770470000042000E00320BC
:1002E0000000042000000420382D00000000002041
:1002F00034000020D0030000D0030000F4280000E8
:10030000382D0000000000200000002058290000C7
:1003100058290000582900005829000058290000D9
:10032000582900005829000058290000382D0000E5
:100330006C2D000034000020340000203400002028
:100340003506002038060020380600203806002038
:10035000382600209D03000055250000FEE7FEE73B
:10036000FEE7FEE7FEE7FEE7FEE7FEE7FEE7FEE765
:1003700000F002B8FFF7FCBF0F484FF007018843B9
:1003800085460E4880470E48016841F470010160BF
:10039000BFF34F8FBFF36F8FFFF732BF09480A4992
:1003A0000A4A884207D0521A05D0037801300B70F0
:1003B0000131013AF9D1704700000420AD25000059
:1003C00088ED00E058290000000000200000002017
:1003D000F0B595B01D46164608460C4600F074FF71
:1003E0001A9B0D93CDE9086500252B46082205A927
:1003F00020460A958DF82C500C9500F081FF079B44
:100400000293069B03939DF814308DF8115003F06E
:100410000302012A1DD1BDF81420059DC3F3C203B8
:10042000C2F383168DF81030B20008230EA92046BF
:1004300000F066FFC5F3952508AB0093324602AB8A
:100440000EA9284600F050FB204600F041FF15B0F1
:10045000F0BD022AF8D1BDF81650C3F3C203C5F3AC
:1004600089158DF810300827082D2E4628BF08263C
:100470003B4632460EA9204600F042FFAD1B08ABBA
:1004800002AA31460EA8374400F092FB002DEBD1B2
:10049000DAE70000014B01221A7070477500002056
:1004A0007047000070B50E4D06460FCD88B06C4603
:1004B0000FC495E80F00002E84E80F00094A0A488F
:1004C0004FF0060308BF00226946009300F060FF6A
:1004D00008B100F0CDFB054B1E7008B070BD00BF29
:1004E000582900009504000000000020340000207E
:1004F00007B5044B0093044A4023FFF769FF03B09C
:100500005DF804FB0D0500003500002038B50D48EE
:100510000D4C0E4D002323700378EB5CD2B263B117
:10052000043001F00FFF08B100F0A2FB084B1A786D
:1005300012B12378002BFBD038BD0C3001F092FCB7
:10054000F1E700BF000000207500002080050020BA
:100550003400002008B50848084A0378D35C3BB152
:10056000043001F05FFEBDE808400020FFF79ABFAD
:100570000C3001F00FFCF6E70000002080050020A1
:10058000037813F0040216D003F00303012B03D009
:10059000022B09D0012070470A6800880232C0F39C
:1005A000831002440A60F5E70B684288023303EBCC
:1005B00092130B60EEE71046704700002DE9F04FF4
:1005C000DFF810A10F4685B00446861C00201546B2
:1005D00000F0A4FBDAF804203A60DAF8083003F5FA
:1005E00080739B1A0AF21C470AF583690AF21448C1
:1005F000B34219D30020002D68D004F00F039B01F3
:1006000043F0050363F30F00DAF80430DAB2033283
:1006100033444AF822000020CAF8043000F080FB7E
:10062000012005B0BDE8F08F0121384600F09DFBA8
:10063000484600F0B2FB404600F0AFFBDAF8080095
:100640000090C0B203300AEB80006946FFF798FFC4
:10065000009B30BBDAB20AEB8202D16801919A1C8E
:100660000133DBB20AEB83030092D3F80CB001F044
:100670000303012B22D0022B15D08346404600F005
:100680008FFB10B1009BCAF808305946384600F07D
:100690006CFBDAF80830DAF8042003F580739B1A53
:1006A000A6E7D8B2CEE7BDF80630C3F3891303330B
:1006B0004FEA1B4B02EB93030093DFE7BDF80430D6
:1006C000C3F383134FEA1B4B1344F5E7A40544F02F
:1006D000060099E74801002030B50A4C71B10A4A7A
:1006E0000A49121BD20800239A4201D1002030BDD2
:1006F00031F82350854202D00133F5E7034654F820
:100700003300F4E7F4280000342900000000002042
:10071000094B013903EBC000032909D8DFE801F0D8
:100720000A02040604207047007970474079704738
:100730000020704702207047F42800007047000036
:10074000034BD3E90130C31A58425841704700BFE8
:10075000480100202DE9FF41FFF7F2FF0546002880
:1007600040F0E980754CC4F81804BFF34F8FA368BC
:100770000093DBB2033304EB83006946FFF700FF0D
:10078000009B18B1D4F81824002A5AD0DAB2991C68
:10079000013304EB8202DBB204EB8303D268DB6833
:1007A000029302F00303022B0192009154D1BDF891
:1007B00006306348C3F38917502F3E4628BF5026A2
:1007C00006F1080166F38F13C1F30901ADF8063095
:1007D00000F04BFD0546002800F0988000F074FD05
:1007E0000023082201A9284600F080FD0099CB4390
:1007F000DBB20133C9B20331B6EB830F4FEA830298
:1008000004EB810125D95FFA82F80823A6EB0806DC
:10081000284600F06BFDF6B208F10803494903F0E1
:10082000FC033246284600F061FD009B033703EBD2
:1008300097070097D4F81834002B43D1D4F81064EC
:1008400053E062689A4294D8A260284604B0BDE89A
:10085000F08108233246E5E7012B57D1BDF804307B
:100860003748C3F38311062928BF062161F3891392
:10087000023101F00F018900ADF8043000F0F5FC01
:100880000546002842D000F01FFD0023082201A9E0
:10089000284600F02BFD0026BDF80420C2F3831289
:1008A000B300964203F10803C4D200994A1CC9B2AE
:1008B0000331009204EB81010422284600F016FD6A
:1008C0000136E9E7284600F003FDFFF739FF80F025
:1008D0000100C5B2B9E7F3685B7923B133682946F3
:1008E0001B6830469847F3681E68002EF3D12846EF
:1008F00000F0EEFC304600F011FAD4F818340BB9D1
:10090000009BA360002000F00BFADEE7D4F810444F
:1009100054B90D4B0D480E49C01AC008000440F0F0
:10092000020000F05FF8D0E7236820469B689847F4
:10093000E3681C68ECE7002587E700BF480100205A
:100940004429000054010020F4280000242900005C
:10095000952900002DE9F34704460E46924601A969
:10096000012218469946FFF729FE1C4F10B3019D3E
:100970004FF00008AA1CC84508EB020125D1184811
:10098000002100F0CFF980F31000000440EA144089
:10099000E4006B1C04F03804DBB2EDB244F0010457
:1009A00007EB8303033544EA881444EA8624D860BD
:1009B00047F825403B781BB1FFF7CCFE0028FBD160
:1009C000FFF7BCFE02B0BDE8F087C9B207EB8101BA
:1009D0005AF82830CB6008F10108CCE74801002024
:1009E0006405002000231A46FFF7B4BF07B50123B2
:1009F000019201AAFFF7AEFF03B05DF804FB00000F
:100A000038B5084B0125D3F810441D7004B938BD22
:100A1000E3685D71236820465B689847E3681C685B
:100A2000F4E700BF4801002030B5C38885B0044614
:100A30000D4633B1144A00921449154A284600F075
:100A4000F2F9217A05291DD0637A4BB1A088FFF70E
:100A50005FFE104B104953F82020284600F0E3F9C0
:100A6000227A0E4BA08853F8222003920021FFF730
:100A700033FE039A0A490346284605B0BDE83040D4
:100A800000F0D1B905B030BDCA290000B22900007C
:100A9000AA290000382A0000CF2900005C2A0000A3
:100AA000D229000007B503460846197A052911D056
:100AB0005B7A2BB1094A0A49019000F0B4F9019818
:100AC0000849019000F0AFF9019803B05DF804EB1C
:100AD00000F09EB9002AF8D0F2E700BFCA29000052
:100AE000CF290000C72900002DE9F04385B01F463B
:100AF0000C9D002395F80C902B7306460C469046EF
:100B000029463846FFF790FFB8F1060F09D8DFE80D
:100B100008F00412181F283340003146284600F020
:100B200082F9002229463846FFF7BCFF85F80C9071
:100B300005B0BDE8F08322683146284600F073F91D
:100B4000EFE7D4E900233146284600F06CF9E8E7E6
:100B5000A36800933146D4E90023284600F063F9E6
:100B6000DFE7E3680193A36800933146D4E90023EB
:100B7000284600F058F9D4E723690293E36801930B
:100B8000A36800933146D4E90023284600F04BF9CE
:100B9000C7E76369039323690293E3680193A3683A
:100BA00000933146D4E90023284600F03CF9B8E729
:100BB00008292DE9F74F80460E4617461C463DD8BA
:100BC00000251B7B2573214610460193FFF72CFF60
:100BD000DFF88CA0DFF88CB0AE4232D918F80520CF
:100BE0005946204600F01FF90135082DF4D11B4964
:100BF000DFF874A0DFF874B0204600F014F94FF06D
:100C000000094E4524D918F809507E2D1ED82846D3
:100C100001F00EFE002814BF2A462E225946204617
:100C200000F001F909F10109B9F1080FE9D1012238
:100C300021463846FFF736FF019B237303B0BDE81A
:100C4000F08F5146204600F0EEF8CDE72E22E5E782
:100C50005146204600F0E7F8E4E700BFE62900002F
:100C6000E2290000DC290000E4290000E829000056
:100C70001FB50021039001AA44F20100CDE9011142
:100C800000F004F805B05DF804FB000038B572B65A
:100C9000FFF7B6FEFFF75EFD0028FBD1104B114CAD
:100CA000114D1249E41AE408240444F00100FFF74E
:100CB00099FED5F8F030DB0700D500BE0C4944F0B2
:100CC0000200FFF78FFEBFF34F8FEA68094B02F473
:100CD000E0621343EB60BFF34F8F00BFFDE700BF3F
:100CE000F42800002429000000ED00E0702A000034
:100CF0007C2A00000400FA0572B6024A1368013328
:100D00001360704768050020034A1368013B1360B5
:100D100003B962B6704700BF68050020FFF7ECBF5B
:100D2000FFF7F2BF10B5034653E8000F0A4643E849
:100D3000002494F0000FF7D110BD10B5034653E81E
:100D4000002F42EA010043E8000494F0000FF6D1BE
:100D500010BD10B5034653E8000F00EA010243E856
:100D6000002494F0000FF6D110BD10B5034653E8EF
:100D7000002F02EB010043E8000494F0000FF6D1CD
:100D800010BD10B5034653E8002FA2EB010043E865
:100D9000000494F0000FF6D110BD0121FFF7CDBF84
:100DA0000021FFF7D6BF38B504460020FFF7B6FF95
:100DB000226863681168994213D9481E106011F8BF
:100DC000013CE568218A01FB0355A36811791B1AD0
:100DD000DBB2994200D213710020FFF7A1FF284631
:100DE00038BD0025F8E738B5054600200C46FFF76A
:100DF00095FF2A681368591C1160E968641A298AEA
:100E0000B4FBF1F41C70BDE838400020FFF788BF48
:100E1000826810B504462AB14369016800699847A1
:100E20000023A36010BD0EB403B5039921B104AB38
:100E300001AA019300F076F802B05DF804EB03B06C
:100E400070470A2938B504460D4602D10D21FFF737
:100E5000F8FFA3682268591CA160D554D4E9013277
:100E60009A4204D32046BDE83840FFF7D1BF38BDD1
:100E70002DE9F84F9846DDE90A43154682460F46AC
:100E80000A464FF00109AA420FD2C14538BFC146F8
:100E900013F0010B01D16CB900240126B8F1010F48
:100EA0001BD908F1FF386E43F8E709F10109B2FBDD
:100EB000F5F2E8E79B070ED5B8F1000F0CBF30261E
:100EC0002026A145E9D2013C31465046FFF7B9FF43
:100ED000002CF6D1E0E72026F3E7B7FBF6F39D42BE
:100EE000E1D9DFF83C80B7FBF6F3504618F8031061
:100EF00006FB1377FFF7A5FF3346AB42B6FBF5F6CB
:100F0000F1D2BBF1000F02D00CB1A14501D3BDE875
:100F1000F88F20215046013CFFF793FFF4E700BF14
:100F2000892A00002DE9F74F054617468846002913
:100F300000F03E8118F8011B49B92B7B002B00F013
:100F40003781284603B0BDE8F04FFFF761BF252980
:100F500040F0B780002698F800302D2B424608F16B
:100F6000010823D0302B24D02B2B25D000242A2B72
:100F700002F1010123D13B681A1D1B683A601C4431
:100F80000A4613782E2B26D101324FF0000A104664
:100F900010F8011BA1F1300CBCF1090F1DD80A2378
:100FA00003FB0A13A3F1300A0246F0E746F00106FC
:100FB000D1E746F00206CEE746F00406CBE711F88B
:100FC000013CA3F130000928DBD80A2202FB0434DB
:100FD000303C0A46CBE74FF0000A12F8011B01F043
:100FE000FB0068289046F8D0782909D86F290CD8DA
:100FF000632962D022D8252963D0582900F088803F
:1010000098F80030002B95D197E770390829F7D868
:1010100001A353F821F000BF8B1100000110000064
:10102000011000002111000001100000FF1000005D
:10103000011000000110000011110000642901D00E
:101040006929DDD13A68D2F80090111D89EAE97268
:101050003960A2EBE9724FF0010B092A35DCD34568
:1010600038BFD3462CB1B9F1000F01DB720700D5B0
:10107000013CB30702D5BAF1000F03D0F00701D449
:101080004CBB0024B9F1000F2DDAC9F100092D2164
:101090002846FFF7D6FE06F00302022A04D1BAF171
:1010A000000F01D11CBB0024CDE9004653460A22A3
:1010B00049462846FFF7DCFEA2E73B681A1D19786F
:1010C0003A602846FFF7BDFE9AE70A230BF1010BB1
:1010D000B2FBF3F2C1E7A345D4D220212846013C5C
:1010E000FFF7AFFECCE77107D5D52B21D0E7A3459D
:1010F000DAD230212846013CFFF7A3FED2E7396857
:10110000CDE900460A1D3A6053460A220968D0E735
:1011100039680A1D3A60CDE9004653461022F5E7CA
:101120003B681A1D3A6016F00106D3F8009024D1EE
:10113000B9F1000F03D0484601F0ABFB0646B442BC
:101140001DD809F1FF3919F8011F00293FF458AFE4
:101150002846FFF776FEF6E728460136FFF771FED0
:1011600019F806100029F7D1A642BFF449AF202193
:101170002846013CFFF765FEF6E70026F0E7202150
:101180002846013CFFF75DFED9E73B681A1D3A602F
:10119000302128461C68FFF754FE78212846FFF7C7
:1011A00050FE00220823CDE900322146102280E7BC
:1011B00003B0BDE8F08F00BF2DE9F84FB0F806A0EE
:1011C0004579D2F800B09DF828900AFB05F5043D5A
:1011D00088460BEB0301A94203F1040488BFA5EB89
:1011E000030BB4FBFAF607460AFB1644C2F800B03C
:1011F0004EB9AAEB04055D4528BF5D46BBF1000F63
:1012000004D1BDE8F88F3F68013EF1E7043408EBF4
:1012100006003C442A46B9F1000F0DD02146ABEB45
:10122000050B01F00DFBDA452E443F6855464FF0A3
:10123000000428BF5D46E1E701462046EFE7F8B528
:1012400046790146721E0546002393422D6803D35A
:101250000024A64202D8F8BD0133F6E70F682846FD
:10126000FFF7C1FD01343946F3E72DE9F843068A5B
:10127000CD1C0746FFF797FD043E35440446B5FBF9
:10128000F6F5F0B14FF48073EDB28380C680013D76
:10129000076081464FF00008A84512D23846FFF794
:1012A00082FD064648B163790133637108F1010894
:1012B000C9F8000007608146EEE72046FFF7BFFF50
:1012C00034462046BDE8F88301210430FFF74DBDC8
:1012D00010B5012104460430FFF753FDC0B220B918
:1012E0002046BDE81040FFF7AABF10BD1FB503920E
:1012F0000022009203AAFFF75FFF05B05DF804FB30
:101300001FB503920122009203AAFFF755FF05B013
:101310005DF804FB034B187810B901221A7070476E
:10132000852070476C0500201FB503788DF80030CC
:101330004368019383688DF80830C368054A0393B6
:10134000054B684653F8213052F82110984705B0F4
:101350005DF804FB70050020780500201FB50378B8
:101360008DF800304368019383688DF80830C368B6
:10137000054A0393054B684653F8213052F8211073
:10138000984705B05DF804FB700500207805002043
:10139000F0B5194B90F800C0DFF86CE043F82C2052
:1013A000164B16460A6943F82C204B7F0EF80C307A
:1013B0000C4607460FCC89B06D460FC594E80F0068
:1013C00085E80F003B78CDF810C01EF803304BB114
:1013D000002E0B4A694608BF3246381D00F046FE13
:1013E00009B0F0BD002E074A694608BF324607F132
:1013F0000C0000F0FFFBF3E77805002070050020EB
:10140000291300005D130000800500202DE9F84F2E
:10141000134DDFF8508007464FF0000A04264FF0C6
:1014200001095FFA8AFB002009FA0BF4FFF776FC4A
:101430002C420AD0D8F8003014EA030201BF23433B
:10144000C8F8003087F800B016460020FFF768FCA7
:101450001EB1A5430AF1010AE3D13046BDE8F88F79
:10146000FFFF0F008405002010B5A1B19AB1012340
:101470008340C3F3130484B10A4C246823420ED082
:10148000C00000F1804000F5F830C0F81015C0F839
:101490001425002010BD0E20FCE70720FAE70820E5
:1014A000F8E700BF84050020012303FA00F0C0F331
:1014B00013031BB1054B1B68184204D0044BC3F83F
:1014C0000405002070470820704700BF84050020F5
:1014D00000F00140014B1B68184700BF8805002041
:1014E00038B50B4B98420C4601D0002038BD002087
:1014F000FFF714FC074B1D7915B901221C601A7106
:101500000020FFF70DFC002DEFD01120EEE700BF0B
:101510000020004088050020034B984201BF034B88
:1015200000221A601A7170470020004088050020D0
:1015300000F1804000F5E040002382B003600368C2
:101540000193019B02B07047F0B5524B524CD3F857
:10155000043185B0002B3DD094F82E204FF48270DA
:10156000FFF7E6FF2AB394F82F3013BB494AD2F8AD
:101570000031002B32D04FF48070FFF7D9FF638B1E
:1015800094F82D00834250D921891B1A9BB289B24D
:101590006383CB1A616801EB4303C2F82C36C2F8AF
:1015A00030064FF48270FFF7C3FF3A4B01225A60B6
:1015B00014E0636802932389ADF80C30E3680021DE
:1015C0008DF8041033BB2374236801A898470023C7
:1015D00084F82F3094F82E30002BC7D12D4BD3F840
:1015E00010315BB14FF48870FFF7A2FF0023237422
:1015F00002238DF8043001A823689847254BD3F8BF
:101600001431EBB14FF48A70FFF792FF002323747B
:1016100005B0F0BD208B608363602081E160002A0B
:10162000D2D11C4B01221A60CEE7BAD1E368012166
:1016300084F82F1013B100216183AEE76383B0E714
:1016400066694FF000470125002EE1D0B6FA86F218
:1016500027FA02F34632920026EA030602F180439B
:1016600003F5E0431B68002BEED01046A2F58C7208
:10167000FFF75EFFD30882F00402C2F380028DF808
:1016800008308DF8045023688DF8092001A8984788
:10169000DAE700BF007000409005002038B5204A0E
:1016A00092F82C300446002B37D111601D49007888
:1016B000C1F8F0056078C1F8F4050125E0781374ED
:1016C00082F82D30536182F82F306FF0004382F89A
:1016D0002E0082F82C504FF48270C1F80833FFF7C7
:1016E00027FF4FF48070FFF723FF4FF48A70FFF756
:1016F0001FFFA3780C485B01DBB280F8073380231F
:1017000003600223C1F8043392F82E300BB1C1F804
:101710000453C1F80055002038BD0820FCE700BF85
:10172000900500200070004000E100E030B5224B41
:101730001A7C002A3ED100F10C0403EB440212791A
:1017400022B993F82D20013283F82D2003EB4403B6
:10175000CA790C7A8D781A715C714B782D021B0155
:1017600005F4E06503F030032B430D7805F0030525
:101770002B43CD782D0305F480552B430D792D0493
:1017800005F4E0252B434D7989792D0505F4801565
:10179000090601F080712B430B43010101F18041E7
:1017A00001F5E0410020C1F81835C1F81445C1F831
:1017B000102530BD1120FCE790050020054B93F863
:1017C0002E30002B14BF0020042000F1804000F5D3
:1017D000E04070479005002070B5264A264B05462C
:1017E0001220C2F808031C7C022C03D1C2F80403A7
:1017F000112070BD187C01281CD1D86818B10223B3
:10180000C2F80433F4E7DD60198393F82E305BB936
:10181000D2F80031002BFBD04FF48070FFF788FE28
:10182000C2F82C56C2F83016124B0222C3F8042319
:101830000020DEE7022093F82E40C2F804030126C0
:1018400000201E745D601981D8603CB1598393F803
:101850002D30C2F82C56C2F83036CAE7C2F82C56E2
:101860004FF48070C2F83016FFF762FE1660204613
:10187000BFE700BF0070004090050020F7B5067973
:101880002F4D0C237343EF183C7A002C55D1EA50AE
:101890004B687B60477903682246A446D4B2A742CE
:1018A0003CD8CA7843F307345201002CC3F3073302
:1018B000D2B23DDB234F07EB040C8CF8002301224E
:1018C000640903F01F0302FA03F347F824300368A6
:1018D0004A78D3F8040502F0030220F00300024323
:1018E000C3F80425D3F808058A7820F0030002F035
:1018F00003020243C3F80825D3F810050A7820F044
:101900000F0102F00F020A43C3F810250C2303FB5A
:10191000065501232B72002003B0F0BD940004F59E
:10192000A074013243F804C01C590194019CB5E72E
:10193000054C03F00F03E254C9E70820ECE700BFB1
:10194000C005002000E100E014ED00E00368012282
:101950001A600279034B0C2101FB023302221A7236
:10196000704700BFC005002037B54FF480340068D1
:101970008C407BB18B0003F5A0730025C550C35884
:101980000193019BC0F8044301F5A87140F82120A0
:1019900003B030BDC0F80843F6E770B4046840F205
:1019A0000116D4F800528E4025EA0605C4F800520C
:1019B000D4F800522B43C4F800329DF80C3070BCB0
:1019C000FFF7D2BF2DE9F341104C114F114E002506
:1019D0004FF48038236883B1D7F8043308FA05F24E
:1019E0001A420AD00023236023680193A4F5004023
:1019F000019B80B2D6E9003198470135042D04F1EE
:101A00000404E7D102B0BDE8F08100BF408100408E
:101A100000800040C00500200023435082B043589E
:101A20000193019B02B070470A4610B54FF48E71C6
:101A3000FFF7F2FF136A9168C95C136A01331362FE
:101A4000C0F81C1510BD8B690A4610B54FF484719F
:101A500023B9FFF7E1FFD0F8183510BDFFF7DCFF21
:101A6000536AD168D0F81805C854536A01335362D9
:101A7000F3E700001FB501238DF80030044BCDE9DA
:101A80000110D3E900126846904705B05DF804FBE9
:101A9000CC05002030B54D4DD5F804339A0585B0FE
:101AA00051D5D5F82431002B4DD04FF492712846F2
:101AB000FFF7B2FF4FF40173C5F80833444B93F8B6
:101AC00029200AB901226A60404902228DF80020CB
:101AD000D1F88024C1F8802403929A690292DA68CE
:101AE00001920022C3E906226846D3E9001290471A
:101AF0003648D0F81C315BB1354A5169136A9942B6
:101B00004DD992F82830002B49D11146FFF78CFFB0
:101B10002E48D0F84431002B56D04FF4A271FFF775
:101B20007BFF2B4B93F829200AB1012202609A69AE
:101B3000002A49D0586AD96800229A6105B0BDE8E8
:101B40003040FFF797BFD5F804335B07D0D5D5F801
:101B50000831002BCCD01E4C1C482146FFF773FFE8
:101B6000636AA2699A42C3D1E369E1684BB1A36198
:101B70002369E3600023606AE3616362FFF77AFF31
:101B8000B6E794F829300BB901236B600F4B4FF483
:101B90000172C3F808230023606AA361EEE70B48D3
:101BA0004FF48E71FFF738FF5369002BB0D05169A5
:101BB0000291002391688DF80030019153616846CD
:101BC000D2E900139847A3E705B030BD00200040DC
:101BD000CC0500201F2886BF00F01F00044B4FF0EB
:101BE000A04300F5E070022243F82020704700BFB8
:101BF000000300502DE9F843604D90F804802C2339
:101C000003FB0853064693F82A300C469146002BF6
:101C100040F0AF805A490068FFF762FC0746002891
:101C200040F0A9802268531C10D01F2A87BF554955
:101C300002F01F0313464FF0A0410120984003F526
:101C4000E073C1F80805032041F823006168481CCF
:101C50000DD01F298BBF01F01F030B4649484FF0E1
:101C6000A04003F5E0734FF0000C40F823C030684B
:101C7000A369C0F8243594F814C0637DBCF1010F4A
:101C80004CEA0303C0F86C35C0F81415C0F80C25F5
:101C90002BD1A368591C0DD01F2B8BBF03F01F0243
:101CA0001A4638494FF0A04102F5E0724FF0000C9F
:101CB00041F822C0E1684A1C13D01F2987BF314A6E
:101CC00001F01F0C8C464FF0A0424FF0010E0EFAAF
:101CD0000CFE0CF5E07CC2F808E54FF0030E42F86C
:101CE0002CE0C0F80815C0F810352C2202FB08F2D1
:101CF000AB18C3F804902369AB50B9F1000F20D0A2
:101D00004FF48E71247FFFF787FE4FF4A271306885
:101D1000FFF782FE32681C4BC2F80433130B42F308
:101D200007326101002AC9B21EDB1848841884F802
:101D300000130121520903F01F0301FA03F340F8D5
:101D4000223033680422C3F800252C2303FB0853F8
:101D50000022C3E9062283F829205A61012283F870
:101D60002A203846BDE8F883094A03F00F03D1540E
:101D7000E7E70827F5E71127F3E700BFCC050020C8
:101D8000951A0000000300508000020000E100E00E
:101D900014ED00E02DE9F04103680579284C00229C
:101DA000C3F800252C2202FB054201465268A2B16D
:101DB000244AC3F808231A0B43F30733002B0CDB28
:101DC00002F01F005B090122824020331E4840F8C8
:101DD0002320BFF34F8FBFF36F8F0B68D3F80C0531
:101DE000D3F81485D3F80865D3F810754FF0FF3297
:101DF0009042C3F81425C3F80C25C3F80825C3F88E
:101E0000102501D0FFF7E6FEB8F1FF3F02D04046B3
:101E1000FFF7E0FE7A1C02D03846FFF7DBFE731CAA
:101E200002D03046FFF7D6FE0868FFF775FB2C237B
:101E300003FB0544002384F82A306360BDE8F08189
:101E4000CC0500208402020000E100E00279044B8E
:101E50002C2101FB02335869003818BF012070475C
:101E6000CC0500202DE9F84F064690F804808946FD
:101E70009246FFF7EBFF044600283CD1204F2C256B
:101E800008FB057B4FF48E71CBF814A0CBF80890BB
:101E9000CBF820008BF828003068FFF7BDFD3068D4
:101EA000012383605946FFF7BFFDDBF804305D4630
:101EB0001BBB3068DBF814402B6A9C4211D8336896
:101EC000D3F81C21002AFBD00122DA6000202C2349
:101ED00003FB087700237B61BDE8F88F95F8283075
:101EE0003BB9D0F81C31002BF8D05946FFF79CFDC8
:101EF000E2E70F20EBE71120EEE72046ECE700BF1A
:101F0000CC0500200023435082B043580193019B2D
:101F100002B070471FB501238DF80030044BCDE9A6
:101F20000110D3E900126846904705B05DF804FB44
:101F3000F80500207FB5434AD2F82461002E60D016
:101F400010464FF49271FFF7DDFF02238DF8003049
:101F5000D2F88034C2F880340393D2F83C3502932F
:101F6000394BDA6801920022C3E906226846D3E9B8
:101F7000001290473348D0F8443173B14FF4A27146
:101F8000FFF7C0FF304B9A693AB10022C3E906223D
:101F9000D968D0F83C05FFF7BDFF2A48D0F82031BA
:101FA000ABB14FF49071FFF7ADFF0123C360264B37
:101FB0005A6962B1D0F84C150291002299688DF8E7
:101FC000002001915A616846D3E9001290471D48EC
:101FD000D0F858319BB14FF4AC71FFF793FF1A4B17
:101FE0005A6962B1D0F84C150291002299688DF8B7
:101FF000002001915A616846D3E90012904704B06D
:1020000070BDD2F81031002BB4D04FF48871104657
:10201000FFF778FF0C4BD2F83C0599698842A9D1AB
:10202000DC69D96864B1D2F8005225F02005C2F805
:1020300000521A699C61DA60DE61FFF76BFF99E775
:102040009C61FAE700200040F80500201F2886BFA9
:1020500000F01F00044B4FF0A04300F5E070022297
:1020600043F82020704700BF000300502DE9F843DB
:10207000664E90F80480242303FB0863044693F81B
:1020800020300D469146002B40F0BC80604900682E
:10209000FFF726FA0746002840F0B68029684B1C57
:1020A00010D01F2987BF5B4A01F01F030B464FF07A
:1020B000A0420120984003F5E073C2F80805032010
:1020C00042F823006A68501C0DD01F2A8BBF02F013
:1020D0001F0313464F484FF0A04003F5E0734FF045
:1020E000000C40F823C02068AB69C0F8243595F88F
:1020F00014C06B7DBCF1010F4CEA0303C0F86C35D2
:10210000C0F80C15C0F814252BD1AB68591C0DD0A4
:102110001F2B8BBF03F01F021A463E494FF0A04110
:1021200002F5E0724FF0000C41F822C0E9684A1C49
:1021300013D01F2987BF374A01F01F0C8C464FF080
:10214000A0424FF0010E0EFA0CFE0CF5E07CC2F836
:1021500008E54FF0030E42F82CE0C0F80815C0F86F
:102160001035242202FB08F2B318C3F804902B693F
:10217000B350B9F1000F2FD04FF488712A7FFFF7C9
:10218000C1FE20684FF49071FFF7BCFE20684FF449
:102190009271FFF7B7FE20684FF4A271FFF7B2FE0D
:1021A0004FF4AC712068FFF7ADFE23681A49C3F8FD
:1021B0000413190B43F307335201002BD2B21CDB7B
:1021C0001648C51885F8002301225B0901F01F019C
:1021D00002FA01F140F8231023680822C3F8002511
:1021E000242303FB08660023C6E906337361012339
:1021F00086F820303846BDE8F883094B01F00F011E
:102200005A54E9E70827F5E71127F3E7F805002016
:10221000351F0000000300501003420000E100E001
:1022200014ED00E02DE9F0413D4D067904682423CA
:1022300003FB065302465B68ABB13A4BC4F8083364
:1022400044F30733002B4FEA14310CDB01F01F007D
:102250005B09012181402033334840F82310BFF34C
:102260004F8FBFF36F8FD4F8003223F02003C4F8F0
:102270000032242303FB06539B6933B14FF4A27150
:102280002046FFF73FFE012363604FF4AC71204608
:10229000FFF738FE0123E360242303FB0653D4F841
:1022A00058110029FBD0996919B1D4F844110029BB
:1022B000F5D00023C4F800351368D3F80C05D3F823
:1022C0001485D3F80815D3F810754FF0FF329042FB
:1022D000C3F80C25C3F81425C3F80825C3F8102546
:1022E00001D0FFF7B3FEB8F1FF3F02D04046FFF741
:1022F000ADFE7A1C02D03846FFF7A8FE4B1C02D078
:102300000846FFF7A3FE2046FFF706F9242303FB48
:102310000655002385F820306B60BDE8F08100BFD2
:10232000F80500201003420000E100E00279044BB0
:10233000242101FB02335869003818BF012070477F
:10234000F805002001F06043B3F1005F2DE9F0478C
:102350000646884692463BD190F80490FFF7E6FF88
:102360000446002836D11D4F3068242505FB097529
:102370004FF49071C5F814A0C5F80880FFF7C2FDAE
:102380004FF4AC713068FFF7BDFD33686A69A96826
:10239000C3F84415C3F8482501229A606A68DAB97F
:1023A000D3F82021D3F858011AB90028F8D00F200B
:1023B00007E00028FBD10122DA60D3F85821002A77
:1023C000FBD0242303FB097700237B61BDE8F08762
:1023D0001020FBE71120F9E72046F7E7F805002079
:1023E000704700002DE9F0410378054613BB4068B3
:1023F0000521FFF7F1F908B1FEF73AFC0E480F4C42
:102400000F4F10493A68DFF84080241AE40824048A
:1024100044F003042046FEF7E9FA00266B684146C3
:102420009A5F20460236FEF7E1FA0A2EF6D13B68A3
:1024300001333B60BDE8F081F4280000242900004E
:102440001C060020C12A0000D32A00001FB5FEF799
:1024500061FF08B1FEF70CFC174A18480023CDE9CC
:10246000022302A9164AFFF709FA08B1FEF700FC99
:10247000144B1548D3F810250021D2B220FA02F2ED
:10248000009101230D48FFF788FA0C48FFF75EFA28
:10249000FFF794F904460D48FEF7B8FF08B1FEF7C0
:1024A000E7FB0A4B0A4918782246FEF7DDFF08B120
:1024B000FEF7DEFB04B010BD00000306E42A0000B6
:1024C000E12300000080004000A8610034060020E5
:1024D0004081004008B5054B1878FEF7E5FF18B1BC
:1024E000BDE80840FEF7C4BB08BD00BF34060020AD
:1024F0001FB5134A10685168127A01AB03C3114922
:1025000011481A70FFF7CAF808B1FEF7B1FB01A92C
:102510000020FFF70BF908B1FEF7AAFB0B480521D5
:10252000FFF75AF908B1FEF7A3FB09480521FFF7A9
:1025300053F908B1FEF79CFB05B05DF804FB00BF42
:10254000D62A0000E5230000DF2A00002006002034
:102550002A06002008B5FFF7CBFFFFF777FFFFF74C
:10256000B9FFFEE74FF08053D3F83001A0F1080324
:1025700058425841704700004FF08053D3F8302143
:10258000082A06D1D3F83431052B02D8024AD05C90
:1025900070470020704700BFF22A0000024AD2F8BC
:1025A0000034002BFBD0704700E0014010B5FFF76E
:1025B000D9FF40B14FF080430022C3F80C21C3F88B
:1025C0001021C3F83825FFF7CDFF002846D04FF083
:1025D0008052654BD2F80414C3F82015D2F80814C1
:1025E000C3F82415D2F80C14C3F82815D2F8101427
:1025F000C3F82C15D2F81414C3F83015D2F81814F7
:10260000C3F83415D2F81C14C3F84015D2F82014BE
:10261000C3F84415D2F82414C3F84815D2F8281486
:10262000C3F84C15D2F82C14C3F85015D2F8301456
:10263000C3F85415D2F83414C3F86015D2F838141E
:10264000C3F86415D2F83C14C3F86815D2F84014E6
:10265000C3F86C15D2F84424C3F87025FFF78CFF3B
:1026600018B1424B424AC3F88C26FFF785FF18B1D8
:10267000404BFB22C3F81825FFF77EFF70B14FF0E7
:1026800080414FF08053D1F8E42ED3F8583222F035
:102690000F0203F00F031343C1F8E43EFFF76CFF92
:1026A00020B1354B4FF40072C3F84026FFF75AFFB4
:1026B00048B14FF08043D3F80024D20744BF6FF0F5
:1026C0000102C3F800242D4AD2F8883043F4700385
:1026D000C2F88830BFF34F8FBFF36F8F4FF0805336
:1026E000D3F83021082A0ED1D3F83431052B02D883
:1026F000234AD35C3BB14FF01023D3F808224FF0AC
:102700008043C3F858254FF01023D3F80022002A45
:1027100003DBD3F80432002B22DA1A4901234FF0ED
:102720001020C1F804351224FFF738FFC0F800422A
:10273000FFF734FFC0F80442FFF730FF0023C1F871
:102740000435FFF72BFFBFF34F8F0C490E4BCA68C0
:1027500002F4E0621343CB60BFF34F8F00BFFDE78D
:102760000A4B0B4A1A6010BD00C0004000500040E8
:102770004881030000F000400090024000ED00E0BE
:10278000EC2A000000E001400400FA051C000020D3
:102790000090D0037F2805D8034A044B105C5B5C93
:1027A0001840704700207047042B0000842B000065
:1027B000A0F16103192B98BF20387047A0F14103A5
:1027C000192B98BF203070477F299ABF01700120D4
:1027D0006FF02E00704700BF5AB10A787F2A0AD8DE
:1027E00000B102600021501AC3E9001118BF012096
:1027F0007047104670476FF02E007047A0F16103DC
:10280000192B98BF20387047A0F14103192B98BFAE
:10281000203070477F2805D8034A044B105C5B5C6E
:102820001840704700207047042B0000842B0000E4
:10283000024B5B689B6809211B6818472000002039
:10284000844640EA010313F0030F18D18446202A7E
:102850000BD32DE9F007B1E8F807A0E8F807A2F1DB
:102860002002202AF7D2BDE8F007042A07D351F846
:10287000043B40F8043BA2F10402042AF7D2002AE8
:1028800005D011F8013B00F8013B013AF9D160464F
:10289000704700F1010110F0030F11D010F8012B67
:1028A000002A23D010F0030F0AD010F8012B002AC1
:1028B0001CD010F0030F03D010F8012B002A15D004
:1028C0002DE970004FF001324FF0803350F8044B87
:1028D000A4EB020525EA04051D4000D1F6E7A0F1AE
:1028E000040070BC10F8012B002AFBD1A0EB010002
:0428F000704700002D
:1028F400A22A000000000000A62A00000000000038
:10290400AA2A000000000000B02A00000000000015
:10291400B62A000000000000BB2A000000000000EE
:10292400A629000000000303992A0000000000000B
:102934007829000000000000842900001400002011
:102944007800002040010020480100208000002081
:042954001800000067
:10295800FFFFFFFFFFFFFFFFFFFFFFFFFFFFFFFF7F
:1029680000000000000000000000D6010601000081
:10297800F104000055050000A1040000756172749F
:102988005F6C6F675F6261636B656E640042616371
:102998006B656E647320666C75736865640061703E
:1029A80070001B5B313B33316D0025734C6F6773CF
:1029B8002064726F70706564202825642925730D62
:1029C8000A001B5B306D002573003C25733E2025F3
:1029D800733A2000202530327800202020007C0027
:1029E8002563001B5B313B33306D001B5B313B3390
:1029F800326D001B5B313B33336D001B5B313B3366
:102A0800346D001B5B313B33356D001B5B313B3351
:102A1800366D001B5B313B33376D007761726E6931
:102A28006E6700696E666F00646562756700000016
:102A3800CA290000EB290000AA290000F329000098
:102A4800FB290000032A00000B2A0000132A0000BB
:102A58001B2A000000000000762A0000232A00003C
:102A68002B2A0000302A0000466174616C206572D0
:102A7800726F720053797374656D20726573657433
:102A880000303132333435363738394142434445E2
:102A9800467077725F6D676D7400505049005052F0
:102AA800530053414144430054494D455200554158
:102AB80052540055415254450041444320657665BF
:102AC8006E74206E756D6265723A20256400000090
:102AD8000000020000010001000600000080004024
:102AE80000040000000000000101010000000000D7
:102AF80043000000504F5349580000002020202078
:102B08002020202020682828282820202020202055
:102B180020202020202020202020202048101010B5
:102B280010101010101010101010101084848484CD
:102B38008484848484841010101010101081818182
:102B480081818101010101010101010101010101ED
:102B58000101010101010110101010101082828280
:102B680082828202020202020202020202020202BD
:102B780002020202020202101010102000070320B5
:102B8800041702010857104080000000F82A0000CE
:102B9800FC2B0000102D000053756E004D6F6E0069
:102BA800547565005765640054687500467269007D
:102BB80053617400000000004A616E0046656200BF
:102BC8004D617200417072004D6179004A756E0066
:102BD8004A756C0041756700536570004F63740057
:102BE8004E6F76004465630000000000414D0050C0
:102BF8004D000000342D0000302D0000302D000065
:102C0800302D0000302D0000302D0000302D000048
:102C1800302D0000302D0000302D0000FFFFFFFF99
:102C2800FFFFFFFFFFFFFFFFFFFF0000702C00000A
:102C3800A02B0000AC2C0000C02B0000F42B0000DF
:102C4800542C0000042D0000602C0000256D2F2559
:102C5800642F257900000000256120256220256564
:102C6800202554202559000053756E646179004D64
:102C78006F6E646179005475657364617900576596
:102C8800646E657364617900546875727364617900
:102C98000046726964617900536174757264617980
:102CA800000000004A616E756172790046656272C3
:102CB80075617279004D6172636800417072696C68
:102CC800004D6179004A756E65004A756C7900415E
:102CD80075677573740053657074656D626572000D
:102CE8004F63746F626572004E6F76656D626572D0
:102CF80000446563656D62657200000025483A25E9
:102D08004D3A25530000000095270000B127000028
:102D1800BD27000015280000FD2700000928000035
:102D2800C9270000D9270000000000002E0000007D
:102D380000000000002000400000000000200040CB
:102D48000000000000000000FF0000000090D00319
:102D5800942B0000942B0000942B0000942B00006F
:042D6800942B0000A8
:040000030000037581
:00000001FF
