:1000000000000120750300005D0300005F03000095
:1000100061030000630300006503000000000000AE
:100020000000000000000000000000006703000066
:1000300069030000000000006B0300006D03000076
:10004000191100006F0300006F0300006F03000030
:100050006F0300006F030000D11300006F03000066
:100060006F0300006F0300006F0300006F030000C8
:100070006F0300006F0300006F0300006F030000B8
:100080001D150000350E00006F0300006F03000017
:100090006F0300006F0300006F0300006F03000098
:1000A0006F0300006F0300006F0300006F03000088
:1000B0006F0300006F03000000000000000000005C
:1000C0006F0300006F0300006F0300006F03000068
:1000D0006F0300006F0300006F03000000000000CA
:1000E0000000000000000000000000000000000010
:1000F0000000000000000000000000000000000000
:1001000000000000000000000000000000000000EF
:1001100000000000000000000000000000000000DF
:1001200000000000000000000000000000000000CF
:1001300000000000000000000000000000000000BF
:1001400000000000000000000000000000000000AF
:10015000000000000000000000000000000000009F
:10016000000000000000000000000000000000008F
:10017000000000000000000000000000000000007F
:10018000000000000000000000000000000000006F
:10019000000000000000000000000000000000005F
:1001A000000000000000000000000000000000004F
:1001B000000000000000000000000000000000003F
:1001C000000000000000000000000000000000002F
:1001D000000000000000000000000000000000001F
:1001E000000000000000000000000000000000000F
:1001F00000000000000000000000000000000000FF
:10020000354936480A1A02D0072291438D463449AF
:1002100034480A1A06D00722914381F30988022242
:1002200082F3148830483149314A00F044F83148AB
:100230003149324A00F03FF831483249324A00F041
:100240003AF832483249334A00F035F832483349F7
:10025000334A00F030F833483349344A00F02BF881
:1002600033483449344A00F026F8344834490022EF
:1002700000F02CF833483449002200F027F83348C6
:100280003349091A082902DB002202604160314A21
:1002900090471F481F49884205D00268043003B4C4
:1002A000904703BCF7E700208646EC46002000217B
:1002B000294A9047FEE7884207D0521A05D00378B2
:1002C00001300B700131013AF9D17047884202D0F8
:1002D00002700130FAE770470000012000E00020C2
:1002E0000000012000000120FC1E00000000002092
:1002F0008C000020D0030000D0030000881E000006
:10030000FC1E00000000002000000020881E0000ED
:10031000881E0000881E0000881E0000881E000045
:10032000881E0000881E0000881E0000FC1E0000C1
:10033000881F00008C0000208C0000208C00002012
:10034000EE010020F0010020F0010020F00100206B
:10035000F02100209D030000C9190000FEE7FEE720
:10036000FEE7FEE7FEE7FEE7FEE7FEE7FEE7FEE765
:1003700000F002B8FFF7FCBF0F484FF007018843B9
:1003800085460E4880470E48016841F470010160BF
:10039000BFF34F8FBFF36F8FFFF732BF09480A4992
:1003A0000A4A884207D0521A05D0037801300B70F0
:1003B0000131013AF9D1704700000120BD1A000057
:1003C00088ED00E0881E00000000002000000020F2
:1003D000054A4FF0A043105CD3F8043523FA00F02F
:1003E000C04300F001007047881E0000044B1A5CF7
:1003F000012393404FF0A042C2F80C35704700BF74
:10040000881E0000044B1A5C012393404FF0A04269
:10041000C2F80835704700BF881E000008B50020EC
:10042000FFF7F0FF0120FFF7EDFF0220FFF7EAFFE3
:10043000BDE808400320FFF7E5BF08B50020FFF73F
:10044000D5FF0120FFF7D2FF0220FFF7CFFFBDE865
:1004500008400320FFF7CABF074A4FF0A041105CD5
:10046000D1F804350122824022EA03001340C1F88A
:100470000805C1F80C357047881E00000D2809D00A
:100480000E2809D00F2809D010280CBF03204FF0E8
:10049000FF307047002070470120704702207047EE
:1004A000C20708B501460CD54FF0A0430322C3F89C
:1004B0004427C3F84827C3F84C27C3F85027FFF751
:1004C000ADFF8B070AD54FF0A0430C22C3F83427A9
:1004D000C3F83827C3F83C27C3F8402708BD0000FD
:1004E000C30710B507D4F023054A4008145C234025
:1004F0001943115410BD0901C9B20F23F4E700BF1D
:10050000A000002030B5094B1C78094B1968002366
:100510009C4202DC0022104630BD11F83350854267
:1005200001EBC302F7D00133F2E700BF8C000020DB
:10053000B000002013B504460191FFF7E3FF38B186
:1005400043682BB10199204602B0BDE8104018471E
:1005500002B010BD034B044819680022490800F09E
:1005600009BA00BF900000200000002010B5C0B202
:10057000FFF7C8FF0446007800F020FF63785A1E9A
:1005800053425341834208D1044BD3E90023134320
:1005900003D1BDE81040FFF7DDBF10BD980000207B
:1005A00038B5334A43080446D35CC2074CBF1B0925
:1005B00003F00F030D46042B59D8DFE803F00322A4
:1005C0002A363900002952D00121FFF789FF002087
:1005D00000F010FB0120A4F12003C4F12001254A02
:1005E00020FA01F100FA03F30B43A040D2E90041E5
:1005F00020430B43C2E90003BDE83840002000F06F
:10060000FBBA002918BF02212046BDE83840FFF799
:1006100067BF41B10321FFF763FF20460121BDE819
:100620003840FFF787BF0121EEE701BB0421EBE76C
:1006300009B10321E8E7FFF753FF29462046FFF7FA
:1006400079FF284600F0D6FA0120A4F12003C4F176
:100650002001084A20FA01F100FA03F30B43A040FD
:10066000D2E9004124EA000021EA0303C2E738BDD1
:10067000A0000020980000202DE9F041124E134FF9
:1006800000243378A34208DC114BD3E90023134341
:1006900018D0BDE8F041FFF75DBF3D6805EBC40829
:1006A00015F8340000F08AFE98F801305A1E5342C3
:1006B0005341181A4142414115F83400FFF770FFC9
:1006C0000134DEE7BDE8F0818C000020B00000209E
:1006D00098000020092AF7B505460C4616463ED973
:1006E00000F0A4FDE8B11F4B1F481D601F4B204FB9
:1006F0001C70204B002110221E6001F092FB1E4B4B
:1007000000200021C3E90001013CE4B20326FF2CD4
:100710000DD11A4A1A48002103B0BDE8F04000F09C
:1007200017B900F04BFD0028DDD003B0F0BD9DF8F7
:10073000063015F834008DF8046005EBC40223F090
:1007400007038DF8063001A993788DF805303A46F5
:1007500000F076FD013CE4B20028D8D0E5E70720A0
:10076000E3E700BFB0000020A00000208C000020C4
:100770006D05000090000020980000207906000020
:100780008C1E000070B5084D084E00242B789C424A
:1007900001D3002070BD3368012113F8340000F04C
:1007A000C7FD0134F2E700BF8C000020B00000203C
:1007B0001FB50021039001AA44F20100CDE9011107
:1007C00001F0FEF805B05DF804FB10B5D0E9024376
:1007D000D1E90202A04272EB03032CBF01200020EA
:1007E00010BD000008B50A4800F00DFB094AD2E927
:1007F0000031C018084BD3E9002341F100019042B9
:1008000071EB030303D210F1807041F1000108BDC8
:1008100020000020B80000203001002037B5054638
:100820000C460A4801A900F022FB60B10570446043
:1008300001A9064800F045FB18B1054800F0E8FAA8
:10084000002003B030BD0420FBE700BF1C010020E6
:1008500020000020234B70B51E78044616B90026F0
:10086000304670BD0028FAD0FFF7BCFFD4E9022360
:10087000904299412FD3002000F0BCF923692BB995
:100880004FF0FF324FF0FF33C4E90223002000F0A5
:10089000B3F9D4E905309847002000F0ABF9256999
:1008A0006DB1D4E90212B2F1FF3F08BFB1F1FF3FD1
:1008B0000FD0691842F10002C4E902123546002047
:1008C00000F09AF9002DCAD00748214600F044FBF9
:1008D000C6E70025F3E7B3F1FF3F08BFB2F1FF3FE2
:1008E000BDD0F1E7C0000020941E000013B5114BED
:1008F00011491868019008231048582200F0A4FA02
:10090000044698B90E4A0F4801A900F085F904463B
:1009100060B90C48012100F059FA01230A4A09483C
:10092000194600F0BBF9094B01221A70204602B0AB
:1009300010BD00BF901E0000C40000201C0100205C
:10094000190A000020000020FFFF7F00C0000020E7
:1009500030B56AB103684FF0FF344FF0FF355A618C
:100960004A1E5142C3E9024551411961002030BD80
:100970000720FCE7F8B50446002017460D4600F0B6
:1009800039F9D4E90223B3F1FF3F08BFB2F1FF3FC9
:1009900015D1FFF727FF281841F10001C4E9020132
:1009A0000126002000F028F95EB12369A76103B198
:1009B000256121460020BDE8F840FFF72FBF002643
:1009C000EFE73046F8BD38B50446002000F012F9D4
:1009D000D4E90223B3F1FF3F08BFB2F1FF3F1FBFCD
:1009E0004FF0FF324FF0FF33C4E90223012508BF67
:1009F0000025002000F000F92DB121460120BDE8BE
:100A00003840FFF70BBF284638BD0000014800F012
:100A1000FAB900BF200000202DE9F743064600F098
:100A2000DDF940B1624AD2E9003113F1807341F13E
:100A30000001C2E900310021304600F0DEF938B192
:100A40005C4C236823B12068FFF704FF0023236078
:100A50000121304600F0D1F920B1FFF7C3FE564B1B
:100A6000C3E900015548534C01A900F03AFA4FF090
:100A7000FF384FF0FF39A0B9DFF844814D4D4046B3
:100A800000F080FA002800F08580D0E90223B3F15D
:100A9000FF3F08BFB2F1FF3F32D1404600F06CFA91
:100AA000EDE70378012B20D0022B08D1444D2846D6
:100AB00000F062FA002877D0C0E90289F7E75BB955
:100AC0004168D1E90223B3F1FF3F08BFB2F1FF3F14
:100AD00002D03B4800F040FA01A9384800F02CFA57
:100AE00001A9364800F0FDF9C5E74168236899423D
:100AF00002D100232360EFE7314800F046FAEBE72C
:100B0000296891B12968D1E9020182428B412FD233
:100B10002B68D3E90223B3F1FF3F08BFB2F1FF3FD7
:100B200003D02968404600F017FA404600F024FA46
:100B3000D0E902490746FFF755FE201A69EB010983
:100B4000012879F1000318DBB0F5350F13D3FFF757
:100B50005DFF1C4A02441C484FF49603002100F03C
:100B6000BDF890B92B6813B9304600F08FF82F60AC
:100B700003B0BDE8F0832246EDE71348002100F002
:100B800032F93846FFF766FE01E00D28F9D0002360
:100B90002B6074E7074B1B68002BE9D1304603B08C
:100BA000BDE8F04300F076B8084B01221A7093E7D5
:100BB000B800002038010020300100201C01002076
:100BC000941E0000FFFFB40020000020C0000020A1
:100BD00072B6024A13680133136070473C0100206B
:100BE000034A1368013B136003B962B6704700BF44
:100BF0003C010020FFF7ECBFFFF7F2BF435882B083
:100C00003BB10023435043580193019B012002B0A4
:100C100070471846FBE7000070B5184C4379184D33
:100C200044F8232005EBC3031B792BBB03680A8818
:100C3000C3F8082590F904408B7802795B01002CF9
:100C4000DBB214DB0F490E1986F800330123640967
:100C500002F01F0203FA02F241F82420437905EB67
:100C6000C302012145F833001171002070BD06490F
:100C700002F00F028B54F1E70820F7E7480100204B
:100C80004001002000E100E014ED00E003680122D3
:100C90001A607047036801225A60704773B501F10A
:100CA0005005AD000068ADB24FF480348C40002692
:100CB000C0F80843C0F84843465101F5A8714559AA
:100CC000019522F07F42019D40F82120C0F8444365
:100CD0000BB1C0F8044302B070BD00002DE9F74F1E
:100CE0000D4622F07F4402684FF4803705F150062C
:100CF0008F408046B60002EB8500C2F84873B6B25A
:100D0000C2F80873D2F8041599464FF0000BD0F8DA
:100D10004035C0F8401542F806B05B1A925900926F
:100D200023F07F43012B009A4FEA850A0CD1264B12
:100D30004FF4806043F001039847D8F8003043F83F
:100D400006B09B590193019BD8F80010D1F80465B7
:100D5000C1F84473A31B23F07F43012B1CD11A4B12
:100D600005F5A875013443F0010341F825404FF41F
:100D700080609847D8F80030D3F804359E4209D1F6
:100D8000D8F800300020C3F84473C3F8047303B0EC
:100D9000BDE8F08F0D20FAE78A44C9F1FF13CAF8C5
:100DA0004045D1F80405221A013A22F07F4203F5AA
:100DB0007F439342EED3002AE2D10134CAF8404582
:100DC000D1F804359842DAE7A01E00000368022239
:100DD000C3F8442309B1C3F80423704700684FF4F3
:100DE0008271FFF70BBF4FF4803303FA01F1036800
:100DF000C3F84813C3F808137047503189000068DE
:100E000089B2FFF7FBBE0368D3F804057047000002
:100E100090F90430002B09DB5A09012103F01F036C
:100E200001FA03F34032024941F82230704700BF13
:100E300000E100E0024B034A1B681068184700BF3E
:100E4000480100204001002010B561B1B2FBF3F46D
:100E500003FB1424A4B244B9C0E900148460828165
:100E6000C381204610BD0E20FCE70920FAE737B504
:100E700050E8013F9DB2C48925448489A54228BF1A
:100E80002D1B0489A54202BFBFF32F8F002207E06C
:100E9000C5EA030540E80154002CE9D14FF00102F6
:100EA0008DF803200193019A0A609DF8031001F068
:100EB000FF0321B1006810FA82F003B030BD18467C
:100EC000FBE70A884B889A4209D150E8012FC2EA11
:100ED000024240E80123002BF7D101207047002097
:100EE000704737B550E8023F1FFAA3F5C488A54202
:100EF00002BFBFF32F8F00220DE0C48925448489EF
:100F0000A54228BF2D1BC3EA054540E80254002C2A
:100F1000E8D14FF001028DF803200193019A0A6095
:100F20009DF8031001F0FF0321B1006800EB1240AF
:100F300003B030BD1846FBE70A884B889A4209D1B6
:100F400050E8022FC2EA224240E80223002BF7D1E8
:100F5000012070470020704770B5446806460D4672
:100F6000206818B1B3682946984718B923682B60E0
:100F7000256070BD2468F3E74368186808B102680B
:100F80001A6070474368186870474368186800B96A
:100F90007047884203D102681A60012070470346F7
:100FA0000068F4E738B5074C051E04F1080318BFC4
:100FB0001C4623682BB11A6822605B682846984754
:100FC000F7E738BD5401002020B9054B01225A70C3
:100FD000FFF7E8BF012802D1014A9070F8E7704797
:100FE0004C01002038B50C4C23789BB90B4863604A
:100FF000A3602361E36000F049F8054600F052F871
:1010000001232370064BD3F800340BB10123A370E6
:10101000284638BD8525F5E74C010020C90F0000A2
:101020000000014038B5134CA378054603F0FF00DB
:1010300073B115B16B68012098470020FFF7DAFD06
:10104000E3680133E3600020BDE83840FFF7D4BD1A
:10105000FFF7D0FD25B1226913463BB92A6025610F
:10106000E368002BECD100F02FF8E9E79D42F7D0C0
:101070001B68F2E74C01002000F18040002382B0A1
:10108000036003680193019B02B07047044A13791F
:1010900023B9012110609180184670478520704760
:1010A00060010020074B1A68D20704D4C02283F8DD
:1010B000002301221A604FF080430122C3F8182553
:1010C000704700BF00E100E038B54FF48270FFF7D1
:1010D000D3FF4FF080430222C3F804230C4AD2F816
:1010E000FC0040F08073C2F8FC300A4B1C6844F0EE
:1010F000010119605D685968491BB1F50A5FFAD3AF
:101100001C604FF08043C2F8FC0001229A6038BD99
:1011100000ED00E0001000E04FF0804110B5D1F884
:10112000003163B14FF48070FFF7A6FF0D4B587983
:101130000122C1F8082310B95A711B6898474FF073
:101140008042D2F8043163B14FF48270FFF794FF0C
:101150000223C2F80833034BBDE810401B6801208E
:10116000184710BD6001002000F1804000F5C0402C
:10117000002382B0036003680193019B02B07047B3
:10118000800000F1A040D0F8002722F44032C0F8DF
:101190000027D0F8003743EA0141C0F80017704734
:1011A000054B4FF0FF32072843F8202084BFC018BA
:1011B00080F84820704700BF6801002010B518492A
:1011C00091F8583053BB4FF0FF3222FA03F0C007BA
:1011D00048BFC81803F1010348BF80F83020202B16
:1011E000F3D10024E0B20134FFF7DAFF0C2CF9D17F
:1011F0000C4B0022C0204A6583F80603402018608B
:101200004FF4BE70FFF7B0FF074B4FF00040C3F83C
:101210000403012381F85830104610BD0820FCE774
:101220006801002000E100E000600040034B93F8FB
:101230005800003818BF0120704700BF6801002027
:10124000F0B5394E331893F93030002B69DA8D78C8
:10125000C5F34005002D0BBF082300230C240824F0
:10126000A34201D10420F0BD56F82370013743D1C9
:1012700037185CB246F8232087F8304015B9F218C9
:1012800082F848008A78550716D4D70736D58200E9
:1012900002F1A042D2F8005725F00205C2F800572B
:1012A000224FC50800F0070C012202FA0CF217F8D1
:1012B00005C042EA0C027A558A780D7812F00202D3
:1012C00025D09B0003F1804303F5C0430002D3F80F
:1012D000102522F4473222F44072C3F810252D0461
:1012E000D3F8102500F4F85005F440352843104396
:1012F000C3F810050020B6E70133B1E74D7800F5DB
:10130000E0724FF0A047AD0047F82250C8E7083C14
:1013100046FA84F494F8500040EA851584F8505059
:10132000E8E708209FE700BF68010020BC0100201B
:1013300038B5204C251895F93020072A18DD083AD1
:1013400044FA82F494F850309B09032B0BD14FF0F0
:10135000A043D3F81015C14001F001010231BDE8EE
:101360003840FFF70DBF012B0CBF02210321F6E728
:10137000D3B2072B1DD8930003F1804303F5C0437C
:10138000D3F8100540F00100C3F8100502F1400049
:1013900040B2800080B2FFF7E7FE51B195F93030DE
:1013A00054F823302BB1012303FA02F2024BC3F8A5
:1013B000042338BD68010020006000404FF0A043C6
:1013C000D3F8103523FA00F000F001007047000058
:1013D0002DE9F74F00244E4D01944FF48072012106
:1013E00002F1804303F5C04390B21B68012B06D184
:1013F000D5F804330B4202D0FFF7B6FE0C4304329B
:10140000B2F5907F4FEA4101EAD1414BD3F87C31EC
:10141000012B0CD14FF4BE70FFF7A6FE4FF0A04396
:1014200044F00044D3F820250192C3F82025E3B20C
:10143000D3B1384F01260025344210D0AB0003F160
:10144000804303F5C043D3F81005D3F8101557F8BF
:10145000253023B1C1F30141C0F304209847013581
:10146000082D4FEA4606E7D1002C48DA294D4FF007
:10147000A048294E4FF00009012716F9013B5A1CDC
:1014800031D0C3F3C20208326A44DCB212F8042C31
:1014900003F03F0A03F0070307FA03F31A4222D0CE
:1014A0000AF5E073504658F82330C3F3014BBBF103
:1014B000020F0CBF03210221FFF762FE07FA0AF3B5
:1014C000C8F8203505EB0A0393F9303055F823307E
:1014D0004BB1A109032904D0BBF1020F12D101299C
:1014E00001D15046984709F10109B9F1040FC4D15F
:1014F000D8F820350193C8F82035002BB9D103B0B6
:10150000BDE8F08FBBF1030FEDD10229E8E700BF82
:101510000060004068010020B801002013B5084CAD
:10152000D4F800314BB1074B1B6898470023C4F82F
:101530000031D4F800310193019B02B010BD00BF0F
:1015400000000140C801002070B5114B1960114B1B
:101550001C780546D4B9104E01221A700378C6F8DB
:101560000C3541684FF47A720023C803490C00F02F
:10157000F1FBC6F804052B7A084A5B01DBB282F85E
:1015800010334FF480331360204670BD0820FCE711
:10159000C8010020C50100200000014000E100E07A
:1015A000044B0122C3F804231A60034B02221A7071
:1015B000704700BF00000140C501002010B504467F
:1015C0000020FFF717FB0B4B1A78072A10D8511C85
:1015D000197009492270D1F808050123934003438B
:1015E000C1F8083500240020FFF706FB204610BD97
:1015F0000424F8E7C401002000000140034B044A22
:1016000000F5C07043F82020704700BF0000014083
:101610003546526E0220FEF71FBF00002DE9F0474D
:1016200080460D46FEF72AFF0328044610D8012DF8
:1016300010D0022D30D05DB91A48FFF7C4F91A4B0B
:1016400004EB440213449D78184B1B5DAB4219D048
:10165000BDE8F087144E00EB4003F218F55C5378B8
:10166000470053B1DFF84C900E484A464FF4804192
:10167000FFF780F908B989F8008027443E440B4BF6
:10168000B2781A55002DE3D0094B1B68002BDFD030
:101690002846BDE8F047184700EB400402480444E0
:1016A0006578EFE748000020CE010020E901002026
:1016B000E4010020CC01002000780221FFF7AEBF3A
:1016C00008B5094B1B7853B10020FEF79BFE0120A3
:1016D000FEF798FEBDE808400320FEF793BEBDE884
:1016E0000840FEF79BBE00BFCD010020F8B57A4C44
:1016F000237805461BB100232370FFF7E1FF172D68
:1017000000F28780DFE805F00C1717425364757FFD
:10171000878C878C949999999999C3C8D0D8E3E319
:10172000FFF7CEFF6D48FFF74EF96D4B00220446E0
:101730001A702046F8BD0020FEF74AFEF0B10020E6
:10174000FEF760FE022D0CBF4FF4E1644FF47A64A3
:10175000634B1D7000254FF400464FF47A70294604
:101760004FF4FA620023E4FB060100F0F3FA2A4684
:101770000146BDE8F8405948FFF7FCB8FEF736FED1
:10178000022D0CBFC8244FF4C874E1E70020FEF717
:101790001FFE40B10020FEF735FE4FF44874504B59
:1017A00003221A70D6E7FEF721FEC824F7E70020CF
:1017B000FEF70EFE38B10020FEF724FE4FF47A64E7
:1017C000474B0422EDE7FEF711FE4FF4C874F7E72C
:1017D0000020FEF7FDFD48B10020FEF713FE404B50
:1017E00005221A7040F6CD410022C2E7FEF7FEFD49
:1017F000F5E70020FEF730FE394B06221A70002272
:1018000040F26661B5E70020FEF7F0FD344B072299
:101810001A7000248DE701202070FEF71DFEEEE710
:1018200001202070FEF718FE00224FF40051A0E7BF
:10183000FEF703FE2A4B0C22EAE72A482A4EFFF75E
:10184000C2F8D5F1110504461CD0D8B9012D13D02A
:10185000C820454321464FF400474FF47A704FF4B7
:10186000FA620023C5FB070100F074FA2246014624
:101870001C48FFF77FF804460220FEF7B7FD01235E
:10188000337056E70220FEF7BDFD0023F8E7FFF7AF
:1018900017FF134B1222BBE7FFF712FF0020FEF7E2
:1018A000A5FD0F4B1322B3E7FFF70AFF0120FEF758
:1018B0009DFD0B4B1422ABE7FFF702FF0020FEF764
:1018C00095FD0120FEF792FD054B1522A0E7FEF7DE
:1018D000B4FD034B1D709CE7E00100206800002070
:1018E000E801002028000020CD010020044B1B68E7
:1018F000DB0703D5034B1878FFF7F8BE704700BF2E
:10190000DC010020E801002038B51C4B18601C4B9E
:1019100010F00204054619601AD01A4B1A480E221C
:101920001A700F22DA7010229A7111225A72042151
:1019300040F23332FEF7CEFE044648B9FEF722FFEE
:10194000044628B90146114A1148FFF701F8044638
:10195000EB0711D50120FEF7A3FD6CB921460D4A16
:101960000D48FEF7F5FF044630B9BDE838400B4A94
:101970000B480121FEF7ECBF204638BDDC010020FA
:10198000E4010020CE010020A81E0000B9160000CE
:10199000CC1E0000ED180000D01E0000151600003F
:1019A000C81E0000FEF7EEBEFEF738BD0E2803D1BC
:1019B000024B1878FFF722BE704700BFED010020F0
:1019C00008B5FEF72BFDFEE77FB5FFF70BFB08B16F
:1019D000FEF7EEFE0020FFF725FBFEF787FF08B1BC
:1019E000FEF7E6FE1B490220FFF78EFF08B1FEF767
:1019F000DFFE0120FEF754FD174A07CA01AB83E85A
:101A0000070016491846FFF79FFD08B1FEF7D0FE04
:101A10001348FFF7D3FD08B1FEF7CAFE114DFFF7DB
:101A2000BFFD002445F00105C8264FF47A40A847C1
:101A3000013EFAD120460134FEF7D8FC042CF3D144
:101A4000FFF7B0FF08B1FEF7B3FE40BF20BF20BFD5
:101A5000FBE700BFAD190000D41E0000A91900006B
:101A6000ED010020E01E00004FF08053D3F830015C
:101A7000421C04BF4FF0704393F8E00F831F58429D
:101A8000584170474FF0704393F8E02F062A09D170
:101A9000D3F8E83FC3F30313033B042B02D8024AF5
:101AA000D05C704700207047F51E0000024AD2F853
:101AB0000034002BFBD0704700E0014010B5FFF769
:101AC000D3FF40B14FF08053944AD3F82433C3F38B
:101AD0000423C2F84035FFF7D5FF10B1904B914A6F
:101AE0005A67FFF7C1FF48B14FF080534FF0804273
:101AF000D3F84432C3F34233C2F83C35FFF7C2FF98
:101B000030B1894AD2F8FC3023F08073C2F8FC303F
:101B1000FFF7AAFF40B14FF080430022C3F80C2129
:101B2000C3F81021C3F83825FFF7ACFF20B14FF000
:101B300080430322C3F8A025FFF7A4FF60B17B4BCD
:101B40000522C3F810260122C3F888260022C3F814
:101B500018263F22C3F814264FF08053D3F83021C3
:101B6000511C09BF4FF07043D3F8343193F8E02F84
:101B7000D3F8E83F08BFC3F30313062A4DD1033B54
:101B8000042B03D86A4AD35C002B46D04FF0805216
:101B9000684BD2F80414C3F82015D2F80814C3F81F
:101BA0002415D2F80C14C3F82815D2F81014C3F871
:101BB0002C15D2F81414C3F83015D2F81814C3F841
:101BC0003415D2F81C14C3F84015D2F82014C3F809
:101BD0004415D2F82414C3F84815D2F82814C3F8D1
:101BE0004C15D2F82C14C3F85015D2F83014C3F8A1
:101BF0005415D2F83414C3F86015D2F83814C3F869
:101C00006415D2F83C14C3F86815D2F84014C3F830
:101C10006C15D2F84424C3F87025FFF725FF48B1AE
:101C20004FF080534FF08042D3F8583203F04F0307
:101C3000C2F8E43EFFF718FF48B14FF08043D3F8F5
:101C40000024D20744BF6FF00102C3F800244FF014
:101C50008053D3F83021062A0ED1D3F83431033B18
:101C6000042B02D8344AD35C33B1344AD2F83C371F
:101C700043F48063C2F83C372B4AD2F8883043F4EF
:101C80007003C2F88830BFF34F8FBFF36F8F4FF0F0
:101C90008053D3F83021062A0FD1D3F83431033BD7
:101CA000042B02D8264AD35C3BB14FF01023D3F863
:101CB00008224FF08043C3F858254FF01023D3F883
:101CC0000022002A03DBD3F80432002B22DA1D495C
:101CD00001234FF01020C1F804351524FFF7E6FE6C
:101CE000C0F80042FFF7E2FEC0F80442FFF7DEFE54
:101CF0000023C1F80435FFF7D9FEBFF34F8F0A491F
:101D0000114BCA6802F4E0621343CB60BFF34F8FFC
:101D100000BFFDE70D4B0E4A1A6010BD00300140B8
:101D200000C007400DF0ADBA00ED00E000500040EB
:101D3000E61E000000C00040EB1E00000010004046
:101D4000F01E000000E001400400FA0588000020B9
:101D50000090D00353EA020C61D02DE9F04BB3FAA6
:101D600083F51E0007BFB2FA82F502FA05F403FA02
:101D700005F41646C5F120051EBF22FA05F73C43BF
:101D8000203556EA044C4FEA144418BF0134A346E8
:101D90004FF00009C846904271EB030C39D3094259
:101DA00007BFB0FA80F700FA07F6B1FA81F701FA37
:101DB00007F6C7F120071EBF20FA07FC46EA0C060B
:101DC0002037B6FBFBFC7F1B103F07F01F04C4F15C
:101DD00020060CFA04F42CFA06F644BF344600261A
:101DE000202FA4BF2646002454EA060C08BF012475
:101DF00018EB040849EB0609A4FB027CC01B06FB98
:101E000002CC04FB03CC71EB0C01904271EB030C90
:101E1000C5D20B46024649464046BDE8F08BB2FBB0
:101E2000F3F28446002A2DD010F0030F04D000F8FE
:101E3000011B013A26D0F7E7C9B241EA012141EA84
:101E40000141202A12D3A2F120022DE9F0030B4612
:101E50000C460D460E460F4688468946A0E8FA0312
:101E6000203AFBD2BDE8F00320320BD0042A05D380
:101E700040F8041B043A05D0042AF9D200F8011BEB
:081E8000013AFBD160467047F6
:101E880011121314000000200100060000000000D9
:101E9800B4000020CB0700000338FDD870470000CD
:101EA8000D0003001D1600000E0003001D160000A3
:101EB8000F0003001D160000100003001D1600008F
:101EC80028000020480000206800002001000000D1
:101ED800D0070000060000000338FDD87047000056
:101EE80001010100000001010000000001010000E3
:041EF80000000000E6
:101EFC000000000000000000FFFFFFFFFFFFFFFFDE
:101F0C0000000000000000000000000000000000C5
:101F1C00001001401100040000000000000000004F
:101F2C00FFFFFFFFFFFFFFFF0000000000000000AD
:101F3C000000000000000000000000000000000095
:101F4C00FFFFFFFFFFFFFFFF00000000000000008D
:101F5C000000000000000000000000000000000075
:101F6C00FFFFFFFFFFFFFFFF00000000000000006D
:0C1F7C0000000000000000000090D003F6
:040000030000037581
:00000001FF
