:02000002E0001C
:10000000000004205D030E0045030E0047030E00B0
:1000100049030E004B030E004D030E0000000000CC
:100020000000000000000000000000004F030E0070
:1000300051030E000000000053030E0055030E0094
:10004000E95D0E0057030E00F95D0E0057030E0028
:1000500057030E0057030E0057030E0057030E0000
:1000600057030E0057030E0057030E0057030E00F0
:1000700057030E0057030E0057030E0057030E00E0
:1000800081860E0049460E0057030E0057030E00EE
:1000900057030E0057030E0057030E0057030E00C0
:1000A00057030E0057030E0057030E0057030E00B0
:1000B00057030E0057030E00000000000000000070
:1000C00057030E0057030E0057030E0057030E0090
:1000D000FD7F0E0057030E0057030E0039710E000E
:1000E00057030E0057030E0081BF0E0000000000F2
:1000F0000000000057030E000000000057030E0030
:1001000000000000000000000000000000000000EF
:1001100000000000000000000000000000000000DF
:1001200000000000000000000000000000000000CF
:1001300000000000000000000000000000000000BF
:1001400000000000000000000000000000000000AF
:10015000000000000000000000000000000000009F
:10016000000000000000000000000000000000008F
:10017000000000000000000000000000000000007F
:10018000000000000000000000000000000000006F
:10019000000000000000000000000000000000005F
:1001A000000000000000000000000000000000004F
:1001B000000000000000000000000000000000003F
:1001C000000000000000000000000000000000002F
:1001D000000000000000000000000000000000001F
:1001E000000000000000000000000000000000000F
:1001F00000000000000000000000000000000000FF
:10020000314932480A1A02D0072291438D463049BB
:1002100030480A1A06D00722914381F30988022246
:1002200082F314882C482D492D4A00F03CF82D48C3
:100230002D492E4A00F037F82D482E492E4A00F05D
:1002400032F82E482E492F4A00F02DF82E482F491B
:100250002F4A00F028F82F482F49304A00F023F8A1
:100260002F483049304A00F01EF83048304900220B
:1002700000F024F82F483049002200F01FF82F4AE0
:1002800090471F481F49884205D00268043003B4D4
:10029000904703BCF7E700208646EC46002000218B
:1002A000274A9047FEE7884207D0521A05D00378C4
:1002B00001300B700131013AF9D17047884202D008
:1002C00002700130FAE770470000042000F80320B4
:1002D00000000420000004206C080F001C00002017
:1002E000C0000020B8030E00B8030E005CC90E0069
:1002F0006C080F001C0000201C00002068CA0E00C3
:1003000068CA0E0068CA0E0068CA0E0068CA0E00ED
:1003100068CA0E0068CA0E0068CA0E006C080F009A
:1003200010090F00C0000020C0000020C000002005
:1003300004940020049400200494002085030E00FF
:1003400055780E00FEE7FEE7FEE7FEE7FEE7FEE774
:10035000FEE7FEE7FEE7FEE700F002B8FFF7FCBFAE
:100360000F484FF00701884385460E4880470E48E6
:10037000016841F470010160BFF34F8FBFF36F8FCD
:10038000FFF73EBF09480A490A4A884207D0521A75
:1003900005D0037801300B700131013AF9D1704773
:1003A0000000042091870E0088ED00E054CA0E0082
:0803B000080000201C000020E1
:1003B8000020704738B504462B482C4D04F022FC29
:1003C8002B4B29481C6004F05BFC2A4BED1AED0806
:1003D8002D0438B9284945F0010000F07FFC0324BA
:1003E800204638BD254B002140F603020330C3E9FF
:1003F800021258601970224B22495960224945F06F
:100408000405C3E90212214A1A612149214A5A61A5
:10041800284600F063FC05F05BFA8528044601D005
:100428000028DDD1002005F0D3FA04460028D7D1F2
:1004380003F06CFE184802F043F904460028CFD1B7
:10044800164802F0FFF904460028C9D11449284685
:1004580000F044FC02F0A4F904460028C0D1114978
:10046800284600F03BFCBBE72CCA0E00FCC90E0076
:10047800480100207CC90E0068CA0E00EC19002053
:10048800D4190020BD040E00B1040E007C19002010
:1004980089CA0E0064C90E0024CC0E0000CC0E00E0
:1004A8009FCA0E00ACCA0E00011F014804F010BC20
:1004B8002CCA0E0037B50D46044618B90A499320D0
:1004C80004F0ADFA1DB90849942004F0A8FA01AB6C
:1004D8002A462146054805F067F9019A0349044868
:1004E80003F01EFA03B030BDC6CA0E00631900201F
:1004F80000CC0E00083810B506283ED8DFE800F01A
:10050800081E2F3D3D3D0400BDE8104002F062B9D1
:100518001A4B1B481B49C01AC008000440F00300CE
:1005280000F0DCFB06F0DAF808B902F051F9164BD6
:100538001B6813B30120BDE8104018470F4B104843
:100548001249C01AC008000440F0030000F0C6FBBE
:1005580002F06EF90C4B1B687BB10220EBE7074BEE
:1005680007480B49C01AC008000440F0030000F017
:10057800B5FBBDE8104002F03DB910BD7CC90E00C6
:10058800FCC90E004ACB0E00480100205DCB0E00CE
:100598006FCB0E0002F006BB08B503781BB9BDE8A7
:1005A800084002F0FFBA094A042101F041FC58B1A1
:1005B800074B08480849C01AC0080004BDE80840AD
:1005C80040F0010000F08ABB08BD00BF9D050E0089
:1005D8007CC90E00FCC90E0079CB0E002DE9F0474E
:1005E80099B1022939D123492348012203F0B8F9E6
:1005F800224B2349024623481B1ADB081B04BDE88B
:10060800F04743F0020000F06DBB1C481D4B194F2A
:100618001D4EDFF88490C01AC008000440F004089A
:1006280040F001043978184805F0F2F8824668B9B4
:10063800D6E9011248460AF0DFF9144804F020FB15
:10064800054660B91249204600F048FB0A480122D5
:10065800394603F085F90028E4D0BDE8F087024662
:100668000C494046033500F03DFBC6E9015A86F8BF
:1006780000A0EBE79419002000CC0E00FCC90E0086
:1006880097CB0E007CC90E00EC1900202CCA0E0076
:10069800BDCB0E00D8CB0E00D41900207047000047
:1006A80007B5044B0093044A402300F032F803B026
:1006B8005DF804FBC5060E00FD1900202DE9F8437E
:1006C80088461446B2B10F4B0F4E0325002743F05E
:1006D8000109224608EB0701002007F07FF90744CB
:1006E800241A48B933782BB14FF47A40C847013DF2
:1006F80002D13570BDE8F88301233370002CE8D1AE
:10070800F8E700BF30CC0E00FC190020704707F056
:1007180095B9F0B595B01D46164608460C4604F046
:1007280082FF1A9B0D93CDE9086500252B46082208
:1007380005A920460A958DF82C500C9504F09AFFCF
:10074800079B0293069B03939DF814308DF8115074
:1007580003F00302012A1DD1BDF81420059DC3F33F
:10076800C203C2F383168DF81030B20008230EA915
:10077800204604F07FFFC5F3952508AB0093324669
:1007880002AB0EA9284600F0DBFB204604F04FFF21
:1007980015B0F0BD022AF8D1BDF81650C3F3C20354
:1007A800C5F389158DF810300827082D2E4628BF67
:1007B80008263B4632460EA9204604F05BFFAD1BD7
:1007C80008AB02AA31460EA8374400F01DFC002DE4
:1007D800EBD1DAE708B5FFF79AFF0748042100F0E4
:1007E8001BFB002803DA0549412004F018F9044BE3
:1007F80001225A7108BD00BF6CC90E0044CC0E001E
:1008080020000020037813F0040216D003F003033D
:10081800012B03D0022B09D0012070470A680088F9
:100828000232C0F3831002440A60F5E70B6842887D
:10083800023303EB92130B60EEE71046704700009B
:100848002DE9F04FDFF828A10F4685B00446861C35
:100858000020154603F0EAFCDAF804203A60DAF8DA
:100868000830414F03F580539B1AA7F10409A7F1FB
:100878000808B3421AD30020002D71D004F00F03EA
:100888009B0143F0050363F30F00DAF80430C3F368
:100898000B02033233444AF822000020CAF804301D
:1008A80003F0D4FC012005B0BDE8F08F01213846E3
:1008B80004F084F9484604F09CF9404604F099F99C
:1008C800DAF808000090C0F30B0003300AEB800050
:1008D8006946FFF797FF009B8346C8B9C3F30B022D
:1008E8000AEB8202D16801919A1C0133C3F30B030E
:1008F8000AEB83030092D86801F00303012B27D089
:10090800022B08D019494FF4C27004F088F80CE0A3
:10091800C3F30B00D9E7BDF80630C3F389130333DB
:100928004FEA104B02EB93030093404604F064F93E
:1009380010B1009BCAF808305946384604F03EF911
:10094800DAF80830DAF8042003F580539B1A90E7A8
:10095800BDF80430C3F383134FEA104B1344E3E7A5
:10096800A40544F0060090E72C5B0020D0CC0E00D4
:10097800101B0020064B074810B500221A7004F01F
:100988000BFE044610B9044804F088FE204610BD4A
:10099800101B002040CA0E005CCD0E0030B50A4C7A
:1009A80071B10A4A0A49121BD20800239A4201D19E
:1009B800002030BD31F82350854202D00133F5E7DD
:1009C800034654F83300F4E77CC90E002CCA0E0025
:1009D8001C000020094B013903EBC000032909D88A
:1009E800DFE801F00A020406042070470079704726
:1009F8004079704700207047022070477CC90E007C
:100A080070470000034BD3E90130C31A58425841DC
:100A1800704700BF101B00202DE9F04385B0FFF799
:100A2800F1FF0646002840F0EC80774C04F580453D
:100A3800A861BFF34F8FA3680093C3F30B0303337D
:100A480004EB83006946FFF7DDFE009B10B1AA693D
:100A5800002A5DD0C3F30B02991C013304EB820218
:100A6800C3F30B0304EB8303D268DB68029302F041
:100A78000303022B0192009155D1BDF8063063485B
:100A8800C3F389184746502F28BF502707F108019C
:100A980067F38F13C1F30901ADF8063004F094FD34
:100AA8000646002800F0998004F0BDFD00230822C6
:100AB80001A9304604F0CAFD0099CB43C3F30B03E8
:100AC8000133C1F30B010331B7EB830F4FEA830204
:100AD80004EB810124D95FFA82F90823A7EB0907FF
:100AE800304604F0B3FDFFB209F10803484903F0AA
:100AF800FC033A46304604F0A9FD009B08F10308C0
:100B080003EB98030093AB69002B43D12F6954E0A2
:100B180062689A4291D8A260304605B0BDE8F08379
:100B280008233A46E6E7012B57D1BDF80430374889
:100B3800C3F38311062928BF062161F38913023103
:100B480001F00F018900ADF8043004F03DFD0646C0
:100B5800002842D004F067FD0023082201A930468E
:100B680004F074FD0027BDF80420C2F38312BB0013
:100B7800974203F10803C6D200994A1CC1F30B013E
:100B88000331009204EB81010422304604F05EFD3B
:100B98000137E8E7304604F04AFDFFF733FF80F0FD
:100BA8000100C6B2B8E7FB685B7923B13B68314600
:100BB8001B6838469847FB681F68002FF3D13046FA
:100BC80004F035FD384603F031FBAB690BB9009BE7
:100BD800A360002003F03AFBDFE72C6954B90D4B02
:100BE8000D480E49C01AC008000440F0020000F089
:100BF80075F8D2E7236820469B689847E3681C6825
:100C0800ECE7002688E700BF101B002040CA0E0052
:100C18001C1B00207CC90E00A4C90E0044CD0E0088
:100C28002DE9F34704460F46914601A901221846CB
:100C38001E46FFF705FEDFF8A08078B3019D00236C
:100C4800A81CB34203EB000134D11F48002103F074
:100C58007AFF80F3100A1D4B1D4A4FEA14499B1A6C
:100C6800B9EBD30F04D31B4940F2A91003F0D7FE08
:100C78006B1CC3F30B03E40008EB830304F0380494
:100C880049EA0A40C5F30B0544F00104D86003356E
:100C980044EA861343EA872348F8253098F8003059
:100CA8001BB1FFF7B9FE0028FBD1FFF7A9FE02B080
:100CB800BDE8F087C1F30B0108EB810159F8232047
:100CC800CA600133BDE700BF2C5B00202CCA0E00B0
:100CD8007CC90E00D0CC0E00101B002000231A4641
:100CE800FFF79EBF07B50123019201AAFFF798FFFE
:100CF80003B05DF804FB07B5CDE9002302236A467B
:100D0800FFF78EFF03B05DF804FB1FB5CDE90123A3
:100D1800069B039301AA0323FFF782FF05B05DF842
:100D280004FB1FB5CDE90023069B0293079B0393A1
:100D38006A460423FFF774FF05B05DF804FB7FB52E
:100D4800CDE90123089B0393099B04930A9B059310
:100D580001AA0523FFF764FF07B05DF804FB000054
:100D68002DE9F7430446D01C8846164601A90022FF
:100D78008008FFF765FD264D98B3019FB81C0190C8
:100D8800C0F30B00C0F58053B6EB830F00F10300EE
:100D98004FEA830905EB80002AD8324641460BF01A
:100DA8002DFA1C48002103F0CEFE80F310007B1CB6
:100DB800C3F30B03C7F30B07220C05EB83030337BD
:100DC80042EA0040E400D86004F0380455F82730BF
:100DD80044F0020444EA865203F47C131A4345F8AB
:100DE80027202B787BB9FFF70BFE03B0BDE8F08313
:100DF8004A4641460BF002FAA6EB090208EB090144
:100E080005F10C00CBE7FFF707FE0028FBD1EAE766
:100E1800101B00202C5B002030B50E4C22690346C5
:100E28000020114629B9D968087142B923610A60BE
:100E380030BDC9680D79854206D00968F2E7D268E5
:100E480014680C601360F3E701300A28E9D14FF009
:100E5800FF30EDE7105B002038B5084B03F5804202
:100E6800012514691D7004B938BDE3685D712368F4
:100E780020465B689847E3681C68F4E7101B00206D
:100E880030B5C38885B004460D4633B1144A009284
:100E98001449154A284603F051FF217A05291DD027
:100EA800637A4BB1A088FFF795FD104B104953F8B2
:100EB8002020284603F042FF227A0E4BA08853F8E0
:100EC800222003920021FFF769FD039A0A4903468D
:100ED800284605B0BDE8304003F030BF05B030BD4E
:100EE80088CD0E0070CD0E0068CD0E00F8CD0E0036
:100EF80078000F001CCE0E008DCD0E0007B50346FE
:100F08000846197A052911D05B7A2BB1094A0A4992
:100F1800019003F013FF01980849019003F00EFFB8
:100F2800019803B05DF804EB03F0F6BE002AF8D090
:100F3800F2E700BF88CD0E0078000F0085CD0E00C7
:100F48002DE9F04385B01F460C9D002395F80C90C1
:100F58002B7306460C46904629463846FFF790FF05
:100F6800B8F1060F09D8DFE808F00412181F283373
:100F780040003146284603F0E1FE00222946384663
:100F8800FFF7BCFF85F80C9005B0BDE8F083226838
:100F98003146284603F0D2FEEFE7D4E90023314674
:100FA800284603F0CBFEE8E7A36800933146D4E96E
:100FB8000023284603F0C2FEDFE7E3680193A36835
:100FC80000933146D4E90023284603F0B7FED4E75E
:100FD80023690293E3680193A36800933146D4E937
:100FE8000023284603F0AAFEC7E763690393236931
:100FF8000293E3680193A36800933146D4E9002380
:10100800284603F09BFEB8E708292DE9F74F8046EC
:101018000E4617461C463DD800251B7B25732146E6
:1010280010460193FFF72CFFDFF88CA0DFF88CB097
:10103800AE4232D918F805205946204603F07EFE04
:101048000135082DF4D11B49DFF874A0DFF874B01E
:10105800204603F073FE4FF000094E4524D918F8D6
:1010680009507E2D1ED828460BF05CF8002814BFC6
:101078002A462E225946204603F060FE09F101094E
:10108800B9F1080FE9D1012221463846FFF736FFAA
:10109800019B237303B0BDE8F08F5146204603F04F
:1010A8004DFECDE72E22E5E75146204603F046FEE9
:1010B800E4E700BFA1CD0E009DCD0E0097CD0E0038
:1010C8009FCD0E00A3CD0E000268530910B504464B
:1010D80018D0012B4FF6FF7318BF002302F01F0230
:1010E800D340DB0704D409494FF4F67003F097FCAA
:1010F80023681F2B83BF03F01F03054823604FF0AD
:10110800A04010BD4FF0FF33E8E700BF30CE0E001F
:1011180000030050032813B5044603D908494720A3
:1011280003F07DFC074B01A81B5D0193FFF7CCFF83
:10113800019A01239340C0F8083502B010BD00BFE2
:101148005BCE0E00BECE0E0008B50020FFF7E2FF12
:101158000120FFF7DFFF0220FFF7DCFFBDE80840B2
:101168000320FFF7D7BF0000032813B5044603D9AF
:101178000B495F2003F053FC0A4B01A81B5D019348
:10118800FFF7A2FF0199D0F8043501228A4022EA2C
:1011980003011340C0F80815C0F80C3502B010BDA3
:1011A8005BCE0E00BECE0E00F7B5C207044612D5C0
:1011B800134E0025032716F8013B019301A8FFF7FA
:1011C80083FF019B013503F5E073042D40F823707C
:1011D800F1D1FFF7B9FFA30710D50A4D00240C265B
:1011E80015F8013B019301A8FFF76EFF019B01343D
:1011F80003F5E073042C40F82360F1D103B0F0BD8F
:10120800BECE0E00BACE0E000023C0E902328B8893
:101218001A44B1F9063002611A44C0E9001142616A
:101228000888003818BF012070474268118838B50F
:101238000346002937D0148A02F1100141602CB905
:10124800C2680168FFF7E0FF204638BD9078118931
:1012580000F03005302D14D1947C04F03004302C8B
:101268001BD190881969091A19610021908AB2F96D
:101278001620084419690144196111445961012073
:10128800E3E700F0F004202C07D150894143002DFA
:10129800ECD1986801309860E8E700F0C000802839
:1012A80008BF0421F3E70846CFE770B5466804464F
:1012B8000D4663681A88AA4204D19B7803F00F038D
:1012C800082B07D12046FFF7B0FF6368B342F0D17F
:1012D800002070BD0120FCE743681A44426011B148
:1012E80001399A4201D10120704713F8010B01F826
:1012F800010FF6E770B54568AA7802F00F06082EC8
:1013080086B003461FD103691C6800260CB906B0D5
:1013180070BD236862689D68267329466846FFF792
:1013280073FF6368049304F10C030593AB7803F02F
:10133800C003802B08BF231D684608BF0493FFF72E
:10134800D9FFA468E2E712F0C00122D102F0300010
:1013580010280CD15A691170072EEC6818690BD146
:101368000146204606B0BDE8704000F01AB8900665
:10137800F2D55B691980CAE72A89214624B106B0EB
:10138800BDE870400AF03ABF06B0BDE870400AF008
:101398005EBF8029BBD10069002192060160B6D5E5
:1013A800E7E77FB50A4601466846FFF72DFF30B1EB
:1013B8006846FFF79FFF6846FFF737FFF7E707B074
:1013C8005DF804FB836810B504460BB9002010BD16
:1013D8000368012298470028F8D0A368013BA3605E
:1013E800F5E72DE9F3410F460DF107018046FFF7B8
:1013F800E9FF054620B90025284602B0BDE8F0817E
:101408009DF907309DF80740002B13DA04F07F049C
:1014180007260DF107014046FFF7D4FF0028EAD060
:101428009DF8072002F07F03B3401C43130606F122
:10143800070601D43C60DFE7232EEAD1DBE7000092
:1014480030B5044685B01546A9B90268114B9A42D1
:1014580011D0102D06D82A4669462046FFF7F0FF1E
:1014680005B030BD102269462046FFF7E9FF002885
:10147800F6D0103DEDE7A368AB4201D20020EFE7BC
:1014880023682A46204698470028F7D0A268521BAE
:10149800A260E5E7E1120E00F7B50E4601A907467E
:1014A8001546FFF79EFFA0B1019A511C4FF00004AA
:1014B80004D2B37803F0C003802B01D1204608E0A2
:1014C80033898B42FAD329463846FFF7B9FF019B87
:1014D800EC5403B0F0BD73B50D4601A90646144699
:1014E800FFF77FFF98B1019AB2F5803F11D2AB7830
:1014F80003F0C003802B02F102010AD02B898B4232
:1015080007D32146304621F8022BFFF799FF02B096
:1015180070BD0020FBE7000010B5034C826000227C
:10152800C0E90041C26010BDE1120E002DE9F3418F
:10153800002580460E462F462C460DF107014046F1
:10154800FFF740FFC0B19DF807C0A4F120030CF0DD
:101558007F02C4F1200102FA03F322FA01F10B43DE
:10156800A2401CF0800F45EA020547EA030704F190
:10157800070404D1C6E9005702B0BDE8F081462C43
:10158800DBD10020F8E737B50D4669461446FFF76A
:10159800CDFF70B12B89082B0DD1DDE90032C4E9EC
:1015A8000032DDE90001914208BF98420CBF0120DA
:1015B800002003B030BD042B03D1009B2360002220
:1015C800EFE7022B03D1009B23809BB2F7E7012BA7
:1015D80004D1009B237003F0FF03F0E70020E8E745
:1015E80037B50D4669461446FFF7A0FF30B12B8981
:1015F800082BDDE9001203D1C4E9001203B030BDA5
:10160800042B4FEAE17009D121600B460246824261
:1016180008BF8B420CBF01200020EFE7022B03D14B
:101628000BB22380DA17F2E7012B02D14BB22370F9
:10163800F8E70020E2E7F7B51F4600233B700D46A8
:101648000B70136001A904461646FFF7CAFE30B9AD
:10165800A36813B901233B70002003B0F0BD019CBF
:10166800002CF7D0E30804F0070433602C70F4E78B
:1016780013B50446052925D8DFE801F0030F172420
:101688002422012201A92046FFF7DAFE18B19DF9AC
:101698000430002BF5DB02B010BD082200212046E3
:1016A80002B0BDE81040FFF7CBBE01A9FFF799FED5
:1016B8000028F0D0019A00212046FFF7C1FEEAE792
:1016C8000422EBE70020E6E773B50D4601A90446BE
:1016D800FFF787FE064618B90026304602B070BDEF
:1016E80094E80F0085E80F0001998A42F4D3A960B5
:1016F800A3685B1AA360F0E72DE9F0435668B37856
:1017080013F0C00489B007468C46154603D0402C18
:1017180069D000240CE003F00F02604903F03003A5
:10172800202B51F8228025D006D8E3B1102B17D0F2
:10173800204609B0BDE8F083302BF9D16B693188B8
:101748001980072A09D12146328928690AF07FFDC4
:101758006B682969D868FFF724FE2A69696840E040
:101768006B6901221A702A693146434609B0BDE8FF
:10177800F0431847BCF1020FD5F8149024D1042A7D
:1017880022D804A9FFF7A0FF04460028C1D0069B71
:101798002BB16968B9F800304A899A4205D8059B87
:1017A8007B60069B002BC3D0B3E708892A6903FB3B
:1017B800002204A8C04728B1B9F800300133A9F8BD
:1017C8000030E4E70446EAE7B9F8003072899A4243
:1017D8009FD931892A69581C03FB0122A9F8000006
:1017E80031463846C1E7D2F81080464656F8043BE1
:1017F80023B909B0BDE8F043FFF73ABF022914D175
:1018080004A9FFF761FF002883D0D8F80030696881
:10181800324604A89847044600283FF47AAF069B4E
:10182800002BF2D1059B7B6082E7012926D0052990
:101838002CD000297FF46DAF0C460DF1040901345A
:101848000B2C3FF466AF012249463846FFF7F8FDF6
:1018580000283FF45EAF19F9013B002BEFDB104B7A
:10186800049301ABCDE90534002307936968D8F8E0
:101878000030324604A89847044659E7082201A9CF
:10188800FFF7DEFD08240028E9D142E704220DEB2A
:101898000201FFF7D5FD0424F5E700BFC4CE0E0012
:1018A800E1120E002DE9F04F91B00446002604A87D
:1018B800CDE90266FFF7A8FCA3683BBBDDE9053468
:1018C80004A89D78FFF7B1FC0028F7D115F0300F78
:1018D80003D1059B1B8803B10134002C00F0A980BB
:1018E800630902A90022934240F09C8010AA02EBEF
:1018F800830304F01F0453F8383CC4F120044FF06C
:10190800FF30E040C31A584258410DE00DF103037F
:1019180001AA0DF102012046FFF78DFE38B99DF8A6
:101928000330002BCAD1002011B0BDE8F08F019917
:1019380004A8FFF7BAFC002850D1019BB3427DD31D
:10194800059D059A937803F00F03082B7FD004A810
:10195800FFF76BFC059B9D42F3D14FF0FF36019FCB
:10196800B7426BD3089B9DF802A0D4F808801D6885
:101978004FF00109A368002D5DD098459CD12B68D4
:10198800D3F800B0BBF1000F08D053463A462946B9
:101998002046D8470028C6D0AD68EBE7D3F808B092
:1019A800BBF800309F42F7D16A6859460AA8FFF78A
:1019B8002BFC6B680E9305F10C030F939BF8023018
:1019C80003F0C003802B04BF2B1D0E930AAA85F8D1
:1019D8000C9051462046FFF78FFEDBE7059B9B786E
:1019E80013F0300F0FD1069A3F2A0CD8510910ABCB
:1019F80003EB810102F01F020123934051F8382CB8
:101A0800134341F8383CE5682DB19DF8022001994F
:101A180004AB2046A8479DF8021004AA2046FFF709
:101A28006BFE10E051F8045B01357FF47DAF0132A5
:101A380059E7012078E798457FF43EAF9DF80210FA
:101A48002046FFF715FE00287FF436AF6BE71688AF
:101A580085E737B50C460546114620460192FFF743
:101A6800A0FC019A2146284603B0BDE83040FFF7A4
:101A780019BF70B586B0CE6801920C4602A905461A
:101A8800FFF722FE68B1E06858B1A378019A03F025
:101A98003003202B314602A805D1FFF7DAFF039B5C
:101AA8006B6006B070BDFFF7FDFEF8E713B50C4696
:101AB8006946FFF73BFD60B1DDE900134A0842EAD9
:101AC800C372C9074FEA530344BFD243DB43C4E997
:101AD800002302B010BD37B50D4669461446FFF71E
:101AE800E5FF70B12B89082B0DD1DDE90032C4E97F
:101AF8000032DDE90001914208BF98420CBF012085
:101B0800002003B030BD042B03D1009B2360DA17FB
:101B1800EFE7022B03D1BDF900302380F7E7012B53
:101B280003D19DF900302370F1E70020E9E713B5F0
:101B380004220C460DEB0201FFF782FC08B1019B61
:101B4800236002B010BD1146FFF7F1BF13B508229C
:101B58000C466946FFF774FC18B1DDE90023C4E9B7
:101B6800002302B010BD1146FFF7F0BF10B500F119
:101B7800080301F1200251F8044B43F8044B914249
:101B8800F9D1283001F1200351F8042B40F8042B37
:101B98009942F9D1002010BD2DE9F3411B4D98461B
:101BA8001B4B036004460E4628460121174602F0E7
:101BB800CAFFBFF35F8F30BB00F0F6F83B46089AC8
:101BC800CDF8008006F10801204609F079F80446AE
:101BD80000F0F8F82B68012B03D00E49932002F08F
:101BE8001EFFBFF35F8F00232B6044B10A4948F200
:101BF800165248F242538C4214BF14461C462046E3
:101C080002B0BDE8F08148F20454F8E7C86B002040
:101C1800DD55AABBF4CE0E008408F0000E4B9842A6
:101C280014D00AD8B8B10D4948F2165248F20153F7
:101C3800884214BF104618467047094B984208D08E
:101C4800084948F2165248F20353F1E748F20350A4
:101C5800704748F2025070470102F0000002F0009D
:101C68000202F0000F02F00008B5083009F092F8FF
:101C7800BDE80840FFF7D2BF10B5064C2368012B1A
:101C880003D00549932002F0CAFEBFF35F8F0023FB
:101C9800236010BDC86B0020F4CE0E0013681F2B04
:101CA80073B505460E4614461AD901210F4802F0AD
:101CB8004AFFBFF35F8FB0B900F076F8314605F1FF
:101CC800080009F0D3F8019000F07CF8FFF7D4FF82
:101CD8000198FFF7A3FF08B92023236002B070BD65
:101CE80048F21450FAE748F20450F7E7C86B0020AE
:101CF8002DE9F04105460E4618480121144602F028
:101D080022FFBFF35F8F20BB00F04EF8DFF8508052
:101D18000835B4F5805F274628BF4FF48057314611
:101D28003A4640460AF06AFA3A464146284609F0D9
:101D38004BF8E41B3E4450B9002CEAD100F042F8BD
:101D4800FFF79AFF2046BDE8F041FFF767BF04465A
:101D5800F4E748F20450BDE8F08100BFC86B0020EA
:101D6800C85B0020024B0020C3F80005704700BF85
:101D780000A0025038B50A4B00251D60BFF35F8FE5
:101D8800084C0123C4F8003509F0A0F8C4F8005540
:101D980020B1052848F2035018BF032038BD00BF02
:101DA800C86B002000A00250044B0122C3F8002594
:101DB800034B4FF480625A60704700BF00A0025086
:101DC80000E100E0064B0022C3F80025054B4FF464
:101DD8008062C3F88420BFF34F8FBFF36F8F7047C3
:101DE80000A0025000E100E04B1C30B5DB000446C7
:101DF80012F003009BB20DD1074D2A601A44074B1D
:101E08001A60074B1870074B1870074B1C80074B5C
:101E1800198030BD0720FCE7D46B0020D06B002070
:101E2800CC6B0020DC6B0020D86B0020DA6B002024
:101E38002DE9F843DFF8AC80B8F800308B4206464D
:101E48000D46174640D3002002F0F0F9204B214AF6
:101E58002148197800881478E3B2844238BF0133E6
:101E6800C9B234BFDBB20023994226D01478117866
:101E7800CBB2884286BF0133DBB200231370002047
:101E880002F0E4F94FF6FF739C421FD0134B1B6816
:101E980043F8347003EBC40996B18DB1104BB8F810
:101EA80000001B682A46314604FB00300AF0A6F9F8
:101EB800A9F804500020BDE8F8834FF6FF74DEE768
:101EC8000020A9F80400F6E70920F4E70420F2E767
:101ED800DC6B0020CC6B0020DA6B0020D46B002078
:101EE800D06B0020D86B002070B5104C104D2278B4
:101EF8002B789A4200D170BD0E480F4A2378126899
:101F080006880E4802EBC301006852F8332089881E
:101F180003FB060090470A4922780988D3B2914208
:101F280086BF0133DBB200232370E0E7DC6B0020BF
:101F3800CC6B0020D86B0020D46B0020D06B002025
:101F4800DA6B002010B5D0E90243D1E90202A042C1
:101F580072EB03032CBF0120002010BD08B50A480E
:101F680002F057FB094AD2E90031C018084BD3E9FF
:101F7800002341F10001904271EB030303D210F1F9
:101F8800807041F1000108BD28000020E86B0020A6
:101F9800606C002037B505460C460A4801A902F0D6
:101FA8005DFD60B10570446001A9064802F080FD3E
:101FB80018B1054802F032FB002003B030BD042000
:101FC800FBE700BF4C6C002028000020436970B577
:101FD80004461BB92349A52002F021FD224B1E7897
:101FE80016B90026304670BDFFF7B8FFD4E90223C2
:101FF800904299412FD3002002F018F923692BB998
:102008004FF0FF324FF0FF33C4E90223002002F003
:102018001DF9D4E905309847002002F007F9256931
:102028006DB1D4E90212B2F1FF3F08BFB1F1FF3F31
:102038000FD0691842F10002C4E9021235460020A7
:1020480002F004F9002DCCD00848214603F030FBFB
:10205800C8E70025F3E7B3F1FF3F08BFB2F1FF3F40
:10206800BFD0F1E740CF0E00F06B0020BCCF0E00D0
:1020780013B5114B114918680190082310485822CC
:1020880002F0D9FC044698B90E4A0F4801A902F09B
:102098005DF9044660B90C48012102F0A1FA012358
:1020A8000A4A0948194602F0EFF9094B01221A7049
:1020B800204602B010BD00BFB6CF0E00F46B002062
:1020C8004C6C0020E5210E0028000020FFFF7F0057
:1020D800F06B002070B50C461546064620B90D4930
:1020E80040F25A2002F09BFC35B940F25B200949C6
:1020F80002F095FC072070BD621E336854424FF011
:10210800FF304FF0FF315441C3E902015D611C61AA
:102118000020F0E740CF0E00F8B50D4617460446FC
:1021280020B9154940F26B2002F079FC002002F03A
:102138007DF8D4E90223B3F1FF3F08BFB2F1FF3FB6
:1021480015D1FFF70BFF281841F10001C4E902017E
:102158000126002002F07AF85EB12369A76103B175
:10216800256121460020BDE8F840FFF713BF00268F
:10217800EFE73046F8BD00BF40CF0E0038B5044643
:1021880020B9124940F2932002F049FC002002F0E5
:102198004DF8D4E90223B3F1FF3F08BFB2F1FF3F86
:1021A8001FBF4FF0FF324FF0FF33C4E90223012570
:1021B80008BF0025002002F049F82DB12146012072
:1021C800BDE83840FFF7E6BE284638BD40CF0E00D0
:1021D800014802F01EBA00BF280000202DE9F7438D
:1021E800044602F001FA40B16F4AD2E9003113F116
:1021F800807341F10001C2E900310021204602F05C
:10220800FDF9D0B1694E3368BBB1204602F001FA3E
:1022180000210546204602F0F6F9281A20F07F40F2
:10222800B0F5960F04D3624940F2411002F0F7FB73
:102238003068FFF7CBFE002333600121204602F00F
:10224800DDF920B1FFF78AFE5A4BC3E900015A486D
:10225800564D01A902F03CFC4FF0FF364FF0FF3716
:10226800A0B9DFF85881514E404603F04DFA0028D6
:1022780000F08B80D0E90223B3F1FF3F08BFB2F131
:10228800FF3F33D1404603F02FFAEDE70378012BE7
:1022980021D0022B09D1DFF82481404603F024FA2B
:1022A80000287CD0C0E90267F7E75BB94168D1E94B
:1022B8000223B3F1FF3F08BFB2F1FF3F02D03F480E
:1022C80003F0F6F901A93C4802F02DFC01A93A48AF
:1022D80002F0FEFBC4E741682B68994202D1002353
:1022E8002B60EFE7354803F01BFAEBE7316891B153
:1022F8003168D1E9020182428B412FD23368D3E998
:102308000223B3F1FF3F08BFB2F1FF3F03D03168AA
:10231800404603F0CDF9404603F0E6F9D0E902590A
:102328000746FFF71BFE281A69EB0109012879F116
:10233800000318DBB0F5350F13D3FFF749FF204A28
:10234800024420484FF49603002102F0CBF8A0B9CC
:10235800336813B9204602F07BF8376003B0BDE854
:10236800F0832A46EDE71748002102F041F9384684
:10237800FFF72CFE0023336076E70D28F7D00C49D1
:102388004FF4867002F04BFBF4E7084B1B68002BF8
:10239800E4D1204603B0BDE8F04302F067B80A4B29
:1023A80001221A708EE700BFE86B0020686C0020DD
:1023B80040CF0E00606C00204C6C0020BCCF0E009B
:1023C800FFFFB40028000020F06B0020024B5B6880
:1023D80003B11847704700BF6C6C00200378052BC9
:1023E8000BD1074AD2F88434D2F88024D2B222B969
:1023F800044ADBB2052B08BF1046034B1B6818477D
:102408000070024030D10E006C6C0020FFF7E6BF70
:1024180038B50D46044620B9064940F2431002F08B
:10242800FEFA6378AB4283BFA078401900190020F8
:1024380038BD00BFC8CF0E0038B50D46044620B9D8
:1024480006494FF4887002F0EAFA237AAB4283BF58
:10245800093405EB45056019002038BDC8CF0E00CA
:1024680070B50D46044620B90D4940F20F1002F030
:10247800D6FA636823B90A494FF4887002F0CFFA94
:1024880063681B6823B9064940F2111002F0C7FAC5
:102498006368294620461B68BDE87040184700BF9E
:1024A8003CD00E0008B520B1044940F27B2002F070
:1024B800B6FABDE808400248FFF790BF3CD00E00CE
:1024C80034D10E0010B5044620B9044940F2432027
:1024D80002F0A5FA2368186810BD00BFA5D00E0049
:1024E80000F00F0310F0800F10B51C460AD0082B1F
:1024F80004D909494FF4CC7002F091FA074800EB6F
:10250800C40010BD082B04D903494FF4CF7002F062
:1025180086FA0348F3E700BF3CD00E00786C002031
:10252800C06C002070B50D460646FFF7D9FF04467B
:1025380005604DB9730604D105494FF4E17002F006
:102548006EFA0023636070BD6B681B68FAE700BF12
:102558003CD00E00012805D0022805D030B9064825
:10256800FFF73CBF0548FBE70548F9E7054940F296
:10257800622002F054BA00BF2CD10E0028D10E0000
:1025880024D10E003CD00E00024B0146D3E90002D4
:10259800104700BFC06C002038B5831EDBB2062B85
:1025A80098BF1A4A1A4D98BFD25C2B78A3F1020340
:1025B800DBB288BF0022062B9ABF1449CB5C0023EC
:1025C8009342044603D0B2B1124803F0A1F9022C99
:1025D80014D0A4F10800424242412B78022B0FD0BC
:1025E800A3F108014B424B41934202D052B104F08F
:1025F800C9F82C7038BD03F0C7F9E8E70122ECE709
:102608000123F1E704F0B4F8F3E700BF17D10E0097
:10261800116D0020300000202DE9F04F87B0002612
:102628000546884691461F4602966B6800225C68FC
:102638002946012302A8A047044638B98DF80600A8
:1026480004908246564503D8052028E00136ECE779
:102658006B680DF10602D3F804B02946012304A8DB
:10266800D8476B680DF10702D3F804B02946012357
:1026780004A8D8479DF8073043459DF8063013D184
:102688004C450FD1109A13603B7087F801806A6837
:10269800023B54682946BA1C04A8A047002007B08A
:1026A800BDE8F08F0134E4B26A68023BD2F804B0A6
:1026B8002946002204A8D8479DF806309A44C1E765
:1026C800F7B5054603F0FEF820B92B4940F2313042
:1026D80002F0A5F9294804F095F8044690BB284B68
:1026E8001870284B1860284B014618604822274864
:1026F80009F0ADFD26484822214609F0A8FD254BE2
:102708001DBB254A1D72C3E90025002003F060F9AE
:1027180018B1852801D005F00FF8204F002529466B
:102728003846FFF789FE0135EDB2044610BB0B238E
:102738001A488DF8043001A9FFF792FE044608B143
:1027480003F0DAFE204603B0F0BD95E8070083E801
:1027580007000028D9D1104A1A60D6E70078394610
:10276800FFF7E0FEF1B22046FFF752FE01360028DF
:10277800F4D1D4E70026F5E73CD00E0015240E006E
:10278800116D0020086D00200C6D0020786C002071
:10279800C06C00206C6C0020AD2B0E0090D20E0097
:1027A80010B503F093FF10B90823184610BD03F0C5
:1027B80095FF04460028F7D1044803F024F903469E
:1027C8000028F2D004F0B8FF2346EEE720D10E002F
:1027D80003F0A8BE08B503F08BFF20B1044940F20E
:1027E800D13002F01CF9BDE8084004F03BBD00BF41
:1027F8003CD00E0008B503F071FF20B90A494FF428
:10280800767002F00CF94FF08043D3F83824920721
:1028180004D5BDE808400548FFF7E0BDD3F83824E3
:10282800D107F2D408BD00BF3CD00E0039D10E004C
:1028380007B5822301A88DF80430FFF7CFFD03B058
:102848005DF804FBF7B5044620B9384940F26A50F0
:1028580002F0E5F8636823B9344940F26B5002F09E
:10286800DEF863681B6823B9304940F26C5002F007
:10287800D6F823681B6823B12C4940F26D5002F04A
:10288800CEF803F02BFF30B1284940F2715002F026
:10289800C6F8002613E003F019FF0028F9D1F3E782
:1028A8000078FFF71DFE0368013713B1112023E0FC
:1028B8000027F9B22846FFF7ABFD0028F0D13146D2
:1028C8002046FFF7B9FD0136F6B205460028EFD1DC
:1028D80029462046FFF7B0FD0135EDB20646C8B9D6
:1028E800134D124E2B68BBB92C600B2301A920464F
:1028F8008DF80430FFF7B4FD03B0F0BD0078214631
:10290800FFF710FEF9B23046FFF782FD01370028C5
:10291800F4D1DDE70027F5E7A34204D1314640F2C0
:10292800975002F07CF82B681D68DBE73CD00E005E
:10293800086D0020024B1878003818BF0120704736
:10294800106D0020030710B5044604D404F048FABB
:10295800204604F059FD2046BDE8104004F000BDB3
:1029680004F0C8BC014B1868704700BF086D002010
:102978002DE9F8430F4B1C6806460D46BCB194F888
:1029880008904FF000085FFA88F7B94504D8204648
:10299800FFF798FD0446F1E739462046FFF74CFD5E
:1029A8000378B34208F10108EDD105B12F70204634
:1029B800BDE8F883086D00201146FFF751BD07B543
:1029C80000F00F03082B019109D8FFF789FD006873
:1029D80028B1019903B05DF804EBFFF741BD102061
:1029E80003B05DF804FB000038B5074B1C680546CA
:1029F80004B938BD29462046FFF732FD2046FFF7C7
:102A080061FD0446F4E700BF086D002038B5084BA7
:102A18001C6805460CB9062038BD29462046FFF734
:102A28001FFD0628F8D12046FFF74CFD0446F1E7C4
:102A3800086D002013B50446019103F030FF50B132
:102A4800064B1B78022B06D10199204602B0BDE83F
:102A5800104003F02BBF082002B010BD116D0020FC
:102A680013B50446019103F01AFF50B1064B1B78C9
:102A7800022B06D10199204602B0BDE8104003F0B0
:102A88009FBF082002B010BD116D002043689B68ED
:102A980070B505460E4614469BB92B7AB34204D24C
:102AA8000F4940F2F92001F0BAFFB4B9314628467F
:102AB800FFF7C2FC46780546E1B2B14205D30020D3
:102AC80002E098470628E8D070BD2846FFF7A0FC2A
:102AD8000078FFF737FF0134EEE70720F4E700BF7F
:102AE8003CD00E004368DB6870B504460D4603B160
:102AF8009847237AAB4204D20B494FF4467001F051
:102B08008EFF29462046FFF797FC467804460025A5
:102B1800E9B28E4200D870BD2046FFF779FC0078F4
:102B280004F0E8FB0135F3E73CD00E0043681B696D
:102B380003B1184718467047F8B50D4B0D4E1C6881
:102B480004B9F8BD277A0025E9B28F4204D8204697
:102B5800FFF7B8FC0446F3E700222046FFF796FF8C
:102B680020B1314640F26A7001F059FF0135EBE7B8
:102B7800086D00203CD00E00094B70B51C6804B9E4
:102B880070BD267A0025E9B28E42204603D8FFF7A9
:102B980099FC0446F3E7FFF7A5FF0135F3E700BF0B
:102BA800086D002038B5974B1B68044623B9964931
:102BB80040F2254001F033FF01F058FB052804D806
:102BC800914940F22C4001F02AFF23780F2B13D9AA
:102BD800A3F1800283F08003052B06D9BDE83840B5
:102BE800894940F2265001F01ABF052AF6D8DFE8D5
:102BF80002F06429467079D80F2BEFD801A252F859
:102C080023F000BF0B2D0E00392D0E00992D0E005C
:102C18005D2D0E007B2D0E00AB2D0E00BD2D0E0080
:102C2800E52B0E00FF2D0E00032E0E00072E0E00C2
:102C3800E52B0E00E52B0E00E52B0E00E52B0E0014
:102C4800B52D0E007148FFF79FFC7048FFF7CCFECA
:102C58000D20FFF7BBFBFFF78FFF00F096FF6C4BD3
:102C68001B6853B96B4B187A00F0010003F0FCFCA9
:102C78000120BDE83840FFF78FBC0120F4E7FFF7DB
:102C88007BFF04F0C1FA0020FFF786FC6248FFF7DB
:102C9800ABFE6148FFF778FC0E20FFF797FB5F4B10
:102CA8001B78023BDBB2062B3AD85D4AD35C002B7B
:102CB80036D0BDE8384002F067BE584B1B78062B6B
:102CC80005D003F0FD03052B2AD10220D1E7082007
:102CD800CFE7524B1B78032B22D104F0E5FAF8B169
:102CE8000420C6E74D4B1B78032B05D104F0DCFA12
:102CF80010B10420FFF750FC03F008FD80B1062056
:102D0800B7E7464B1B78032B01D0082B02D1454867
:102D1800FFF748FF0020FFF759FB3D4B1D6805B939
:102D280038BD28462146FFF79BFB2B685D68F6E710
:102D3800FFF722FF00F020FF0220FFF72DFC012003
:102D4800FFF744FB2046FFF71FFC2046BDE838404C
:102D5800FFF74ABE314B1B78082B06D10220FFF73C
:102D68001BFC03F019FD0320EAE70520FFF714FC1C
:102D7800F9E70320FFF72AFB2B48FFF705FC2A4851
:102D8800FFF732FE254B1B78062B9ED1072070E7F4
:102D98000320FFF701FC0220FFF718FB2046FFF78E
:102DA80023FE2046BDE83840FFF7EEBB0F20FFF7B3
:102DB8000DFBCAE7A078FFF793FB0368054623B924
:102DC800114940F2025001F02AFE6B6823B90E49FE
:102DD80040F2035001F023FE6B68286821469847AB
:102DE80000289DD0A07802079AD0030798D4BDE8A0
:102DF800384003F0BDBF0820D9E70920D7E70A20EB
:102E0800D5E700BF086D00203CD00E0038D10E0079
:102E18000C6D00206C6C002037D10E00116D002065
:102E280017D10E0036D10E0035D10E00CA699A426C
:102E380010B543600CD38C690460086F18440867A8
:102E4800D01A1C44C86100388C6118BF012010BD1D
:102E580001F1280202608B670020F8E738B50D46BB
:102E6800044620B906494FF4887001F0D8FD237A4A
:102E7800AB4283BF093405EB45056019002038BD16
:102E88003AD10E0038B50D46044620B9064940F23D
:102E9800431001F0C4FD6378AB4283BFA0784019AA
:102EA8000019002038BD00BF3AD10E0008B5012135
:102EB800FFF7D4FF0121FFF7E5FF007808BD000008
:102EC8002DE9F843DFF8408299460B7A88F80030FC
:102ED8000E461746054620B989494FF4447001F05B
:102EE8009EFD2B68002B00F08780A3F213337C2B08
:102EF80000F23B837C2B00F23883DFE813F0880074
:102F08009300A100AD00B900C500D100DD00360373
:102F180036033603360336033603F5000701360356
:102F28003603360336031A01260134013603360305
:102F3800360347015301810136033603360336034E
:102F480069017501810136033603360336033603FA
:102F5800360393013603360336033603A701B3015C
:102F6800BF01CB01D80136033603E401F001FC01AF
:102F7800080214023603360320022C0238024B02E0
:102F880036033603570263026F027B028702360359
:102F98003603360336033603360336033603360361
:102FA8003603360336033603360336033603360351
:102FB80036033603AF02BB02360336033603CD02AF
:102FC8003603360336033603EA023603360336037E
:102FD8003603EA023603360336033603360336036E
:102FE800FC0208033603360336033603260336038A
:102FF800360336033603260308232B71B9F1000F75
:1030080005D140F213332B600120BDE8F8830FB1DE
:103018002B793B700B23B9F1010F2B710ED84FF4AC
:103028004573F0E700240FB12B793B550134337D0C
:103038002B714C4505D340F21533E4E70124F2E740
:1030480000240FB12B793B55013402234C452B71D9
:1030580003D340F21633D6E700240FB12B793B5542
:10306800013402234C452B7103D340F21733CAE7CE
:1030780000240FB12B793B55013402234C452B71A9
:1030880003D34FF44673BEE700240FB12B793B55A9
:103098000134737E2B714C4503D340F21933B2E7E8
:1030A80000240FB12B793B55013400234C452B717B
:1030B80003D340F21A33A6E700240FB12B793B550E
:1030C800104B002201341A700E4B1A7898F8003011
:1030D8009A4202D340F29A3395E70923A1452B710E
:1030E80003D840F221338EE700240FB12B793B55EA
:1030F800013404234C452B7109D340F2223382E773
:1031080079D10E00136D0020146D002000240FB13A
:103118002B793B559C4B30461978FFF79FFE9B4B0C
:10312800013418604C4503782B7103D340F22733E0
:1031380069E700240FB12B793B55013400234C4536
:103148002B7103D34FF44A735DE700240FB12B7939
:103158003B558E4B1B6801345B782B714C4503D370
:1031680040F229334FE700240FB12B793B55874BA9
:10317800327D1B681B789A4204F101041ED1022398
:103188004C452B7103D340F22D333CE700240FB19B
:103198002B793B55013402234C452B7103D340F264
:1031A8002E3330E700240FB12B793B550134737E61
:1031B8002B714C4525D340F22F3324E7B27D9A4238
:1031C8002AD10A234C452B7103D34FF44D731AE7C8
:1031D80000240FB12B793B55013400234C452B714A
:1031E80003D340F235330EE700240FB12B793B555A
:1031F800013400234C452B7103D340F2363302E7E8
:1032080000240FB12B793B5501340023A1452B71C4
:1032180009D840F23D33F6E65D4940F23A3001F014
:10322800FEFBF2E700240FB12B793B55574B327D5B
:103238001B681B789A4204F1010440F0FF800523C3
:103248004C452B7103D340F24233DCE600240FB126
:103258002B793B55013424234C452B7103D340F281
:103268004333D0E600240FB12B793B5501340023BA
:103278004C452B7103D34FF45173C4E600240FB1AE
:103288002B793B55013410234C452B7103D340F265
:103298004533B8E600240FB12B793B5501340120A2
:1032A8004C45287104D340F246332B60ADE6002428
:1032B8000FB12B793B55013405234C452B7103D3B2
:1032C80040F249339FE600240FB12B793B55013476
:1032D80024234C452B7103D340F24A3393E6002450
:1032E8000FB12B793B55013401204C45287103D38C
:1032F80040F24B33D9E700240FB12B793B55013409
:1033080003234C452B7103D34FF453737BE60024FE
:103318000FB12B793B550134B37D2B714C4503D349
:1033280040F24D336FE600240FB12B793B55013441
:1033380004234C452B7103D34FF4547363E60024E4
:103348000FB12B793B55013424234C452B7103D302
:1033580040F2513357E600240FB12B793B55013425
:1033680002234C452B7103D340F252334BE6002421
:103378000FB12B793B55013402234C452B710AD3ED
:1033880040F253333FE600BF136D0020186D002054
:1033980079D10E0000240FB12B793B550134052358
:1033A8004C452B7103D340F256332CE600240FB161
:1033B8002B793B55013424234C452B7103D340F220
:1033C800573320E600240FB12B793B5501340623EF
:1033D8004C452B7103D34FF4567314E600240FB1F8
:1033E8002B793B550134337D2B714C4503D340F287
:1033F800593308E600240FB12B793B550134B37DCE
:103408002B714C4503D340F25A33FCE500240FB12D
:103418002B793B550134564B1B685A78554B1A701B
:10342800554B00221A70544B1A78524B1B789A420B
:103438000DD3524A13780133137045E6B27D9A4290
:10344800E9D04F4940F2633001F0E9FAE3E7072396
:10345800A1452B7103D840F26E33D4E500240FB197
:103468002B793B55013405234C452B7103D340F28E
:103478006F33C8E500240FB12B793B553E4B1978C3
:103488003B4B1868FFF7FEFC013403782B714C4561
:1034980003D340F27333B6E500240FB12B793B55C3
:1034A800334B327D1B681B789A4204F1010406D124
:1034B80003234C452B710DD34FF45E73A3E5B27D06
:1034C8009A4212D102234C452B7103D340F27D332B
:1034D80099E500240FB12B793B5501344023A145D0
:1034E8002B7109D84FF461738DE5254940F281307D
:1034F80001F095FAF2E700240FB12B793B5501341E
:1035080000234C452B7103D340F285337BE500241F
:103518000FB12B793B55164B327D1B681B789A42AD
:1035280004F1010407D1336A4C451B782B710DD384
:1035380040F28A3367E5B27D9A4210D100234C45A8
:103548002B7103D340F28F335DE500240FB12B7943
:103558003B550134084A13780133137063E708496F
:1035680040F2933001F05BFAF4E7002028604CE564
:10357800186D0020126D0020156D0020136D0020BD
:1035880079D10E0010B5044618B906495F2001F03C
:1035980046FA23681BB90349602001F040FA206805
:1035A8000C3010BD79D10E000149522001F037BA14
:1035B80079D10E0013B5044618B90191FFF7F4FF4D
:1035C8000199E36923B1204602B0BDE810401847CD
:1035D80002B010BD10B5044608B9FFF7E5FF204654
:1035E800FFF7D0FF0023C0E91B33C0E91D338382F6
:1035F8008361036200F12803836610BD10B5044699
:1036080070B90846FFF7BEFF0378202B0AD1D0F81F
:103618000230C360C3880382037A8374204610BDD6
:103628000320FCE70620FAE72DE9F0470E4688B0AC
:10363800054620B9A14940F2DD2001F0F0F926B98C
:103648009E4940F2DE2001F0EAF933780E2B20D8AB
:10365800DFE813F079006201790079001F000F009C
:10366800C5001F001F005E011F0079007900790066
:10367800790025B991494FF4E47001F0D0F97278D6
:10368800D1094FEA521342D013F0030306D0012B9D
:1036980028D00624204608B0BDE8F08702F01F02B3
:1036A800012AF6D1B478062CF3D105A8039300F0CB
:1036B80025FD03AB0093F278317903460746284687
:1036C800FEF7AAFF0528E5D0039B3F2B03D97B49CA
:1036D800C92001F0A4F9039A3946701C00F070FA69
:1036E8000446D7E70DB9FFF75FFF2846FFF74AFF03
:1036F800B378212BCDD1B6F80720072AC9D100F11C
:103708000C01701C08B0BDE8F04700F059BA012B55
:10371800BFD10DB9FFF748FF2846FFF733FFB3784D
:10372800202B074611D0222BB3D1B6F80730002B37
:10373800AFD1828AB6F80330838202F0010203F027
:1037480001018A4229D10024A4E7B6F80730072BE3
:103758009FD10DB9FFF728FF2846FFF713FFB3786D
:103768000370B6F80730DBB243700230CDE90503C9
:103778000020079000F05AFD05A90020FFF75AF92C
:10378800044630B94E4B03A9CDE9033500F006FADB
:103798000446002000F05AFD7CE78CB2C1F1030119
:1037A800C9B22846FFF706FF002CCCD101212846D4
:1037B800FFF754FB2146FFF765FB007803F07AFC1E
:1037C8002846FFF773FB03F075FC07F12803C7E9E8
:1037D8001B44C7E91D44BC613C62BB665AE7002133
:1037E8002846FFF73BFB0021FFF74CFBB378027834
:1037F8009A42A8D01B06F47809D51CB1032CA2D094
:10380800032447E701212846FFF7D4FE42E704F0E6
:10381800FD03012B97D0002CF2D10DB9FFF7C4FEA0
:103828002846FFF7AFFE06462846FFF73FFB254B25
:10383800F469CDE905368046ACB9336FF466C6E95C
:103848001C43336A63B1D6E9080106F1180383E81B
:103858000300346205A94046FFF702F9044600E078
:10386800B4610021CFE7D6F878A0B069544528BFE5
:10387800544606F128072246394608F0BFFC336F44
:1038880023447367AAEB0403F366336A4FF0000915
:103898003C44C6F87090B4665BB306F1180406F1B0
:1038A800200797E8030084E80300F36EB069C6F8C0
:1038B80020904BB9B369002BCCD11BE079D10E0015
:1038C80005360E00352E0E00F269B16E9A4213D8F5
:1038D80008F094FCF369F26E7367D21AF266B26E5E
:1038E8001A44B26600212846FFF764FE336A002BAB
:1038F800D7D1B3610024B4E71A4608F07FFCF26E12
:10390800F36932679B1AF361B3691344B361D1E772
:1039180003212846FFF74EFE2846FFF75BFE12E715
:103928007FB5144606460D46FFF72CFE838ADA0754
:1039380013D501213046FFF791FA0021FFF7A2FACB
:10394800A30600780CBF0123002301A9CDE9015487
:103958000393FFF76FF804B070BD0820FBE7000081
:103968002DE9F341804616460F4621B9284940F211
:10397800D73001F054F84046FFF704FE838ADB078E
:10398800044643D5002000F051FCA569002D35D12F
:10399800E36EB34212D3A16E3246384608F02EFCCD
:1039A800E36E66679B1BE366A36E3344A366002041
:1039B80000F04CFC284602B0BDE8F081C4E9067668
:1039C8004046FFF773FA134BE26ECDE90034064622
:1039D80062B1A16EA06908F011FCE36EE269D21A27
:1039E800E261A269C4E91B531A44A26169463046E0
:1039F800FFF736F8051E08BF9225D8E7236A1BB9DA
:103A0800C4E908769225D2E71125D0E70825D1E741
:103A180079D10E00352E0E000020704710B50446EF
:103A280020B9044940F2432000F0F9FF23681868E0
:103A380010BD00BFA5D00E002DE9F04F2DED028B73
:103A48004B6885B007460C4691466BB90868FFF786
:103A5800E5FF48B9A5683DB9C7E90055284605B04E
:103A6800BDEC028BBDE8F08FB9F1400F04D93549A0
:103A780040F2971000F0D3FF02F0ECFFE3680190EA
:103A88004B4528BF4B46984604F110034FF0000AF7
:103A980008EE103A56460125B8F1000F2DD0A3685C
:103AA800616843459B4628BFC34651B3019B5A46AC
:103AB800981908F0A3FB00236360A368E268A3EBEE
:103AC8000B03A2EB0B02A360E260A8EB0B085E44B9
:103AD80033B9BAF1000F03D02068FFF79FFF2060C9
:103AE800E368002B2CD0A368002BD5D12268BAB983
:103AF800626016B1B14588BF0025019BC7E9003651
:103B0800ACE7002BD9D02168019A4B6818EE100A4F
:103B1800D3F804A032445B46D0474FF0010ACCE703
:103B2800029321684B680022D3F804B002A801234D
:103B3800D84708B92061AFE7A3680133A360F0E76D
:103B48001D46A9E714D20E00084B1A7882420CD001
:103B5800052818BF064A187018BF137805481CBFF7
:103B680023F002031370FFF71DB87047286D00207B
:103B7800446D0020A0D20E0008B50020FEF7E2FE3A
:103B8800BDE808408020FEF7DDBE08B50020FEF73E
:103B9800E7FEBDE808408020FEF7E2BE38B50546DE
:103BA8000C4603F0ADF9A84205BFD4E90001034B68
:103BB8001020C3E9000108BF002038BD486D00206F
:103BC8007FB5C38893421E4628BF164693420D46CA
:103BD800144620D9802002F05DFEB4FBF0F202FB0F
:103BE8001044B4FA84F4640900200394CDE9015622
:103BF80000F01CFB01A98020FEF71CFF044620B939
:103C080006498020FFF7CAFF0446002000F01EFB8B
:103C1800204604B070BD0024E6E700BFD4D20E00F1
:103C28002DE9F04F0B780E2B89B004460D4613D8BA
:103C3800A3B1013B0D2B11D8DFE813F012002400CB
:103C4800160010003500340210001000100010009B
:103C58000902140221022902852B1ED0062418E02D
:103C68000320FFF771FFF9E7A34800F0C5FF30B163
:103C7800A24B0122DA65BFF36F8FBFF34F8FA04BC2
:103C88001C780CB1002404E09E4940F2424000F048
:103C9800C6FE204609B0BDE8F08F994B1B78032B70
:103CA800DCD10420DDE705230DF115008DF8143073
:103CB80003F0BAF89DF81570934D002307F01F071D
:103CC8002B60032F00F28181DFE817F004002E013A
:103CD8007601D10024B98B494FF45A7000F09FFE49
:103CE8009DF8152012F0600FC2F3411140F0BF801B
:103CF800D2099DF8163000F0AB80062B11D0082BA6
:103D080000F09980002B40F0B28080494B70804BC6
:103D18000A701B78980744BF03230B7002227B4963
:103D28000FE09DF81830022B11D0032B75D0012B12
:103D380040F09D80BDF81B30002B00F0AC80754929
:103D480012220DF11500FFF73BFF04463BE0BDF8DA
:103D58001B30002B00F09F80092B28BF09239846B1
:103D6800FEF700FEDFF89CA106464FF009097EBB6E
:103D7800664C69494246204608F040FA2771A4F883
:103D88000290FEF7D7FD18B1E37943F02003E37101
:103D9800FEF7E8FD614BC3E90004C3F80880BDF8ED
:103DA8001B20DA60002000F041FA5D498020FEF710
:103DB80057FE044620B95B498020FFF7EFFE044612
:103DC800002000F043FA062C51D0002C63D05AE0B2
:103DD800736823B9514640F2D12000F020FE736881
:103DE8005B6823B9514640F2D22000F018FE002447
:103DF800039473680022D3F804B03146012303A862
:103E0800D84740B9337A30461F44FFF707FEA1442C
:103E1800FFB20646ABE70134EBE7BDF81B30002BD9
:103E280039D0BDF819109DF8170000F0C1F9014606
:103E3800E8B1027885E7324B1B78052B03D1334B69
:103E48001A7001226BE7042B11D1304B1970F8E777
:103E5800013B082B0BD8DFE803F02B0A0E0A050AF2
:103E68000A0A380027494FF4637000F0D8FD05A806
:103E7800FEF7CCFD9EE0BDF81730012BF7D1FEF719
:103E880059FD18B90F2403F031F802E7204A1378D6
:103E980043F0020313702C68002C00F0228103F019
:103EA8002FF8044600287FF4EDAE02F0DFFFF0E6BD
:103EB800BDF81730012BDAD1FEF73CFD0028E1D020
:103EC800134A137823F00203E4E70D4B1B78043BF5
:103ED800012B01D90824D6E79DF817302BB9FEF736
:103EE8004BFE0420FFF730FED5E7012B5BD1FEF730
:103EF80023FE0520F6E700BF506D00200070024049
:103F0800286D002014D20E00486D0020546D00204A
:103F1800446D0020C0D20E00A1D20E002C6D0020EE
:103F2800DCD20E00D4D20E009DF8190003A9FEF7CA
:103F38001FFD074608B91024A5E79DF80C1005AA2F
:103F4800FEF73AFD062804467FF43FAF9DF815209A
:103F580012F0600F97D1654B9DF80C101E789DF8F4
:103F68001630D20916D07BB10A2B8CD1052EB1D1CF
:103F780038460192FEF7DAFD5D49019A08700DF1A5
:103F88001500FFF71DFE15E0052EA3D158490B803B
:103F98000222F4E70B2B7FF476AF052E9AD1BDF8F9
:103FA8001730FF2B01D907246DE79DF817203846F5
:103FB800FEF76CFD044608E79DF81900020706D1D4
:103FC8009DF8153013F0600F09D006245BE705A9AA
:103FD800FEF7F5FC062804467FF4F7AEF0E79DF8F7
:103FE8001620424B9DF819401B78012A1DD0032A40
:103FF8000CD0002AE9D1052B02D023077FF46AAF41
:10400800204602F0CFFE3A490880C1E72707DCD4F2
:10401800BDF81720002AD8D12607D6D0052B7FF463
:1040280059AF204602F0A4FE35E72007CDD4BDF8ED
:104038001720002AC9D12107C7D0052B7FF44AAF22
:10404800204602F0CDFE204603F0DEF923E7274B99
:104058001B78002B3FF416AE264940F2564000F07C
:10406800DEFC0FE6214B1B78012B04D0214940F2DE
:104078005C4000F0D4FC0020FFF766FD02E64FF03C
:104088008043D3F83834DA070AD50220F4E7174B0F
:104098001B78012B04D817494FF48E6000F0BFFC41
:1040A8000120E9E7CB78032B3FF4D8AD8B785B068A
:1040B80004D0104940F27E4000F0B1FC0E4E336847
:1040C80093B100227168E878326098470446002866
:1040D8007FF4D9AE336823B1AB78002B7FF4D2AD2F
:1040E800E3E602F0F9FED4E50E24CCE6286D0020C4
:1040F800546D002014D20E00486D002008B14023F2
:1041080003600148704700BF546D002070B54FF040
:10411800805286B0D2F8A830D2F8A42000926FEA74
:1041280083436FEA93430B4A0B4E9BB20D2102A8BF
:1041380008F03AF802AD002402A808F0DDF884423D
:1041480001D306B070BD15F8013B06F8013B0134F8
:10415800F2E700BFE4D20E00946D0020F8B5124BD0
:1041680053F820502B7813B9AE1C3046F8BD002008
:10417800FFF7C4FF0D4F0646013D002315F8012F38
:104188005C1C2AB96400E4B244F440743480ECE75F
:104198001E2B03D93946FC2000F041FCE3B22A78F3
:1041A80026F81320EAE700BFB0D30E00EDD20E00C8
:1041B800034608B9FFF7D2BF012807D0022805D067
:1041C800032803D0042801D0052809D1054800EBAD
:1041D8004303587820B1044B53F82030002BE9D121
:1041E80000207047C8D30E00B0D30E0072B6024A42
:1041F8001368013313607047A46D0020034A1368E5
:10420800013B136003B962B6704700BFA46D00207C
:10421800EFF30583C3F308032BB9EFF31480C0430E
:1042280000F00100704701207047000008B5FFF753
:10423800EFFF012803D00449432000F0F0FBBDE85C
:104248000840FFF7D3BF00BFD4D30E0008B5FFF76F
:10425800DFFF012803D00449512000F0E0FBBDE84E
:104268000840FFF7CBBF00BFD4D30E00EFF30583A0
:10427800C3F308038BB1103B5AB2002AABBF02F15B
:104288006043074A03F5614303F00F03ACBF93F89B
:104298000003D05C4009C0B270470F20704700BFD0
:1042A80014ED00E030B53AB11368DB430A4D014420
:1042B800814204D1D84330BD4FF0FF33F6E710F800
:1042C800012B5340082213F0010418BF2C46013A71
:1042D80084EA5303F7D1EBE72083B8ED38B50C46F1
:1042E800054618B90449B32000F099FB2B68C3F8B8
:1042F8004843C3F8084338BD46D40E0070B50C4691
:104308001646054618B90549A92000F088FB2B6810
:10431800C3F844430EB1C3F8044370BD46D40E003D
:1043280037B50C46054618B90749BA2000F077FB9F
:104338002B68185928B100221A511B590193019B67
:10434800012003B030BD00BF46D40E002DE9F8436C
:104358000F461546044618B93249552000F05FFB50
:104368001FB93049562000F05AFB1DB92D49572076
:1043780000F055FB63792C4ADFF8D08042F82350CF
:104388002A4E2B4A08EBC303B61A1B79F6083604E3
:104398003BB146F002002749FCF7A0FC0820BDE825
:1043A800F8833D88D4F80090B5F5805F04D322499E
:1043B8004FF4BE7000F033FBC9F80855BF7894F984
:1043C8000450072F03D91D496B2000F028FB002D4E
:1043D800B6BF1B4B05F1604505F00F054FEA4717BF
:1043E800FFB2AABF05F561455F5585F8007394F9DA
:1043F8000430002B08DB0122590903F01F0302FADD
:1044080003F3104A42F82130637908EBC302012113
:10441800117146F003000C4948F83340FCF75EFC84
:104428000020BCE746D40E00B06D0020ACC90E00D9
:104438007CC90E00AFD40E00D1D40E00FBD40E0000
:1044480014ED00E000E100E027D50E00A86D002083
:1044580010B5044618B90449872000F0E0FA23682B
:1044680001221A6010BD00BF46D40E0010B50446E4
:1044780018B904498D2000F0D2FA236801225A6045
:1044880010BD00BF46D40E002DE9F3410C46164678
:104498001F46804618B91249962000F0C0FA04F168
:1044A80050018900D8F8002089B24FF48035A54022
:1044B8000023C2F80853C2F84853535004F5A874AF
:1044C8005358019326F07F46019B42F82460C2F8B6
:1044D80044530FB1C2F8045302B0BDE8F08100BFE5
:1044E80046D40E002DE9F74F0D4614469846074668
:1044F80018B93949CD2000F092FA4FF4803909FAF9
:1045080005F949463846FFF7E9FE3A6805F15006CD
:1045180002EB8500B600B6B2D2F80415D0F84035E3
:10452800C0F840154FF0000B42F806B05B1A9259DC
:10453800009223F07F43012B009A24F07F444FEA36
:10454800850A0BD1254B4FF4806043F0010398474F
:104558003B6843F806B09B590193019B3868D0F833
:104568000465C0F84493A31B23F07F43012B1AD1A1
:104578001A4B05F5A875013440F8254043F00103AE
:104588004FF4806098473B68D3F804359E4208D1C1
:10459800384601224946FFF7B1FE002003B0BDE8C6
:1045A800F08F0D20FAE700EB0A03621EC3F84045BE
:1045B800D0F80415C8F1FF18521A22F07F4208F506
:1045C8007F489045EDD3002AE2D10134C3F8404535
:1045D800D0F804359942DAE746D40E0040D50E00EB
:1045E8000A460221FFF78ABE4FF48271FFF798BE90
:1045F8004FF4803303FA01F1FFF770BE50318900A0
:1046080089B2FFF78DBE036801F5A87153F8210040
:1046180070470368D3F804057047000090F9043028
:10462800002B09DB5A09012103F01F0301FA03F3E8
:104638004032024941F82230704700BF00E100E0F3
:10464800024B034A1B681068184700BFB06D002072
:10465800A86D002038B51A4CA3781BB91949502009
:1046680000F0DDF9184A1368002B25DC6078A38870
:10467800E17BB0B1607B451A9D4207DC0023637083
:104688006369A08003B10533136001E00B44A38084
:1046980021790E4800F0BCF980B1BDE8384003F03C
:1046A8004BB8A07B45189D4204DB01236370A080B2
:1046B8002369E7E75B1AEAE7FF3BE5E738BD00BF98
:1046C800B46D002046D50E00086E0020E46D002071
:1046D800F8B5294DAB7804461BB12849812000F074
:1046E8009EF91CB92549822000F099F96378002BBE
:1046F8003FD0A2789A423CD2E378002B39D0E368C5
:10470800002B36D054221C48002107F0A0FD1C4A7B
:10471800234604F1100718685968164603C608337B
:10472800BB423246F7D118683060E278A378154961
:104738001344AB80E368AB60AB6223692A7B6B628E
:10474800FF23012685F8202085F821300E4A0F4BDB
:104758006E7001F11000EB6200F0B4F850B9AE7061
:10476800A178E3780A481944C9B2BDE8F84000F0D6
:104778004FB90720F8BD00BFB46D002046D50E0024
:10478800C06D0020D46D00205D460E00C0D50E001F
:10479800E46D002010B5074B9B78012B044603D02D
:1047A8000549B12000F03BF921460448BDE8104016
:1047B80000F0F2B8B46D002046D50E00E46D00207C
:1047C800014800F00DB900BFE46D002038B5054D73
:1047D800AB7804461BB90449C52000F020F92C61C8
:1047E80038BD00BFB46D002046D50E0038B5054D64
:1047F800AB7804461BB90449CD2000F010F96C6170
:1048080038BD00BFB46D002046D50E000178036A9C
:10481800C26821B1C3F80C25002343707047C3F860
:104828000825F9E738B5037D0446002B3FD1836995
:10483800DBB9E378A2789A421FD12078236AE1682D
:10484800C0B1C3F8081501230532637022612379CA
:10485800022B0ED1E369216918682246FDF75CFC3A
:1048680038B1BDE8384002F067BF98472379022B7A
:10487800DFD038BDC3F80C15E5E733B92046FFF79C
:10488800C5FFA37805332361E1E72578216AE0684D
:1048980055B1C1F8080513FB02F31B1201210533BA
:1048A800617023612175D2E7C1F80C05F3E7FFF7C2
:1048B800ADFF002382780375C378D31A53431B12C4
:1048C800E0E700002DE9F047037905460C46164657
:1048D8001BB12D499D2000F0A2F8A3681BB92A49F5
:1048E8009E2000F09CF863681BB927499F2000F0C0
:1048F80096F863781BB92449A02000F090F8AE61BF
:10490800A66823782B70C5E9026663682B62637812
:10491800AB70E0681D4AE8610021FDF7DBFB68B970
:10492800DFF86C80DFF86CA004464FF003093EB94D
:104938002846FFF76BFF01232B713046BDE8F0874F
:10494800F1071AD563091BD0012B4FF6FF7318BF67
:10495800002304F01F07FB40DA0704D451464FF444
:10496800F67000F05CF8202C3ABF27464FF0A043C1
:10497800434607F5E07743F8279001347608D6E7F1
:104988004FF0FF33E5E700BFC4D50E002D480E00F9
:104998000003005030CE0E0070B5037904460D4672
:1049A8001BB90E49CD2000F03AF8A3681D4203D187
:1049B8000A49CE2000F033F8022320462371E5602F
:1049C800FFF724FFA168A66929430025A160257582
:1049D800A561FFF727FFA661284670BDC4D50E0064
:1049E80038B50379022B044603D00849E32000F0C8
:1049F80016F8E3691868FDF7C1FB05462046FFF77E
:104A080005FF0DB901232371284638BDC4D50E0012
:104A180083788B4226BFC17000200720704707B5F6
:104A2800CDE900016A46002144F2020002F06EFE60
:104A380003B05DF804FB10B561B1B2FBF3F403FBFE
:104A48001424A4B244B9C0E9001484608281C381EB
:104A5800204610BD0E20FCE70920FAE737B550E8DC
:104A6800013F9DB2C48925448489A54228BF2D1BD6
:104A78000489A54202BFBFF32F8F002207E0C5EAD1
:104A8800030540E80154002CE9D14FF001028DF8EC
:104A980003200193019A0A609DF8031001F0FF03B7
:104AA80021B1006810FA82F003B030BD1846FBE768
:104AB8000A884B889A4209D150E8012FC2EA02427B
:104AC80040E80123002BF7D10120704700207047F0
:104AD80037B550E8023F1FFAA3F5C488A54202BFC4
:104AE800BFF32F8F00220DE0C48925448489A54295
:104AF80028BF2D1BC3EA054540E80254002CE8D125
:104B08004FF001028DF803200193019A0A609DF885
:104B1800031001F0FF0321B1006800EB124003B05D
:104B280030BD1846FBE70A884B889A4209D150E8FD
:104B3800022FC2EA224240E80223002BF7D10120CB
:104B480070470020704710B5034653E8000F0A4627
:104B580043E8002494F0000FF7D110BD10B50346C8
:104B680053E8000F40EA010243E8002494F0000FE4
:104B7800F6D110BD10B5034653E8002F42EA0100F4
:104B880043E8000494F0000FF6D110BD10B50346B9
:104B980053E8000F00EA010243E8002494F0000FF4
:104BA800F6D110BD10B5034653E8002F02EA010004
:104BB80043E8000494F0000FF6D110BD10B5034689
:104BC80053E8002F02EB010043E8000494F0000FC3
:104BD800F6D110BD10B5034653E8002FA2EB010033
:104BE80043E8000494F0000FF6D110BD0121FFF74F
:104BF800B5BF0121FFF7BEBF0021FFF7C7BF0021E6
:104C0800FFF7D0BF10B50446002834D003681BB99D
:104C18001A49FF20FFF703FF636823B917494FF4C8
:104C28008070FFF7FCFEA36823B9144940F2011015
:104C3800FFF7F5FEE36823B910494FF48170FFF7D9
:104C4800EEFE238A23B90D4940F20310FFF7E7FE71
:104C5800D4E9012321689B1ADBB20A60013BDBB26D
:104C6800FF2B226802D10020107110BD1168481C6A
:104C780010600B70F2E70E20F7E700BF44D60E0075
:104C880038B5044620B911494FF49270FFF7C7FEB2
:104C98000020FFF7CBFA226863681168994213D99C
:104CA800481E106011F8013CE568218A01FB035594
:104CB800A36811791B1ADBB2994200D21371002044
:104CC800FFF7C4FA284638BD0025F8E744D60E0099
:104CD80038B50C46054620B90E4940F24710FFF793
:104CE8009EFE24B90B494FF4A470FFF798FE0020EC
:104CF800FFF79CFA2A681368591C1160E968641A5E
:104D0800298AB4FBF1F41C70BDE838400020FFF795
:104D18009DBA00BF44D60E0010B5044618B906491E
:104D28003120FFF77CFEA2682AB1636921682069F7
:104D380098470023A36010BDB1D60E000EB433B55A
:104D4800059D044618B911494220FFF768FE6369BA
:104D58001BB90E494320FFF762FE23681BB90B49B4
:104D68004420FFF75CFE63681BB908494520FFF73C
:104D780056FE35B106AB01AA29462046019300F03C
:104D880079F802B0BDE8304003B07047B1D60E00E4
:104D98000A2938B504460D4602D10D21FFF7F8FF60
:104DA800A3682268591CA160D554D4E901329A42FB
:104DB80004D32046BDE83840FFF7AEBF38BD000039
:104DC8002DE9F84F9846DDE90A43154682460F4615
:104DD8000A464FF00109AA420FD2C14538BFC14661
:104DE80013F0010B01D16CB900240126B8F1010FB1
:104DF8001BD908F1FF386E43F8E709F10109B2FB46
:104E0800F5F2E8E79B070ED5B8F1000F0CBF302686
:104E18002026A145E9D2013C31465046FFF7B8FFAC
:104E2800002CF6D1E0E72026F3E7B7FBF6F39D4226
:104E3800E1D9DFF83C80B7FBF6F3504618F80310C9
:104E480006FB1377FFF7A4FF3346AB42B6FBF5F634
:104E5800F1D2BBF1000F02D00CB1A14501D3BDE8DE
:104E6800F88F20215046013CFFF792FFF4E700BF7E
:104E78007ED70E002DE9F74F88461746054620B91C
:104E8800AF4940F25220FFF7CAFD6B6923B9AC491C
:104E98004FF41570FFF7C3FD2B6823B9A84940F2FA
:104EA8005520FFF7BCFD6B6823B9A54940F2562091
:104EB800FFF7B5FDB8F1000F00F03E8118F8011BAF
:104EC80049B92B7B002B00F03781284603B0BDE899
:104ED800F04FFFF721BF252940F0B780002698F84A
:104EE80000302D2B424608F1010823D0302B24D066
:104EF8002B2B25D000242A2B02F1010123D13B685A
:104F08001A1D1B683A601C440A4613782E2B26D1BA
:104F180001324FF0000A104610F8011BA1F1300CC5
:104F2800BCF1090F1DD80A2303FB0A13A3F1300AA9
:104F38000246F0E746F00106D1E746F00206CEE762
:104F480046F00406CBE711F8013CA3F1300009282C
:104F5800DBD80A2202FB0434303C0A46CBE74FF088
:104F6800000A12F8011B01F0FB0068289046F8D0EF
:104F7800782909D86F290CD8632962D022D8252925
:104F880063D0582900F0888098F80030002B95D11C
:104F980097E770390829F7D801A353F821F000BF23
:104FA8001B510E00914F0E00914F0E00B1500E0094
:104FB800914F0E008F500E00914F0E00914F0E0032
:104FC800A1500E00642901D06929DDD13A68D2F8D0
:104FD8000090111D89EAE9723960A2EBE9724FF07D
:104FE800010B092A35DCD34538BFD3462CB1B9F1BA
:104FF800000F01DB720700D5013CB30702D5BAF1F7
:10500800000F03D0F00701D44CBB0024B9F1000F06
:105018002DDAC9F100092D212846FFF7B9FE06F05F
:105028000302022A04D1BAF1000F01D11CBB0024EB
:10503800CDE9004653460A2249462846FFF7C0FEF6
:10504800A2E73B681A1D19783A602846FFF7A0FEC8
:105058009AE70A230BF1010BB2FBF3F2C1E7A34570
:10506800D4D220212846013CFFF792FECCE77107F5
:10507800D5D52B21D0E7A345DAD230212846013CEB
:10508800FFF786FED2E73968CDE900460A1D3A6087
:1050980053460A220968D0E739680A1D3A60CDE903
:1050A800004653461022F5E73B681A1D3A6016F091
:1050B8000106D3F8009024D1B9F1000F03D0484677
:1050C80007F01AF90646B4421DD809F1FF3919F854
:1050D800011F00293FF458AF2846FFF759FEF6E7AD
:1050E80028460136FFF754FE19F806100029F7D1B3
:1050F800A642BFF449AF20212846013CFFF748FEED
:10510800F6E70026F0E720212846013CFFF740FE9D
:10511800D9E73B681A1D3A60302128461C68FFF71A
:1051280037FE78212846FFF733FE00220823CDE911
:1051380000322146102280E703B0BDE8F08F00BF9F
:1051480014D70E0013B50B46114680B9104B114801
:10515800114AC01A0E23C0080093104B00041049CE
:1051680040F00100FBF7D1FD0E2002B010BD4BB995
:10517800074B08480B4AC01AC0080E2300930004C6
:10518800064BECE703601B6802B0BDE81040184707
:105198007CC90E001CCA0E008ED70E004AD90E001C
:1051A80093D70E00C2D70E002DE9F743DDF828800B
:1051B80088B93E4B3E483F4AC01AC0080E243E4BB1
:1051C800009400043D4940F00100FBF79EFD204695
:1051D80003B0BDE8F0834AB9344B3548384AC01AA1
:1051E800C0080E24344B00940004EBE7D0F800E02C
:1051F800BEF1000F09D12D4B2D48324AC01AC00804
:1052080008242D4B00940004DCE74BB9274B2848B1
:105218002D4AC01AC0080924274B00940004D1E77E
:105228004568D5F80490B3FBF9F509FB15354DB180
:105238001E4B1F48254AC01AC00809241E4B00945B
:105248000004BFE78D0709D0184B1948204AC01A37
:10525800C0081024184B00940004B3E712F0030FA1
:1052680009D0124B12481B4AC01AC0081024124B0E
:1052780000940004A6E7C568A9420DD34D1EEC189A
:105288000569AC4208D8CDF82880DEF80C40A44661
:1052980003B0BDE8F0436047044B05480E4AC01A06
:1052A800C0081024044B009400048BE77CC90E004E
:1052B8001CCA0E008ED70E0037D90E0093D70E00E9
:1052C80010D80E00BCD70E00CFD70E0016D80E008F
:1052D80040D80E0058D80E007BD80E00F7B580B91C
:1052E8002A4B2B482B4AC01AC0080E242A4B00947C
:1052F80000042A4940F00100FBF707FD204603B0EF
:10530800F0BDD0F800C0BCF1000F09D11F4B2048F8
:10531800234AC01AC00808241F4B00940004E8E779
:105328004AB91A4B1A481F4AC01AC00809241A4B0E
:1053380000940004DDE74568D5F800E00EF1FF357C
:105348000D4209D0114B1248174AC01AC008102440
:10535800114B00940004CCE7C568A9420CD34D1E3C
:105368000EFB02540569AC4206D8DCF81040A4468E
:1053780003B0BDE8F0406047044B05480B4AC01A2B
:10538800C0081024044B00940004B2E77CC90E0046
:105398001CCA0E008ED70E0024D90E0093D70E001B
:1053A800BCD70E00CFD70E00A2D80E00C8D80E006A
:1053B80070B550B90E4D0F4C0026641B1423B4FB76
:1053C800F3F4B44208D1002010E00368002BF1D0B8
:1053D800BDE87040DB6918472B6813B901361435EE
:1053E800EFE7DB69284698470028F7D070BD00BF73
:1053F800080000201C000020014B4360002070477B
:105408005CD90E000846704700207047024B1868A8
:10541800003818BF012070470C6E002008B50248FC
:10542800FFF7EDFB002008BD0C6E002008B5104604
:105438001A4606F0E3FE002008BD00002DE9F04101
:10544800804686B011480F4616461D46FFF7CEFB2C
:105458000446C8B9AA083146384600F017FB0B487D
:10546800FFF7CDFBD8F8083053B101228DF80020A2
:105478000C9A0592CDE90147CDE90365684698473E
:10548800204606B0BDE8F0811124F9E70C6E002033
:105498002DE9F043814687B014480E4615469846D4
:1054A800FFF7A4FB0446F0B90746BD4215D10F48E3
:1054B800FFF7A5FBD9F808305BB102228DF8002070
:1054C8000022CDE90126CDE90325CDF814806846F0
:1054D8009847204607B0BDE8F08306EB073000F098
:1054E800A7FA0137E1E71124F3E700BF0C6E0020AB
:1054F8002DE9F74F99469DF830300093884693463A
:10550800064618B92349B620FFF789FAF288717957
:105518004A43043A4A4505D81E490192C420FFF778
:105528007EFA019ADBF80070B6F806A007EB0901CD
:10553800914209F1040488BFA2EB0907B4FBFAF50C
:10554800CBF800700AFB154445B9AAEB040BBB4520
:1055580028BFBB462FB903B0BDE8F08F3668013DC0
:10556800F2E7009B043408EB050034445A466BB15B
:105578002146A7EB0B0706F041FEBA455D443668A5
:10558800D3464FF0000428BFBB46E3E70146204658
:10559800EFE700BF88D90E00FFF734BBF8B54679AE
:1055A8000146721E0546002393422D6803D300244A
:1055B800A64202D8F8BD0133F6E70F682846FFF780
:1055C80087FB01343946F3E72DE9F843068ACD1CF9
:1055D8000746FFF755FB043E35440446B5FBF6F590
:1055E800F0B14FF48073EDB28380C680013D07604F
:1055F80081464FF00008A84512D23846FFF740FB15
:10560800064648B163790133637108F10108C9F8A6
:10561800000007608146EEE72046FFF7BFFF3446EB
:105628002046BDE8F88301210430FFF7C7BA10B55A
:10563800012104460430FFF7CDFAC0B220B9204654
:10564800BDE81040FFF7AABF10BD00001FB5144603
:1056580003920022009203AAFFF74AFF039BA3428A
:1056680003D00349F620FFF7DAF904B010BD00BFF4
:1056780088D90E001FB5144603920122009203AA8E
:10568800FFF736FF039BA34204D003494FF4807011
:10569800FFF7C5F904B010BD88D90E008368002251
:1056A8005A60C3E904229A60DA601A607047000001
:1056B80070B50C46064618B90A493A20FFF7AFF903
:1056C8001CB908493B20FFF7AAF97568286818B182
:1056D800B3682146984718B92B6823602C6070BDC1
:1056E8002D68F3E7F5D90E0010B5044618B9054939
:1056F8005120FFF794F96368186808B102681A60C6
:1057080010BD00BFF5D90E0010B5044618B90349FD
:105718005D20FFF784F96368186810BDF5D90E009D
:1057280038B50C46054618B90A496920FFF777F9D4
:105738001CB908496A20FFF772F96B68186820B12C
:10574800A04203D102681A60012038BD03460068F0
:10575800F5E700BFF5D90E0010B50D49A1F58C721B
:10576800914201D800200FE08C1AE30F03EBE40309
:105778005B1002EBC30452F83330834205D802D2DF
:1057880004F10802ECE7606810BD2146E8E700BFB5
:105798002CDF0E0008B5FFF7DFFF024B002808BF1B
:1057A800184608BD00DE0E00F0B578B371B36BB3D0
:1057B80000241C608E18DB274FF0DC0C4FF0DD0E48
:1057C8001A688E4202F1010400EB020504D11C6044
:1057D800C0232B700020F0BD0D78C02D05D0DB2D27
:1057E8000CD01C600C78845406E01C6087541A683E
:1057F800541C1C6000F802C00131E1E71C608554AC
:105808001A68541C1C6000F802E0F5E70E20E2E775
:1058180010B580B3D0E902239A422ED00378012B29
:105828000FD0022B21D053B9C02928D0DB2902D1AF
:105838000123037003E04368541C846099541120C9
:1058480006E0DC2905D0DD290AD0022303700B20ED
:1058580010BD511C43688160C02199540023E8E7BA
:10586800511C81604368DB21F7E7C029E7D1002399
:1058780003708360E3E70E20EAE70420E8E71846B0
:10588800E6E7000038B5074C051E04F1080318BF09
:105898001C4623682BB11A6822605B682846984723
:1058A800F7E738BD186E002020B9054B01225A7061
:1058B800FFF7E8BF012802D1014A9070F8E7704766
:1058C800106E0020014B1878704700BF106E002042
:1058D80038B50C4C23789BB90B486360A3602361EF
:1058E800E36000F009F9054600F01AF90123237076
:1058F800064BD3F800340BB10123A370284638BDFA
:105908008525F5E7106E0020B1580E000000014013
:1059180038B51B4C2378054623B91A4940F2331091
:10592800FFF77DF8637803F0FF00ABB115B16B6842
:10593800002098470020FEF779FC636800200133B7
:105948006360FEF783FC6368C3B9BDE838400D495E
:1059580040F24F10FFF763B8FEF768FC25B1A26864
:1059680013463BB92A60A5606368002BE5D100F0B7
:10597800F9F8E2E79D42F7D01B68F2E738BD00BFAF
:10598800106E00202CDF0E0038B50F4C237823B999
:105998000E494FF4AA70FFF742F8636823B90B4920
:1059A80040F25510FFF73BF80020FEF73FFC636814
:1059B800013B6360656815B900F0ECF86570BDE8F7
:1059C80038400020FEF742BC106E00202CDF0E008D
:1059D80010B5074C23784BB9064B002808BF18466A
:1059E80000F032F908B90123237010BD8520FCE7C7
:1059F800246E00209EDF0E0008B500F068F9BDE8AF
:105A0800084000F06BB907B50190FFF7F5FF019862
:105A180000F046F900F054F9002003B05DF804FBEB
:105A2800024AD2F80034002BFBD0704700E0014056
:105A38000A4908B50223C1F80435BFF36F8FBFF3D5
:105A48004F8FC1F80805FFF7EBFF0023C1F80435B5
:105A5800BFF36F8FBFF34F8F08BD00BF00E0014059
:105A680010B5094C0123C4F80435BFF36F8FBFF399
:105A78004F8F0160FFF7D4FF0023C4F80435BFF34C
:105A88006F8FBFF34F8F10BD00E0014070B50E4E11
:105A980001231546C6F80435BFF36F8FBFF34F8F48
:105AA8000024AC4207D10023C6F80435BFF36F8F3A
:105AB800BFF34F8F70BD51F8243040F82430FFF702
:105AC800AFFF0134EDE700BF00E0014010B5034629
